:02000002B0004C
:1040000000400B0026A40B00000006000D00050276
:084010000401D51700000000B7
:04401800AC9C0B0051
:10401C0081F0004102E000BF83F0004330B54FEA6D
:10402C0041044FEA430594EA050F08BF90EA020FDA
:10403C001FBF54EA000C55EA020C7FEA645C7FEA6D
:10404C00655C00F0E2804FEA5454D4EB5555B8BF90
:10405C006D420CDD2C4480EA020281EA030382EA01
:10406C00000083EA010180EA020281EA0303362D93
:10407C0088BF30BD11F0004F4FEA01314FF4801C66
:10408C004CEA113102D0404261EB410113F0004F78
:10409C004FEA03334CEA133302D0524263EB43032F
:1040AC0094EA050F00F0A780A4F10104D5F1200ECD
:1040BC000DDB02FA0EFC22FA05F2801841F1000128
:1040CC0003FA0EF2801843FA05F359410EE0A5F1FC
:1040DC0020050EF1200E012A03FA0EFC28BF4CF02D
:1040EC00020C43FA05F3C01851EBE37101F00045E3
:1040FC0007D54FF0000EDCF1000C7EEB00006EEBF0
:10410C000101B1F5801F1BD3B1F5001F0CD3490879
:10411C005FEA30004FEA3C0C04F101044FEA4452D0
:10412C0012F5800F80F09A80BCF1004F08BF5FEA57
:10413C00500C50F1000041EB045141EA050130BD37
:10414C005FEA4C0C404141EB0101013C28BFB1F549
:10415C00801FE9D291F0000F04BF01460020B1FA94
:10416C0081F308BF2033A3F10B03B3F120020CDA67
:10417C000C3208DD02F1140CC2F10C0201FA0CF045
:10418C0021FA02F10CE002F11402D8BFC2F1200CAA
:10419C0001FA02F120FA0CFCDCBF41EA0C01904060
:1041AC00E41AA2BF01EB0451294330BD6FEA0404A9
:1041BC001F3C1CDA0C340EDC04F11404C4F1200294
:1041CC0020FA04F001FA02F340EA030021FA04F3A6
:1041DC0045EA030130BDC4F10C04C4F1200220FAFD
:1041EC0002F001FA04F340EA0300294630BD21FA3B
:1041FC0004F0294630BD94F0000F83F4801306BF01
:10420C0081F480110134013D4EE77FEA645C18BFF4
:10421C007FEA655C29D094EA050F08BF90EA020F8B
:10422C0005D054EA000C04BF1946104630BD91EA83
:10423C00030F1EBF0021002030BD5FEA545C05D186
:10424C004000494128BF41F0004130BD14F58004C5
:10425C003CBF01F5801130BD01F0004545F0FE4139
:10426C0041F470014FF0000030BD7FEA645C1ABF6E
:10427C00194610467FEA655C1CBF0B46024650EAA5
:10428C00013406BF52EA033591EA030F41F40021D1
:10429C0030BD00BF90F0000F04BF0021704730B557
:1042AC004FF4806404F132044FF000054FF000012C
:1042BC0050E700BF90F0000F04BF0021704730B5ED
:1042CC004FF4806404F1320410F0004548BF4042C2
:1042DC004FF000013EE700BF42004FEAE2014FEA17
:1042EC0031014FEA02701FBF12F07F4393F07F4FF2
:1042FC0081F06051704732F07F4208BF704793F0F5
:10430C007F4F04BF41F40021704730B54FF4607407
:10431C0001F0004521F000411CE700BF50EA01020A
:10432C0008BF704730B54FF000050AE050EA0102B3
:10433C0008BF704730B511F0004502D5404261EB23
:10434C0041014FF4806404F132045FEA915C3FF464
:10435C00D8AE4FF003025FEADC0C18BF03325FEA01
:10436C00DC0C18BF033202EBDC02C2F1200300FAB2
:10437C0003FC20FA02F001FA03FE40EA0E0021FAD7
:10438C0002F11444BDE600BF70B54FF0FF0C4CF4C5
:10439C00E06C1CEA11541DBF1CEA135594EA0C0F77
:1043AC0095EA0C0F00F0DEF82C4481EA030621EAB2
:1043BC004C5123EA4C5350EA013518BF52EA0335ED
:1043CC0041F4801143F4801338D0A0FB02CE4FF09F
:1043DC000005E1FB02E506F00042E0FB03E54FF0CF
:1043EC000006E1FB03569CF0000F18BF4EF0010EC7
:1043FC00A4F1FF04B6F5007F64F5407404D25FEAC3
:10440C004E0E6D4146EB060642EAC62141EA555175
:10441C004FEAC52040EA5E504FEACE2EB4F1FD0CB7
:10442C0088BFBCF5E06F1ED8BEF1004F08BF5FEA35
:10443C00500E50F1000041EB045170BD06F00046E7
:10444C0046EA010140EA020081EA0301B4EB5C0494
:10445C00C2BFD4EB0C0541EA045170BD41F480118C
:10446C004FF0000E013C00F3AB8014F1360FDEBFB1
:10447C00002001F0004170BDC4F10004203C35DA8D
:10448C000C341BDC04F11404C4F1200500FA05F310
:10449C0020FA04F001FA05F240EA020001F00042B1
:1044AC0021F0004110EBD37021FA04F642EB060127
:1044BC005EEA430E08BF20EAD37070BDC4F10C0451
:1044CC00C4F1200500FA04F320FA05F001FA04F215
:1044DC0040EA020001F0004110EBD37041F1000101
:1044EC005EEA430E08BF20EAD37070BDC4F120050C
:1044FC0000FA05F24EEA020E20FA04F301FA05F274
:10450C0043EA020321FA04F001F0004121FA04F21B
:10451C0020EA020000EBD3705EEA430E08BF20EAEB
:10452C00D37070BD94F0000F0FD101F00046400025
:10453C0041EB010111F4801F08BF013CF7D041EAA7
:10454C00060195F0000F18BF704703F000465200AB
:10455C0043EB030313F4801F08BF013DF7D043EA7C
:10456C000603704794EA0C0F0CEA135518BF95EA32
:10457C000C0F0CD050EA410618BF52EA4306D1D1B9
:10458C0081EA030101F000414FF0000070BD50EAD8
:10459C00410606BF1046194652EA430619D094EA62
:1045AC000C0F02D150EA013613D195EA0C0F05D14C
:1045BC0052EA03361CBF104619460AD181EA0301A0
:1045CC0001F0004141F0FE4141F470014FF0000058
:1045DC0070BD41F0FE4141F4780170BD70B54FF0F3
:1045EC00FF0C4CF4E06C1CEA11541DBF1CEA135573
:1045FC0094EA0C0F95EA0C0F00F0A7F8A4EB050455
:10460C0081EA030E52EA03354FEA013100F088804B
:10461C004FEA03334FF0805545EA131343EA126314
:10462C004FEA022245EA111545EA10654FEA0026C9
:10463C000EF000419D4208BF964244F1FD0404F582
:10464C00407402D25B084FEA3202B61A65EB0305DE
:10465C005B084FEA32024FF480104FF4002CB6EB9B
:10466C00020E75EB030E22BFB61A754640EA0C001B
:10467C005B084FEA3202B6EB020E75EB030E22BF5B
:10468C00B61A754640EA5C005B084FEA3202B6EB9C
:10469C00020E75EB030E22BFB61A754640EA9C005B
:1046AC005B084FEA3202B6EB020E75EB030E22BF2B
:1046BC00B61A754640EADC0055EA060E18D04FEAE9
:1046CC00051545EA16754FEA06164FEAC30343EA89
:1046DC0052734FEAC2025FEA1C1CC0D111F4801F56
:1046EC000BD141EA00014FF000004FF0004CB6E74F
:1046FC0011F4801F04BF01430020B4F1FD0C88BFEE
:10470C00BCF5E06F3FF6AFAEB5EB030C04BFB6EBF8
:10471C00020C5FEA500C50F1000041EB045170BDEB
:10472C000EF0004E4EEA113114EB5C04C2BFD4EB18
:10473C000C0541EA045170BD41F480114FF0000E9C
:10474C00013C90E645EA060E8DE60CEA135594EA18
:10475C000C0F08BF95EA0C0F3FF43BAF94EA0C0F1B
:10476C000AD150EA01347FF434AF95EA0C0F7FF490
:10477C0025AF104619462CE795EA0C0F06D152EAE4
:10478C0003353FF4FDAE1046194622E750EA4106C8
:10479C0018BF52EA43067FF4C5AE50EA41047FF4D9
:1047AC000DAF52EA43057FF4EBAE12E74FEA41023C
:1047BC00B2F1E04324BFB3F5001CDCF1FE5C0DD973
:1047CC0001F0004C4FEAC0024CEA5070B2F1004FBD
:1047DC0040EB830008BF20F00100704711F0804FC0
:1047EC0021D113F13872BCBF01F00040704741F485
:1047FC0080114FEA5252C2F11802C2F1200C10FA89
:10480C000CF320FA02F018BF40F001004FEAC1236C
:10481C004FEAD32303FA0CFC40EA0C0023FA02F310
:10482C004FEA4303CCE77FEA625307D150EA0133E6
:10483C001EBF4FF0FE4040F44000704701F00040B6
:10484C0040F0FE4040F40000704700BF10F8012B10
:10485C0011F8013B012A28BF9A42F7D0D01A7047B1
:10486C00034613F8012B002AFBD1181A01387047A4
:10487C0009480A49884208B505D0094A824202D043
:10488C00121A05F057F80748074A0021121A05F0CA
:10489C0079F8014808BD00BF40DD032080A30B0060
:1048AC00B8DD0320B8DD0320FCE7032070B5074E0C
:1048BC00074C03F01DFFA41BA4080025AC4200D13B
:1048CC0070BD56F8043B98470135F7E738A30B0049
:1048DC005CA30B0000F018B908B500F06DF9BDE849
:1048EC00084003F0BDBE02F045BA02F043BA02F034
:1048FC0049BA000008B5034A03490C2002F00AF932
:10490C00FEE700BF01680B00C09C0B000078B0FAFA
:10491C0080F040097047012303707047704770475F
:10492C00037C13F008031EBFC36A406A1B1A002BDA
:10493C00ACBF18466FF0004070477047103001F064
:10494C0041B9103001F05FB807B501220DF1070134
:10495C00103000F0AAFF01280CBF9DF807004FF0A3
:10496C00FF3003B05DF804FB103001F0B5B907B5AA
:10497C0001228DF8071010300DF1070101F0ACF990
:10498C0003B05DF804FB10B510210446FFF7AFFF30
:10499C00204610BD10B534210446FFF7A8FF204671
:1049AC0010BD00000A4B10B50446036002F0DEFE99
:1049BC00214603F028F904F03FFA04F031FA2046BE
:1049CC00044B40F8043B02F0A7FF204610BD00BF8B
:1049DC00889E0B00709E0B0010B50446FFF7E2FF9B
:1049EC0020462421FFF783FF204610BD0EB403B5EB
:1049FC0003AB002153F8042B019302F0FEFC02B030
:104A0C005DF804EB03B0704773B504460846227991
:104A1C00A36832B1A3B90B4902B0BDE8704002F0F3
:104A2C00BBBC094A267B094D0949647B012E18BF82
:104A3C002946CDE900140749FFF7D8FF02B070BD35
:104A4C00054AEFE7E69C0B00BB9F0B00E29C0B00BA
:104A5C00DE9C0B00FC9C0B00D59C0B000EB400B52F
:104A6C008CB00DAA4FF0200C52F8041B0392CDE928
:104A7C0000120023016804AA1E20CDE904C302F031
:104A8C0059F80CB05DF804EB03B0704730B585B045
:104A9C001B4B009313798DF804309368029300F547
:104AAC008C659389ADF80C3004460A466B4600F2CF
:104ABC006C41284601F04CFC10B9002005B030BD0B
:104ACC00256004F23C45284601F0B2F8012120464D
:104ADC0001F0E8FA014668B12146284600F0DFFEF5
:104AEC000028EAD094F83C3413F0700FE5D0054B55
:104AFC001D60E3E7204601F0D5FA0028ECD1DCE795
:104B0C005C9E0B0050E6032008B504F095F94FF4B9
:104B1C00165104F081F902490248FFF79FFF08BDC6
:104B2C00199D0B0084E6032010B503F08FFC1E24A6
:104B3C00B0FBF4F202FB1400241A0349034822468A
:104B4C00FFF78CFF204610BD279D0B0084E6032049
:104B5C0070B5D0E900531426044606FB0356AE424A
:104B6C0004D0284602F022FB1435F8E7206802F046
:104B7C0009F9204670BD38B50468002002F012F81F
:104B8C0020B1637813B902F0BDF8FAE76378BFF38C
:104B9C005B8F651C0BB9002038BD002002F002F8B9
:104BAC0020B12B7813B902F0ADF8FAE72378012B7A
:104BBC00F1D1207BF0E700002DE9F043AB4E3578C6
:104BCC00012D99B000F0B880022D00F01B81002D52
:104BDC0040F0A380A64DC8242F46122004F0B0FD4F
:104BEC0007EE900AF8EEE77A3220E7EC017A03F050
:104BFC0047FC013CF1D10134294604352A462346B1
:104C0C00D1ED007AB2EC017AF4EEC77AF1EE10FA3B
:104C1C0003F10103C4BF81ED007A42ED017AC82B88
:104C2C00EED1C72CE7D1934DB4244FF000084FF0D0
:104C3C00000955F8040BFFF74FFB02460B464046A4
:104C4C004946FFF7EBF9013C80468946F1D1002239
:104C5C00894BDFF89082894FFFF7C0FCFFF7A6FD68
:104C6C0007EE900AB5EE007A67EE877A844BC8EDB2
:104C7C00007A186003F0EAFB386001F0CBFD814B41
:104C8C001860814803F080FC7F4810EE105A03F046
:104C9C0097FC10EE100AFFF71FFBCDE90401284624
:104CAC00FFF71AFBCDE90201D8F80000FFF714FB5F
:104CBC00CDE900013B68754A7548782102F072F81D
:104CCC0073497448FFF7CAFE4FF47A730D93724B15
:104CDC000B93724B0793724B099372480C940123FC
:104CEC0007AA05210F948DF82040ADF82830FFF766
:104CFC00CDFE18B96C496748FFF7B0FE6B496C4A9A
:104D0C00096844F202230FA800F099FF40B96949E1
:104D1C006048FFF7A3FE0223337019B0BDE8F0839F
:104D2C005B490BA802F038FB63490BA802F034FB7B
:104D3C000FA800F07DFFEEE701F06CFD5F4FDFF890
:104D4C00A881DFF8A891534D386001F0EBFF0346C2
:104D5C0058B9D8F804100246062001F0FBFF01F008
:104D6C00D9FF49462846FFF779FE01F0DBFF0446E0
:104D7C0000282DD052494748FFF770FE514B524A3C
:104D8C001B781278514913438DF80030404A09685A
:104D9C003C230BA803F00AFE0BA8FFF7ECFE0C9CBF
:104DAC0005467CB16368013B63605BB923682046B0
:104DBC009B689847A368013BA3601BB923682046F6
:104DCC00DB689847424933482A46FFF747FEA2E77B
:104DDC0001F020FD3B68C01A44F61F63984206D9C7
:104DEC0002233C4933702846FFF738FE012428463D
:104DFC003949FFF733FE4FF4FA7003F041FB002CF6
:104E0C00A3D08AE735492348354CFFF727FE4FF4EA
:104E1C00FA7003F035FBFFF787FE237D0746002B66
:104E2C0000F08E8023682572DB68002B60D09A8896
:104E3C00012A07D09B68F8E79B68002B58D09A880A
:104E4C00012AF9D19A89022AF6D19A73237D002B73
:104E5C0076D023684FF47A70DB684743002B5DD023
:104E6C009A88042A00F081809B68F7E744E60320C7
:104E7C0070DE032098DE032000806640BCE1032036
:104E8C006CDE0320B4E10320D4DD0320379D0B003E
:104E9C00F4DD032084E60320A09E0B005C9E0B0037
:104EAC0080F0FA02C0E103204C9D0B0050E6032079
:104EBC00609D0B006D9D0B00BA9F0B0048E6032014
:104ECC00A59D0B00D1DD0320D0DD032040DD0320A8
:104EDC00B59D0B00C79D0B00049E0B00339E0B0071
:104EEC00DCDD0320B8E1032014E70320939D0B00C5
:104EFC002049102004F0F8FC0546002837D0102279
:104F0C00002104F03FFD1C4B2B600123AB80236977
:104F1C00AB600223AB81AB73256197E71549102079
:104F2C0004F0E2FC054610B31022002104F02AFD27
:104F3C00114B2B600423AB8023692561C5E9023733
:104F4C000E490BA802F0C0F80D490E48FFF786FD7C
:104F5C0001F060FC0C4B18600B9800233370002898
:104F6C003FF4DBAE01F00EFFD7E6DF60E8E7257516
:104F7C00E6E700BFA1A10B0010000300DCDD03205D
:104F8C00429E0B0084E6032048E603208842F8B5D5
:104F9C0004460D46164616D9904215D2A2F11406B7
:104FAC00751AA1F114072C44B7421CD02CB1314610
:104FBC00204602F064F9337C2374304602F0F6F894
:104FCC00143E143CF0E70ED0B5420CD02CB129465F
:104FDC00204602F054F92B7C2374284602F0E6F8A4
:104FEC0014351434F0E7F8BD2DE9F0410023C0E985
:104FFC00003383604F689F4204460E4623DD4FF01A
:10500C00140808FB07F001F0B5FE0546D8B1D4E949
:10501C00001208FB0212FFF7B9FF206801F0B2FE84
:10502C002560A760D6E9007308FB0378B84508D063
:10503C003946284602F03DF93B7C2B741437143565
:10504C00F4E7736863602046BDE8F081414B0122B0
:10505C0070B51A70404B414C414D84F874240821B2
:10506C00197064210023C4F860143E496360C4F8CD
:10507C003C34C4F86834C4F87014C4F87834A4F818
:10508C007C342978BFF35B8F11408EB00BD128464E
:10509C000191FFF73BFC019928B1334801F01DFF4A
:1050AC002846FFF738FC304BC4F86C342F4B304A91
:1050BC009A600024C3E90044022001F05BFD214604
:1050CC00012001F067FD21462A482B4D03F010FA10
:1050DC00CDE90244049403F0AFFE02A9064605A8EC
:1050EC00FFF782FF05A908A8FFF77EFF234B2B6073
:1050FC0008A90BA8FFF778FF0BAA1E21281D02F0A8
:10510C0065FE0BA8FFF724FD08A8FFF721FD1C4B3B
:10511C002B602E6205A8FFF71BFD1A4B2B6003F0CA
:10512C008BFE4FF4165103F077FE02F01FFB29465D
:10513C0002F022FD02A8FFF70BFD134B1A1D1A609B
:10514C00124A5A600122C3E902441C611A750EB05E
:10515C0070BD00BFD0DD0320D1DD0320C0E10320F2
:10516C00B8DD03205C9E0B00BCDD0320C4DD0320F6
:10517C000000FFFFD4DD032090E10320709E0B00A4
:10518C00D89F0B00889E0B00DCDD03201000030071
:10519C00042904D800EB4100B0F8010070470A293B
:1051AC009BBF01F1FF3100EB41000131C08884BF8E
:1051BC0000EB41008088704710B50446243000F0A5
:1051CC0063FE28B104F50C70BDE8104000F05CBE25
:1051DC0010BD411E00F10A030020420842EAC01033
:1051EC0011F8012F52FA80F08B42C0B2F5D1704702
:1051FC002DE9F047064610F8013B202BFAD06A4DFA
:10520C008E600024335DC3B12F2B16D05C2B02D1E2
:10521C000020BDE8F087A3F12200C0B21D2803D8FE
:10522C0025FA00F0C007F3D403F0BF003C28EFD000
:10523C00203B5E2BECD80134E4E7331918460746C3
:10524C0010F8015B202DFAD02F2DF8D017604CB13F
:10525C0013F8012D2E2A01D0202A01D1013CF6E7AA
:10526C00FF2CD5DC4FF02033C1F811304C60C1F865
:10527C000D304B614FF0000816F808302E2B01D082
:10528C00202B02D108F10108F6E7B8FA88F04009A2
:10529C00651E6B1C02D0735D2E2B14D14FF00009D0
:1052AC0007274A46CA464FF0080EA04568DA16F89A
:1052BC000830202B03D02E2B07D1A84512D000206C
:1052CC0008F10108F1E7013DE3E7222B08D07C2B24
:1052DC0006D0A3F12A0CBCF1050F0AD82D2B12D045
:1052EC00A8455BD10A2F4AD00A2708224FF0100E8E
:1052FC00E6E7A3F13A0CBCF1050FF1D9A3F15B0C75
:10530C00BCF1020FECD9A3F1210CBCF15D0FE7D875
:10531C00A845E7D0BA4230D8A3F1610CBCF1190F03
:10532C001AD8203B4EEA0909DBB25FFA89F902F17F
:10533C00010C5FFA8CFC0A44BCF1060F537301D8C4
:10534C0081F80CC06246BBE7A84518DCA8460A27C2
:10535C0008224FF0100EB2E7A3F1410CBCF1190F6B
:10536C0098BF4EEA0A0AE2E70B7B01200870194449
:10537C007E234B7331238B734BE70A2FE4D1002030
:10538C004B7B202B3FF444AF0028EDD01AEA090FD9
:10539C0018BF4FF0020981F800903AE7BA42ECD8F6
:1053AC0000205F23C3E700BF010100312DE9F84362
:1053BC0091F80C9006460C4602257E2701F10D084B
:1053CC006168A2686B189BB21144914206D012F826
:1053DC00010B03EB431343409BB2F6E7B9F1030F08
:1053EC0028BF4FF0030909F10402D2B203F00F01F8
:1053FC00A018013A0929D2B294BF30313731914506
:10540C0041734FEA1313F1D104EB090300215F73CD
:10541C00304600F02AFB0121304600F007FB014624
:10542C0028B97078B0FA80F04009BDE8F8830378A9
:10543C006BB1C37A1B07EED40B22404604F06AFA18
:10544C000028E8D10135ADB2642DB9D1EDE70120CA
:10545C00EBE700002DE9F04F2DED028B8BB00D46E4
:10546C0006930B78079013F0700F174605D10020A8
:10547C000BB0BDEC028BBDE8F08F079B1B78002BAB
:10548C00F5D15368059313789C071FBF059B0C330C
:10549C000D22B3FBF2F31ABF0133DBB2012300215F
:1054AC002846039300F0E1FA07F10D034FF0000BCF
:1054BC0008EE103ADA465C465E46CDF810B0D94696
:1054CC006B6901212846C3F34F1800F0AFFA03466D
:1054DC00002871D16B78002BC9D1069B9A05C6D5D3
:1054EC0003F00303013B012BC1D8049B002C08BF24
:1054FC0043460493039B9C42C0F0F180B9F1000F2A
:10550C0040F00A81049B2846590100F0AEFA0028AD
:10551C00ADD0039B03F1FF395FFA89F94E464FF08A
:10552C00000A4FF00F08002E00F00D8100212846D4
:10553C0000F07CFA0446002899D0AA6892F824302E
:10554C004E4543F001030CBF46F0400BB34682F8C6
:10555C00243080F800B080F80B8080F80CA007F1A4
:10556C000D00FFF736FE84F81AA0607384F81BA0B8
:10557C000BF01F030D22013BD7F808C05343002248
:10558C000599994240F2D0801CF80310042A5FFA66
:10559C0082FE02F1010000F2CD8004EB4202A2F87F
:1055AC0001100D2803F101030246E9D1013EF6B2C8
:1055BC00B9E74FF0010983E70278E52A00D07AB900
:1055CC000499002C08BF4146049103998C423CBFBE
:1055DC000134E4B2002A80D0E52A05D100266FE719
:1055EC0003998C4238BF00242E2AF7D0D97A0F2980
:1055FC004AD116BB12F040063FF462AF02F01F0610
:10560C0093F80DB0B2460D220AF1FF3802FB08F8F0
:10561C00059A4245E2D9A2EB08020892002202EB5D
:10562C00080109911846D1B2FFF7B2FD08998A42D8
:10563C000DD1002818BF002642E70AF1FF3A5FFAA5
:10564C008AFA5245CAD15A7B5A45DCD0C6E7FF28A4
:10565C00C4D85FFA80FEAEF141011929B9689CBF2C
:10566C000EF120005FFA80FE08460999415CA1F119
:10567C00410CBCF1190F9CBF2031C9B27145ADD1A1
:10568C0001320D2ACBD11BE70807A7D45EB1BAF1C2
:10569C00010F7FF4ECAE1846FFF79BFD58457FF4E5
:1056AC00E6AEB1460EE018EE101A0B22184604F0C6
:1056BC0031F900287FF404AF97F8009019F0010934
:1056CC007FF477AF069B19053FF5D1AE069B079883
:1056DC00CDF800904246294600F00AFAC8E60021AF
:1056EC00284600F0A3F9A0B96B78002B7FF4BFAE6D
:1056FC00284600F087F800283FF4B9AEAB681B7958
:10570C00012B3FF6FBAE039B1034E4B2A342EFD85F
:10571C00F4E60134E4B2EDE639462846FFF746FEDE
:10572C0000287FF4EFAEA2E614BF4FF0FF3100214A
:10573C0089B22BE7BEF10A0F94BF04EB420204EBD3
:10574C00400291802DE731462846D5F8148000F0B0
:10575C006DF9044600283FF48AAE2022314604F04D
:10576C0011F9D7F80D302360D7F811306360B7F812
:10577C0015302381FB7DA3723B7803F01803237350
:10578C000F4B1B689BB104F10E0104F110009847FC
:10579C00238A63822383E389E382AA6892F8243004
:1057AC0043F00103C8F34F1882F824308EE721230D
:1057BC002374282363740823A673E373E8E700BFFC
:1057CC004CE6032038B504460D462422002104F093
:1057DC00D9F8A560EB79102B03D0202B06D0002034
:1057EC0038BD202301202370A070F9E74023F9E78E
:1057FC008378016943F00403837000F11002806820
:10580C0000F0F8BB2DE9F041017811F020050446B9
:10581C0003D000263046BDE8F0814269174B9A420E
:10582C00F7D2FFF7E5FF06460028F2D02169A06801
:10583C0000F075FB0746A06805223946243000F0BD
:10584C004BFB80460028E4D029464FF4007204F04C
:10585C0099F80125A3681A79AA4209D91868424611
:10586C00E91900F0A6FE0028D3D00135EDB2F1E71E
:10587C00636903EB42236361CCE700BF00FE1F00AA
:10588C0010B5044680680A462430A16900F024FB58
:10589C0020B1A38803F00F0300EB431010BD037875
:1058AC000BB9FFF78FBF002070472DE9F74F037836
:1058BC00044688461546002B5DD08278D1075AD510
:1058CC001A072DD5C36942699B1A9D4228BF1D46F4
:1058DC002E464FF0000904F1100B002E00F08F80C3
:1058EC0022786369A0689706C3F3080A4FEA53212C
:1058FC001FD5006A0144A068BAF1000F42D1B6F579
:10590C00007F3FD3C36A99423CD0B6F5806F52D228
:10591C000068424600F0C4FD68B34FF4007744E0E1
:10592C009B06D5D583681A894369C3EB42139BB296
:10593C00CBE790F8059009EA0109BAF1000F08D1FC
:10594C00B9F1000F05D15BB951064CBF036A236A4C
:10595C0023612169A06800F0E2FA09EB0001CAE7B3
:10596C0021695A4600F0E1FA002804DBF1D12378D2
:10597C0013F0700F43D1637843F0020363704FF060
:10598C00FF303DE0CAF50077B7424FF0000200F15E
:10599C00240028BF374600F09FFA0028EBD000EB1C
:1059AC000A013A46404603F0C5FF63693B44B844DC
:1059BC006361F61B91E7227892064FEA562A06D4C9
:1059CC000279A2EB0902D2B2924528BF92469942C3
:1059DC004FEA4A2708D2A06853460068424600F0B6
:1059EC00A7FD0028E1D1C6E753448B42F3D92430FC
:1059FC00019100F049FA01990028ECD1BBE7A81BF2
:105A0C0003B0BDE8F08F73B501220DF10701D0E9A9
:105A1C0004560446FFF749FF01280ABF9DF807000A
:105A2C004FF0FF30C4E9045602B070BD37B543697E
:105A3C0013F4F07F0446C3F3431500D099B9012247
:105A4C000DF107012046FFF730FF40B2012802D0CC
:105A5C00002003B030BD63691F33A0686361303030
:105A6C0000EB4510F5E72033F7E72DE9F04102781C
:105A7C00076904460D4662B14069884202D019B9E3
:105A8C0021616561012006E0160706D5E3698B42AA
:105A9C000BD227610020BDE8F081910605D5A368E3
:105AAC001B89B5EB431FECD9F3E7D4F808C09CF87D
:105ABC000660431E06F109016E1ECB40CE40B34278
:105ACC0000D898B953064CBFDCF82030236A236108
:105ADC0004F11008002ED4D02169A068424600F0D1
:105AEC0024FA002806F1FF36F4DCD2E7F61AEFE7C9
:105AFC00F8B50F4604461546002124221E4603F035
:105B0C0041FFB868A060A58005F00F053B6AE36013
:105B1C006A0100EB451595F83B301F0744D403F0A0
:105B2C001703237095F83B1011F0180F04BF43F0C6
:105B3C00080323709DF81830E37006F00303012B63
:105B4C002CD0022B28D07BBB71052DD40123A37044
:105B5C00A1788B0704D52378DF0625D4DD0723D461
:105B6C00B31123F07F0306F008052B430B43A370FE
:105B7C00C36AA3618318B3F84420B3F84A1041EA0E
:105B8C000241720513D559B9A37843F00403A370ED
:105B9C00730410D40120F8BD0323D8E70223D6E701
:105BAC0000F063FA0028EFD100202070F3E72162A7
:105BBC00DB6CE361ECE7E1692046FFF756FF002858
:105BCC00E8D1F1E738B5037804460BB9012038BDAC
:105BDC0083785A0723D50121FFF752FE054628B9D1
:105BEC00637843F0010363700020F0E70378E52B42
:105BFC00F6D023781B0744BFE369C361236A438350
:105C0C00638C8382094B1B682BB100F11601183091
:105C1C0098472B8B6B82A37823F00403A370A068A6
:105C2C00FFF7CAFA0028DBD0D0E700BF4CE6032010
:105C3C0010B50446FFF7C6FF0023237010BDF0B566
:105C4C0093B01F46002309930378019206460C4635
:105C5C0013B1002013B0F0BD0B7813F0700FF8D017
:105C6C0013782F2B12D1019A13782F2B02D10132DA
:105C7C000192F8E7A1681BB93046FFF710FEE9E77F
:105C8C0009A8FFF79FFD0028E3D009AC019801AAF1
:105C9C0003A9FFF7ADFA0028DBD0019B1B789BB161
:105CAC00002303AA21463046FFF7D4FB0028D0D0AE
:105CBC0035460FCD09AC0FC40FCD0FC42B68236034
:105CCC003046FFF7B5FFE0E73B4603AA21463046D6
:105CDC00FFF7C0FBBEE700002DE9F04703788946CB
:105CEC001907044617465BD583789A0758D51B07C6
:105CFC0051D46369DB43BB4252D3B84604F1100A5A
:105D0C006669B8F1000F00F09180A0684379C6F382
:105D1C00080513EA56260ED16DB92169002946D023
:105D2C00524600F002F900283ADB04D12046FFF776
:105D3C005FFD002834D02169A06800F0F0F831181C
:105D4C00A06815B9B8F5007F3FD2C5F50076464579
:105D5C0028BF4646002D36D16269E3699A4234BFAA
:105D6C0001220522243000F0B7F8C8B1284432468D
:105D7C004946354403F0DEFDB5F5007F04D1A0683B
:105D8C00243000F081F858B1636933446361B14445
:105D9C00A8EB0608B4E7C169FFF767FE0028A8D195
:105DAC00637843F0010363704FF0FF3050E0236AD7
:105DBC003BB92046FFF71CFD0028F1D02369236274
:105DCC00B9E72361B7E70122CCE7B8F5806FC26A67
:105DDC001BD390F804C0ACEB0606F3B24FEA582E76
:105DEC00734528BF734691424FEA432607D31A44A2
:105DFC008A4282BF4FF0FF3280F82450C262A568FD
:105E0C004A46286800F04BFCBDE7914202BF4FF0B8
:105E1C00FF3380F82450C362A3684A46186800F028
:105E2C00C8FB0028BCD04FF40076ADE7E269A3783C
:105E3C00B24204D2E66143F00403A37003E0084AC3
:105E4C001268002AF7D194F90230002B02DB384695
:105E5C00BDE8F0872046FFF7B5FE0028F7D19FE795
:105E6C004CE6032013B50446084659B10191FEF7E0
:105E7C00F7FC23680199DB680246204602B0BDE8B6
:105E8C001040184702B010BD37B50378DA07044646
:105E9C0020D54368816800F10C021868019200F06B
:105EAC0088FB019A054618B90025284603B030BD79
:105EBC0023789B0704D4237823F001032370F4E7A1
:105ECC00D4E9013019690144186800F072FB00280C
:105EDC00F1D1E9E70125E8E770B583688B42044608
:105EEC000E46154609D0FFF7CFFF08B9002070BD4C
:105EFC006B070AD500232370A660227805F00305F2
:105F0C002046154300F80C5BF1E7636804F10C02C2
:105F1C001868314600F0C4FA0028EBD1E6E7837923
:105F2C0040690239994008447047012970B505460B
:105F3C000C46164602D84FF0FF3070BDC3698B4239
:105F4C00F9D3C379202B16D18169022201EBD4112C
:105F5C0000F50C70FFF7C0FF0028ECD004F07F04B4
:105F6C0050F8243023F07043EA699A4226BF33601C
:105F7C0001200020E1E7102BDDD1C1F3072381695B
:105F8C000222194400F50C70FFF7A6FF0028D2D0AE
:105F9C00E4B230F81430E7E7012938B50C46154661
:105FAC0001D8002038BDC3698B42FAD3C379202BAA
:105FBC000FD18169032201EBD41100F50C70FFF7AE
:105FCC008BFF0028EDD004F07F0440F82450012012
:105FDC00E8E7102BE5D1C1F30723816903221944AB
:105FEC0000F50C70FFF778FF0028DAD0E4B220F847
:105FFC001450ECE72DE9F341C4688C4205460E467B
:10600C00904601D3012701E00C460027EB690134CF
:10601C00A34202D2C7B9EC68F4E7A64214D001AA95
:10602C0021462846FFF781FF00280DDBEED0019BAF
:10603C00002BEBD107B1EC606FF070422146284683
:10604C00FFF7AAFF074620B90027384602B0BDE883
:10605C00F08116B9C8F80040F7E7224631462846C9
:10606C00FFF79AFF0028F5D1EEE773B505460C460D
:10607C0001AA21462846FFF758FF061E10DB002216
:10608C0021462846FFF788FF50B1EB68A34224BF96
:10609C0004F1FF34EC60019C002EE9D102B070BD1C
:1060AC000020FBE7012370B50022C3604FF0FF33E3
:1060BC000446C27100F12406806280F82420C36279
:1060CC00C0F8340280F83022C0F838320D46B9B12D
:1060DC00042901D9002070BD11463046FFF7FCFEA3
:1060EC000028F7D000EB051393F8AE315B06F1D125
:1060FC0005F11B0100EB0110D0F80650002DE9D082
:10610C00002229463046FFF7E7FE0028E2D0B0F81F
:10611C000B30B3F5007FDDD1037C022BDAD1C389C0
:10612C00002BD7D0417B21714B1E63710023A371CF
:10613C0009260123994207D0013ECBD0A2795B00FE
:10614C000132DBB2A271F5E7C18A01B9416A216162
:10615C00C3892B44A361B0F81120228103EB4103C6
:10616C002362B0F81110490101F2FF1103EB512326
:10617C006361B0F8132002B9026AE91AA3791144D9
:10618C00D9404B1CE36140F6F473994202D80C23BE
:10619C00E3719FE74FF6F473994285BFC36A23629C
:1061AC0010232023E371012095E700F0CBBA00F017
:1061BC00AEBA000070B50E4E0D46144600F022FB30
:1061CC003368C01A0B4B984208D900F023FB0A4BDA
:1061DC00186000F097FD00F015FB306000F01AFB22
:1061EC0080B2401BA042D4BF0020012070BD00BF74
:1061FC0054E60320A086010034E7032038B5057A65
:10620C0004464DB9406800F06BFA63682946187D66
:10621C0003F07DFA0123237238BD10B5037A0446CE
:10622C006BB143680121187D03F071FA6068FF219E
:10623C00FFF7BBFF606800F067FA0023237210BD04
:10624C00F8B504460D46164600F0E4FA87B26068CD
:10625C00FFF7ADFFFF2860720ED14FF47A7239460A
:10626C002046FFF7A7FF0028F1D0552320462370C6
:10627C00FFF7D3FF0020F8BDFE2801D05023F5E72F
:10628C0060683246294600F047FA607208B1602314
:10629C00ECE76068FFF78BFF6068FFF788FF012071
:1062AC00E9E770B504460E4600F0B4FA85B2324602
:1062BC0029462046FFF77EFF30B96068FFF777FF6D
:1062CC00FF28F4D1012070BD0020FCE7F7B5037A5C
:1062DC00019204460D460BB9FFF790FF25B14FF420
:1062EC0096712046FFF7DDFF606845F04001FFF72F
:1062FC005CFF032601AFB95D6068FFF756FF013EF6
:10630C00F9D2002D60680CBF95218721FFF74DFF56
:10631C006068FFF74CFF0B256068FFF748FF03062A
:10632C00607203D5013D15F0FF05F5D103B0F0BD4A
:10633C0070B504460D46164637210022FFF7C6FFFE
:10634C00324629462046BDE87040FFF7BFBF00002B
:10635C002DE9F041002505720570857241600446F7
:10636C0090461E4600F056FA41460746606800F01B
:10637C00BBF96368494A1D720125DA601D8220460B
:10638C00FFF73CFF63682946187D03F0C0F90A2526
:10639C006068FF21013DFFF708FF15F0FF05F7D1FD
:1063AC0063682946187D03F0B2F90A2500221146CC
:1063BC002046FFF78BFF0128804618D0013D15F0D1
:1063CC00FF0507D1202320462370FFF726FF00206E
:1063DC00BDE8F0816068FD21FFF7E7FE4FF402781D
:1063EC006068FFF7E4FEB8F10108F9D1DEE74FF47D
:1063FC00D57208212046FFF769FF052814D184F8CF
:10640C000A800025BFB22A4629212046FFF790FFBB
:10641C000246D8B14FF4FA6239462046FFF7CAFE5D
:10642C000028F0D04323CEE704256068FFF7BFFEB9
:10643C00013D15F0FF056072F7D1AA2804D10223A3
:10644C00A3724FF08045DDE72523BCE7A37A022B2E
:10645C0018D13A212046FFF739FF08B13723B2E7AC
:10646C006068FFF7A4FE00F0C000C02804BF03233F
:10647C00A3726068FFF79BFE6068FFF798FE606888
:10648C00FFF795FE2046FFF7C8FE63683079B168C8
:10649C00B2891A821872D960012099E790D0030052
:1064AC0038B5837A032B18BF490215460A461121C9
:1064BC000446FFF70BFF30B1302323702046FFF763
:1064CC00ACFE00250BE029464FF400722046FFF786
:1064DC00B7FE05460028F1D02046FFF79EFE284661
:1064EC0038BD10B5837A032B0A4618BF4A02122115
:1064FC000446FFF7EBFE30B1312320462370FFF743
:10650C008CFE002010BD0120FCE710B500220C21F0
:10651C000446FFF7DBFE30B1282320462370FFF73B
:10652C007CFE002010BD2046FFF777FE0120F9E726
:10653C00F8B5044616461F46FFF7D3FF68B1002591
:10654C00ABB29F4206EB452109D94FF400722046AD
:10655C00FFF776FE01350028F2D10020F8BD204669
:10656C00BDE8F840FFF7D1BF38B504461546406882
:10657C00FFF71BFE4FF400726068294600F0E6F846
:10658C006068FF21FFF711FE6068FF21FFF70DFE29
:10659C006068FFF70CFE607200F01F00052806D043
:1065AC00572320462370FFF738FE002038BD01200A
:1065BC00FCE770B5837A032B18BF490215460A46CF
:1065CC0018210446FFF782FE064630B132232370B1
:1065DC002046FFF722FE00251FE02A46FE2120461A
:1065EC00FFF7C2FF0028F3D04FF4FA612046FFF703
:1065FC0058FE054608B95A23E9E732460D212046D4
:10660C00FFF764FE08B12923E1E76068FFF7CFFDCF
:10661C000028F8D12046FFF700FE284670BD13B5C0
:10662C0001914FF4FA610446FFF73BFE019A30B931
:10663C005B2323702046FFF7F0FD002005E0FC21D2
:10664C002046FFF791FF0028F4D002B010BD10B522
:10665C00837A032B0A4618BF4A0219210446FFF716
:10666C0035FE30B1332320462370FFF7D6FD0020D2
:10667C0010BD0120FCE738B54FF4FA610446FFF772
:10668C0010FE054630B9562323702046FFF7C5FD92
:10669C00284638BD6068FD21FFF787FDF5E7F8B5A2
:1066AC00044616461F46FFF7D2FF70B10025BD42C7
:1066BC0006EB4521204604D0FFF7B1FF28B1013588
:1066CC00F5E7BDE8F840FFF7D6BF2046FFF7A5FD7C
:1066DC000020F8BD014B01221A70704758E60320C8
:1066EC00011D006800F030BC10B50446017500684F
:1066FC0000F0FDFB207D012102F0F8FF207D01213F
:10670C00BDE8104003F003B8006800F004BC00685A
:10671C00FF2100F087BC000037B51346074A0092F2
:10672C000025074C006825700A46294600F080FCBD
:10673C002378002BFCD0002003B030BDE1660B00A9
:10674C0058E60320006800F06DBC000037B5134616
:10675C00064A00920025064C006825702A4600F077
:10676C0067FC2378002BFCD003B030BDE1660B0036
:10677C0058E6032008B5024B1B689B68019308BDC3
:10678C006802030008B5024B1B68DB68019308BD67
:10679C006802030008B5024B1B685B68019308BDD7
:1067AC002C02030008B5024B1B689B68019308BDC3
:1067BC002C02030008B5024B1B68DB68019308BD73
:1067CC002C02030008B5024B1B681B69019308BD22
:1067DC002C02030008B5024B1B681B6B019308BD10
:1067EC002C02030008B5024B1B685B68019308BDC3
:1067FC001802030008B5024B1B68DB68019308BD47
:10680C001802030008B5024B1B681B69019308BDF5
:10681C001802030008B5024B1B685B69019308BDA5
:10682C001802030008B5024B1B689B6D019308BD51
:10683C001802030008B5024B1B685B6E019308BD80
:10684C001802030008B5024B1B685B6C019308BD72
:10685C004802030008B5024B1B689B6C019308BDF2
:10686C004802030008B5024B1B68DB6C019308BDA2
:10687C004802030008B5024B1B685B6D019308BD11
:10688C004802030008B5024B1B685B69019308BD05
:10689C006402030008B5024B1B689B68019308BD9A
:1068AC003C02030008B5024B1B68DB68019308BD72
:1068BC003C02030008B5024B1B681B69019308BD21
:1068CC003C02030008B5024B1B685B69019308BDD1
:1068DC003C02030008B5024B1B689B69019308BD81
:1068EC003C02030008B5024B1B68DB69019308BD31
:1068FC003C02030008B5024B1B681B6A019308BDE0
:10690C003C02030008B5024B1B689B6A019308BD4F
:10691C003C02030008B5024B1B68DB6A019308BDFF
:10692C003C02030008B5024B1B681B6C019308BDAD
:10693C003C02030008B5024B1B689B69019308BD20
:10694C002802030008B5024B1B68DB69019308BDE4
:10695C002802030008B5024B1B681B6A019308BD93
:10696C002802030008B5024B1B685B6A019308BD43
:10697C002802030008B5024B1B689B6A019308BDF3
:10698C002802030008B5024B1B68DB6A019308BDA3
:10699C002802030008B5024B1B681B6B019308BD52
:1069AC002802030008B5024B1B685B6B019308BD02
:1069BC002802030008B5024B1B681B6C019308BD31
:1069CC002802030008B5024B1B689B6C019308BDA1
:1069DC002802030008B5024B1B68DB6C019308BD51
:1069EC002802030008B5024B1B681B6D019308BD00
:1069FC002802030008B5024B1B681B68019308BDF5
:106A0C003002030008B5024B1B685B69019308BD9B
:106A1C003002030008B5024B1B68DB69019308BD0B
:106A2C003002030008B5024B1B681B6A019308BDBA
:106A3C003002030008B5024B1B685B6A019308BD6A
:106A4C003002030008B5024B1B689B6A019308BD1A
:106A5C003002030008B5024B1B689B6B019308BD09
:106A6C003002030008B5024B1B68DB6B019308BDB9
:106A7C003002030008B5024B1B681B6C019308BD68
:106A8C003002030008B5024B1B685B6C019308BD18
:106A9C003002030008B5024B1B681B68019308BD4C
:106AAC004C02030008B5024B1B685B68019308BDE0
:106ABC004C02030008B5024B1B689B68019308BD90
:106ACC004C02030008B5024B1B681B69019308BDFF
:106ADC004C02030008B5024B1B685B69019308BDAF
:106AEC004C02030008B5024B1B689B69019308BD5F
:106AFC004C02030008B5024B1B68DB69019308BD0F
:106B0C004C02030008B5024B1B681B6A019308BDBD
:106B1C004C02030008B5024B1B685B6B019308BD6C
:106B2C006002030008B5024B1B681B6D019308BD86
:106B3C006002030008B5024B1B685B6D019308BD36
:106B4C006002030008B5024B1B68DB6E019308BDA5
:106B5C006002030008B5024B1B681B6F019308BD54
:106B6C006002030008B5024B1B681B68019308BD4B
:106B7C002002030008B5024B1B685B68019308BD3B
:106B8C002002030008B5024B1B685B69019308BD2A
:106B9C002002030008B5024B1B68DB6A019308BD99
:106BAC002002030008B5024B1B68DB6C019308BD87
:106BBC002002030008B5024B1B685B6D019308BDF6
:106BCC002002030008B5024B1B689B6D019308BDA6
:106BDC002002030008B5034B1B68D3F888300193DF
:106BEC0008BD00002002030008B5034B1B68D3F856
:106BFC009430019308BD00002002030008B5034B3C
:106C0C001B68D3F8AC30019308BD000020020300D0
:106C1C0008B5034B1B68D3F8B430019308BD0000D2
:106C2C002002030008B5024B1B685B68019308BD8A
:106C3C004002030008B5024B1B689B68019308BD1A
:106C4C004002030008B5024B1B68DB68019308BDCA
:106C5C004002030008B5024B1B681B69019308BD79
:106C6C004002030008B5024B1B685B69019308BD29
:106C7C004002030008B5024B1B689B69019308BDD9
:106C8C004002030008B5024B1B68DB69019308BD89
:106C9C004002030008B5024B1B681B6A019308BD38
:106CAC004002030008B5024B1B681B6B019308BD27
:106CBC004002030008B5024B1B685B6B019308BDD7
:106CCC004002030008B5024B1B681B6C019308BD06
:106CDC004002030008B5024B1B685B6C019308BDB6
:106CEC004002030008B5024B1B685B6D019308BDA5
:106CFC004002030008B5024B1B689B6D019308BD55
:106D0C004002030008B5024B1B689B68019308BD49
:106D1C004402030008B5024B1B68DB68019308BDF5
:106D2C004402030008B5024B1B685B69019308BD64
:106D3C004402030008B5024B1B681B6A019308BD93
:106D4C004402030008B5024B1B681B6B019308BD82
:106D5C004402030008B5024B1B689B6B019308BDF2
:106D6C004402030008B5024B1B68DB6B019308BDA2
:106D7C004402030008B5024B1B681B68019308BD55
:106D8C001C02030008B5024B1B685B68019308BD2D
:106D9C001C02030008B5024B1B689B68019308BDDD
:106DAC001C02030008B5024B1B68DB69019308BD8C
:106DBC001C02030008B5024B1B685B6A019308BDFB
:106DCC001C02030008B5024B1B68DB6A019308BD6B
:106DDC001C02030008B5024B1B681B6B019308BD1A
:106DEC001C02030008B5024B1B68DB6B019308BD4A
:106DFC001C02030008B5024B1B681B6C019308BDF9
:106E0C001C02030008B5024B1B685B6C019308BDA8
:106E1C001C020300002240681146FFF73BBF002212
:106E2C0040681146FFF746BF40680022FFF73ABFA3
:106E3C004068002281F00101FFF724BF0023406865
:106E4C001A461946FFF716BF002340681A46194622
:106E5C00FFF708BF002240681146FFF7FBBE002277
:106E6C0040681146FFF7E6BE406800220221FFF79A
:106E7C00E9BE002340681A46FFF7D4BE024B03223A
:106E8C005A60024A1A6070475CE60320D89E0B00D9
:106E9C000B6803604B68436013B15A6801325A6047
:106EAC00704738B5046805467CB16368013B636084
:106EBC005BB9236820469B689847A368013BA36095
:106ECC001BB923682046DB689847284638BD00214B
:106EDC00FFF7D8BD0021FFF7CDBD10B5044608461D
:106EEC002170FFF797FD00236360204610BD13B59A
:106EFC0004460078FFF7EEFF58B9207801904FF662
:106F0C00FF71FFF777FD019802B0BDE81040FFF765
:106F1C00DEBF02B010BD0078FFF7D9BF400830B516
:106F2C001860002418688842E5B206D90134082C90
:106F3C0002D040081860F5E70725024B5B5D137023
:106F4C0030BD00BF149F0B002DE9F04306468FB0F7
:106F5C0000780C46FFF7BEFF00281BDB35781422A7
:106F6C00002109A802F00EFD0B23002209A92846D6
:106F7C00ADF82430FFF75EFD9DF82D3013B19DF870
:106F8C002C5055B10027B946B846012523795DB17F
:106F9C00C3B100200FB0BDE8F083DDF830809DF860
:106FAC0034909DF83570F1E7002B35D1A36843453B
:106FBC0008D18DF820908DF82170BDF82020A38980
:106FCC009A42E6D00023A1688DF80F300A9804ABE2
:106FDC000DF10F02FFF7A2FF217985B989B9A368DA
:106FEC0043450ED38DF820908DF82170BDF82020EC
:106FFC00A3899A4205D1049B434502D1C9E70029D4
:10700C00F9D100230193637B00939DF80F20237B20
:10701C003078FFF727FDBCE7CDE900552B462A4613
:10702C000121F5E708B50078FFF7ECFCC0B208BD0C
:10703C0030B587B004460A9D00950078FFF702FD35
:10704C003DB9207802A9FFF705FD9DF81430DB0748
:10705C00F7D407B030BD10B58368044613B10322D2
:10706C0001469847204610BD10B50446006818B17B
:10707C00FFF788FE0023236010BD38B50C4605468B
:10708C00FFF7F2FF54B12088FFF774FE286028B197
:10709C0022882146BDE8384002F04CBC38BD38B5DA
:1070AC00B1F904308380D1F80630C0F806304B8932
:1070BC0043810C460546FFF7D7FF236813B12B60BD
:1070CC000023236038BD0000F0B52B4D0B7D04462A
:1070DC008BB00846AF1D002B36D00B681B79002BEC
:1070EC0032D0264B0493002202A90430CDE90222AF
:1070FC00FFF784FDDDF80E30C5F8063000B2BDF8A0
:10710C001230ADF80C00A8800299BB802846FFF71E
:10711C00B4FF02A8FFF7A8FF00232360A380A3718C
:10712C0023814FF6FF736381B5F90430A380D5F842
:10713C000630C4F80630BB88296863812046FFF707
:10714C009CFF20460BB0F0BD00262023CDE9023673
:10715C000B4B009302AA33460A493220FFF7E2FC9C
:10716C00064B054802964FF6F26202A9CDE90323BD
:10717C00FFF795FFCDE700BF64E603200000FFFF9B
:10718C00239F0B001C9F0B00054B02221A60054B22
:10719C00054A9A600020C3E90000FFF7EBBC00BF72
:1071AC0070E6032064E603200000FFFF10B50446E0
:1071BC000068FFF7E7FD204610BD10B504460068D7
:1071CC0008B1FFF7DFFD0023C4E90133236010BDD4
:1071DC0038B504460D4600680131FFF7DBFD10B1F0
:1071EC00C4E90005012038BD10B50368044623B17D
:1071FC0043688B4201D3012010BD2046FFF7E8FF06
:10720C000028F9D0A368002BF5D122681370F2E79F
:10721C0037B50D46114601920446FFF7E5FF019A7A
:10722C0028B92046FFF7C9FF204603B030BDA26045
:10723C002946206802F07EFB2268A3680021D15405
:10724C00F2E738B5054600680C4670B16A688B6881
:10725C009A4208D3096831B102F0E1FBA368AB6034
:10726C000023A36038BDFFF78DFD23682B60636896
:10727C006B60A368AB600023C4E90033F1E710B581
:10728C000023C0E90033044683600373FFF7D9FF82
:10729C00204610BD884210B5044605D00B682BB1B2
:1072AC008A681946FFF7B4FF204610BDFFF785FF2B
:1072BC00FAE710B500230446C0E90033836003737A
:1072CC00FFF7E8FF204610BD10B54368013B0446AC
:1072DC00436063B903689B689847A368013BA3604C
:1072EC002BB923682046DB68BDE81040184710BD59
:1072FC0070B5D0E90053044605EB0316AE4204D03A
:10730C002846FFF753FF1035F8E72068FFF73AFDE2
:10731C00204670BD13B50B460246D0E900016C4601
:10732C0084E8030093E8030082E8030094E8030078
:10733C0083E8030002B010BD024800230360FFF78E
:10734C0081BA00BF74E6032010B504468068036858
:10735C00DB689847E3681844E06010BDF8B5064652
:10736C000D468F180024BD420CD0336815F8011B54
:10737C009B6830469847031E01DB1C44F3E7002C46
:10738C0008BF1C462046F8BD704710B510210446B6
:10739C00FDF7ADFA204610BD08B5FEF763FD08BD3C
:1073AC0003689B68184738B50D210546FFF7F8FFB1
:1073BC000A2104462846FFF7F3FF204438BD30B5B8
:1073CC008BB00023012A8DF8243098BF0A2209AC17
:1073DC000D46B1FBF2F101FB125303F0FF03092B35
:1073EC0094BF30333733DBB2AA4204F8013DEFD9F6
:1073FC002146FEF737FD0BB030BD2DE9F04186B0CC
:10740C0000AF05460E46381D142114463B60FFF7AD
:10741C00D1FC13280ED8391D2846FEF723FD04464F
:10742C001EB12846FFF7BFFF044420461837BD465F
:10743C00BDE8F08100F1080323F00703E846ADEB4B
:10744C00030D2246411C3B686846FFF7B3FC6946B6
:10745C002846FEF707FD0446C546E1E710B504468D
:10746C00FFF7D8F9E060236820465B69984700284D
:10747C0008DAFFF7CFF9E368C01AA3689842F2D391
:10748C004FF0FF3010BD2DE9F04107460C468E1829
:10749C000D46B542A5EB040807D03846FFF7DEFFD2
:1074AC00031E02DB05F8013BF3E74046BDE8F08123
:1074BC007047084611B10B685B68184770477047F6
:1074CC007047704738B504460D4600682E2102F00F
:1074DC009CFA2368C31A2B6023B1037803B10130E3
:1074EC0023682060184638BD10B504210446FDF70A
:1074FC00FEF9204610BD10B504210446FDF7F7F93E
:10750C00204610BDFFF7AEB908B5FDF79FF9B0FAEC
:10751C0080F0400908BD704710B50C4601F08CFC9A
:10752C00844210D002F03EF9844205D102F03AF9BF
:10753C00BDE8104001F04BBD2CB1236820465B68C0
:10754C00BDE81040184710BD13B50446084601911C
:10755C00FDF786F901990246204602B0BDE81040BD
:10756C0002F076B813B5044608460191FDF778F998
:10757C0023680199DB680246204602B0BDE8104042
:10758C00184707B503688DF80710DB6801220DF169
:10759C000701984703B05DF804FB00002DE9F74F95
:1075AC00D0E900844FF0140A00930AFB04F4184B42
:1075BC00A41017465C434546002C21DD66100AFBDF
:1075CC0006F005EB00093A46B9F804B028580191C9
:1075DC005F4528BF5A4602F048FA002801994FF03F
:1075EC0001030BD15F4503D1009A13703446E3E7D6
:1075FC00FCD9A61B09F11405013EF7E7F9DBF5E709
:10760C00A5EB08050248AD10684303B0BDE8F08F48
:10761C00CDCCCCCC7FB50369057E019103B3F9B118
:10762C00002600F10C04039603A901A8FFF74AFFFA
:10763C000146A8B10DF10B03039A8DF80B6020469F
:10764C00FFF7ACFF9DF80B3053B12368142404FBF7
:10765C000034083434F9023C002BA8BFDDB2E3E758
:10766C00284604B070BD0EB4F0B58CB000AF07F175
:10767C004405044655F8042B7A602B46202107F16B
:10768C001000FD60FFF796FB1F287A681AD900F1ED
:10769C00080323F007036E46ADEB030D411C2B468C
:1076AC006846FD60FFF786FB021E04DD2368694611
:1076BC00DB6820469847B5463037BD46BDE8F040FC
:1076CC0003B070470028F7D023680246DB6807F147
:1076DC00100120469847EFE710B5094C2378BFF30B
:1076EC005B8FDB0709D42046FDF710F928B1204643
:1076FC00FDF711F9034802F0FEF8034810BD00BF76
:10770C007CE60320CB740B0044DD032010B5094C40
:10771C002378BFF35B8FDB0709D42046FDF7F6F81F
:10772C0028B12046FDF7F7F8034802F0E4F80348C7
:10773C0010BD00BF80E6032023750B0048DD03203D
:10774C0038B500250446C0E90055C0E904558560EC
:10775C00856140F8245FFFF775F8FFF7BDFFE06126
:10776C00FFF7D4FF25732062204638BD10B50A4CB4
:10777C002378BFF35B8FDB070CD42046FDF7C6F8EC
:10778C0040B10648FFF7DCFF2046FDF7C4F804487B
:10779C0002F0B1F8014810BD78E6032088E603201A
:1077AC00F17C0B00024A034903480023FFF7D2B9CE
:1077BC00D57A0B00617A0B00E1790B0000231A4695
:1077CC0019461846FFF7C6B937B58D6804466846A2
:1077DC00FFF75EFB6A462946204601F059FE01A8D8
:1077EC00FFF75FFB204603B030BD37B5CD680446CC
:1077FC006846FFF74DFB6A462946204601F024FEF9
:10780C0001A8FFF74EFB204603B030BD37B50D691C
:10781C0004466846FFF73CFB6A462946204601F0C1
:10782C00BCFD01A8FFF73DFB204603B030BD0000B6
:10783C0070B58AB00D46014604A8FFF7C5FF144E7B
:10784C0004A801F03DFEE8B104A96846FFF7CDFF9E
:10785C0002983146FFF758FE044610B12C1E18BF93
:10786C00012401A8FFF71DFB002CE9D004A96846F0
:10787C00FFF7CCFF684601F0C6FD286001A8FFF7B2
:10788C0010FBDDE705A8FFF70CFB0AB070BD00BFCD
:10789C00649F0B0037B50C46204613491546FCF780
:1078AC00D5FF50B901F0C8FA4FF4165101F0B4FAF3
:1078BC0003B0BDE8304001F0BFBA0C492046FCF7DC
:1078CC00C5FF78B94FF4165301A928460193FFF769
:1078DC00AFFF01F067FF019901F076FB01F062FF49
:1078EC0003B030BD0020FBE7699F0B00709F0B00BD
:1078FC0070B5D0E900531426044606FB0356AE427D
:10790C0005D005F10800FFF7F3FF1435F7E7206801
:10791C00FFF738FA204670BD10B504460C30FFF75F
:10792C00E7FF2046FFF7E4FC204610BD10B5044BE2
:10793C00044640F8043BFFF7EFFF204610BD00BFA4
:10794C00709E0B0010B50446FFF7F0FF2046242173
:10795C00FCF7CDFF204610BD10B5034B0360044669
:10796C00FFF7E4FF204610BDF09F0B0010B5044656
:10797C00FFF7F2FF20462421FCF7B9FF204610BD8B
:10798C000A6802604A6842600022C0E9022210B50F
:10799C0002618C688460CC68C4600C698A60CA60BF
:1079AC0004610A6110BD0022C0E9002210B582609A
:1079BC000C6804604C6844608C680A604A6084609F
:1079CC008A6010BD10B5036804461868FEF752FFB4
:1079DC00204610BD2DE9F04F87B0804603931C4B19
:1079EC005B68C3F30803894616466BB9FFF7BEFE06
:1079FC00044600F12403406A0593FFF783FD237BC3
:107A0C002BB105A8FFF7DEFF07B0BDE8F08F01230F
:107A1C002373D4E900535FFA89F905EB830AAA456D
:107A2C0012D055F8047B3146381DFFF7F3FD814524
:107A3C00F5D33B68039A0092D3F808B04A46334614
:107A4C0041463846D847EAE700232373D9E700BFFD
:107A5C0000ED00E02DE9F74F9B461A4B5B68C3F332
:107A6C0008038046894616466BB9FFF77FFE04462D
:107A7C0000F12403406A0193FFF744FD237B2BB1F3
:107A8C0001A8FFF79FFF03B0BDE8F08F012323731C
:107A9C00D4E90053F6B205EB830A55450ED055F8E0
:107AAC00047B5946381DFFF7B5FD8642F5D33B687C
:107ABC004A46DB68414638469847EEE70023237375
:107ACC00DEE700BF00ED00E02DE9F341164B5B68EB
:107ADC00C3F3080305460F461BBBFFF747FE00F137
:107AEC0024030446406A0193FFF70CFDD4E90063BC
:107AFC00462406EB8308B04509D101A8FFF762FFC5
:107B0C00A542B4BF0020012002B0BDE8F08156F8B8
:107B1C00040B39460430FFF77DFD8442A8BF0446B0
:107B2C00E9E70020F0E700BF00ED00E0F8B5D0E990
:107B3C0001539D4204460E460DDB6F1C002F00685E
:107B4C0004DDB900FFF726F918B9F8BDFFF71AF9EB
:107B5C0000202060A7602768626807EB850192000F
:107B6C00A2EB8502081D01F0F3FE47F8256063685F
:107B7C00013363600120E8E737B500F124030446C4
:107B8C00406A01930D46FFF7BDFCD4E9003203EBCC
:107B9C008202934219460BD00968A94203F10403EF
:107BAC00F7D101A8FFF70EFF0025284603B030BD22
:107BBC0029462046FFF7BAFF05460028F1D0636836
:107BCC00012B01D1FFF7EEFD01A8FFF7FBFEECE75F
:107BDC0070B50446D0E900020B4600EB82028242EB
:107BEC000FD001461D6851F8046BAE4207D1521AF2
:107BFC0001F0AEFE6368013B6360012070BD084676
:107C0C00EDE70020FAE71FB500F124030446406AB3
:107C1C0001910393FFF776FC01A92046FFF7D8FFEB
:107C2C0018B163680BB9FFF7C9FD03A8FFF7CAFECB
:107C3C0004B010BD70B5D0E904561823044603FBFC
:107C4C000656AE4215D005F110012046FFF7C0FFD5
:107C5C0063680BB9FFF7B2FDE06929690368DB685B
:107C6C009847696919B1206A0368DB689847183529
:107C7C00E7E7D4E90453182606FB0356AE4204D0BA
:107C8C002846FFF793FA1835F8E70023636170BDB7
:107C9C0073B50446FFF792FD04F12403606A019367
:107CAC00FFF730FC2046FFF7C5FF01A8FFF78AFE5F
:107CBC00606A08B1FEF7CEFDD4E90453182606FB22
:107CCC000356AE4204D02846FFF770FA1835F8E791
:107CDC002069FFF757F82068FFF754F8204602B0E8
:107CEC0070BD00000148FFF7D3BF00BF88E603203A
:107CFC008842F8B504460D46164615D9904214D262
:107D0C00A2F11406751AA1F114072C44B7421AD02B
:107D1C001CB131462046FFF733FE06F10800FFF791
:107D2C00E7FD143E143CF1E70DD0B5420BD01CB16D
:107D3C0029462046FFF724FE05F10800FFF7D8FD81
:107D4C0014351434F1E7F8BD8842F8B504460D46F5
:107D5C00164614D9904213D2A2F11006751AA1F14D
:107D6C0010072C44B74218D01CB131462046FFF7FF
:107D7C0086FA3046FFF71AFA103E103CF2E70CD0A8
:107D8C00B5420AD01CB129462046FFF778FA28469E
:107D9C00FFF70CFA10351034F2E7F8BD70B50E1E73
:107DAC00054611DD3001FEF7E5FF044658B1D5E973
:107DBC00001201EB0212FFF7C7FF2868FEF7E2FF83
:107DCC002C60AE60012070BD0024F6E72DE9F04F69
:107DDC00904695B000230391D8F804100A934622DC
:107DEC009942C0E90033C0E90233C0E90433CDE95C
:107DFC0008330446027623DCD8E90057142303FB2E
:107E0C000757AF423BD029460BA8FFF738FA0BA90E
:107E1C000FA8099EFFF733FADDE9091399421BDA23
:107E2C00089B099A03EB061603EB0212314606F186
:107E3C001000FFF789FFEEB9099B0133099311E09C
:107E4C0008A8FFF7ABFF0028D6D108A8FFF750FA17
:107E5C00204615B0BDE8F08F013108A8FFF79EFF52
:107E6C000028DDD10FA8FFF7A1F90BA8FFF79EF9A9
:107E7C001435C6E70FA93046FFF701FADCE70026F8
:107E8C00CDE90B660D964FF01409DDE908239E42EF
:107E9C007CDA3301D35806930BB90136F5E700238E
:107EAC00079309FB06F302930BAD07A906A8FFF78E
:107EBC0009FB82460028F0D04FF000038DF81730F4
:107ECC000146079A0DF117032846FFF767FB9DF84B
:107EDC0017700190002F4AD1BDF81C30ADF840301E
:107EEC00CDE911774FF6FF73CDF83CA0ADF84230D9
:107EFC001397D5E90132934217DB03F1010ABAF16A
:107F0C00000F30DD09FB0AF0FEF734FF834660B347
:107F1C00D5E9001209FB0212FFF7EAFE2868FEF70A
:107F2C0031FFC5F800B0C5F808A02B68019A09FB11
:107F3C00023A6A68514609FB02320AF11400FFF753
:107F4C00D7FEBAF1000F03D00FA95046FFF718FD6A
:107F5C006B6801336B6011A8FFF7CAFC3FB10BA82B
:107F6C00FFF7C6FC71E7BB46D8E70127F3E7019B97
:107F7C002D6809FB0355069B1B782BB9D8F80030EC
:107F8C00029A13441B7CEB8008358EE72168226033
:107F9C0062686360A36809920A9A0A93E368A26014
:107FAC000B9A0B932369E2600C9A0C936369226120
:107FBC000D9A0D93039B089162612376CFE7000025
:107FCC00F0B5044687B00D46264619466846174656
:107FDC00FDF70AF80B4B46F8043B694603A8FDF77E
:107FEC0003F803AA39463046FFF7F0FE03A8FCF766
:107FFC00AFFD6846FCF7ACFD034B236020462562C1
:10800C0007B0F0BD709E0B00D89F0B00F0B50F466B
:10801C0085B01D490A9C384616461D46FCF716FCD1
:10802C00C0B9A4B1294601A8FFF7BDFC174924200B
:10803C0001F05AFC054630B101AB32462146FFF740
:10804C00BFFF134B2B6001A8FCF782FD2C4620468A
:10805C0005B0F0BD0F493846FCF7F8FB90B9002C81
:10806C00F5D0294601A8FFF79EFC0849242001F011
:10807C003BFC05460028E6D001AB32462146FFF713
:10808C009FFFE0E70024E2E7789F0B00A1A10B0023
:10809C00F09F0B007C9F0B00014B024A1A6070474B
:1080AC0084E603208D9F0B002DE9F047089DD0F846
:1080BC00209004460E461746984600F0BDFE8145BA
:1080CC004CD02B79190704D56A6954492046FFF71F
:1080DC00CAFAB8F1000F0DD05B212046FFF751FA18
:1080EC0041462046FFF73EFA23684D49DB680222E1
:1080FC00204698472B79DA0723D5D5F808802F210D
:10810C00404601F0C6FC08B100F10108414620468A
:10811C00FFF728FA2B799B0708D53A212046FFF761
:10812C0030FAEA683F492046FFF79DFA2A7923681E
:10813C0012F0040FDB6814BF3B493C490222204675
:10814C0098472B7958071DD529690B461A4613F801
:10815C00010B60B1202808D11946F7E7344801F02B
:10816C0013F80028ADD0BDE8F0872828EED123689D
:10817C00521ADB682046984723682E49DB68042294
:10818C002046984700213846FEF7DCFC0146204685
:10819C00FFF7E8F923682549DB6802222046984757
:1081AC001EB131462046FFF7DDF92B7913F0300F65
:1081BC002CD023682049DB680222204698472B7973
:1081CC00D9060AD523681D49DB6807222046984743
:1081DC00AA691B492046FFF746FA2B799A0611D556
:1081EC00DB0605D523681049DB6802222046984738
:1081FC0023681449DB6820460A229847E96920461F
:10820C00FFF7B0F95D212046FFF7BBF923680E4953
:10821C00DB6820460222BDE8F0471847919F0B000F
:10822C00989F0B00C49D0B009B9F0B00A09F0B0005
:10823C0014E703209E9F0B00A39F0B00A69F0B002F
:10824C00349D0B00AE9F0B00B99F0B002DE9F04144
:10825C000446076A0D46164600F0EEFD874207D02D
:10826C00206A036832462946DB68BDE8F0411847AE
:10827C00034800F089FF0028F2D0BDE8F08100BF70
:10828C0014E703202DE9F04385B0D0F820900C9C26
:10829C0005460F4690461E4600F0CEFD814505D1A1
:1082AC00494800F071FF002840F08A802B6A474A49
:1082BC0000924FF000096846CDE902398DF8049020
:1082CC0001F027F949464046FEF73CFC4049804600
:1082DC000122684601F0ACF94146FFF735F93FB190
:1082EC003C490122684601F0A3F93946FFF72CF905
:1082FC003EB139490122684601F09AF93146FFF73F
:10830C0023F92379DF070ED5A6682F21304601F01B
:10831C00C0FB00B1461C31490122684601F088F9C6
:10832C003146FFF711F923799E0707D52C49022214
:10833C00684601F07DF9E16801F0F8F823795807F7
:10834C0014D5266933461F4613F8012B2AB1202A6F
:10835C0001D11E46F7E7282AF5D1224902226846A8
:10836C0001F066F9BA1B314601F072F9237919074D
:10837C0007D51D490122684601F05AF9616901F0DF
:10838C00E7F82379DA0607D518490422684601F084
:10839C004FF9A16901F0CAF823799B0607D5144956
:1083AC000622684601F044F9E169FFF7CDF868460A
:1083BC0001F099F8286A0F4903680222DB68984794
:1083CC0005B0BDE8F08300BF14E70320549F0B00F9
:1083DC006E9F0B00BC9F0B0034A20B004A9D0B0040
:1083EC00BE9F0B00C19F0B00A39D0B00C49F0B00F5
:1083FC00C99F0B00B99F0B0008B50020FEF7A2FC2B
:10840C0028B1FEF78FFC80F00100C0B208BD01203E
:10841C00FCE710B50020FEF705FA0446A0B9FEF7FC
:10842C00A1FB012810D12046FEF7CCFB60B9FFF769
:10843C00E3FF10B9FEF766FCF9E7FFF7DDFFBDE8D7
:10844C0010400020FEF7EEB9204610BD1FB5FFF717
:10845C00E0FF10220021684601F094FA00216846E2
:10846C00FEF7E8F9009805B05DF804FB024B1A68BA
:10847C00024B1A60704700BF4CDD0320B0E60320AE
:10848C000021FEF77FBB0000014B00229A60704771
:10849C00B4E60320090941EA001107EE901A9FED9A
:1084AC00030AF8EEE77A87EE800A7047000048442A
:1084BC0001EB002300EE103A132A0CBFDFED047A17
:1084CC00DFED047AB8EEC00A20EE270A704700BF31
:1084DC000000003B0000803B006800F00CBE10B5B3
:1084EC000446016002710AB1FFF7F6FF204610BD89
:1084FC0013B50446019101F0D3F9019A01462046C7
:10850C00FFF7EDFF204602B010BD006800F0FCBD87
:10851C002DE9FF4104460D4617461E46FFF7DCFFCA
:10852C0036220023CDE9002320680A234FF00108EE
:10853C006946CDE9028300F0C2FD20680368294634
:10854C009B6898472068414600F0D1FD054640B134
:10855C006FF09F052046FFF7D8FF284604B0BDE812
:10856C00F081022320680193694600F091FD0228F6
:10857C00EED1206803685B699847387020680368FF
:10858C005B6998473070E5E707B500238DF8063036
:10859C008DF807300DF106020DF107030221FFF7EC
:1085AC00B7FF40B99DF807109DF8060003B05DF8C1
:1085BC0004EBFFF76FBFBFEE000A03B05DF804FBDE
:1085CC0010B58CB000238DF80E308DF80F300421CF
:1085DC000DF10F030DF10E02FFF79AFF0146C8B91A
:1085EC0020240190224604A801F0CCF901998DF8C1
:1085FC00154004A8FEF70CFB50B99DF81E209DF801
:10860C000F109DF80E000CB0BDE81040FFF750BFE6
:10861C001222F4E7BFEE000A0CB010BD014B18603B
:10862C00704700BF50DD032008B50B4B43B100F081
:10863C0003FC03681B699847002801DDAFF3008039
:10864C00064B43B101F0AEF803681B69984700284C
:10865C0001DDAFF3008008BD000000000000000049
:10866C0008B5FFF7E1FFFEF7D5F8014B186008BD20
:10867C0034E703200548064A064908B5121A01F0EA
:10868C0059F9054B054A1A6008BD00BF00F40320D8
:10869C0004F40320F8A30B0000F403201E1C279AFB
:1086AC0007B5002300931A466FF07701FEF79CFA8A
:1086BC0003B05DF804FB000007B543880A2B08D013
:1086CC00502B0BD1094B1B684BB103B05DF804EB7D
:1086DC001847FFF7E5FF03B05DF804FB0023009398
:1086EC001A466FF07701FEF77FFAF4E7C8E603202D
:1086FC0010B512480021FEF785FB114B1A68114B7F
:10870C009A42114B0CBF012200221A7001D0FFF7C4
:10871C00B1FFFEF767F8044601F03CF90B4B13B1BF
:10872C002046AFF3008000210848FEF71BFBBDE894
:10873C00104007480021FEF74DBA00BF29860B00F8
:10874C0000F403201E1C279AC4E60320000000003E
:10875C00C5860B0070470020704710B510210446E9
:10876C00FCF7C5F8204610BD08B5FFF7F6FF08BDAD
:10877C0030B500224FF69C74026084808D888C800A
:10878C000C68858004600A6030BD10B50446006832
:10879C00FEF7F8FA204610BD38B5C468F4B123785A
:1087AC00022B03D104F10C00FFF7EFFF656835B124
:1087BC002846FEF750FC10212846FCF798F8A568CF
:1087CC0035B12846FEF747FC10212846FCF78FF8F8
:1087DC0020461421BDE83840FCF789B838BD0B6839
:1087EC0003604B68436013B15A6801325A6070479A
:1087FC0037B5044668460D46FFF7F1FF009B019A1A
:10880C0023606260002301A801930093FEF749FBEB
:10881C0035B1281DFEF745FB08212846FCF767F803
:10882C00204603B030BD826810B50AB901F060F87B
:10883C00BDE81040C368184708B5006800F1100186
:10884C00FFF7F1FF08BD826810B50AB901F050F8C6
:10885C00BDE81040C368184708B5006800F1100166
:10886C00FFF7F1FF08BD000038B500230446036094
:10887C0010200D46FCF737F828B10123C0E901336D
:10888C00024B0360C5602060204638BD54A00B002D
:10889C0038B5002383608B6804460D462BB1022249
:1088AC009847EB68E360AB68A360204638BD0000D6
:1088BC00F0B589B004686846FFF75AFF4FF0020321
:1088CC00D4E84F2F002A03D1C4E8413F0029F7D147
:1088DC0025D104F10C0569462846FFF749FFBFF383
:1088EC005B8F01236370002004F10803BFF35B8FDF
:1088FC0053E8006F43E80002002AF9D1BFF35B8F05
:10890C006EB1FEF74FF978B129463046FFF78BFF71
:10891C003046FEF7A0FB10213046FBF7E8FF684617
:10892C00FFF733FF09B0F0BD314602A8FFF7B0FFE7
:10893C00E068B4F9105008B101F07AF806901020F4
:10894C00ADF81C50FBF7CFFF0546E8B10027876058
:10895C001820FBF7C8FF044688B10146876002A8BF
:10896C00FEF7D8FC049BA268A360059B049206A9A1
:10897C00E268E36004F110000592FFF7F9FE084B82
:10898C00EB60084B2C60AB6006A8FFF7FEFE02A85C
:10899C00FEF761FB002229460348FEF70BF9B7E707
:1089AC0045880B00C98A0B00E18F0B002DE9F04FB5
:1089BC008BB005469DF850A00F4690469946FEF7A1
:1089CC00B1F907AE834638BB4FF62E73059005A957
:1089DC003046ADF81830FFF7CBFE1420FBF783FFC1
:1089EC00044648B1022303700123C0E901BB437064
:1089FC0031460C30FFF7BCFE2846214640F8044BAC
:108A0C00FFF732FF3046FFF7C0FE05A8FFF7BDFEAB
:108A1C0028460BB0BDE8F08F0C2300241420CDE9C0
:108A2C0008440793FBF75FFF014618B1C0E9014406
:108A3C000470447004A80391FFF716FF1E4B0893B3
:108A4C000820FBF750FF044610B103A9FFF7C7FE3F
:108A5C0000965FFA8AF34A46414638460994FEF777
:108A6C0069F9B8B9039B5B7803F0FF0293B94FF631
:108A7C009C7305A903A80592ADF81830FFF718FFF1
:108A8C0005A8FFF782FE05A80999FFF7B1FE06A815
:108A9C00FEF707FA03A905A8FFF7A1FE059B069AA6
:108AAC002B606A60002306A806930593FEF7F9F97C
:108ABC0004A8FEF7F6F9ABE78D8B0B00012AF8B58D
:108ACC00054603D10B6803600020F8BD022A10D0C4
:108ADC00032AF9D10468002CF6D004F11000FFF73A
:108AEC0054FE2046FEF7B7FA18212046FBF7FFFE8E
:108AFC00EAE718200E68FBF7F6FE044650B1314643
:108B0C00FFF7C6FE3069B6F9147008B100F090FF9B
:108B1C002061A7822C60D7E738B5002383608B686F
:108B2C0004460D462BB102229847EB68E360AB6814
:108B3C00A360204638BD012A70B5044603D10B68EA
:108B4C000360002070BD022A0CD0032AF9D10468FE
:108B5C00002CF6D02046FEF77EFA14212046FBF7B7
:108B6C00C6FEEEE714200E68FBF7BDFE054620B1ED
:108B7C003146FFF7D1FF337C2B742560E1E7000011
:108B8C00F0B589B004460D4601A81146FFF730FE3A
:108B9C00A4B124B21DB1284600F04AFF054601A835
:108BAC0003A90395ADF81040FFF782FE03A8FFF769
:108BBC00ECFD02A8FEF775F909B0F0BD019D01238B
:108BCC00D5E84F2F002A03D1C5E8413F0029F7D142
:108BDC00EFD12B73BFF35B8F6B702B1DBFF35B8FD0
:108BEC0053E8006F43E80042002AF9D1BFF35B8FD2
:108BFC00002EDED02046FDF7D5FF074660B105F10B
:108C0C000C013046FFF71FFE3046FEF724FA102108
:108C1C003046FBF76CFECCE7314603A8FFF77CFF30
:108C2C002B7B8DF81C301020FBF75DFE0546D0B178
:108C3C0087601420FBF757FE044678B18760014625
:108C4C0003A8FEF767FB059BA268A360069B059231
:108C5C00E268E3609DF81C3006922374064BEB60CF
:108C6C00064B2C60AB6003A8FEF7F5F900222946F1
:108C7C000348FDF79FFFC7E765880B00438B0B008C
:108C8C00E18F0B00704710B518210446FBF72FFE3F
:108C9C00204610BDF0B5037D062B8DB00E4600F1BD
:108CAC0004074FF0000412D000F1080515F8011D5F
:108CBC000A223046FEF783FBAF42044419D0002C45
:108CCC00F4D02E213046FEF76BFB0444EEE72F2345
:108CDC006A4639460A208DF80040FDF7D3FD6846F8
:108CEC00FBF7BEFD33680246DB68694630469847A1
:108CFC00044620460DB0F0BD10B5054B04461122BC
:108D0C0040F8043B002100F03DFE204610BD00BFA2
:108D1C0070A00B000346074A10B543F8042B01F171
:108D2C00100251F8044B43F8044B9142F9D10A78E4
:108D3C001A7010BD70A00B0010B59DF8084044EAE5
:108D4C00032343EA024242EA0161042341600375B2
:108D5C0010BD000007B5064B0360CB7800938B78F1
:108D6C004A780978FFF7E8FF03B05DF804FB00BF11
:108D7C0070A00B00417470477047704708B5002114
:108D8C00007CFDF7AFFE40EAE07008BD08B501219C
:108D9C00007CFDF7A7FE40EAE07008BD08B5007C3A
:108DAC00FDF798FE20EAE07008BD08B5007CFDF7E1
:108DBC0089FE20EAE07008BD13B50446007C0191E1
:108DCC00FDF788FE0028019901DC607C20B1207C35
:108DDC00FDF790FE20EAE07002B010BD007CFDF7BC
:108DEC0091BE10B514210446FBF781FD204610BD41
:108DFC0010B54FF47A73044608460021C4E90113F8
:108E0C00044B23600123207463741146FDF742FE6A
:108E1C00204610BD84A00B00007C0022FDF742BE52
:108E2C00007CFDF747BE10B514220446002100F06B
:108E3C00A9FD204610BD000010B50F4C88B003A84A
:108E4C00FFF7F1FF2178BFF35B8F11F001010FD118
:108E5C0020460191FBF75AFD019948B103AA074836
:108E6C00FFF7C6FF2046FBF756FD054800F043FD13
:108E7C00024808B010BD00BFCCE60320D0E60320AA
:108E8C00858D0B00002240681146FDF7E3BE0022E1
:108E9C0040681146FDF7FEBE002240681146FDF702
:108EAC0009BF40680022FDF7FDBE4068002281F03A
:108EBC000101FDF7E7BE002340681A461946FDF78D
:108ECC00D9BE002340681A461946FDF7CBBE0022D6
:108EDC0040681146FDF7AEBE406800220221FDF746
:108EEC00B1BE002340681A46FDF79CBE084B10B576
:108EFC00282422461846002100F044FD054B04802E
:108F0C004FF0FF32426004225A60034A1A6010BDCF
:108F1C00ECE60320E4E60320B8A00B007047417494
:108F2C00704708B5007CFDF7EDFC20EAE07008BD49
:108F3C0008B5007CFDF7BEFC20EAE07008BD08B562
:108F4C00007CFDF7C7FC40EAE07008BD08B5007C6A
:108F5C00FDF7B8FC40EAE07008BD007CFDF7C2BC30
:108F6C0037B5457C04462DB1207C03B0BDE83040BC
:108F7C00FDF798BC007C0191FDF7C4FC0028019919
:108F8C00F2DC284603B030BD10B514210446FBF7C3
:108F9C00AEFC204610BD000010B54FF47A730446A9
:108FAC00084611460022C4E90123044B2360012327
:108FBC0020746374FDF7B6FC204610BDFCA00B00BA
:108FCC00007C0023FDF7A6BC0022FFF7F9BF007C54
:108FDC00FDF760BC10B5836804460BB900F088FC43
:108FEC00C3689847A3681BB10322214620469847C3
:108FFC0020461021BDE81040FBF779BC7047F8B54E
:10900C00064615460C468F18BC4206D0336814F839
:10901C00011B9B6830469847F6E72846F8BD007C54
:10902C000022FDF797BC007C0021FDF79BBC007C67
:10903C000021FDF79FBC007C0021FDF7A3BC007C48
:10904C000021FDF7A7BC10B514210446FBF74FFC1B
:10905C00204610BD38B5044615464FF47A730022ED
:10906C00C4E90123094B2174084623602946FDF706
:10907C00A1FCBF3008D16B69DB0705D56868FDF72B
:10908C0081FEE868FDF77EFE204638BD30A10B005E
:10909C007FB500221423CDE90122ADF804300B7802
:1090AC008DF808304B680393CB680493007C0B7AE3
:1090BC00059301A9FDF796FC07B05DF804FB7FB59D
:1090CC000023CDE901334A6803921423CA68ADF832
:1090DC0004300B7804920A7A0592007C8DF80830E3
:1090EC0001AA1946FDF726FC07B05DF804FB007CCD
:1090FC000022FDF727BC08B50021007CFDF762FCBF
:10910C00B0FA80F0400908BD08B50021007CFDF7DD
:10911C0061FCB0FA80F0400908BD002340681A4693
:10912C00FDF780BD406800220221FDF78BBD0022B7
:10913C0040681146FDF77EBD002240681146FDF7E0
:10914C0089BD002340681A461946FDF78BBD0023E4
:10915C0040681A461946FDF78DBD40680021FDF7A1
:10916C00B1BD40680021FDF7B5BD4068002281F01B
:10917C000101FDF787BD40680022FDF793BD002279
:10918C0040681146FDF796BD002240681146FDF778
:10919C0081BD40680021FDF7ADBD2DE9F04395B0D0
:1091AC0014460D460746FFF7A7FD00211C220DA80B
:1091BC00009100F0E7FB40230C9320466B460CAA71
:1091CC000021FDF7DFFA044600284BD102460121AD
:1091DC006868FDF73FFD0221804622466868FDF76E
:1091EC0039FD009E81462146002E3BD0002939D105
:1091FC007368022B03D00A2B11D0F669F4E7B8F18F
:10920C00000FFAD0716906A8043107ADFFF7A2FD73
:10921C000FCD3C1D0FC42B6823704146EDE7B9F10F
:10922C00000FEAD07469102201A800F0ABFB0623F2
:10923C008DF8143001AD04F108031834186859681E
:10924C002A4603C20833A3421546F7D101A906A842
:10925C0007ADFFF75FFD0FCD3C1D0FC42B682370CE
:10926C004946CAE70098FDF785FA384615B0BDE8BF
:10927C00F08300000328024605D0044B0448042A5E
:10928C0018BF184670470348704700BF14E7032007
:10929C00E4E603205CE6032008B500224068FDF7F5
:1092AC0021FDBDE80840FFF7E5BF0000024B034A73
:1092BC001A6000225A60704714E703205CA10B006F
:1092CC0000F11003012213F8101C0129184608D1D3
:1092DC0053F8041C02EB4102013A03F11003F2D1E2
:1092EC007047022904BF53F8041C5218F4E70EB45B
:1092FC00F0B588B000AF07F13405102155F8042BF8
:10930C007A6004462B467818FD60FDF753FD0F2854
:10931C007A681AD900F1080323F007036E46ADEB07
:10932C00030D411C2B466846FD60FDF743FD021EF4
:10933C0004DD236869469B6820469847B54620376C
:10934C00BD46BDE8F04003B070470028F7D0236855
:10935C0002469B6807F1100120469847EFE738B5A5
:10936C000B6803604D6843689D42044608D015B1F4
:10937C006B6801336B60606808B1FDF7A5FF656031
:10938C0038BD07B503688DF807109B6801220DF1F5
:10939C000701984703B05DF804FB0B461146002209
:1093AC0010B5C0E90022044683600BB9204610BDFD
:1093BC00FFF7D5FFFAE78368EBB11A78032A1AD8BE
:1093CC00DFE802F00417021B0520704702685B6897
:1093DC005268D05C2D2812D0A0F13003092B0ED985
:1093EC0074280ED066280CD0A0F16E035842584158
:1093FC0070470620704700207047042070470320F8
:10940C0070470220704710B50446FFF7D4FF0228BE
:10941C000ED0C31EDBB2012B14D82268A36850688F
:10942C005B68BDE810400A220021184400F0C8BB5C
:10943C002268A36852685B68D05CA0F17403584240
:10944C00584110BD0020FCE738B50023C0E90033BB
:10945C0004460E48C4E90203A9B10B78032B06D0CD
:10946C008BB9136858684B68C35C6E2B07D01368B4
:10947C004D6858688B6828445B1BA060E3601146FC
:10948C002046FFF76CFF204638BD00BFBB9F0B008A
:10949C0038B500250B46C0E90055C0E90255C0E9B6
:1094AC000455044611464BB11A78012A06D103F132
:1094BC001002DB6882604361FFF751FF204638BD24
:1094CC0010B54369044663B18068E060013B10301D
:1094DC00A0602061636113B1FFF7F2FEA060012070
:1094EC0000E0184610BD10B57D210446FFF749FF7A
:1094FC0001232371204610BD08B50379012B02D03E
:10950C00022B04D008BD2C21FFF73BFFFAE73A21D0
:10951C00FAE710B50446FFF7EFFF20467B21FFF773
:10952C0030FF00232371204610BD000013B5044604
:10953C000191FFF7E1FF2368019ADB68034920469C
:10954C00984701232046237102B010BDC49D0B0027
:10955C0013B504460191FFF7CFFF2368019ADB682E
:10956C0003492046984701232046237102B010BDC1
:10957C0098A10B002DE9F0470D4622219046044698
:10958C00FFF7FFFEDFF8A490A8442F464745BA46E4
:10959C003DD017F8016B222E06D05C2E04D030463D
:1095AC0000F0B0F90028F1D12368AAEB05029B6802
:1095BC002946204698475C212046FFF7E2FE0D2EF7
:1095CC000AD8072E1CD9A6F10803052B18D8DFE8FA
:1095DC0003F00D0F11171315222E01D05C2E0FD195
:1095EC0031462046FFF7CDFE3D46CFE76221F8E736
:1095FC007421F6E76E21F4E76621F2E77221F0E7B9
:10960C0023683246DB68494620469847ECE7BD4262
:10961C0005D023687A1B9B6829462046984722214F
:10962C002046FFF7AEFEBDE8F08700BF9BA10B0004
:10963C0013B50446CDE90021FFF75EFF2046DDE9B6
:10964C000021FFF797FF02232046237102B010BDC3
:10965C0013B50446CDE90021FFF74EFF2046DDE9A6
:10966C000021FFF787FF01232046237102B010BDB4
:10967C00232813B502D9002002B010BDA0F10B03B2
:10968C00022B1AD8174C2178BFF35B8F11F0010114
:10969C000BD120460191FBF739F9019928B11248F9
:1096AC00FDF71BFC2046FBF736F90F4B1878FDF73E
:1096BC00B9F90028DFD10120DEE7012809D800F034
:1096CC00CBF80021007CFDF76DF980F00100C0B2F1
:1096DC00D2E709380128EED800F064F8007CFDF7D9
:1096EC0009F9F2E7B8DD0320BCDD0320232838B5E7
:1096FC0004460D460AD8FF2908D0FFF7B9FF28B158
:10970C0029462046BDE83840FDF74CB838BD38B581
:10971C0004460D46FDF74EF8FF2810D0062804D855
:10972C004D2323FA00F0C30709D42046FFF7A0FF0E
:10973C0028B129462046BDE83840FDF743B838BD6E
:10974C000D2810B504469CBF0E34A4B22046FFF77A
:10975C008FFF50B103212046FDF71CF8032804D1DC
:10976C002046BDE81040FDF735B8002010BD70470D
:10977C0038B5044614252A46002100F003F925804B
:10978C004025074925812846258200F0AFF8044979
:10979C006060284600F0AAF8E060204638BD00BFA3
:1097AC00A1A10B0030B50E4D2978BFF35B8F11F0E2
:1097BC00010487B011D12846FBF7A8F868B101A8BD
:1097CC00FFF7D6FF01AA21460648FFF7E5FB28461E
:1097DC00FBF7A1F8044800F08EF8024807B030BD42
:1097EC001CE7032020E703207B970B007047704792
:1097FC0038B50A4B03600123044643610849202015
:10980C0000F074F8202560600549A560284600F03A
:10981C006DF8C4E90305204638BD00BF18000100EF
:10982C00A1A10B0038B50A4B036001230446436128
:10983C000849202000F05AF8202560600549A560F1
:10984C00284600F053F8C4E90305204638BD00BF94
:10985C0018000100A1A10B0030B50E4D2978BFF303
:10986C005B8F11F0010487B011D12846FBF74EF83D
:10987C0068B16846FFF7BCFF6A4621460648FFF709
:10988C00E9FB2846FBF747F8044800F034F8024897
:10989C0007B030BD38E7032040E70320F9970B00F1
:1098AC0010B50E4C2378BFF35B8FDB0786B011D459
:1098BC002046FBF72BF868B16846FFF7B3FF6A4602
:1098CC0001210748FFF7C6FB2046FBF724F80548A3
:1098DC0000F011F8024806B010BD00BF3CE70320B1
:1098EC0054E70320FB970B00FAF7FDBFFAF7FDBF17
:1098FC0008B5FDF767FA002301461A46184600F032
:10990C0069B90000024B1844407800F0970070478A
:10991C0036A20B0010B501390244904201D100204F
:10992C0005E0037811F8014FA34201D0181B10BDBC
:10993C000130F2E70A44914200F1FF3300D1704745
:10994C0010B511F8014B03F8014F9142F9D110BD3C
:10995C00884210B501EB020402D98442234607D891
:10996C00431EA14208D011F8012B03F8012FF8E790
:10997C00024401468A4200D110BD13F8014D02F891
:10998C00014DF7E702440346934200D1704703F8B8
:10999C00011BF9E738B5104B1D68AB6B0446B3B926
:1099AC001820FDF7E7F90246A86320B90B4B0C48C9
:1099BC004221FDF71FFA0B490B4BC0E900130B4B6F
:1099CC0083600B23838100210120C2E90401AB6B6E
:1099DC0000221C615A6138BD50DD0320A2A10B008E
:1099EC00B9A10B000E33CDAB34126DE6ECDE0500E5
:1099FC00C9B2034610F8012B1AB18A42F9D11846A4
:109A0C007047002918BF0023F9E710B50446FFF78B
:109A1C00EFFF18B92046FAF723FF204410BD034688
:109A2C0011F8012B03F8012B002AF9D17047000023
:109A3C00024B0146186800F003B800BF50DD03204C
:109A4C0037B5044608460D46FAF70AFF421C114684
:109A5C0020460192FDF7BEF9044618B1019A294639
:109A6C00FFF768FF204603B030BD10B57AB103464E
:109A7C000139841813F8010B11F8012F904201D110
:109A8C00A34201D1801A10BD0028F3D1FAE7104689
:109A9C00F9E738B503460C4669B9BDE83840FFF71D
:109AAC00A7BF431C054621461846FFF7A1FF002817
:109ABC00F7D1284638BD0025F5E70000012B2DE92C
:109ACC00F04701D0242B06D9FDF78CF9162303603F
