:02000002B0004C
:1040000000400B007C800B00000006000D00050244
:0840100004016810000000002B
:04401800DC7B0B0042
:10401C0009480A49884208B505D0094A824202D0AB
:10402C00121A03F023FD0748074A0021121A03F065
:10403C002BFD014808BD00BF14DE0320E87F0B00F8
:10404C0080DE032080DE0320EDE7032070B5074EF1
:10405C00074C02F063FFA41BA4080025AC4200D15E
:10406C0070BD56F8043B98470135F7E7907F0B007D
:10407C00B47F0B0000F0D6B808B500F00BF9BDE822
:10408C00084002F003BF02F08BB802F089B802F0CE
:10409C008FB80078B0FA80F04009704701230370A4
:1040AC0070477047037C13F008031EBFC36A406A55
:1040BC001B1A002BACBF18466FF0004070477047BE
:1040CC00103000F017BD103000F035BC07B50122E0
:1040DC000DF10701103000F080FB01280CBF9DF89A
:1040EC0007004FF0FF3003B05DF804FB103000F018
:1040FC008BBD07B501228DF8071010300DF10701AB
:10410C0000F082FD03B05DF804FB10B510210446ED
:10411C00FFF7BDFF204610BD10B534210446FFF754
:10412C00B6FF204610BD21B18B88834201D089682F
:10413C00F9E7084670470EB403B503AB002153F8FA
:10414C00042B019302F0C9FB02B05DF804EB03B041
:10415C007047000073B5044608462279A36832B153
:10416C00A3B90B4902B0BDE8704002F07BBB094A11
:10417C00267B094D0949647B012E18BF2946CDE9E0
:10418C0000140749FFF7D7FF02B070BD054AEFE7EF
:10419C00017C0B004F7C0B00FD7B0B00F97B0B00B3
:1041AC00177C0B00F07B0B0030B585B01B4B0093DC
:1041BC0013798DF804309368029300F58C6593891C
:1041CC00ADF80C3004460A466B4600F26C412846AA
:1041DC0001F064FB10B9002005B030BD256004F27D
:1041EC003C45284600F0BCFC0121204601F000FAB9
:1041FC00014668B12146284600F0E9FA0028EAD0C9
:10420C0094F83C3413F0700FE5D0054B1D60E3E7D8
:10421C00204601F0EDF90028ECD1DCE7407D0B00E5
:10422C0078E6032008B50A48002319461A46406868
:10423C0001F07EFF02F0E2FD4FF4165102F0D2FDC8
:10424C0002F0DCFDBDE80840024902F01EBB00BFD5
:10425C0088E60320347C0B0038B502F005FD4FF4E2
:10426C00B474B0FBF4F303FB1400241A02F0C6FD83
:10427C00074902F0F7FA02F0C1FD0A220546214671
:10428C0002F00DFB284602F0F4FA204638BD00BFC0
:10429C00427C0B002DE9F047AD4E3578B6B02DB110
:1042AC00012D00F0E58036B0BDE8F087A94DC8249B
:1042BC002F46122002F0CCFE07EE900AF8EEE77AB9
:1042CC003220E7EC017A01F09BFF013CF1D1013483
:1042DC00294604352A462346D1ED007AB2EC017A00
:1042EC00F4EEC77AF1EE10FA03F10103C4BF81EDCD
:1042FC00007A42ED017AC82BEED1C72CE7D1964D4E
:10430C00B4244FF000084FF0000955F8040B03F0EB
:10431C00DDF802460B464046494602F079FF013C67
:10432C0080468946F1D100228C4BDFF884828C4F79
:10433C0003F04EFA03F034FB07EE900AB5EE007A68
:10434C0067EE877A874BC8ED007A186002F08CFC18
:10435C00386001F0CDFC844B1860844802F060F8A2
:10436C00824810EE105A02F077F810EE100A03F0A3
:10437C00ADF8CDE90401284603F0A8F8CDE9020117
:10438C00D8F8000003F0A2F8CDE900013B68784AA8
:10439C00782118A801F014FF02F030FD18A902F0E2
:1043AC0074FA4FF47A730D93724B0B93724B079311
:1043BC00724B099372480C94012307AA05210F94A0
:1043CC008DF82040ADF82830FFF7EEFE28B902F04A
:1043DC0015FD6C4902F059FA65E76B496B4A09689F
:1043EC0044F202230FA800F0C2FB054618B902F0F4
:1043FC0005FD6749EEE718A90BA802F033FA0FA8E0
:10440C0000F0AEFB642001F0FBFE01F071FC614F8B
:10441C00DFF8A0A1DFF8A081386044F61F6901F035
:10442C0047FE044658B102F0E9FC5B4902F02DFA54
:10443C004FF47A6001F0E4FE0123337033E701F0AE
:10444C0057FC3B68C01A484507D90123337002F06A
:10445C00D5FC514602F019FA2C4602F0CFFC41462D
:10446C0002F013FA642001F0CBFE002CD7D01AE72F
:10447C0002F0C4FC49494A4C02F007FA4FF4FA70B6
:10448C0001F0BEFEFFF7E8FE237D8046EBB1022370
:10449C0023722368D9682846FFF745FE0546002895
:1044AC0040D08389022B3AD18373237D6BB123686F
:1044BC004FF47A70D96800FB08F80420FFF733FE3C
:1044CC00074600287AD0C0F80C80237D8BB1236876
:1044DC00D9680E20FFF727FE0546002800F08380E0
:1044EC00037B042B7DD1C389012B02D043F0010344
:1044FC00C3812B4918A802F01BFB02F07FFC294951
:10450C0002F0B0F901F0F4FB224B1860189800236C
:10451C00337000283FF4C7AE01F04AFEC3E6816851
:10452C000120B9E72049102002F068FE0746002858
:10453C0071D01022294603F0A7FA1C4B3B600123D3
:10454C00BB802369BB600223BB81BB732761ACE7D3
:10455C006CE60320BCDE0320E4DE03200080664012
:10456C00E4E10320B8DE0320DCE1032098DE032025
:10457C00507C0B00547D0B00407D0B0080F0FA0248
:10458C00E8E10320657C0B0078E60320797C0B00C6
:10459C00867C0B0070E60320A87C0B00187D0B00BA
:1045AC00A0DE0320277D0B001C7F0B0010000300F6
:1045BC00E0E10320B87C0B00F57C0B0017491020C0
:1045CC0002F01CFE054630B31022394603F05CFAAB
:1045DC00134B2B600423AB8023692561C5E902389A
:1045EC0073E7816875E70D49142002F007FE074652
:1045FC0078B11422294603F047FA094B3B600E238D
:10460C00BB802369BB6004233B730123FB812761BF
:10461C006FE725756DE7257557E700BF1C7F0B000D
:10462C001000030037B5234C234D6422C4F86024DA
:10463C00224AC4F87024002301226360C4F83C347D
:10464C00C4F8683484F87424C4F87834A4F87C343E
:10465C002978BFF35B8F11400BD128460191FFF7EE
:10466C0018FD019928B1164802F074F92846FFF795
:10467C0015FD134BC4F86C34124B134A9A6000248A
:10468C00C3E90044022001F0C3FC2146012001F0E3
:10469C00CFFC21460D4801F077FE0D4B1A1D1A6018
:1046AC000C4A5A600122C3E902441C611A7503B01A
:1046BC0030BD00BFE8E1032080DE0320407D0B000D
:1046CC0084DE03208CDE03200000FFFF98DE032035
:1046DC00A0DE03201000030038B504460D4624224A
:1046EC00002103F0D1F9A560EB79102B03D0202B1E
:1046FC0006D0002038BD202301202370A070F9E7DC
:10470C004023F9E710B50446243000F063FE28B1CD
:10471C0004F50C70BDE8104000F05CBE10BD837851
:10472C00016943F00403837000F11002806800F00B
:10473C0007BF00002DE9F041017811F02005044677
:10474C0003D000263046BDE8F0814269174B9A42EF
:10475C00F7D2FFF7E4FF06460028F2D02169A068E3
:10476C0000F083FE0746A06805223946243000F08D
:10477C0059FE80460028E4D029464FF4007203F01D
:10478C0083F90125A3681A79AA4209D91868424607
:10479C00E91901F0B4F90028D3D00135EDB2F1E7F5
:1047AC00636903EB42236361CCE700BF00FE1F008B
:1047BC0010B5044680680A462430A16900F032FE28
:1047CC0020B1A38803F00F0300EB431010BD037856
:1047DC000BB9FFF781BF002070472DE9F74F037825
:1047EC00044688461546002B5DD08278D1075AD5F1
:1047FC001A072DD5C36942699B1A9D4228BF1D46D5
:10480C002E464FF0000904F1100B002E00F08F80A3
:10481C0022786369A0689706C3F3080A4FEA53210C
:10482C001FD5006A0144A068BAF1000F42D1B6F559
:10483C00007F3FD3C36A99423CD0B6F5806F52D209
:10484C000068424601F0D2F868B34FF4007744E0B8
:10485C009B06D5D583681A894369C3EB42139BB277
:10486C00CBE790F8059009EA0109BAF1000F08D1DD
:10487C00B9F1000F05D15BB951064CBF036A236A2D
:10488C0023612169A06800F0F0FD09EB0001CAE783
:10489C0021695A4600F0EFFD002804DBF1D12378A2
:1048AC0013F0700F43D1637843F0020363704FF041
:1048BC00FF303DE0CAF50077B7424FF0000200F13F
:1048CC00240028BF374600F0ADFD0028EBD000EBEC
:1048DC000A013A46404603F0C9F863693B44B844C0
:1048EC006361F61B91E7227892064FEA562A06D4AA
:1048FC000279A2EB0902D2B2924528BF92469942A4
:10490C004FEA4A2708D2A06853460068424601F095
:10491C00B5F80028E1D1C6E753448B42F3D92430D3
:10492C00019100F057FD01990028ECD1BBE7A81BC1
:10493C0003B0BDE8F08F73B501220DF10701D0E98A
:10494C0004560446FFF749FF01280ABF9DF80700EB
:10495C004FF0FF30C4E9045602B070BD37B543695F
:10496C0013F4F07F0446C3F3431500D099B9012228
:10497C000DF107012046FFF730FF40B2012802D0AD
:10498C00002003B030BD63691F33A0686361303011
:10499C0000EB4510F5E72033F7E72DE9F0410278FD
:1049AC00076904460D4662B14069884202D019B9C4
:1049BC0021616561012006E0160706D5E3698B428B
:1049CC000BD227610020BDE8F081910605D5A368C4
:1049DC001B89B5EB431FECD9F3E7D4F808C09CF85E
:1049EC000660431E06F109016E1ECB40CE40B34259
:1049FC0000D898B953064CBFDCF82030236A2361E9
:104A0C0004F11008002ED4D02169A068424600F0B1
:104A1C0032FD002806F1FF36F4DCD2E7F61AEFE798
:104A2C00F8B50F4604461546002124221E4603F015
:104A3C002BF8B868A060A58005F00F053B6AE36011
:104A4C006A0100EB451595F83B301F0744D403F081
:104A5C001703237095F83B1011F0180F04BF43F0A7
:104A6C00080323709DF81830E37006F00303012B44
:104A7C002CD0022B28D07BBB71052DD40123A37025
:104A8C00A1788B0704D52378DF0625D4DD0723D442
:104A9C00B31123F07F0306F008052B430B43A370DF
:104AAC00C36AA3618318B3F84420B3F84A1041EAEF
:104ABC000241720513D559B9A37843F00403A370CE
:104ACC00730410D40120F8BD0323D8E70223D6E7E2
:104ADC0000F071FD0028EFD100202070F3E7216277
:104AEC00DB6CE361ECE7E1692046FFF756FF002839
:104AFC00E8D1F1E738B5037804460BB9012038BD8D
:104B0C0083785A0723D50121FFF752FE054628B9B1
:104B1C00637843F0010363700020F0E70378E52B22
:104B2C00F6D023781B0744BFE369C361236A438330
:104B3C00638C8382094B1B682BB100F11601183072
:104B4C0098472B8B6B82A37823F00403A370A06887
:104B5C00FFF7D8FD0028DBD0D0E700BF74E60320B8
:104B6C0010B50446FFF7C6FF0023237010BDF0B547
:104B7C0093B01F46002309930378019206460C4616
:104B8C0013B1002013B0F0BD0B7813F0700FF8D0F8
:104B9C0013782F2B12D1019A13782F2B02D10132BB
:104BAC000192F8E7A1681BB93046FFF710FEE9E760
:104BBC0009A8FFF791FD0028E3D009AC019801AAE0
:104BCC0003A900F00BF90028DBD0019B1B789BB1EB
:104BDC00002303AA2146304600F032FA0028D0D038
:104BEC0035460FCD09AC0FC40FCD0FC42B68236015
:104BFC003046FFF7B5FFE0E73B4603AA21463046B7
:104C0C0000F01EFABEE700002DE9F0470378894654
:104C1C001907044617465BD583789A0758D51B07A6
:104C2C0051D46369DB43BB4252D3B84604F1100A3A
:104C3C006669B8F1000F00F09180A0684379C6F363
:104C4C00080513EA56260ED16DB92169002946D004
:104C5C00524600F010FC00283ADB04D12046FFF746
:104C6C005EFD002834D02169A06800F0FEFB3118ED
:104C7C00A06815B9B8F5007F3FD2C5F5007646455A
:104C8C0028BF4646002D36D16269E3699A4234BF8B
:104C9C0001220522243000F0C5FBC8B1284432465D
:104CAC004946354402F0E2FEB5F5007F04D1A06818
:104CBC00243000F08FFB58B1636933446361B14415
:104CCC00A8EB0608B4E7C169FFF767FE0028A8D176
:104CDC00637843F0010363704FF0FF3050E0236AB8
:104CEC003BB92046FFF71BFD0028F1D02369236256
:104CFC00B9E72361B7E70122CCE7B8F5806FC26A48
:104D0C001BD390F804C0ACEB0606F3B24FEA582E56
:104D1C00734528BF734691424FEA432607D31A4482
:104D2C008A4282BF4FF0FF3280F82450C262A568DD
:104D3C004A46286800F059FFBDE7914202BF4FF088
:104D4C00FF3380F82450C362A3684A46186800F009
:104D5C00D6FE0028BCD04FF40076ADE7E269A3780C
:104D6C00B24204D2E66143F00403A37003E0084AA4
:104D7C001268002AF7D194F90230002B02DB384676
:104D8C00BDE8F0872046FFF7B5FE0028F7D19FE776
:104D9C0074E60320042904D800EB4100B0F80100AC
:104DAC0070470A299BBF01F1FF3100EB4100013133
:104DBC00C08884BF00EB410080887047411E00F121
:104DCC000A030020420842EAC01011F8012F52FADF
:104DDC0080F08B42C0B2F5D1704700002DE9F0474E
:104DEC00064610F8013B202BFAD06A4D8E60002449
:104DFC00335DC3B12F2B16D05C2B02D10020BDE844
:104E0C00F087A3F12200C0B21D2803D825FA00F0C8
:104E1C00C007F3D403F0BF003C28EFD0203B5E2B3F
:104E2C00ECD80134E4E733191846074610F8015B57
:104E3C00202DFAD02F2DF8D017604CB113F8012D7E
:104E4C002E2A01D0202A01D1013CF6E7FF2CD5DC1B
:104E5C004FF02033C1F811304C60C1F80D304B616C
:104E6C004FF0000816F808302E2B01D0202B02D161
:104E7C0008F10108F6E7B8FA88F04009651E6B1CCA
:104E8C0002D0735D2E2B14D14FF0000907274A4630
:104E9C00CA464FF0080EA04568DA16F80830202BE9
:104EAC0003D02E2B07D1A84512D0002008F1010801
:104EBC00F1E7013DE3E7222B08D07C2B06D0A3F1D0
:104ECC002A0CBCF1050F0AD82D2B12D0A8455BD1AA
:104EDC000A2F4AD00A2708224FF0100EE6E7A3F15A
:104EEC003A0CBCF1050FF1D9A3F15B0CBCF1020F2C
:104EFC00ECD9A3F1210CBCF15D0FE7D8A845E7D0A4
:104F0C00BA4230D8A3F1610CBCF1190F1AD8203B6E
:104F1C004EEA0909DBB25FFA89F902F1010C5FFA7A
:104F2C008CFC0A44BCF1060F537301D881F80CC0F9
:104F3C006246BBE7A84518DCA8460A2708224FF0B2
:104F4C00100EB2E7A3F1410CBCF1190F98BF4EEA59
:104F5C000A0AE2E70B7B0120087019447E234B738D
:104F6C0031238B734BE70A2FE4D100204B7B202B92
:104F7C003FF444AF0028EDD01AEA090F18BF4FF0E8
:104F8C00020981F800903AE7BA42ECD800205F237E
:104F9C00C3E700BF010100312DE9F84391F80C90F3
:104FAC0006460C4602257E2701F10D086168A268B1
:104FBC006B189BB21144914206D012F8010B03EB13
:104FCC00431343409BB2F6E7B9F1030F28BF4FF0F0
:104FDC00030909F10402D2B203F00F01A018013A3F
:104FEC000929D2B294BF30313731914541734FEA20
:104FFC001313F1D104EB090300215F733046FFF763
:10500C00CCFC01213046FFF7A9FC014628B9707889
:10501C00B0FA80F04009BDE8F88303786BB1C37A2D
:10502C001B07EED40B22404602F010FD0028E8D1FD
:10503C000135ADB2642DB9D1EDE70120EBE70000ED
:10504C002DE9F04F2DED028B8BB00D4606930B78AE
:10505C00079013F0700F174605D100200BB0BDEC74
:10506C00028BBDE8F08F079B1B78002BF5D15368A2
:10507C00059313789C071FBF059B0C330D22B3FBC4
:10508C00F2F31ABF0133DBB201230021284603934C
:10509C00FFF783FC07F10D034FF0000B08EE103AFD
:1050AC00DA465C465E46CDF810B0D9466B690121F4
:1050BC002846C3F34F18FFF751FC0346002871D163
:1050CC006B78002BC9D1069B9A05C6D503F0030358
:1050DC00013B012BC1D8049B002C08BF4346049311
:1050EC00039B9C42C0F0F180B9F1000F40F00A81A3
:1050FC00049B28465901FFF750FC0028ADD0039BB8
:10510C0003F1FF395FFA89F94E464FF0000A4FF070
:10511C000F08002E00F00D8100212846FFF71EFC21
:10512C000446002899D0AA6892F824304E4543F0E2
:10513C0001030CBF46F0400BB34682F8243080F8D4
:10514C0000B080F80B8080F80CA007F10D00FFF781
:10515C0035FE84F81AA0607384F81BA00BF01F03B3
:10516C000D22013BD7F808C0534300220599994200
:10517C0040F2D0801CF80310042A5FFA82FE02F180
:10518C00010000F2CD8004EB4202A2F801100D28C0
:10519C0003F101030246E9D1013EF6B2B9E74FF043
:1051AC00010983E70278E52A00D07AB90499002C2A
:1051BC0008BF4146049103998C423CBF0134E4B2D0
:1051CC00002A80D0E52A05D100266FE703998C428E
:1051DC0038BF00242E2AF7D0D97A0F294AD116BB12
:1051EC0012F040063FF462AF02F01F0693F80DB0C8
:1051FC00B2460D220AF1FF3802FB08F8059A424527
:10520C00E2D9A2EB08020892002202EB08010991F4
:10521C001846D1B2FFF7BEFD08998A420DD100287D
:10522C0018BF002642E70AF1FF3A5FFA8AFA5245A4
:10523C00CAD15A7B5A45DCD0C6E7FF28C4D85FFADE
:10524C0080FEAEF141011929B9689CBF0EF1200016
:10525C005FFA80FE08460999415CA1F1410CBCF152
:10526C00190F9CBF2031C9B27145ADD101320D2A45
:10527C00CBD11BE70807A7D45EB1BAF1010F7FF4BD
:10528C00ECAE1846FFF79AFD58457FF4E6AEB146F2
:10529C000EE018EE101A0B22184602F0D7FB00286D
:1052AC007FF404AF97F8009019F001097FF477AF01
:1052BC00069B19053FF5D1AE069B0798CDF80090DB
:1052CC0042462946FFF7ACFBC8E600212846FFF70B
:1052DC0045FBA0B96B78002B7FF4BFAE2846FFF7D7
:1052EC0029FA00283FF4B9AEAB681B79012B3FF6C5
:1052FC00FBAE039B1034E4B2A342EFD8F4E60134C6
:10530C00E4B2EDE639462846FFF746FE00287FF466
:10531C00EFAEA2E614BF4FF0FF31002189B22BE7AC
:10532C00BEF10A0F94BF04EB420204EB40029180E1
:10533C002DE731462846D5F81480FFF70FFB0446BD
:10534C0000283FF48AAE2022314602F09DFBD7F8AC
:10535C000D302360D7F811306360B7F81530238116
:10536C00FB7DA3723B7803F0180323730F4B1B6870
:10537C009BB104F10E0104F110009847238A63825B
:10538C002383E389E382AA6892F8243043F0010373
:10539C00C8F34F1882F824308EE721232374282376
:1053AC0063740823A673E373E8E700BF74E6032075
:1053BC0013B50446084659B1019102F09BFB2368D2
:1053CC000199DB680246204602B0BDE81040184740
:1053DC0002B010BD37B50378DA07044620D5436810
:1053EC00816800F10C021868019200F088FB019AA8
:1053FC00054618B90025284603B030BD23789B0715
:10540C0004D4237823F001032370F4E7D4E90130AA
:10541C0019690144186800F072FB0028F1D1E9E722
:10542C000125E8E770B583688B4204460E461546A5
:10543C0009D0FFF7CFFF08B9002070BD6B070AD564
:10544C0000232370A660227805F00305204615433F
:10545C0000F80C5BF1E7636804F10C021868314644
:10546C0000F0C4FA0028EBD1E6E7837940690239F1
:10547C00994008447047012970B505460C461646FC
:10548C0002D84FF0FF3070BDC3698B42F9D3C3799A
:10549C00202B16D18169022201EBD41100F50C707E
:1054AC00FFF7C0FF0028ECD004F07F0450F8243044
:1054BC0023F07043EA699A4226BF33600120002032
:1054CC00E1E7102BDDD1C1F30723816902221944D6
:1054DC0000F50C70FFF7A6FF0028D2D0E4B230F82C
:1054EC001430E7E7012938B50C46154601D80020E1
:1054FC0038BDC3698B42FAD3C379202B0FD1816994
:10550C00032201EBD41100F50C70FFF78BFF002880
:10551C00EDD004F07F0440F824500120E8E7102B74
:10552C00E5D1C1F3072381690322194400F50C70FE
:10553C00FFF778FF0028DAD0E4B220F81450ECE73B
:10554C002DE9F341C4688C4205460E46904601D3C2
:10555C00012701E00C460027EB690134A34202D27B
:10556C00C7B9EC68F4E7A64214D001AA2146284634
:10557C00FFF781FF00280DDBEED0019B002BEBD158
:10558C0007B1EC606FF0704221462846FFF7AAFF86
:10559C00074620B90027384602B0BDE8F08116B99D
:1055AC00C8F80040F7E7224631462846FFF79AFF35
:1055BC000028F5D1EEE773B505460C4601AA214645
:1055CC002846FFF758FF061E10DB0022214628460E
:1055DC00FFF788FF50B1EB68A34224BF04F1FF34FE
:1055EC00EC60019C002EE9D102B070BD0020FBE7FD
:1055FC00012370B50022C3604FF0FF330446C27123
:10560C0000F12406806280F82420C362C0F83402C2
:10561C0080F83022C0F838320D46B9B1042901D9CE
:10562C00002070BD11463046FFF7FCFE0028F7D075
:10563C0000EB051393F8AE315B06F1D105F11B01BC
:10564C0000EB0110D0F80650002DE9D000222946BD
:10565C003046FFF7E7FE0028E2D0B0F80B30B3F588
:10566C00007FDDD1037C022BDAD1C389002BD7D08C
:10567C00417B21714B1E63710023A3710926012309
:10568C00994207D0013ECBD0A2795B000132DBB24C
:10569C00A271F5E7C18A01B9416A2161C3892B4422
:1056AC00A361B0F81120228103EB41032362B0F80F
:1056BC001110490101F2FF1103EB51236361B0F8A2
:1056CC00132002B9026AE91AA3791144D9404B1C80
:1056DC00E36140F6F473994202D80C23E3719FE71F
:1056EC004FF6F473994285BFC36A236210232023BB
:1056FC00E371012095E700F0CBBA00F0AEBA0000E0
:10570C0070B50E4E0D46144600F0EAFA3368C01A16
:10571C000B4B984208D900F0EBFA0A4B186000F0DA
:10572C00BFFC00F0DDFA306000F0E2FA80B2401B02
:10573C00A042D4BF0020012070BD00BF7CE6032036
:10574C00A086010010E7032038B5057A04464DB950
:10575C00406800F06BFA63682946187D01F05FFC25
:10576C000123237238BD10B5037A04466BB143682C
:10577C000121187D01F053FC6068FF21FFF7BBFF8E
:10578C00606800F067FA0023237210BDF8B5044678
:10579C000D46164600F0ACFA87B26068FFF7ADFF15
:1057AC00FF2860720ED14FF47A7239462046FFF70B
:1057BC00A7FF0028F1D0552320462370FFF7D3FF15
:1057CC000020F8BDFE2801D05023F5E76068324672
:1057DC00294600F047FA607208B16023ECE7606874
:1057EC00FFF78BFF6068FFF788FF0120E9E770B5D2
:1057FC0004460E4600F07CFA85B232462946204615
:10580C00FFF77EFF30B96068FFF777FFFF28F4D110
:10581C00012070BD0020FCE7F7B5037A0192044625
:10582C000D460BB9FFF790FF25B14FF4967120464A
:10583C00FFF7DDFF606845F04001FFF75CFF0326D2
:10584C0001AFB95D6068FFF756FF013EF9D2002D3C
:10585C0060680CBF95218721FFF74DFF6068FFF74B
:10586C004CFF0B256068FFF748FF0306607203D5F9
:10587C00013D15F0FF05F5D103B0F0BD70B5044640
:10588C000D46164637210022FFF7C6FF3246294641
:10589C002046BDE87040FFF7BFBF00002DE9F04186
:1058AC0000250572057085724160044690461E46BF
:1058BC0000F01EFA41460746606800F0BBF96368C9
:1058CC00494A1D720125DA601D822046FFF73CFF14
:1058DC0063682946187D01F0A2FB0A256068FF2148
:1058EC00013DFFF708FF15F0FF05F7D16368294666
:1058FC00187D01F094FB0A25002211462046FFF783
:10590C008BFF0128804618D0013D15F0FF0507D10B
:10591C00202320462370FFF726FF0020BDE8F081EE
:10592C006068FD21FFF7E7FE4FF402786068FFF72F
:10593C00E4FEB8F10108F9D1DEE74FF4D572082185
:10594C002046FFF769FF052814D184F80A8000254A
:10595C00BFB22A4629212046FFF790FF0246D8B154
:10596C004FF4FA6239462046FFF7CAFE0028F0D001
:10597C004323CEE704256068FFF7BFFE013D15F019
:10598C00FF056072F7D1AA2804D10223A3724FF04D
:10599C008045DDE72523BCE7A37A022B18D13A21F9
:1059AC002046FFF739FF08B13723B2E76068FFF7ED
:1059BC00A4FE00F0C000C02804BF0323A3726068DB
:1059CC00FFF79BFE6068FFF798FE6068FFF795FE97
:1059DC002046FFF7C8FE63683079B168B2891A8235
:1059EC001872D960012099E790D0030038B5837AFA
:1059FC00032B18BF490215460A4611210446FFF72E
:105A0C000BFF30B1302323702046FFF7ACFE00258E
:105A1C000BE029464FF400722046FFF7B7FE05460F
:105A2C000028F1D02046FFF79EFE284638BD10B561
:105A3C00837A032B0A4618BF4A0212210446FFF749
:105A4C00EBFE30B1312320462370FFF78CFE002093
:105A5C0010BD0120FCE710B500220C210446FFF715
:105A6C00DBFE30B1282320462370FFF77CFE00209C
:105A7C0010BD2046FFF777FE0120F9E7F8B5044684
:105A8C0016461F46FFF7D3FF68B10025ABB29F4205
:105A9C0006EB452109D94FF400722046FFF776FE3C
:105AAC0001350028F2D10020F8BD2046BDE8F840B1
:105ABC00FFF7D1BF38B5044615464068FFF71BFE0B
:105ACC004FF400726068294600F0E6F86068FF2128
:105ADC00FFF711FE6068FF21FFF70DFE6068FFF70E
:105AEC000CFE607200F01F00052806D057232046DC
:105AFC002370FFF738FE002038BD0120FCE770B59D
:105B0C00837A032B18BF490215460A46182104460E
:105B1C00FFF782FE064630B1322323702046FFF792
:105B2C0022FE00251FE02A46FE212046FFF7C2FF79
:105B3C000028F3D04FF4FA612046FFF758FE0546D3
:105B4C0008B95A23E9E732460D212046FFF764FED7
:105B5C0008B12923E1E76068FFF7CFFD0028F8D1F1
:105B6C002046FFF700FE284670BD13B501914FF497
:105B7C00FA610446FFF73BFE019A30B95B232370B0
:105B8C002046FFF7F0FD002005E0FC212046FFF742
:105B9C0091FF0028F4D002B010BD10B5837A032B0E
:105BAC000A4618BF4A0219210446FFF735FE30B1E8
:105BBC00332320462370FFF7D6FD002010BD0120B3
:105BCC00FCE738B54FF4FA610446FFF710FE0546C2
:105BDC0030B9562323702046FFF7C5FD284638BD43
:105BEC006068FD21FFF787FDF5E7F8B5044616461A
:105BFC001F46FFF7D2FF70B10025BD4206EB4521D1
:105C0C00204604D0FFF7B1FF28B10135F5E7BDE818
:105C1C00F840FFF7D6BF2046FFF7A5FD0020F8BDE2
:105C2C00014B01221A70704780E60320011D0068A9
:105C3C0000F0C8BE10B504460175006800F094FE73
:105C4C00207D012101F0DAF9207D0121BDE8104011
:105C5C0001F0E5B9006800F09BBE0068FF2100F080
:105C6C001FBF000037B51346074A00920025074CAA
:105C7C00006825700A46294600F018FF2378002B8F
:105C8C00FCD0002003B030BD2D5C0B0080E603205F
:105C9C00006800F005BF000037B51346064A0092B5
:105CAC000025064C006825702A4600F0FFFE23787C
:105CBC00002BFCD003B030BD2D5C0B0080E6032024
:105CCC0008B5024B1B685B6C019308BD48020300CE
:105CDC0008B5024B1B685B68019308BD18020300F2
:105CEC0008B5024B1B681B69019308BD1802030021
:105CFC0008B5024B1B685B69019308BD18020300D1
:105D0C0008B5024B1B689B6D019308BD180203007C
:105D1C0008B5024B1B685B6E019308BD18020300AB
:105D2C0008B5024B1B685B68019308BD2C0203008D
:105D3C0008B5024B1B689B68019308BD2C0203003D
:105D4C0008B5024B1B68DB68019308BD2C020300ED
:105D5C0008B5024B1B681B69019308BD2C0203009C
:105D6C0008B5024B1B681B6B019308BD2C0203008A
:105D7C0008B5024B1B689B69019308BD2802030000
:105D8C0008B5024B1B68DB69019308BD28020300B0
:105D9C0008B5024B1B681B6A019308BD280203005F
:105DAC0008B5024B1B685B6A019308BD280203000F
:105DBC0008B5024B1B689B6A019308BD28020300BF
:105DCC0008B5024B1B68DB6A019308BD280203006F
:105DDC0008B5024B1B681B6B019308BD280203001E
:105DEC0008B5024B1B685B6B019308BD28020300CE
:105DFC0008B5024B1B681B6C019308BD28020300FD
:105E0C0008B5024B1B689B6C019308BD280203006C
:105E1C0008B5024B1B68DB6C019308BD280203001C
:105E2C0008B5024B1B681B6D019308BD28020300CB
:105E3C0008B5024B1B685B69019308BD6402030043
:105E4C0008B5024B1B689B68019308BD68020300F0
:105E5C0008B5024B1B68DB68019308BD68020300A0
:105E6C0008B5024B1B681B68019308BD3002030088
:105E7C0008B5024B1B685B69019308BD3002030037
:105E8C0008B5024B1B68DB69019308BD30020300A7
:105E9C0008B5024B1B681B6A019308BD3002030056
:105EAC0008B5024B1B685B6A019308BD3002030006
:105EBC0008B5024B1B689B6A019308BD30020300B6
:105ECC0008B5024B1B689B6B019308BD30020300A5
:105EDC0008B5024B1B68DB6B019308BD3002030055
:105EEC0008B5024B1B681B6C019308BD3002030004
:105EFC0008B5024B1B685B6C019308BD30020300B4
:105F0C0008B5024B1B68DB68019308BD3C0203001B
:105F1C0008B5024B1B681B69019308BD3C020300CA
:105F2C0008B5024B1B685B69019308BD3C0203007A
:105F3C0008B5024B1B689B69019308BD3C0203002A
:105F4C0008B5024B1B68DB69019308BD3C020300DA
:105F5C0008B5024B1B681B6A019308BD3C02030089
:105F6C0008B5024B1B689B6A019308BD3C020300F9
:105F7C0008B5024B1B681B6C019308BD3C02030067
:105F8C0008B5024B1B681B68019308BD4C0203004B
:105F9C0008B5024B1B685B68019308BD4C020300FB
:105FAC0008B5024B1B681B69019308BD4C0203002A
:105FBC0008B5024B1B685B69019308BD4C020300DA
:105FCC0008B5024B1B689B69019308BD4C0203008A
:105FDC0008B5024B1B68DB69019308BD4C0203003A
:105FEC0008B5024B1B681B6A019308BD4C020300E9
:105FFC0008B5024B1B681B6D019308BD60020300C2
:10600C0008B5024B1B681B68019308BD20020300F6
:10601C0008B5024B1B685B68019308BD20020300A6
:10602C0008B5024B1B685B69019308BD2002030095
:10603C0008B5024B1B68DB6A019308BD2002030004
:10604C0008B5024B1B689B6D019308BD2002030031
:10605C0008B5034B1B68D3F88830019308BD0000CA
:10606C002002030008B5034B1B68D3F8943001934E
:10607C0008BD00002002030008B5034B1B68D3F8D1
:10608C00AC30019308BD00002002030008B5034B9F
:10609C001B68D3F8B430019308BD00002002030044
:1060AC0008B5024B1B689B68019308BD44020300B2
:1060BC0008B5024B1B685B69019308BD44020300E1
:1060CC0008B5024B1B681B6B019308BD440203000F
:1060DC0008B5024B1B68DB6B019308BD440203003F
:1060EC0008B5024B1B685B68019308BD40020300B6
:1060FC0008B5024B1B689B68019308BD4002030066
:10610C0008B5024B1B68DB68019308BD4002030015
:10611C0008B5024B1B681B69019308BD40020300C4
:10612C0008B5024B1B685B69019308BD4002030074
:10613C0008B5024B1B689B69019308BD4002030024
:10614C0008B5024B1B68DB69019308BD40020300D4
:10615C0008B5024B1B681B6A019308BD4002030083
:10616C0008B5024B1B681B6B019308BD4002030072
:10617C0008B5024B1B685B6B019308BD4002030022
:10618C0008B5024B1B681B6C019308BD4002030051
:10619C0008B5024B1B685B6C019308BD4002030001
:1061AC0008B5024B1B681B68019308BD1C02030059
:1061BC0008B5024B1B685B68019308BD1C02030009
:1061CC0008B5024B1B68DB69019308BD1C02030078
:1061DC0008B5024B1B685B6A019308BD1C020300E7
:1061EC0008B5024B1B681B6C019308BD1C02030015
:1061FC0008B5024B1B685B6C019308BD1C020300C5
:10620C000021FFF70DBF0000024800230360FFF7D9
:10621C0057BD00BF84E60320002240681146FFF7FB
:10622C0077BF002240681146FFF792BF00224068FA
:10623C001146FFF79DBF40680022FFF791BF4068F1
:10624C00002281F00101FFF77BBF002340681A4652
:10625C001946FFF76DBF002340681A461946FFF731
:10626C005FBF002240681146FFF742BF4068002222
:10627C000221FFF745BF002340681A46FFF730BFE5
:10628C00084B10B5282422461846002101F0FCFBCF
:10629C00054B04804FF0FF32426004225A60034ADF
:1062AC001A6010BD90E6032088E603207C7D0B006D
:1062BC00002240681146FFF74BBF00224068114690
:1062CC00FFF756BF40680022FFF74ABF4068002224
:1062DC0081F00101FFF734BF002340681A461946CC
:1062EC00FFF726BF002340681A461946FFF718BF70
:1062FC00002240681146FFF70BBF00224068114690
:10630C00FFF7F6BE406800220221FFF7F9BE00231A
:10631C0040681A46FFF7E4BE024B03225A60024A59
:10632C001A607047B8E60320B87D0B00090941EAF2
:10633C00001107EE901A9FED030AF8EEE77A87EE4C
:10634C00800A70470000484401EB002300EE103A2D
:10635C00132A0CBFDFED047ADFED047AB8EEC00A25
:10636C0020EE270A704700BF0000003B0000803B76
:10637C00006800F01CB910B50446016002710AB146
:10638C00FFF7F6FF204610BD13B50446019100F04F
:10639C00D1FE019A01462046FFF7EDFF204602B0E0
:1063AC0010BD006800F00CB92DE9FF4104460D4604
:1063BC0017461E46FFF7DCFF36220023CDE90023EB
:1063CC0020680A234FF001086946CDE9028300F0EA
:1063DC00D2F82068036829469B6898472068414694
:1063EC0000F0E1F8054640B16FF09F052046FFF73D
:1063FC00D8FF284604B0BDE8F08102232068019341
:10640C00694600F0A1F80228EED1206803685B69A8
:10641C0098473870206803685B6998473070E5E7E7
:10642C0007B500238DF806308DF807300DF1060204
:10643C000DF107030221FFF7B7FF40B99DF80710D4
:10644C009DF8060003B05DF804EBFFF76FBFBFEEDD
:10645C00000A03B05DF804FB10B58CB000238DF876
:10646C000E308DF80F3004210DF10F030DF10E02DB
:10647C00FFF79AFF0146C8B920240190224604A8D0
:10648C0001F002FB01998DF8154004A8FFF7FEFD01
:10649C0050B99DF81E209DF80F109DF80E000CB001
:1064AC00BDE81040FFF750BF1222F4E7BFEE000A20
:1064BC000CB010BD7047F8B5064615460C468F1843
:1064CC00BC4206D0336814F8011B9B6830469847D1
:1064DC00F6E72846F8BD007C0022FFF759BC007C8B
:1064EC000021FFF75DBC007C0021FFF761BC007C44
:1064FC000021FFF765BC007C0021FFF769BC10B5DB
:10650C0014210446FDF7C3FD204610BD38B50446E2
:10651C0015464FF47A730022C4E90123094B217408
:10652C00084623602946FFF763FCBF3008D16B692E
:10653C00DB0705D56868FFF73BFEE868FFF738FE18
:10654C00204638BDF47D0B007FB500221423CDE925
:10655C000122ADF804300B788DF808304B680393AA
:10656C00CB680493007C0B7A059301A9FFF758FCC8
:10657C0007B05DF804FB7FB50023CDE901334A6811
:10658C0003921423CA68ADF804300B7804920A7A8B
:10659C000592007C8DF8083001AA1946FFF7E8FB3C
:1065AC0007B05DF804FB007C0022FFF7E9BB08B5DF
:1065BC000021007CFFF724FCB0FA80F0400908BDF4
:1065CC0008B50021007CFFF723FCB0FA80F04009ED
:1065DC0008BD704710B518210446FDF758FD20463C
:1065EC0010BDF0B5037D062B8DB00E4600F10407EF
:1065FC004FF0000412D000F1080515F8011D0A2215
:10660C00304600F04CF9AF42044419D0002CF4D0C1
:10661C002E21304600F02AF90444EEE72F236A4677
:10662C0039460A208DF80040FFF702FC684601F05D
:10663C0061FA33680246DB6869463046984704467F
:10664C0020460DB0F0BD000010B5054B04461122DC
:10665C0040F8043B002101F017FA204610BD00BFA2
:10666C001C7E0B000346074A10B543F8042B01F1BE
:10667C00100251F8044B43F8044B9142F9D10A78BB
:10668C001A7010BD1C7E0B0010B59DF8084044EA32
:10669C00032343EA024242EA016104234160037589
:1066AC0010BD000007B5064B0360CB7800938B78C8
:1066BC004A780978FFF7E8FF03B05DF804FB00BFE8
:1066CC001C7E0B00014B024A1A607047C0E6032087
:1066DC00287E0B00002340681A46FFF701BD406876
:1066EC0000220221FFF70CBD002240681146FFF783
:1066FC00FFBC002240681146FFF70ABD002340682A
:10670C001A461946FFF70CBD002340681A46194675
:10671C00FFF70EBD40680021FFF732BD4068002135
:10672C00FFF736BD4068002281F00101FFF708BD7C
:10673C0040680022FFF714BD002240681146FFF7A5
:10674C0017BD002240681146FFF702BD2DE9F0434A
:10675C0095B014460D460746FFF776FF00211C2224
:10676C000DA8009101F090F940230C9320466B4644
:10677C000CAA0021FFF76CFB044600284BD1024603
:10678C0001216868FFF7C4FC022180462246686834
:10679C00FFF7BEFC009E81462146002E3BD000290F
:1067AC0039D17368022B03D00A2B11D0F669F4E7A8
:1067BC00B8F1000FFAD0716906A8043107ADFFF7E4
:1067CC0071FF0FCD3C1D0FC42B6823704146EDE7C4
:1067DC00B9F1000FEAD07469102201A801F054F944
:1067EC0006238DF8143001AD04F108031834186831
:1067FC0059682A4603C20833A3421546F7D101A9AA
:10680C0006A807ADFFF72EFF0FCD3C1D0FC42B685C
:10681C0023704946CAE70098FFF712FB384615B0BB
:10682C00BDE8F083024B034A1A6000225A6070479D
:10683C00C4E60320347E0B00F8B506460D468F18CF
:10684C000024BD420CD0336815F8011B9B68304600
:10685C009847031E01DB1C44F3E7002C08BF1C46C1
:10686C002046F8BD08B5FEF7A3FD08BD03689B687C
:10687C00184738B50D210546FFF7F8FF0A210446E5
:10688C002846FFF7F3FF204438BD38B50546FEF720
:10689C008FFD04462846FFF7ECFF204438BD30B589
:1068AC008BB00023012A8DF8243098BF0A2209AC42
:1068BC000D46B1FBF2F101FB125303F0FF03092B60
:1068CC0094BF30333733DBB2AA4204F8013DEFD921
:1068DC002146FEF76DFD0BB030BD2DE9F04186B0C1
:1068EC0000AF05460E46381D142114463B60FFF7D9
:1068FC006FFC13280ED8391D2846FEF759FD0446A7
:10690C001EB12846FFF7B5FF044420461837BD4694
:10691C00BDE8F08100F1080323F00703E846ADEB76
:10692C00030D2246411C3B686846FFF751FC694643
:10693C002846FEF73DFD0446C546E1E7014B002223
:10694C009A607047CCE603200021FFF7D1BA0021F2
:10695C00FFF7C6BA10B5044608462170FFF790FA47
:10696C0000236360204610BD13B504460078FFF782
:10697C00EEFF58B9207801904FF6FF71FFF770FACF
:10698C00019802B0BDE81040FFF7DEBF02B010BDA9
:10699C000078FFF7D9BF0000400830B5186000241C
:1069AC0018688842E5B206D90134082C02D0400898
:1069BC001860F5E70725024B5B5D137030BD00BF17
:1069CC00687E0B002DE9F04306468FB000780C462C
:1069DC00FFF7BDFF00281BDB35781422002109A826
:1069EC0001F052F80B23002209A92846ADF82430F7
:1069FC00FFF756FA9DF82D3013B19DF82C5055B178
:106A0C000027B946B846012523795DB1C3B10020F2
:106A1C000FB0BDE8F083DDF830809DF834909DF820
:106A2C003570F1E7002B35D1A368434508D18DF8BB
:106A3C0020908DF82170BDF82020A3899A42E6D0D1
:106A4C000023A1688DF80F300A9804AB0DF10F02EA
:106A5C00FFF7A2FF217985B989B9A36843450ED305
:106A6C008DF820908DF82170BDF82020A3899A42D2
:106A7C0005D1049B434502D1C9E70029F9D1002374
:106A8C000193637B00939DF80F20237B3078FFF7F5
:106A9C001FFABCE7CDE900552B462A460121F5E744
:106AAC0008B50078FFF7E4F9C0B208BD30B587B07F
:106ABC0004460A9D00950078FFF7FAF93DB9207855
:106ACC0002A9FFF7FDF99DF81430DB07F7D407B0E6
:106ADC0030BD10B50446006818B1FFF769FB002300
:106AEC00236010BD38B50C460546FFF7F2FF54B1D4
:106AFC002088FFF755FB286028B122882146BDE885
:106B0C00384000F0B3BF38BD38B5B1F904308380DC
:106B1C00D1F80630C0F806304B8943810C46054647
:106B2C00FFF7D7FF236813B12B600023236038BD18
:106B3C00F0B52B4D0B7D04468BB00846AF1D002BDA
:106B4C0036D00B681B79002B32D0264B04930022D5
:106B5C0002A90430CDE90222FFF78EFADDF80E30DF
:106B6C00C5F8063000B2BDF81230ADF80C00A880A4
:106B7C000299BB802846FFF7B5FF02A8FFF7A9FFD3
:106B8C0000232360A380A37123814FF6FF736381DD
:106B9C00B5F90430A380D5F80630C4F80630BB88AC
:106BAC00296863812046FFF79DFF20460BB0F0BD9E
:106BBC0000262023CDE902360B4B009302AA334664
:106BCC000A493220FFF714FA064B054802964FF695
:106BDC00F26202A9CDE90323FFF796FFCDE700BFD0
:106BEC00DCE603200000FFFF777E0B00707E0B00BD
:106BFC00054B02221A60054B054A9A600020C3E936
:106C0C000000FFF705BA00BFE8E60320DCE603202E
:106C1C000000FFFF08B50020FFF752FA28B1FFF77C
:106C2C0047FA80F00100C0B208BD0120FCE710B5A6
:106C3C000020FFF765F80446A0B9FFF7E1F9012839
:106C4C0010D12046FFF7FCF960B9FFF7E3FF10B94C
:106C5C00FFF726FAF9E7FFF7DDFFBDE8104000204B
:106C6C00FFF74EB8204610BD1FB5FFF7E0FF10220E
:106C7C000021684600F008FF00216846FFF748F83D
:106C8C00009805B05DF804FB024B1A68024B1A60C1
:106C9C00704700BF14DE0320ECE6032070474174FC
:106CAC00704708B5007CFFF75BF920EAE07008BD7F
:106CBC0008B5007CFFF72CF920EAE07008BD08B598
:106CCC00007CFFF735F940EAE07008BD08B5007CA0
:106CDC00FFF726F940EAE07008BD007CFFF730B9F9
:106CEC0037B5457C04462DB1207C03B0BDE830405F
:106CFC00FFF706B9007C0191FFF732F900280199E2
:106D0C00F2DC284603B030BD10B514210446FDF763
:106D1C00BEF9204610BD000010B54FF47A7304463E
:106D2C00084611460022C4E90123044B23600123C9
:106D3C0020746374FFF71CF9204610BDC47E0B0051
:106D4C00417470477047704708B50021007CFFF70D
:106D5C0037F940EAE07008BD08B50121007CFFF767
:106D6C002FF940EAE07008BD08B5007CFFF720F968
:106D7C0020EAE07008BD08B5007CFFF711F920EAA5
:106D8C00E07008BD13B50446007C0191FFF710F9C3
:106D9C000028019901DC607C20B1207CFFF718F9F8
:106DAC0020EAE07002B010BD007CFFF719B910B5F5
:106DBC0014210446FDF76BF9204610BD10B54FF4B5
:106DCC007A73044608460021C4E90113044B23607E
:106DDC000123207463741146FFF7D2F8204610BDCE
:106DEC00F47E0B00007C0022FFF7D2B810B5142201
:106DFC000446002100F048FE204610BD10B50F4C93
:106E0C0088B003A8FFF7F2FF2178BFF35B8F11F076
:106E1C0001010FD120460191FDF73BF9019948B1D1
:106E2C0003AA0748FFF7CAFF2046FDF737F90548C4
:106E3C0000F006FE024808B010BD00BFF0E60320CB
:106E4C00F4E60320516D0B00014B1860704700BF36
:106E5C0018DE032008B50B4B43B1FFF7CFFF0368D7
:106E6C001B699847002801DDAFF30080064B43B146
:106E7C0000F0A0F903681B699847002801DDAFF307
:106E8C00008008BD000000000000000008B5FFF7FE
:106E9C00E1FFFEF72DFF014B186008BD10E7032042
:106EAC000548064A064908B5121A00F0DFFD054BE5
:106EBC00054A1A6008BD00BF00F4032004F4032047
:106ECC00E47F0B0000F403201E1C279A07B5002357
:106EDC0000931A466FF07701FFF7C4F803B05DF822
:106EEC0004FB000007B543880A2B08D0502B0BD1AC
:106EFC00094B1B684BB103B05DF804EB1847FFF767
:106F0C00E5FF03B05DF804FB002300931A466FF015
:106F1C007701FFF7A7F8F4E70CE7032010B5124848
:106F2C000021FFF765F9114B1A68114B9A42114B6E
:106F3C000CBF012200221A7001D0FFF7B1FFFEF73F
:106F4C00C7FE044600F0A8FD0B4B13B12046AFF36F
:106F5C00008000210848FFF7BBF8BDE81040074847
:106F6C000021FFF775B800BF556E0B0000F403202D
:106F7C001E1C279A08E7032000000000F16E0B008E
:106F8C00232813B502D9002002B010BDA0F10B03C9
:106F9C00022B1AD8174C2178BFF35B8F11F001012B
:106FAC000BD120460191FDF774F8019928B11248D4
:106FBC00FFF7D0FC2046FDF771F80F4B1878FEF761
:106FCC0067FF0028DFD10120DEE7012809D800F097
:106FDC008DF80021007CFEF703FF80F00100C0B2A9
:106FEC00D2E709380128EED800F0E4F8007CFEF76F
:106FFC00AFFFF2E780DE032084DE0320232838B5C0
:10700C0004460D460AD8FF2908D0FFF7B9FF28B16E
:10701C0029462046BDE83840FEF78ABE38BD38B553
:10702C0004460D46FEF78CFEFF2810D0062804D827
:10703C004D2323FA00F0C30709D42046FFF7A0FF25
:10704C0028B129462046BDE83840FEF781BE38BD40
:10705C000D2810B504469CBF0E34A4B22046FFF791
:10706C008FFF50B103212046FEF75AFE032804D1AE
:10707C002046BDE81040FEF773BE002010BD7047DF
:10708C007047000038B50A4B036001230446436186
:10709C000849202000F0B4F8202560600549A5605F
:1070AC00284600F0ADF8C4E90305204638BD00BF02
:1070BC00180001001C7F0B0038B50A4B036001233C
:1070CC00044643610849202000F09AF820256060AE
:1070DC000549A560284600F093F8C4E9030520464D
:1070EC0038BD00BF180001001C7F0B0030B50E4DE1
:1070FC002978BFF35B8F11F0010487B011D12846BA
:10710C00FCF7C7FF68B16846FFF7BCFF6A4621462B
:10711C000648FFF7FBF92846FCF7C0FF044800F0CF
:10712C008FFC024807B030BD14E703201CE7032096
:10713C008B700B0010B50E4C2378BFF35B8FDB0705
:10714C0086B011D42046FCF7A4FF68B16846FFF75F
:10715C00B3FF6A4601210748FFF7D8F92046FCF730
:10716C009DFF054800F06CFC024806B010BD00BF46
:10717C0018E7032030E703208D700B0070470000E8
:10718C0038B5044614252A46002100F07DFC2580E4
:10719C004025074925812846258200F031F804490D
:1071AC006060284600F02CF8E060204638BD00BF37
:1071BC001C7F0B0030B50E4D2978BFF35B8F11F09F
:1071CC00010487B011D12846FCF763FF68B101A810
:1071DC00FFF7D6FF01AA21460648FFF79DFD28467A
:1071EC00FCF75CFF044800F02BFC024807B030BDF4
:1071FC0044E7032048E7032089710B00FCF743BFE9
:10720C00FCF743BF81F0004102E000BF83F0004374
:10721C0030B54FEA41044FEA430594EA050F08BF25
:10722C0090EA020F1FBF54EA000C55EA020C7FEAE9
:10723C00645C7FEA655C00F0E2804FEA5454D4EB66
:10724C005555B8BF6D420CDD2C4480EA020281EA30
:10725C00030382EA000083EA010180EA020281EA68
:10726C000303362D88BF30BD11F0004F4FEA0131BA
:10727C004FF4801C4CEA113102D0404261EB4101C9
:10728C0013F0004F4FEA03334CEA133302D052424F
:10729C0063EB430394EA050F00F0A780A4F101040B
:1072AC00D5F1200E0DDB02FA0EFC22FA05F2801845
:1072BC0041F1000103FA0EF2801843FA05F359412B
:1072CC000EE0A5F120050EF1200E012A03FA0EFCAA
:1072DC0028BF4CF0020C43FA05F3C01851EBE371D4
:1072EC0001F0004507D54FF0000EDCF1000C7EEBF1
:1072FC0000006EEB0101B1F5801F1BD3B1F5001F2F
:10730C000CD349085FEA30004FEA3C0C04F101044D
:10731C004FEA445212F5800F80F09A80BCF1004F76
:10732C0008BF5FEA500C50F1000041EB045141EAF8
:10733C00050130BD5FEA4C0C404141EB0101013CC1
:10734C0028BFB1F5801FE9D291F0000F04BF0146B0
:10735C000020B1FA81F308BF2033A3F10B03B3F182
:10736C0020020CDA0C3208DD02F1140CC2F10C0212
:10737C0001FA0CF021FA02F10CE002F11402D8BF70
:10738C00C2F1200C01FA02F120FA0CFCDCBF41EA3C
:10739C000C019040E41AA2BF01EB0451294330BD0B
:1073AC006FEA04041F3C1CDA0C340EDC04F11404E8
:1073BC00C4F1200220FA04F001FA02F340EA0300BF
:1073CC0021FA04F345EA030130BDC4F10C04C4F105
:1073DC00200220FA02F001FA04F340EA03002946E5
:1073EC0030BD21FA04F0294630BD94F0000F83F42F
:1073FC00801306BF81F480110134013D4EE77FEA12
:10740C00645C18BF7FEA655C29D094EA050F08BF5D
:10741C0090EA020F05D054EA000C04BF194610463E
:10742C0030BD91EA030F1EBF0021002030BD5FEA82
:10743C00545C05D14000494128BF41F0004130BDAA
:10744C0014F580043CBF01F5801130BD01F00045FE
:10745C0045F0FE4141F470014FF0000030BD7FEA71
:10746C00645C1ABF194610467FEA655C1CBF0B466C
:10747C00024650EA013406BF52EA033591EA030F83
:10748C0041F4002130BD00BF90F0000F04BF00217B
:10749C00704730B54FF4806404F132044FF00005AE
:1074AC004FF0000150E700BF90F0000F04BF002127
:1074BC00704730B54FF4806404F1320410F000458D
:1074CC0048BF40424FF000013EE700BF42004FEA88
:1074DC00E2014FEA31014FEA02701FBF12F07F4305
:1074EC0093F07F4F81F06051704732F07F4208BFBC
:1074FC00704793F07F4F04BF41F40021704730B5C3
:10750C004FF4607401F0004521F000411CE700BF0E
:10751C0050EA010208BF704730B54FF000050AE091
:10752C0050EA010208BF704730B511F0004502D592
:10753C00404261EB41014FF4806404F132045FEA94
:10754C00915C3FF4D8AE4FF003025FEADC0C18BF3D
:10755C0003325FEADC0C18BF033202EBDC02C2F12F
:10756C00200300FA03FC20FA02F001FA03FE40EAC1
:10757C000E0021FA02F11444BDE600BF70B54FF0C5
:10758C00FF0C4CF4E06C1CEA11541DBF1CEA1355A3
:10759C0094EA0C0F95EA0C0F00F0DEF82C4481EA0B
:1075AC00030621EA4C5123EA4C5350EA013518BF2B
:1075BC0052EA033541F4801143F4801338D0A0FB18
:1075CC0002CE4FF00005E1FB02E506F00042E0FBC5
:1075DC0003E54FF00006E1FB03569CF0000F18BFCB
:1075EC004EF0010EA4F1FF04B6F5007F64F5407473
:1075FC0004D25FEA4E0E6D4146EB060642EAC62106
:10760C0041EA55514FEAC52040EA5E504FEACE2E72
:10761C00B4F1FD0C88BFBCF5E06F1ED8BEF1004F75
:10762C0008BF5FEA500E50F1000041EB045170BDF1
:10763C0006F0004646EA010140EA020081EA030135
:10764C00B4EB5C04C2BFD4EB0C0541EA045170BD31
:10765C0041F480114FF0000E013C00F3AB8014F1AB
:10766C00360FDEBF002001F0004170BDC4F10004F4
:10767C00203C35DA0C341BDC04F11404C4F1200575
:10768C0000FA05F320FA04F001FA05F240EA0200D0
:10769C0001F0004221F0004110EBD37021FA04F606
:1076AC0042EB06015EEA430E08BF20EAD37070BDC0
:1076BC00C4F10C04C4F1200500FA04F320FA05F01F
:1076CC0001FA04F240EA020001F0004110EBD37021
:1076DC0041F100015EEA430E08BF20EAD37070BD91
:1076EC00C4F1200500FA05F24EEA020E20FA04F36A
:1076FC0001FA05F243EA020321FA04F001F0004119
:10770C0021FA04F220EA020000EBD3705EEA430E89
:10771C0008BF20EAD37070BD94F0000F0FD101F0B8
:10772C000046400041EB010111F4801F08BF013CF1
:10773C00F7D041EA060195F0000F18BF704703F02F
:10774C000046520043EB030313F4801F08BF013DB6
:10775C00F7D043EA0603704794EA0C0F0CEA135572
:10776C0018BF95EA0C0F0CD050EA410618BF52EA2C
:10777C004306D1D181EA030101F000414FF0000032
:10778C0070BD50EA410606BF1046194652EA430640
:10779C0019D094EA0C0F02D150EA013613D195EAB4
:1077AC000C0F05D152EA03361CBF104619460AD1FC
:1077BC0081EA030101F0004141F0FE4141F4700106
:1077CC004FF0000070BD41F0FE4141F4780170BDF6
:1077DC0070B54FF0FF0C4CF4E06C1CEA11541DBF5B
:1077EC001CEA135594EA0C0F95EA0C0F00F0A7F85D
:1077FC00A4EB050481EA030E52EA03354FEA01318A
:10780C0000F088804FEA03334FF0805545EA13139C
:10781C0043EA12634FEA022245EA111545EA106564
:10782C004FEA00260EF000419D4208BF964244F1FB
:10783C00FD0404F5407402D25B084FEA3202B61A1A
:10784C0065EB03055B084FEA32024FF480104FF4EE
:10785C00002CB6EB020E75EB030E22BFB61A754662
:10786C0040EA0C005B084FEA3202B6EB020E75EBF5
:10787C00030E22BFB61A754640EA5C005B084FEA5D
:10788C003202B6EB020E75EB030E22BFB61A75462A
:10789C0040EA9C005B084FEA3202B6EB020E75EB35
:1078AC00030E22BFB61A754640EADC0055EA060EF6
:1078BC0018D04FEA051545EA16754FEA06164FEA39
:1078CC00C30343EA52734FEAC2025FEA1C1CC0D1E5
:1078DC0011F4801F0BD141EA00014FF000004FF072
:1078EC00004CB6E711F4801F04BF01430020B4F133
:1078FC00FD0C88BFBCF5E06F3FF6AFAEB5EB030CEB
:10790C0004BFB6EB020C5FEA500C50F1000041EBE7
:10791C00045170BD0EF0004E4EEA113114EB5C04B4
:10792C00C2BFD4EB0C0541EA045170BD41F4801187
:10793C004FF0000E013C90E645EA060E8DE60CEA8F
:10794C00135594EA0C0F08BF95EA0C0F3FF43BAFAC
:10795C0094EA0C0F0AD150EA01347FF434AF95EA63
:10796C000C0F7FF425AF104619462CE795EA0C0F47
:10797C0006D152EA03353FF4FDAE1046194622E714
:10798C0050EA410618BF52EA43067FF4C5AE50EAEE
:10799C0041047FF40DAF52EA43057FF4EBAE12E7DE
:1079AC004FEA4102B2F1E04324BFB3F5001CDCF115
:1079BC00FE5C0DD901F0004C4FEAC0024CEA50704D
:1079CC00B2F1004F40EB830008BF20F0010070477C
:1079DC0011F0804F21D113F13872BCBF01F000407F
:1079EC00704741F480114FEA5252C2F11802C2F1B1
:1079FC00200C10FA0CF320FA02F018BF40F0010032
:107A0C004FEAC1234FEAD32303FA0CFC40EA0C00E3
:107A1C0023FA02F34FEA4303CCE77FEA625307D120
:107A2C0050EA01331EBF4FF0FE4040F44000704757
:107A3C0001F0004040F0FE4040F40000704700BFF1
:107A4C00002301461A46184600F05CB810B50139FF
:107A5C000244904201D1002005E0037811F8014F57
:107A6C00A34201D0181B10BD0130F2E70A44914229
:107A7C0000F1FF3300D1704710B511F8014B03F83A
:107A8C00014F9142F9D110BD02440346934200D1FB
:107A9C00704703F8011BF9E738B5104B1D68AB6B49
:107AAC000446B3B91820FEF77BFB0246A86320B945
:107ABC000B4B0C484221FEF793FB0B490B4BC0E9D7
:107ACC0000130B4B83600B23838100210120C2E93F
:107ADC000401AB6B00221C615A6138BD18DE032017
:107AEC001D7F0B00347F0B000E33CDAB34126DE6D3
:107AFC00ECDE0500034613F8012B002AFBD1181A03
:107B0C00013870472DE9F843DFF8B8800646D8F8FD
:107B1C0000001F460D46914600F056F8254B1C6898
:107B2C0034B9254C1C60254B13B11B68C4F8883044
:107B3C0063681F2B07DDD8F8000000F047F84FF002
:107B4C00FF30BDE8F8834EB3D4F8880088B91C4BDD
:107B5C0023B9D8F8000000F038F8F0E74FF484703F
:107B6C00FEF71EFB0028F4D00023C0E94033C4F814
:107B7C008800636840F8239001229A4000EB83014F
:107B8C00D0F800311343C0F80031022EC1F88070D8
:107B9C0002BFD0F804311343C0F804316368D8F83D
:107BAC0000005A1C0233626044F8235000F00EF8B7
:107BBC000020C6E7E8E703205CE703200000000094
:107BCC00AD610B007CDE03207047704770470000EE
:107BDC001D400B0059400B0081400B0085400B00F1
:107BEC000000000064656661756C7420004D5342A2
:107BFC00004C5342003C53504953657474696E6792
:107C0C00732064656661756C743E003C5350495337
:107C1C00657474696E677320257325752025732030
:107C2C004D4F444525753E004D6178626F746978FF
:107C3C00205465737400536C656570696E672066BB
:107C4C006F722000256C692C252E35662C252E3064
:107C5C0032662C252E303266006661696C656420B4
:107C6C00746F206F70656E20636172640064697359
:107C7C0074616E63652E747874006F70656E696ED6
:107C8C006720746573742E74787420666F72207715
:107C9C0072697465206661696C6564007075626CEC
:107CAC00697368696E672064617461006D61782026
:107CBC0074696D6520666F72207075626C6973688B
:107CCC00696E6720726561636865642077697468A2
:107CDC006F757420737563636573733B20676F20D6
:107CEC00746F20736C656570004E6F74206D6178D5
:107CFC002074696D652C2074727920616761696EDE
:107D0C0020746F207075626C69736800676F696EA0
:107D1C006720746F20736C656570004665656C69CF
:107D2C006E6720726573746C6573730000000000DD
:107D3C000000000061410B00AF400B0017410B002D
:107D4C000000000000000000CB400B0025410B00A0
:107D5C00FF400B00F9400B00B1400B00D9400B0069
:107D6C00D3400B00CD400B000000000000000000D1
:107D7C0083620B0079620B006F620B0025620B00B3
:107D8C0063620B0057620B0021670B0029670B0025
:107D9C004B620B0043620B0039620B002F620B002D
:107DAC0059670B0000000000000000001B630B0073
:107DBC0011630B0007630B00FD620B00F1620B00FB
:107DCC00E5620B0021670B0029670B00D9620B00E1
:107DDC00D1620B00C7620B00BD620B0059670B0030
:107DEC000000000000000000C1640B000B650B00DC
:107DFC00E3640B00C3640B00EB640B00F3640B0037
:107E0C00FB640B0003650B00000000000000000089
:107E1C00EF650B00DF650B00E1650B006170700016
:107E2C000000000000000000E1660B00EB660B0098
:107E3C00F5660B00FF660B0009670B0015670B005E
:107E4C0021670B0029670B0031670B003D670B00A6
:107E5C0045670B004F670B0059670B0000081018A3
:107E6C0020283038776972696E67005379737465AE
:107E7C006D20736C65657020636F6E6669677572D3
:107E8C006174696F6E20697320696E76616C6964C8
:107E9C002E0025592D256D2D25645425483A254D48
:107EAC003A2553257A0061736374696D650000008F
:107EBC000000000000000000A96C0B00156D0B0009
:107ECC00ED6C0B0045680B00BD6C0B00D96C0B0006
:107EDC00CB6C0B00E76C0B00AB6C0B00AF6C0B00AE
:107EEC000000000000000000536D0B00BB6D0B0088
:107EFC00916D0B0045680B00836D0B00556D0B00ED
:107F0C00656D0B00B56D0B00756D0B004D6D0B00A9
:107F1C00005245454E54206D616C6C6F6320737537
:107F2C0063636565646564002F746D702F6A656E9C
:107F3C006B696E732D4743432D31302D706970651D
:107F4C006C696E652D34385F3230323031313234F9
:107F5C005F313630363138303633392F7372632F08
:107F6C006E65776C69622F6E65776C69622F6C69D0
:107F7C0062632F7374646C69622F72616E642E631A
:107F8C000000000031460B0015620B008D620B00E7
:107F9C0025630B00D1660B0031680B0049690B009F
:107FAC00FD6B0B00956C0B00000000000000000046
:047FBC0000000000C1
:107FC000040000001400000003000000474E5500AC
:107FD00043E3FC66747D2ED0EC174A640384307052
:047FE000334BE53703
:047FE4000000000099
:107FE800B27E0B001CDE0320000000000000000031
:107FF8000000000000000000000000000000000079
:108008000000000000000000000000000000000068
:108018000000000000000000000000000000000058
:108028000000000000000000000000000000000048
:108038000000000000000000000000000000000038
:0C8048000000000000000000ECE7032036
:10805400FFFFFFFF00000102030405060708090AE9
:108064000B0C0D0E0F101112131415161718191AE4
:088074001B1C1D1E1F2028002B
:04807C0078563412EC
:04000003B000401CED
:00000001FF
