:02000002D0002C
:1040000000400D00F4800D00000006000D000501C9
:0840100004017E050000000020
:04401800E87B0D0034
:1040200009480A49884208B505D0094A824202D0A7
:10403000121A03F096FD0748074A0021121A03F0EE
:104040009BFD014808BD00BF84DF032060800D0098
:10405000F0DF0320F0DF0320F0E7032070B502F06B
:1040600051FE074C074BE41AA40800251E46A54242
:1040700004D056F8253098470135F8E770BD00BFE9
:1040800060800D00E47F0D0000F07CB808B500F002
:1040900097F8BDE8084002F003BE01F04FBF01F001
:1040A00055BF01F053BF0078B0FA80F04009704767
:1040B000012303707047037C03F00803024603F0FA
:1040C000FF002BB1D36A506A181A48BF6FF0004046
:1040D00070477047103000F0EDBB103000F002BBAD
:1040E00007B501220DF10701103000F048FA012850
:1040F0000CBF9DF807004FF0FF3003B05DF804FBE4
:10410000103000F063BC07B502AB012203F8011DBB
:104110001030194600F05AFC03B05DF804FB10B5EE
:104120003421044602F0B5FE204610BD7FB502469C
:1041300008461379956833B13DB90C4904B0BDE820
:10414000704002F0DBB90A4B00E00A4B167B0A4CC8
:104150000A49527B0292012E08BF21460191009527
:10416000074A002102F0FAFA04B070BD417C0D004C
:104170002B7E0D00307C0D00397C0D003D7C0D0048
:10418000577C0D0008B50C48002319461A464068B4
:1041900001F0ACFE41F2883001F0E8FE02F03CFD97
:1041A0004FF4165102F02CFD02F036FD0349BDE834
:1041B000084002F0B6B900BFA4E40320757C0D00EE
:1041C0002DE9F047844C854D854F00232360002363
:1041D00092B02B602B68632B00F3BF80814BDFF81C
:1041E0003482188802F0F6FD03F0F0F876A3D3E9E4
:1041F000002303F051F976A3D3E9002303F04CF92F
:1042000003F042FCD4ED007AC8F8000007EE100A73
:1042100077EE877A4FF00109C4ED007A02F0FCFCDA
:10422000714902F06BF902F0F7FC064602F0E4FB7C
:104230000A220146304602F0ADF902F0EDFC6B496E
:1042400002F05CF902F0E8FC0646D8F8000003F042
:10425000CFF841EC100B0221304602F074FA644EA4
:1042600003974FF47A720792624A05920023624ADA
:104270008DF8243006F58C6A8DF82530069301926E
:104280008DF808308DF811300E2201AB06F26C412A
:1042900050468DF8109001F0EDF970B3C6F800A00B
:1042A00006F23C4000F03CFB4946304601F087F8FE
:1042B000014648B1DFF8389109F23C46494630469C
:1042C00000F045F9C8B105E0304601F078F8002863
:1042D000F0D112E099F83C3413F0700F0DD0474B39
:1042E000474A1E60314644F2022309A800F01FFB32
:1042F00048B902F091FC434902E002F08DFC4249CA
:1043000002F00FF95DE002F077FB0A22014605A8F2
:1043100002F040F93D4905A802F0F0F801F01AFC5E
:104320000A22014605A802F026F9384905A802F03C
:10433000E5F8D8F8000003F05BF841EC100B02211F
:1043400005A802F000FA09A800F0EAFA642001F0DA
:104350000DFE2B6801332B603CE707EE903AD4ED5D
:10436000006A2B4DF8EEE77A86EEA77A85ED007AA3
:1043700002F052FC194B0A22196802F02DF902F0E2
:104380004BFC224902F0BAF802F046FC06462068CF
:1043900003F02EF841EC100B0221304602F0D0F968
:1043A00002F03AFC194902F0A9F802F035FC044683
:1043B000286803F01DF841EC100B0221204602F0A2
:1043C000C2F912B0BDE8F0876666666666665A3F57
:1043D0003EF8E0830F3E53408CE40320F8DF0320D7
:1043E00080F0FA0284DF0320837C0D008A7C0D00BC
:1043F00000E00320107C0D00047C0D0090E40320FD
:104400009B7C0D00BC7C0D00A87C0D00DE7C0D00AB
:10441000F4DF0320FCDF032008B501F0B3FB134BEE
:10442000642183F860141249C3F87014012100223A
:1044300083F874140F49DA7183F83C2483F83D241F
:1044400083F86A24C3F8782483F87C2483F87D24D5
:10445000C3F86C14084B1A705A804FF6FF729A809A
:104460000320BDE8084001F0CDBC00BF00E0032000
:10447000047C0D0030E7032084E4032001F082BBBC
:1044800010B50446243000F08BFE28B104F50C7002
:10449000BDE8104000F084BE10BD8378016943F090
:1044A0000403837000F11002806800F02FBF000049
:1044B0002DE9F041037803F02003044603F0FF05E3
:1044C0000BB100262EE04269184B9A42F9D8FFF74B
:1044D000E4FF06460028F4D02169A06800F0ABFE96
:1044E0000746A06805223946243000F080FE804649
:1044F0000028E6D029464FF4007203F03DFB012569
:10450000A3681A79AA4209D94246E919186801F044
:10451000EFF90028D5D00135EDB2F1E7636903EB7F
:10452000422363613046BDE8F08100BFFFFD1F00FC
:1045300010B5044680680A462430A16900F057FE91
:1045400020B1A38803F00F0300EB431010BD70B53A
:10455000047805460E4684B92422214603F00CFB5C
:10456000AE60F379102B03D0202B06D1402300E05E
:10457000202301202B70A87070BD002070BD2DE994
:10458000F74F03780446894615464BB18278D10728
:1045900006D50CE05A46216900F053FE00283DDAAA
:1045A000637843F0020363704FF0FF3097E01A071F
:1045B00003D5E36962699B1A07E09A0608D5A368E8
:1045C0001A896369C3EB42139BB29D4228BF1D4603
:1045D0002E464FF0000804F1100B002E35D0227843
:1045E0006369A06812F0200FC3F3080A4FEA532151
:1045F00002D0036A19441DE090F8058001EA08081A
:10460000BAF1000F10D1B8F1000F0DD1002BC1D1BC
:1046100053064CBF036A236A236105E004D1237863
:1046200013F0700F11D1BBE72169A06800F003FE01
:1046300008EB0001A068BAF1000F35D1B6F5007F94
:1046400032D3C36A994202D12EE0A81B47E0B6F5E7
:10465000806F1BD3227897064FEA562A06D4027938
:10466000C8EB0202D2B2924528BF924699424FEA65
:104670004A2707D2A06853464A46006801F0F6F878
:1046800060B98DE75344994221D3F3E74A46006865
:1046900001F0A4F8002883D04FF4007763693B440D
:1046A000B9446361F61B98E70022243000F09FFDB7
:1046B00000283FF475AFCAF50077B74228BF3746E8
:1046C00000EB0A013A46484603F04BFAE6E724308D
:1046D000019100F065FD01990028CBD160E703B09E
:1046E000BDE8F08F73B501220DF10701044646695C
:1046F0000569FFF744FF012805BF9DF807006661C3
:104700004FF0FF30256102B070BD37B54369C3F388
:104710004315044605B169B901220DF10701204690
:10472000FFF72DFF40B2012801D0002008E06369A7
:104730001F3300E02033A0686361303000EB451088
:1047400003B030BD2DE9F0410E46017807690446FB
:10475000002939D04569B5423AD00EB9066131E039
:104760000B0703D5C3699E422ED807E0880605D5FE
:10477000A3681B89B6EB431F26D823E0D4F808E0D2
:104780009EF806306A1E03F10900731EC240C34042
:104790009A4200D84DB94A064CBFDEF82020226A62
:1047A00022611D4604F110080AE09B1AF9E742460F
:1047B0002169A06800F045FD002805F1FF3503DD03
:1047C000002DF4D1666103E027610020BDE8F0818F
:1047D0000120BDE8F081F8B50F46154600212422DE
:1047E00004461E4603F0C8F9B868A06005F00F0241
:1047F000A58000F1300152013B6AE3601144CB7A9D
:104800001D074CD4831893F83B3003F01703237033
:10481000C97A11F0180F04BF43F0080323709DF804
:104820001830E37006F00303012B09D0022B05D0EA
:10483000002B34D1710532D4012302E0032300E0C0
:104840000223A370A1788B0703D5237813F0110FEF
:1048500025D14BB216F4005F06F0080114BF6FF0CB
:104860007F07002719433943A170C36AA36102443B
:104870007505B2F84410B2F84A3043EA014104D554
:1048800081B100F07EFD68B909E02162D36CE3617B
:1048900073040CD5E1692046FFF754FF38B90020B6
:1048A0002070F8BDA37843F00403A370F0E7012063
:1048B000F8BD000038B5037804460BB9012038BDB7
:1048C00083785A0723D50121FFF732FE054628B920
:1048D000637843F001036370002038BD0378E52B53
:1048E000F6D023781B0744BFE369C361238C43835D
:1048F000638C8382094B1B682BB100F116011830C1
:1049000098472B8B6B82A37823F00403A370A068D5
:10491000FFF7B6FD0028DBD0D0E700BF94E403200A
:1049200010B50446FFF7C6FF0023237010BDF0B595
:1049300093B01F4600238DF824308DF8253003787E
:10494000019206460C460BB100203DE00B7813F0B7
:10495000700FF9D013782F2B12D1019B1A782F2AC0
:1049600002D101330193F8E7A1681AB93046FFF785
:10497000EEFD29E009A8FFF7EAFD0028E4D009AC24
:1049800001AA03A9019800F0FFF80028DCD0019BE0
:104990001B789BB1002303AA2146304600F036FA6B
:1049A0000028D1D035460FCD09AC0FC40FCD0FC4B0
:1049B0002B6823603046FFF7B3FFE0E73B4603AACE
:1049C0002146304600F022FA13B0F0BD2DE9F04741
:1049D0000378894619070446904608D583789A07D4
:1049E00005D51B070BD5E169FFF7ACFE38B9637835
:1049F00043F0010363704FF0FF30BDE8F087636957
:104A0000DB439845F3D846464FF0000A6369002E11
:104A100000F08180A068427912EA5325C3F30807A9
:104A20001CD1DFB9216971B104F1100200F009FC59
:104A30000028DCDB40F08E802046FFF72EFD0028AA
:104A400040F08880D3E7236A3BB92046FFF725FD75
:104A50000028CCD02369236200E023612169A0688B
:104A600000F0E9FB291817B9B6F5007F21D2C7F588
:104A70000075B54228BF354637B96369E26993428C
:104A800034BF0122052200E00122A068243000F09A
:104A9000AEFB0028ABD038442A4649462F4403F0E9
:104AA00060F8B7F5007F30D1A068243000F078FBC3
:104AB00017E0B6F5806FA06815D30279521B730A10
:104AC000D2B2934228BF1346C26A91424FEA4325AD
:104AD00002D31A44914237D3A7684A46386800F097
:104AE00079FF90B983E7C36A994202BF4FF0FF3361
:104AF00080F824A0C362A3684A46186800F0F8FE54
:104B000000283FF474AF4FF4007563692B44636170
:104B1000A944761B7AE7E269934201D9E36102E096
:104B20000F4B1B681BB1A37843F00403A37094F9E7
:104B30000230002B02DB4046BDE8F0872046FFF73D
:104B4000B9FE0028F7D152E74FF0FF3280F824A0D9
:104B5000C262C1E72169A06800F06DFB014683E7EE
:104B600094E4032001F00EB8411E00F10A02002077
:104B7000430843EAC01011F8013F53FA80F08A421B
:104B8000C0B2F5D1704700002DE9F0470378202B23
:104B900000F1010401D12046F8E7704F8860054616
:104BA0002C1A2E4615F8013B0BB32F2B01D10319FC
:104BB00017E05C2B02D10020BDE8F087A3F12204AE
:104BC000E4B21D2C03D827FA04F4E407F3D403F06D
:104BD000BF043C2CEFD0203B5E2BE1D9EBE72F2D1F
:104BE00005D11E4613F8015B202DF8D1F9E71660B8
:104BF00003199842C0EB030809D013F8012D2E2A9F
:104C0000F7D0202AF5D0B8F1FF0FD4DC01E04FF047
:104C10000008C1F8048001F10C0301F117022024FF
:104C200003F8014F9342FBD103461A1A13F8014BC4
:104C30002E2CFAD0202CF8D0B2FA82F4640908F1B4
:104C4000FF36731C07D100274FF0070E3D46BA46CA
:104C50004FF0080909E0835D2E2BF4D0013EF0E708
:104C6000835C202B04D1002401324245F8DB4BE069
:104C70002E2B02D1B242F6D103E0222B17D07C2B8F
:104C800015D0A3F12A0CBCF1050F01D82D2B0ED1A4
:104C9000A3F13A0CBCF1050F09D9A3F15B0CBCF1EF
:104CA000020F04D9A3F1210CBCF15D0F02D9B2426D
:104CB0000ED149E0B24247D0754521D8A3F1610C2D
:104CC000BCF1190F08D8203BDBB249EA07070AE01C
:104CD000754515D800245F23A3F1410CBCF1190FD1
:104CE00098BF49EA0A0A05F1010C5FFA8CFC0D44F1
:104CF000BCF1060F6B7301D881F80CC06546B3E7B1
:104D0000BEF10A0F17D100244B7B202B3FF453AF89
:104D10003CB11AEA070F18BF02270F700120BDE847
:104D2000F0870B7B0120087019447E234B733123DD
:104D30008B73BDE8F087B242E5DC32464FF00A0ED5
:104D400008254FF010098EE7BEF10A0FDBD032467E
:104D50004FF00A0E08254FF0100985E701010031D8
:104D60002DE9F84391F80C9006460D4602247E2763
:104D700001F10D086968AA6863189BB21144914259
:104D800006D012F8010B03EB431343409BB2F6E746
:104D9000B9F1030F28BF4FF0030909F10402D2B2A1
:104DA00003F00F01A818013A0929D2B294BF30319B
:104DB0003731914541734FEA1313F1D305EB0903E2
:104DC00000215F733046FFF7BDFC01213046FFF73D
:104DD0009CFC014628B97078B0FA80F04009BDE823
:104DE000F88303784BB1C37A1B07EED40B224046FD
:104DF00002F0A8FE0028E8D102E00120BDE8F88317
:104E00000134A4B2642CB5D1BDE8F8832DE9F04F8C
:104E10009B460B7889B013F0700F05900E469146B3
:104E200001D10020A0E1059B1B78002BF9D153682C
:104E3000029313789B0700F08D81029B0D270C33A2
:104E4000B3FBF7F70137FFB200213046FFF77AFCDA
:104E50004FF0000809F10D02CDF80C80434644469E
:104E60004546CDF8108006927269079301213046BD
:104E7000C2F34F1AFFF749FC079B20B97378002B48
:104E800000F09080CDE70278E52A00D042B9002CEE
:104E900008BFD046BC423CBF0134E4B222B981E035
:104EA000BC4238BF002403E0E52A01D10025DBE73E
:104EB0002E2AFBD0C17A0F2952D13DB95106D3D544
:104EC000437B039302F01F052B4607E0013BDBB257
:104ED0009A42EBD1427B03999142E7D15A1E4FF09F
:104EE0000D0C0CFB02FC029A6245DFD94FF0000E5C
:104EF000BEF1040F5FFA8EF204D800EB4E02B2F856
:104F000001200CE00A2A95BF0EF1FF320EF10102DA
:104F100000EB420200EB420294BFD28892880299D1
:104F2000614503D1002A18BF00259DE7FF2ABDD89F
:104F3000D2B2A2F141011929D9F8081011F80C10C8
:104F400098BF20320CF1010AA1F1410C98BFD2B2F6
:104F5000BCF1190F9CBF2031C9B29142A6D1FBE030
:104F60000907A3D44DB1012B7FF45BAFFFF7FCFD24
:104F7000039B83427FF455AF0FE00B220699079302
:104F800002F0E0FD079B00287FF46EAF99F8002047
:104F9000D20702D50122049266E71BF4006F00F0ED
:104FA000D1803EE71BF4007F3FF43BAF0BF00303DF
:104FB000013B012B3FF635AF002C08BFD046BC4269
:104FC00002D3049BCBB91FE000213046FFF79DFBC5
:104FD00010B973785BB124E70134E4B2EFE7B3684A
:104FE0001B79012BEDD81034E4B2A742E9D9304641
:104FF000FFF75EFA0028F2D113E749463046FFF783
:10500000AFFE00283FF40DAF4FEA48113046FFF7DE
:1050100099FB00283FF405AF7D1EEDB22C464FF002
:10502000000A4FF00F0841E000213046FFF76DFB0A
:10503000074600283FF4F5AEB26892F82430AC423F
:1050400043F0010382F824300CBF44F040022246B2
:10505000027080F80B8080F80CA009F10D0003921B
:10506000FFF782FD039A787387F81AA087F81BA0D0
:1050700002F01F020D23013AD9F808E05A43002339
:105080000299914215D91EF80210042B5FFA83FC95
:1050900003F1010013D807EB4303A3F801100D2817
:1050A00002F101020346EBD1013CE4B2002CBBD17A
:1050B0000EE014BF4FF0FF31002189B2E5E7BCF1EB
:1050C0000A0F94BF07EB430307EB40039980E6E721
:1050D000736921463046C3F34F1AFFF716FB0746A4
:1050E00000283FF49EAE2022214602F045FD4B46AB
:1050F00053F80D2F3A605A687A601A893A819B7A80
:10510000BB7299F8003003F018033B73184B1B680F
:105110002BB107F10E0107F11000984706E021239B
:105120003B7428237B740823BC73FB733B8A7B820C
:105130003B83FB89FB82B26892F8243043F0010381
:1051400082F8243000955B46524631460598FFF7B9
:1051500042FB09E0012777E60EF1010EBEF10D0FCB
:105160003FF482AED446C3E609B0BDE8F08F00BF7D
:1051700094E4032000F006BD70B505460C460846D1
:1051800049B102F029FD2B68024621462846DB681A
:10519000BDE87040184770BD00F0F4BC00F0F2BCF0
:1051A00070B50378DA0704461ED54368816800F1BC
:1051B0000C063246186800F09BFB054608B900252E
:1051C00013E023789B0704D4237823F00103237092
:1051D0000BE06368A068196932460144186800F062
:1051E00087FB0028F0D1EAE70125284670BD70B59D
:1051F00083688B4204460E46154614D0FFF7D0FF55
:1052000008B9002070BD6B0703D500232370A6608A
:1052100009E0636804F10C023146186800F0DEFA18
:105220000028F2D1EDE72378204605F003051D4361
:1052300000F80C5B70BD83794069023999400844DD
:105240007047012970B505460C46164602D84FF046
:10525000FF3070BDC3699942F9D8C379202B10D1B2
:105260008169022201EBD41100F50C70FFF7BFFF3A
:105270000028ECD004F07F0450F8243023F0704371
:105280000FE0102BE3D18369C1F3072102221944F7
:1052900000F50C70FFF7ABFF0028D8D0E4B230F86F
:1052A0001430EA6993429ABF33600120002070BD38
:1052B000012938B50C46154601D8002038BDC36910
:1052C0009942FAD8C379202B0ED18169032201EBD0
:1052D000D41100F50C70FFF78AFF0028EDD004F020
:1052E0007F0440F824500FE0102BE6D18369C1F30E
:1052F00007210322194400F50C70FFF778FF0028FE
:10530000DBD0E4B220F81450012038BD2DE9F34180
:10531000C4688C4205460E46904607D20C460027CC
:10532000EB6901349C4203D9CFB9EC680127F7E758
:10533000A64214D001AA21462846FFF782FF002882
:105340000DDBEDD0019B002BEAD107B1EC606FF0D3
:10535000704221462846FFF7ABFF074608B90027F1
:105360000BE016B9C8F8004007E02246314628464F
:10537000FFF79EFF0028F5D1F1E7384602B0BDE8FF
:10538000F08173B505460C4601AA21462846FFF771
:1053900058FF061E01DA00200FE0002221462846B1
:1053A000FFF786FF0028F6D0EB689C429CBF04F113
:1053B000FF34EC60019C002EE6D102B070BD70B5E8
:1053C000012304460022C3604FF0FF33C2710D4633
:1053D000A06280F82420C362C4F8340280F830222E
:1053E000C0F83832A1B104295DD811462430FFF746
:1053F000FEFE002857D000EB051393F8AE315B0694
:1054000051D11B3500EB0515D5F80650002D4AD0BB
:105410000022294604F12400FFF7E9FE002842D0CB
:10542000B0F80B30B3F5007F3DD1037C022B3AD1AD
:10543000C389002B37D0417B21714B1E6371002340
:10544000A371092601238B4207D0013E2BD0A279FC
:105450005B000132DBB2A271F5E7C28A02B9426A8F
:105460002261C6892E44A661B0F81130238106EB73
:1054700042012162B0F81120520102F2FF1201EB49
:1054800062226261B0F8133003B9036AAD1A2B448B
:10549000A57923FA05F56B1CE36140F6F4739D4290
:1054A00003D80C23E371002070BD4FF6F4739D42C6
:1054B00085BFC36A236210232023E371012070BDDE
:1054C00000F060BB00F05EBB00F05CBB00F05ABBBC
:1054D00000F058BB70B50E4C0E46154600F032FB7E
:1054E0002368C01A0B4B984208D900F033FB0A4BD3
:1054F000186000F0B3FC00F025FB206000F02AFBF0
:1055000080B2801BA842D4BF0020012070BD00BF24
:1055100098E40320A086010014E7032038B5057A3B
:1055200004464DB9406800F07DFA63682946187D4D
:1055300001F037FC0123237238BD10B5037A04460D
:105540006BB143680121187D01F02BFCFF216068DD
:1055500000F09AFA606800F079FA0023237210BD17
:10556000F8B504460D46164600F0F4FA87B26068B6
:1055700000F06FFAFF28607209D14FF47A72394651
:105580002046FFF7A7FF0028F1D055230BE0FE28A7
:1055900001D0502307E032462946606800F05EFAE9
:1055A000607230B1602320462370FFF7C6FF0020F1
:1055B000F8BD606800F04DFA606800F04AFA01201A
:1055C000F8BD70B504460E4600F0C4FA85B2324606
:1055D00029462046FFF77EFF30B9606800F039FAAF
:1055E000FF28F4D1012070BD002070BDF7B5037A0B
:1055F000019204460D460BB9FFF790FF25B14FF419
:1056000096712046FFF7DDFF45F04001606800F02D
:105610003BFA0DF107060DF1030716F80119606852
:1056200000F032FABE42F8D1002D0CBF952187213F
:10563000606800F029FA606800F00BFA0B256068DA
:1056400000F007FA0306607203D5013D15F0FF056F
:10565000F5D103B0F0BD70B504460D4616463721AE
:105660000022FFF7C3FF324629462046BDE87040BE
:10567000FFF7BCBF2DE9F04100250572057085726A
:105680004160044690461E4600F064FA41460746D3
:10569000606800F0CBF963684F4A1D724FF0010853
:1056A000DA605D7483F810802046FFF737FF636887
:1056B0004146187D01F075FB0A25FF216068013D18
:1056C00000F0E2F915F0FF05F7D163682946187D6F
:1056D00001F067FB0A25002211462046FFF786FFEE
:1056E0000128804612D0013D15F0FF0501D120238D
:1056F00057E0FD21606800F0C7F94FF40278606858
:1057000000F0A7F9B8F10108F9D1E4E74FF4D57238
:1057100008212046FFF76AFF052802D184F80A8095
:105720000FE00425606800F094F9013D15F0FF05D5
:105730006072F7D1AA2802D10223A37201E02523C7
:105740002FE0A37A022B0CBF4FF080450025BFB29B
:105750002A4629212046FFF77EFF024648B14FF432
:10576000FA6239462046FFF7B5FE0028F0D0432301
:1057700017E0A37A022B0ED02046FFF7DEFE636807
:10578000B0683479317B727B5A74D8601C7219749A
:105790000120BDE8F0813A212046FFF727FF38B10C
:1057A000372320462370FFF7C8FE0020BDE8F081B4
:1057B000606800F04EF900F0C000C02804BF032369
:1057C000A372606800F045F9606800F042F9606813
:1057D00000F03FF9D0E700BF90D0030038B5837ADE
:1057E000032B18BF490215460A4611210446FFF74C
:1057F000FDFE10B1302323700BE029464FF40072F8
:105800002046FFF7ADFE054618B12046FFF795FE8E
:1058100003E02046FFF791FE0025284638BD10B56D
:10582000837A032B0A4618BF4A0212210446FFF767
:10583000DDFE30B1312320462370FFF77EFE0020CD
:1058400010BD012010BD10B500220C210446FFF749
:10585000CDFE30B1282320462370FFF76EFE0020D6
:1058600010BD2046FFF769FE012010BDF8B50546C2
:1058700016461F46FFF7D3FF98B10024A3B29F42FC
:1058800006EB442108D94FF400722846FFF768FE62
:1058900001340028F2D104E02846BDE8F840FFF7C3
:1058A000D2BF0020F8BD38B504461546406800F068
:1058B000EBF84FF400722946606800F0E9F8FF2128
:1058C000606800F0E1F8FF21606800F0DDF86068D2
:1058D00000F0BFF8607200F01F00052806D05723C3
:1058E00020462370FFF729FE002038BD012038BD77
:1058F00070B5837A032B18BF490215460A46182152
:105900000446FFF773FE064608B132231DE02A461F
:10591000FE212046FFF7C7FFC0B14FF4FA612046D1
:10592000FFF74FFE054608B95A230EE032460D2117
:105930002046FFF75BFE38B9606800F08AF818B9B6
:105940002046FFF7FAFD05E0292323702046FFF7E4
:10595000F4FD0025284670BD38B50D464FF4FA61B8
:105960000446FFF72EFE10B95B23237005E02A469C
:10597000FC212046FFF797FF18B92046FFF7DDFD11
:10598000002038BD10B5837A032B0A4618BF4A029F
:1059900019210446FFF72AFE30B133232046237035
:1059A000FFF7CBFD002010BD012010BD38B54FF42E
:1059B000FA610446FFF705FE054620B1FD21606847
:1059C00000F062F801E0562323702046FFF7B5FD92
:1059D000284638BDF8B5054616461F46FFF7D2FFE4
:1059E00070B10024BC4206EB4421284604D0FFF7E6
:1059F000B3FF28B10134F5E7BDE8F840FFF7D6BFA3
:105A00002846FFF79AFD0020F8BD00F0BBB800F073
:105A1000B9B800F0B7B80000014B01221A70704706
:105A20009CE40320011D006800F020BF10B504466F
:105A30000175006800F0FCFE207D012101F0A0F955
:105A4000207D0121BDE8104001F0ABB9006800F0F5
:105A5000F4BEFF21006800F079BF000037B5084BA5
:105A600000930025074C0068257013460A46294616
:105A700000F072FF2378002BFCD0002003B030BD73
:105A8000195A0D009CE40320006800F05FBF00007D
:105A900037B5074B00930025064C00682570134668
:105AA0002A4600F059FF2378002BFCD003B030BD0C
:105AB000195A0D009CE4032000F064B800F062B8AD
:105AC00000F060B808B5024B1B689B68019308BDE5
:105AD0004802030008B5024B1B681B69019308BD0F
:105AE0004802030008B5024B1B685B69019308BDBF
:105AF0004802030008B5024B1B681B6B019308BDED
:105B00004802030008B5024B1B689B6B019308BD5C
:105B10004802030008B5024B1B681B6C019308BDCB
:105B20004802030008B5024B1B685B6C019308BD7B
:105B30004802030008B5024B1B685B68019308BD6F
:105B40001802030008B5024B1B681B69019308BDCE
:105B50001802030008B5024B1B685B69019308BD7E
:105B60001802030008B5024B1B68DB69019308BDEE
:105B70001802030008B5024B1B689B6D019308BD1A
:105B80001802030008B5024B1B681B68019308BD8F
:105B90002C02030008B5024B1B685B68019308BD2B
:105BA0002C02030008B5024B1B689B68019308BDDB
:105BB0002C02030008B5024B1B68DB68019308BD8B
:105BC0002C02030008B5024B1B681B69019308BD3A
:105BD0002C02030008B5024B1B681B6B019308BD28
:105BE0002C02030008B5024B1B681B6A019308BD19
:105BF0002802030008B5024B1B685B6A019308BDCD
:105C00002802030008B5024B1B689B6A019308BD7C
:105C10002802030008B5024B1B68DB6A019308BD2C
:105C20002802030008B5024B1B681B6B019308BDDB
:105C30002802030008B5024B1B685B6B019308BD8B
:105C40002802030008B5024B1B681B6C019308BDBA
:105C50002802030008B5024B1B685B69019308BD6D
:105C60006402030008B5024B1B689B68019308BDE2
:105C70006802030008B5024B1B68DB68019308BD8E
:105C80006802030008B5024B1B681B68019308BD3E
:105C90003002030008B5024B1B685B69019308BD25
:105CA0003002030008B5024B1B68DB69019308BD95
:105CB0003002030008B5024B1B681B6A019308BD44
:105CC0003002030008B5024B1B685B6A019308BDF4
:105CD0003002030008B5024B1B689B6A019308BDA4
:105CE0003002030008B5024B1B689B6B019308BD93
:105CF0003002030008B5024B1B68DB6B019308BD43
:105D00003002030008B5024B1B681B68019308BDF5
:105D10003C02030008B5024B1B68DB68019308BD19
:105D20003C02030008B5024B1B681B69019308BDC8
:105D30003C02030008B5024B1B685B69019308BD78
:105D40003C02030008B5024B1B689B69019308BD28
:105D50003C02030008B5024B1B68DB69019308BDD8
:105D60003C02030008B5024B1B681B6A019308BD87
:105D70003C02030008B5024B1B689B6A019308BDF7
:105D80003C02030008B5024B1B681B68019308BD69
:105D90004C02030008B5024B1B685B68019308BD09
:105DA0004C02030008B5024B1B681B69019308BD38
:105DB0004C02030008B5024B1B685B69019308BDE8
:105DC0004C02030008B5024B1B689B69019308BD98
:105DD0004C02030008B5024B1B68DB69019308BD48
:105DE0004C02030008B5024B1B681B6A019308BDF7
:105DF0004C02030008B5024B1B681B68019308BDE9
:105E00002002030008B5024B1B685B68019308BDC4
:105E10002002030008B5024B1B685B69019308BDB3
:105E20002002030008B5024B1B689B6D019308BD5F
:105E30002002030008B5034B1B68D3F88830019398
:105E400008BD00002002030008B5034B1B68D3F80F
:105E50009430019308BD00002002030008B5024BF6
:105E60001B689B68019308BD4402030008B5024B00
:105E70001B685B69019308BD4402030008B5024B2F
:105E80001B681B6B019308BD4402030008B5024B5D
:105E90001B68DB6B019308BD4402030008B5024B8D
:105EA0001B685B68019308BD4002030008B5024B04
:105EB0001B689B68019308BD4002030008B5024BB4
:105EC0001B68DB68019308BD4002030008B5024B64
:105ED0001B681B69019308BD4002030008B5024B13
:105EE0001B685B69019308BD4002030008B5024BC3
:105EF0001B689B69019308BD4002030008B5024B73
:105F00001B68DB69019308BD4002030008B5024B22
:105F10001B681B6A019308BD4002030008B5024BD1
:105F20001B681B6B019308BD4002030008B5024BC0
:105F30001B685B6B019308BD4002030008B5024B70
:105F40001B681B68019308BD1C02030008B5024BC7
:105F50001B685B68019308BD1C02030008B5024B77
:105F60001B685B6A019308BD1C0203000021FFF758
:105F700051BF0000024800230360FFF7D3BD00BFFC
:105F8000A0E40320002211464068FFF79FBF0022D3
:105F900011464068FFF7BABF002211464068FFF77C
:105FA000C5BF00224068FFF7B9BF002281F00101A0
:105FB0004068FFF7A3BF00231A4619464068FFF761
:105FC00095BF00231A4619464068FFF787BF002295
:105FD00011464068FFF76ABF002202214068FFF7C0
:105FE0006DBF00231A464068FFF758BF38B5084C0C
:105FF00028252A460021204601F0BEFD4FF0FF3340
:106000006360044B258004225A60034A1A6038BD3D
:10601000ACE40320A4E40320E87C0D0010B5836801
:10602000044613B1032201469847204610BD0022C2
:1060300011464068FFF76ABF002211464068FFF72B
:1060400075BF00224068FFF769BF002281F001019F
:106050004068FFF753BF00231A4619464068FFF710
:1060600045BF00231A4619464068FFF737BF002294
:1060700011464068FFF72ABF002211464068FFF72B
:1060800015BF002202214068FFF718BF00231A46FF
:106090004068FFF703BF0000024B03225A60024A28
:1060A0001A607047D4E403201C7D0D007047F8B5DA
:1060B000064615460C468F18BC4206D0336814F8C5
:1060C000011B9B6830469847F6E72846F8BD00223A
:1060D000007CFFF787BD0021007CFFF78BBD00210E
:1060E000007CFFF78FBD0021007CFFF793BD0021EE
:1060F000007CFFF797BD10B51421044600F0C9FEDF
:10610000204610BD10B504464FF47A730846A360CC
:106110000021044B207461602360FFF793FD20464B
:1061200010BD00BF507D0D000021007CFFF782BD37
:10613000704710B51821044600F0ABFE204610BD94
:10614000F0B5037D062B8DB00E4600F104074FF02D
:10615000000402D000F1080518E00CAD394605F83E
:10616000304D2F232A460A20FFF774FD284601F000
:1061700033FD33680246DB682946304698470FE016
:1061800024B12E21304600F0BDF9044415F8011D5C
:106190000A22304600F0FCF9BD420444F0D120460A
:1061A0000DB0F0BD10B5054B0446112240F8043B7C
:1061B000002101F0E1FC204610BD00BF787D0D00FC
:1061C0000346074A10B543F8042B01F1100251F8B9
:1061D000044B43F8044B9142F9D10A781A7010BD70
:1061E000787D0D0010B59DF8084044EA032343EA8A
:1061F000024242EA016104234160037510BD37B5D4
:106200000D788B784A78C97800912946FFF7EAFF24
:1062100003B030BD014B024A1A607047DCE4032032
:10622000F77D0D00002211464068FFF76FBE002287
:1062300011464068FFF77ABE00224068FFF76EBE45
:10624000002281F001014068FFF758BE00231A4682
:1062500001214068FFF74ABE00231A4619464068EC
:10626000FFF73CBE002211464068FFF72FBE002218
:1062700011464068FFF71ABE002202214068FFF76E
:106280001DBE00231A464068FFF708BE38B5054614
:1062900088B104684CB1A3681BB103222146204693
:1062A00098471021204600F0F4FD28461421BDE84F
:1062B000384000F0EEBD38BD10B103685B68184788
:1062C000704710B503680446BBB15868FFF7FAFB86
:1062D00078B923685A7C12B95868FFF7FBFB23682A
:1062E0005868FFF7FFFB20680023236028B1FFF701
:1062F000CDFF206808B1FFF7C9FF204610BD0000A0
:1063000038B50C4B03600446D0F8CC0108B1FDF75A
:10631000C8FED4F8C45135B12846FFF7D2FF042196
:10632000284600F0B6FDA06808B1FFF7C5FF20467B
:1063300038BD00BF6C7E0D0038B50E4C0E4B23608F
:106340000025022304F5E4706360A560C4F8C4511D
:10635000C4F8C851FFF7E6FB084BC4F8CC5184F8E9
:10636000D05123602046064A0649BDE8384000F077
:106370008BBD00BFE0E40320A07E0D006C7E0D000D
:10638000F0DF032001630D0000231A464068FFF789
:1063900085BD002202214068FFF790BD0022114612
:1063A0004068FFF783BD002211464068FFF78EBDAD
:1063B00000231A4619464068FFF790BD00231A468D
:1063C00019464068FFF792BD002281F00101406844
:1063D000FFF794BD00224068FFF7A0BD00221146E0
:1063E0004068FFF7A3BD002211464068FFF78EBD4D
:1063F0002DE9F043002495B016460D460746FFF7F9
:10640000D1FE214620220CA8009401F0B5FB4023C8
:106410000C9321466B460CAA3046FFF72BFC044632
:10642000002844D1024601216868FFF74FFD022190
:10643000804622466868FFF749FD009E8146214656
:10644000002E34D0002932D17368022B02D00A2BDF
:1064500009D02AE0B8F1000F27D07169384604311D
:10646000FFF7CDFE20E0B9F1000F1ED074691122B4
:1064700001A801F081FB06238DF8143001AD04F171
:1064800008031834186859682A4603C20833A3421F
:106490001546F7D101A906A807ADFFF791FE0FCD6C
:1064A0003C1D0FC42B6823700121F669C8E70098D2
:1064B000FFF7D8FB384615B0BDE8F083024B034A1E
:1064C0001A6000225A607047B4E60320A07E0D00D7
:1064D000F8B506460D468F180024BD420CD033682F
:1064E00015F8011B9B6830469847002801DB0444DF
:1064F000F3E7002C08BF04462046F8BD08B5FEF7B8
:106500003BFE08BD03689B68184738B50D2105465A
:10651000FFF7F8FF0A2104462846FFF7F3FF20445F
:1065200038BD38B50546FEF727FE04462846FFF776
:10653000ECFF204438BD30B58BB00B4600218DF800
:106540002410012A98BF0A220DF12304B3FBF2F5AF
:1065500005FB123303F0FF03092B94BF30333733AD
:10656000DBB2214604F801392B46002DEED1FEF7AF
:1065700003FE0BB030BD10B42AB903685DF8044BBC
:106580009B68C9B21847D2B25DF8044BFFF7D3BF7E
:10659000FFF7F1BF2DE9F04107460E4615462AB92F
:1065A0000368C9B29B68BDE8F04118470A2A02D1C6
:1065B000002901DA04E0D2B2BDE8F041FFF7BBBF29
:1065C0002D21FFF79FFF2A46044671423846FFF708
:1065D000B2FF2044BDE8F081FFF7DCBF2DE9F047B2
:1065E00057EC106B82460D4610EE102A3B4610EE1B
:1065F000100A394601F0EAF908B1484912E027F0DB
:1066000000494FF0FF32464B3046494601F0DEF973
:1066100068B94FF0FF32424B3046494601F0B8F9B5
:1066200028B940495046FEF7A7FDBDE8F0874FF076
:1066300060423D4B3046394601F0BEF908B13B4956
:10664000F0E74FF060423A4B3046394601F096F998
:106650000028F4D1002200233046394601F08EF99B
:1066600040B12D215046FFF74DFF07F1004304468E
:106670001F4600E004462F494FF0000800205FFA53
:1066800088F39D4206D900222B4B01F02FF808F128
:106690000108F4E732463B4600F04CFD0F46064643
:1066A00001F0D2F90A22014680465046FFF743FF27
:1066B00004447DB3404600F079FE02460B46304666
:1066C000394600F035FD06460F4650461B49FEF799
:1066D00053FD0444184B00223046394600F0DCFEDE
:1066E0000F46064601F088F90A22014680465046C8
:1066F000FFF750FF0444404600F068FE02460B4698
:106700003046394600F014FD013D15F0FF05064600
:106710000F46DFD12046BDE8F08700BFCC7E0D00DC
:10672000FFFFEF7FD67E0D00FFFFEF41D07E0D0013
:10673000FFFFEFC10000E03F00002440D47E0D00C9
:10674000C9B2FFF74BBF38B5C9B20546FFF746FFE0
:1067500004462846FFF7D9FE204438BD0CB42DE985
:10676000F04387B000AF07F13804054654F8049BA6
:106770003C600E4623464A461421381DFFF7EEFBC7
:10678000132805D8391D2846FEF7F6FC044613E009
:1067900000F1080323F00703E846ADEB030D411CAD
:1067A00023464A4668463C60FFF7D8FB69462846C0
:1067B000FEF7E2FC0446C5461EB12846FFF7A5FEDB
:1067C000044420461C37BD46BDE8F04302B0704784
:1067D00010B50446FFF722FC204610BD0348044ACA
:1067E00004490023836000F04FBB00BFBCE60320D8
:1067F000F0DF0320D1670D00704710B5102104466B
:1068000000F047FB204610BD70B5084B03600446FE
:1068100000250E4640F80C5FFFF76CF930462671F4
:10682000FFF740FAA560204670BD00BFE47E0D0072
:106830004FF6FF710079FFF725BAC068FFF76AB914
:10684000400830B51860002418688842E5B206D9BF
:106850000134082C02D040081860F5E70725024BE8
:106860005B5D137030BD00BFEC7E0D002DE9F04381
:1068700080468FB0C0680F46FFF744F998F804408F
:106880001422002109A801F077F90B2320460022E9
:1068900009A9ADF82430FFF715FA9DF82D404CB149
:1068A0009DF82C502DB90C9E9DF834909DF83540E4
:1068B00003E00024A146264601253B790DB1002BBB
:1068C00040D19D420BD1BA68B24208D18DF82090D8
:1068D0008DF82140BDF82010BA89914232D023BBF7
:1068E0008DF80F300DF10F0204ABB9680A98FFF76D
:1068F000A7FF3B7905B113BBAB4209D000213B7B1D
:1069000001917C7B9DF80F2098F80400009413E01F
:10691000BB68B342F2D38DF820908DF82140BDF8CA
:106920002020BB899A42E9D109E0002398F80400AD
:10693000019300931A460121FFF7DCF902E0049B62
:10694000B342DBD100200FB0BDE8F08308B5007979
:10695000FFF7A0F9C0B208BD30B587B004460A9D64
:1069600000790095FFF7B6F93DB902A92079FFF744
:10697000B9F99DF81430DB07F7D407B030BD0079C2
:10698000FFF798B9044B00204FF6FF72187058803B
:106990009A80FFF737BA00BFCCE6032008B5002085
:1069A000FFF76CFA28B1FFF761FA80F00100C0B27E
:1069B00008BD012008BD10B50020FFF7DBF8044634
:1069C00068B9FFF717FA01280BD12046FFF72AFA1A
:1069D00038B9FFF7E3FF30B9FFF740FAF9E70120D4
:1069E00010BD002010BDFFF7D9FF0020FFF7C2F84F
:1069F000003018BF012010BD08B5FFF7DCFFBDE86F
:106A00000840FFF7AFB80000024B1A68024B1A604B
:106A1000704700BF88DF0320D4E60320704741742D
:106A2000704708B5007CFFF7A5F920EAE07008BDC3
:106A300008B5007CFFF776F920EAE07008BD08B5DC
:106A4000007CFFF77FF930EA200028BF4FF0FF30CD
:106A500008BD08B5007CFFF76DF930EA200028BFBB
:106A60004FF0FF3008BD007CFFF774B910B514215A
:106A7000044600F00EFA204610BD70B5457C044671
:106A80000E4625B9007CFFF775F9002805DD314673
:106A9000207CBDE87040FFF73DB9284670BD00007E
:106AA00010B5044608461146002262604FF47A721F
:106AB000A260054A22600122207462741A46FFF720
:106AC00021F9204610BD00BF287F0D00007CFFF794
:106AD00049B90000F8B5194C25684DB98420FDF777
:106AE000DCFA064618B18422294601F045F82660F2
:106AF000134D2E684EB98420FDF7CFFA074618B122
:106B00008422314601F038F82F600E4F396811F0B9
:106B1000010611D13846FDF7C6FA68B122682B6824
:106B200009483146FFF7BCFF3846FDF7C1FA074A6E
:106B30000749054800F0A8F90348F8BDF4E603202A
:106B4000ECE60320F0E60320D8E60320F0DF032084
:106B50001D6A0D0041747047704708B50021007C24
:106B6000FFF730F930EA200028BF4FF0FF3008BDB2
:106B700008B50121007CFFF725F930EA200028BF85
:106B80004FF0FF3008BD08B5007CFFF713F920EA8D
:106B9000E07008BD08B5007CFFF704F920EAE0705A
:106BA00008BD007CFFF71EB910B51421044600F0A3
:106BB00070F9204610BD38B50446007C0D46FFF73D
:106BC000F9F8002801DC607C28B12946207CFFF719
:106BD00001F920EAE07038BD10B504460023636077
:106BE0004FF47A73A360054B236001230846217498
:106BF00063741146FFF7C6F8204610BD587F0D009C
:106C00000022007CFFF7C6B810B51422044600210C
:106C100000F0B2FF204610BD30B50E4D87B001A880
:106C2000FFF7F2FF296811F0010410D12846FDF7A3
:106C30003AFA60B101AA21460748FFF7CDFF28467E
:106C4000FDF736FA054A0649034800F01DF90248E7
:106C500007B030BDF8E60320FCE60320F0DF032098
:106C6000596B0D0008B50C4B33B1FFF7D5FF036826
:106C70001B699847002809DC084B63B1FFF72AFF1E
:106C800003681B699847002803DC08BDAFF3008048
:106C9000F2E7AFF3008008BD000000000000000034
:106CA00008B5FFF7DFFFFEF755FF014B186008BD81
:106CB00014E7032007B5002300931A466FF077010D
:106CC000FFF7C2F803B05DF804FB000007B5438886
:106CD0000A2B08D0502B09D1094B1B683BB103B0DC
:106CE0005DF804EB1847FFF7E5FF06E0002300938B
:106CF0001A466FF07701FFF7A7F803B05DF804FBC1
:106D000010E7032010B5FEF715FF044600F03CFF26
:106D1000074B13B12046AFF3008000210448FFF772
:106D2000B5F800210348BDE81040FFF783B800BF65
:106D300000000000CD6C0D0010B504460F48FFF7B1
:106D40001EFE28B1A4F10B03022B01D8002010BDB8
:106D500000F058F8FFF7E8F908B1012CF6D9FFF771
:106D6000B9FEFFF7B3FE18B1A4F10903012BEDD969
:106D7000232C8CBF0020012010BD00BF30E7032072
:106D8000232838B504460D460AD8FF2908D0FFF756
:106D9000D3FF28B129462046BDE83840FEF702BFA0
:106DA00038BD38B504460D46FEF704FFFF2810D065
:106DB000062804D84D2323FA00F0C30709D420463F
:106DC000FFF7BAFF28B129462046BDE83840FEF754
:106DD000F9BE38BD0D2810B504469CBF0E34A4B2D0
:106DE0002046FFF7A9FF50B103212046FEF7D2FE4F
:106DF000032804D12046BDE81040FEF7EBBE00207A
:106E000010BD000038B50B4D296811F001040FD1F9
:106E10002846FDF748F958B121460748FFF772F9AF
:106E20002846FDF745F9054A0549034800F02CF8C6
:106E3000014838BD18E703201CE70320F0DF0320DA
:106E4000AD600D0070B50C4C0C4E0D4D0021204670
:106E5000FFF7DAFC20460B4C3246294600F014F8C6
:106E600001212046FFF7D0FC324629462046BDE8E6
:106E7000704000F009B800BF30E70320F0DF0320C6
:106E8000F9670D0040E703200B460146184600F065
:106E90004BBEFDF704B90000244B1A68D0075CBF55
:106EA00001221A60224B1A68D1075CBF01221A60C6
:106EB000204B1A68D2075CBF01221A601E4B1A6869
:106EC000D0075CBF01221A601C4B1A68D1075CBF57
:106ED00001221A601A4B1A68D2075CBF01221A609D
:106EE000184B1A68D0075CBF01221A60164B1A684B
:106EF000D1075CBF01221A60144B1A68D2075CBF2D
:106F000001221A60124B1A68D0075CBF01221A6076
:106F1000104B1A68D1075CBF01221A600E4B1A6829
:106F2000D2075CBF01221A60704700BF7CE70320D4
:106F300078E7032074E7032070E703206CE7032061
:106F400068E7032064E7032060E703205CE7032091
:106F500058E7032054E7032050E70320184B1A6832
:106F6000D1075CBF01221A60164B1A68D2075CBFBA
:106F700001221A60144B1A68D0075CBF01221A6004
:106F8000124B1A68D1075CBF01221A60104B1A68B5
:106F9000D2075CBF01221A600E4B1A68D0075CBF93
:106FA00001221A600C4B1A68D1075CBF01221A60DB
:106FB0000A4B1A68D2075CBF01221A60704700BFF3
:106FC0009CE7032098E7032094E7032090E7032041
:106FD0008CE7032088E7032084E7032080E7032071
:106FE000184B1A68D1075CBF01221A60164B1A6849
:106FF000D2075CBF01221A60144B1A68D0075CBF2D
:1070000001221A60124B1A68D1075CBF01221A6074
:10701000104B1A68D2075CBF01221A600E4B1A6827
:10702000D0075CBF01221A600C4B1A68D1075CBF05
:1070300001221A600A4B1A68D2075CBF01221A604B
:10704000704700BFBCE70320B8E70320B4E7032084
:10705000B0E70320ACE70320A8E70320A4E7032060
:10706000A0E70320244B1A68D0075CBF01221A60F6
:10707000224B1A68D1075CBF01221A60204B1A68A4
:10708000D2075CBF01221A601E4B1A68D0075CBF92
:1070900001221A601C4B1A68D1075CBF01221A60DA
:1070A0001A4B1A68D2075CBF01221A60184B1A6883
:1070B000D0075CBF01221A60164B1A68D1075CBF6B
:1070C00001221A60144B1A68D2075CBF01221A60B1
:1070D000124B1A68D0075CBF01221A60104B1A6865
:1070E000D1075CBF01221A600E4B1A68D2075CBF41
:1070F00001221A60704700BFECE70320E8E7032095
:10710000E4E70320E0E70320DCE70320D8E70320DF
:10711000D4E70320D0E70320CCE70320C8E703200F
:10712000C4E70320C0E7032081F0004102E000BF74
:1071300083F0004330B54FEA41044FEA430594EA37
:10714000050F08BF90EA020F1FBF54EA000C55EA72
:10715000020C7FEA645C7FEA655C00F0E2804FEA43
:107160005454D4EB5555B8BF6D420CDD2C4480EA25
:10717000020281EA030382EA000083EA010180EA55
:10718000020281EA0303362D88BF30BD11F0004FA3
:107190004FEA01314FF4801C4CEA113102D04042D9
:1071A00061EB410113F0004F4FEA03334CEA133314
:1071B00002D0524263EB430394EA050F00F0A7802C
:1071C000A4F10104D5F1200E0DDB02FA0EFC22FA27
:1071D00005F2801841F1000103FA0EF2801843FA1B
:1071E00005F359410EE0A5F120050EF1200E012A0C
:1071F00003FA0EFC28BF4CF0020C43FA05F3C0184A
:1072000051EBE37101F0004507D54FF0000EDCF1C2
:10721000000C7EEB00006EEB0101B1F5801F1BD36B
:10722000B1F5001F0CD349085FEA30004FEA3C0C6F
:1072300004F101044FEA445212F5800F80F09A8065
:10724000BCF1004F08BF5FEA500C50F1000041EB69
:10725000045141EA050130BD5FEA4C0C404141EB6D
:10726000010111F4801FA4F10104E9D191F0000F94
:1072700004BF01460020B1FA81F308BF2033A3F117
:107280000B03B3F120020CDA0C3208DD02F1140C0E
:10729000C2F10C0201FA0CF021FA02F10CE002F149
:1072A0001402D8BFC2F1200C01FA02F120FA0CFC42
:1072B000DCBF41EA0C019040E41AA2BF01EB04518B
:1072C000294330BD6FEA04041F3C1CDA0C340EDC89
:1072D00004F11404C4F1200220FA04F001FA02F3CC
:1072E00040EA030021FA04F345EA030130BDC4F18A
:1072F0000C04C4F1200220FA02F001FA04F340EA7F
:107300000300294630BD21FA04F0294630BD94F02F
:10731000000F83F4801306BF81F480110134013D16
:107320004EE77FEA645C18BF7FEA655C29D094EA87
:10733000050F08BF90EA020F05D054EA000C04BF05
:107340001946104630BD91EA030F1EBF00210020F0
:1073500030BD5FEA545C05D14000494128BF41F08F
:10736000004130BD14F580043CBF01F5801130BDF3
:1073700001F0004545F0FE4141F470014FF000007E
:1073800030BD7FEA645C1ABF194610467FEA655C2F
:107390001CBF0B46024650EA013406BF52EA0335D1
:1073A00091EA030F41F4002130BD00BF90F0000FBF
:1073B00004BF0021704730B54FF4806404F13204FB
:1073C0004FF000054FF0000150E700BF90F0000FB4
:1073D00004BF0021704730B54FF4806404F13204DB
:1073E00010F0004548BF40424FF000013EE700BFAB
:1073F00042004FEAE2014FEA31014FEA02701FBF3B
:1074000012F07F4393F07F4F81F06051704792F00C
:10741000000F14BF93F07F4F704730B54FF4607486
:1074200001F0004521F0004120E700BF50EA0102D1
:1074300008BF704730B54FF000050AE050EA01027E
:1074400008BF704730B511F0004502D5404261EBEE
:1074500041014FF4806404F132045FEA915C3FF42F
:10746000DCAE4FF003025FEADC0C18BF03325FEAC8
:10747000DC0C18BF033202EBDC02C2F1200300FA7D
:1074800003FC20FA02F001FA03FE40EA0E0021FAA2
:1074900002F11444C1E600BF70B54FF0FF0C4CF48C
:1074A000E06C1CEA11541DBF1CEA135594EA0C0F42
:1074B00095EA0C0F00F0DEF82C4481EA030621EA7D
:1074C0004C5123EA4C5350EA013518BF52EA0335B8
:1074D00041F4801143F4801338D0A0FB02CE4FF06A
:1074E0000005E1FB02E506F00042E0FB03E54FF09A
:1074F0000006E1FB03569CF0000F18BF4EF0010E92
:10750000A4F1FF04B6F5007F64F5407404D25FEA8D
:107510004E0E6D4146EB060642EAC62141EA555140
:107520004FEAC52040EA5E504FEACE2EB4F1FD0C82
:1075300088BFBCF5E06F1ED8BEF1004F08BF5FEA00
:10754000500E50F1000041EB045170BD06F00046B2
:1075500046EA010140EA020081EA0301B4EB5C045F
:10756000C2BFD4EB0C0541EA045170BD41F4801157
:107570004FF0000E013C00F3AB8014F1360FDEBF7C
:10758000002001F0004170BDC4F10004203C35DA58
:107590000C341BDC04F11404C4F1200500FA05F3DB
:1075A00020FA04F001FA05F240EA020001F000427C
:1075B00021F0004110EBD37021FA04F642EB0601F2
:1075C0005EEA430E08BF20EAD37070BDC4F10C041C
:1075D000C4F1200500FA04F320FA05F001FA04F2E0
:1075E00040EA020001F0004110EBD37041F10001CC
:1075F0005EEA430E08BF20EAD37070BDC4F12005D7
:1076000000FA05F24EEA020E20FA04F301FA05F23E
:1076100043EA020321FA04F001F0004121FA04F2E6
:1076200020EA020000EBD3705EEA430E08BF20EAB6
:10763000D37070BD94F0000F0FD101F000464000F0
:1076400041EB010111F4801F08BF013CF7D041EA72
:10765000060195F0000F18BF704703F00046520076
:1076600043EB030313F4801F08BF013DF7D043EA47
:107670000603704794EA0C0F0CEA135518BF95EAFD
:107680000C0F0CD050EA410618BF52EA4306D1D184
:1076900081EA030101F000414FF0000070BD50EAA3
:1076A000410606BF1046194652EA430619D094EA2D
:1076B0000C0F02D150EA013613D195EA0C0F05D117
:1076C00052EA03361CBF104619460AD181EA03016B
:1076D00001F0004141F0FE4141F470014FF0000023
:1076E00070BD41F0FE4141F4780170BD70B54FF0BE
:1076F000FF0C4CF4E06C1CEA11541DBF1CEA13553E
:1077000094EA0C0F95EA0C0F00F0A7F8A4EB05041F
:1077100081EA030E52EA03354FEA013100F0888016
:107720004FEA03334FF0805545EA131343EA1263DF
:107730004FEA022245EA111545EA10654FEA002694
:107740000EF000419D4208BF964244F1FD0404F54D
:10775000407402D25B084FEA3202B61A65EB0305A9
:107760005B084FEA32024FF480104FF4002CB6EB66
:10777000020E75EB030E22BFB61A754640EA0C00E6
:107780005B084FEA3202B6EB020E75EB030E22BF26
:10779000B61A754640EA5C005B084FEA3202B6EB67
:1077A000020E75EB030E22BFB61A754640EA9C0026
:1077B0005B084FEA3202B6EB020E75EB030E22BFF6
:1077C000B61A754640EADC0055EA060E18D04FEAB4
:1077D000051545EA16754FEA06164FEAC30343EA54
:1077E00052734FEAC2025FEA1C1CC0D111F4801F21
:1077F0000BD141EA00014FF000004FF0004CB6E71A
:1078000011F4801F04BF01430020B4F1FD0C88BFB8
:10781000BCF5E06F3FF6AFAEB5EB030C04BFB6EBC3
:10782000020C5FEA500C50F1000041EB045170BDB6
:107830000EF0004E4EEA113114EB5C04C2BFD4EBE3
:107840000C0541EA045170BD41F480114FF0000E67
:10785000013C90E645EA060E8DE60CEA135594EAE3
:107860000C0F08BF95EA0C0F3FF43BAF94EA0C0FE6
:107870000AD150EA01347FF434AF95EA0C0F7FF45B
:1078800025AF104619462CE795EA0C0F06D152EAAF
:1078900003353FF4FDAE1046194622E750EA410693
:1078A00018BF52EA43067FF4C5AE50EA41047FF4A4
:1078B0000DAF52EA43057FF4EBAE12E74FF0FF3C09
:1078C00006E000BF4FF0010C02E000BF4FF0010CDA
:1078D0004DF804CD4FEA410C7FEA6C5C4FEA430C53
:1078E00018BF7FEA6C5C1BD001B050EA410C0CBFA2
:1078F00052EA430C91EA030F02BF90EA020F002004
:10790000704710F1000F91EA030F58BF994208BF6A
:1079100090422CBFD8176FEAE37040F00100704727
:107920004FEA410C7FEA6C5C02D150EA013C07D17E
:107930004FEA430C7FEA6C5CD6D152EA033CD3D0C9
:107940005DF8040B704700BF8446104662468C46C3
:107950001946634600E000BF01B5FFF7B7FF0028F6
:1079600048BF10F1000F01BD4DF808EDFFF7F4FF1F
:107970000CBF012000205DF808FB00BF4DF808EDAA
:10798000FFF7EAFF34BF012000205DF808FB00BFCD
:107990004DF808EDFFF7E0FF94BF012000205DF8EF
:1079A00008FB00BF4DF808EDFFF7CEFF94BF0120A4
:1079B00000205DF808FB00BF4DF808EDFFF7C4FF9D
:1079C00034BF012000205DF808FB00BF4FEA410CE6
:1079D0007FEA6C5C02D150EA013C0AD14FEA430CC9
:1079E0007FEA6C5C02D152EA033C02D14FF0000006
:1079F00070474FF0010070474FEA410212F5001244
:107A000015D211D56FF47873B3EB625212D94FEAE5
:107A1000C12343F0004343EA505311F0004F23FACF
:107A200002F018BF404270474FF00000704750EA24
:107A3000013005D111F0004008BF6FF000407047E1
:107A40004FF00000704700BF4A0011D212F500123B
:107A500011D20DD56FF47873B3EB62520ED44FEAA6
:107A6000C12343F0004343EA505323FA02F0704726
:107A70004FF00000704750EA013002D14FF0FF3064
:107A800070474FF0000070474FEA4102B2F1E04307
:107A900024BFB3F5001CDCF1FE5C0DD901F0004CF5
:107AA0004FEAC0024CEA5070B2F1004F40EB830045
:107AB00008BF20F00100704711F0804F21D113F171
:107AC0003872BCBF01F00040704741F480114FEAAA
:107AD0005252C2F11802C2F1200C10FA0CF320FA33
:107AE00002F018BF40F001004FEAC1234FEAD32350
:107AF00003FA0CFC40EA0C0023FA02F34FEA4303BA
:107B0000CCE77FEA625307D150EA01331EBF4FF042
:107B1000FE4040F44000704701F0004040F0FE405D
:107B200040F40000704700BF10B5054C13462CB15F
:107B30000A4601460220AFF3008010BD204610BD6A
:107B40000000000010B501390244904207D010F83F
:107B5000013B11F8014FA342F7D0181B10BD0020C4
:107B600010BD10B5431E0A44914204D011F8014BD8
:107B700003F8014FF8E710BD02440346934202D0D8
:107B800003F8011BFAE7704738B5124B1C68A36B6A
:107B90000546D3B91820FEF7D1F943F20E33A0639E
:107BA00003804AF6CD33438041F2342383804EF282
:107BB0006D63C3804DF6EC630381052343810B2382
:107BC000838101220023C0E90423A36B00221D61ED
:107BD0005A6138BDECDF0320034613F8012B002A5D
:107BE000FBD1181A0138704721400D005D400D008F
:107BF00089400D008D400D000000000000000000D5
:107C0000000000002D410D000000000000000000F9
:107C1000D3400D001F410D0007410D0001410D0033
:107C2000B7400D00E1400D00DB400D00D5400D00D8
:107C300064656661756C7420004D5342004C53427C
:107C4000003C53504953657474696E6773206465D2
:107C50006661756C743E003C535049536574746999
:107C60006E6773202573256C75202573204D4F4456
:107C70004525643E004D6178626F746978205465D3
:107C800073740054696D653A20002C204469737444
:107C9000616E636528696E293A20006469737461B6
:107CA0006E63652E747874006661696C6564207417
:107CB0006F206F70656E2063617264006F70656E17
:107CC000696E6720746573742E74787420666F72A1
:107CD000207772697465206661696C6564002C00A8
:107CE0000000000000000000E35F0D00D95F0D0000
:107CF000CF5F0D00855F0D00C35F0D00B75F0D0006
:107D0000AB5F0D00A35F0D00995F0D008F5F0D004D
:107D1000F1630D0000000000000000008D600D0008
:107D200083600D0079600D006F600D0063600D00D1
:107D300057600D004B600D0043600D0039600D0071
:107D40002F600D00F1630D00000000000000000036
:107D5000AD600D00F7600D00CF600D00AF600D004D
:107D6000D7600D00DF600D00E7600D00EF600D00D3
:107D7000000000000000000041610D0031610D00B5
:107D800033610D00626175640053657269616C0056
:107D900053657269616C310074797065007061724D
:107DA000616D00636D6400696400686E64007374E3
:107DB000726D0066696C74006C766C006164644876
:107DC000616E646C65720072656D6F766548616E98
:107DD000646C657200656E756D48616E646C657289
:107DE00073004A534F4E53747265616D4C6F674810
:107DF000616E646C657200617070002530313075A1
:107E000020005D20002564002C200028293A200055
:107E1000205B00636F6465203D2000256900646578
:107E20007461696C73203D20000D0A006C6E006661
:107E30006E00636F64650064657461696C006E6FE9
:107E40006E6500747261636500696E666F007761CC
:107E5000726E006572726F720070616E69630061AC
:107E60006C6C0000000000000000000083620D0048
:107E700079620D006F620D0065620D0059620D00A0
:107E80004D620D0041620D0039620D002F620D0040
:107E900025620D00F1630D000000000000000000ED
:107EA00089630D0093630D009D630D00A7630D00B2
:107EB000B1630D00BD630D00C9630D00D5630D00F6
:107EC000DD630D00E7630D00F1630D006E616E0070
:107ED0006F7666002E00696E6600000000000000EC
:107EE00000000000F9670D00FB670D000008101886
:107EF000202830385A00252B3033643A253032752B
:107F00000025592D256D2D25645425483A254D3AD7
:107F10002553257A0061736374696D650000000064
:107F200000000000000000001D6A0D006D6A0D00D9
:107F30007B6A0D00D1640D00316A0D00536A0D009B
:107F40003F6A0D00676A0D001F6A0D00236A0D006D
:107F50000000000000000000596B0D00A96B0D002F
:107F6000B76B0D00D1640D00956B0D005B6B0D00C0
:107F7000716B0D00A36B0D00876B0D00556B0D0031
:107F800000000000000000000000000000000000F1
:107F900000000000000000000000000000000000E1
:107FA00000000000000000000000000000000000D1
:107FB00000000000000000000000000000000000C1
:107FC00000000000000000000000000000000000B1
:107FD00000000000000000000000000000000000A1
:107FE0004300000019440D007D440D00654B0D0059
:107FF00075510D0099510D009D510D00C1540D009A
:10800000C5540D00C9540D00CD540D00D1540D00C0
:108010000B5A0D000F5A0D00135A0D00B95A0D00DE
:10802000BD5A0D00C15A0D00755F0D00ED5F0D00CA
:1080300099600D0015620D0039630D00BD640D00DF
:10804000DD670D0085690D00096A0D00456E0D00A4
:10805000996E0D005D6F0D00E16F0D0065700D00F4
:1080600013000000157F0D0000000000807F0D0050
:10807000A07F0D00C07F0D00000000000000000088
:108080000000000000000000E07F0D000000000084
:1080900000000000000000000000000000000000E0
:1080A00000000000000000000000000000000000D0
:1080B00000000000000000000000000000000000C0
:0C80C00000000000000000008CDF032026
:1080CC00FFFFFFFF00000102030405060708090A71
:1080DC000B0C0D0E0F101112131415161718191A6C
:0880EC001B1C1D1E1F202800B3
:0480F4007856341274
:04000003D0004020C9
:00000001FF
