:02000002D0002C
:1040000000400D0044620D00000006000D00050197
:0840100004017E050000000020
:044018003C5E0D00FD
:1040200009480A49884208B505D0094A824202D0A7
:10403000121A01F0BFFE0748074A0021121A01F0C8
:10404000C4FE014808BD00BF28E40320B0610D0094
:1040500094E4032094E40320F0E7032070B501F01A
:1040600003F8074C074BE41AA40800251E46A54296
:1040700004D056F8253098470135F8E770BD00BFE9
:10408000A8610D006C610D0000F016B808B500F0D5
:1040900033F8BDE8084000F0B5BF00F01BBA00F0EF
:1040A00021BA00F01FBA0078B0FA80F040097047DA
:1040B000012303707047000008B50C48002319461F
:1040C0001A46406800F0DEF941F2883000F012FA3A
:1040D00000F054FF4FF4165100F044FF00F04EFF83
:1040E0000349BDE8084000F0F0BC00BFA4E4032091
:1040F000505E0D000000000010B500F03FFF1849B1
:1041000000F0D0FC00F03AFF164B0446188800F08F
:10411000E9FF01F0E3FA0EA3D3E9002301F044FB29
:104120000DA3D3E9002301F03FFB41EC100B02216A
:10413000204600F0D7FD00F021FF00F0BAFC4FF45C
:104140007A70BDE8104000F0D5B900BFAFF3008031
:104150006666666666665A3F3EF8E0830F3E5340E9
:104160005E5E0D0028E4032008B500F047F8064B1A
:1041700000221A705A804FF6FF729A800320BDE821
:10418000084000F02BB900BF98E4032008B5024BAB
:104190001B689B68019308BD4802030008B5024BE9
:1041A0001B681B69019308BD4802030008B5024B58
:1041B0001B685B69019308BD4802030008B5024B08
:1041C0001B681B6B019308BD4802030008B5024B36
:1041D0001B685B6C019308BD4802030008B5024BE5
:1041E0001B685B68019308BD1802030008B5024B09
:1041F0001B685B69019308BD1802030008B5024BF8
:104200001B681B68019308BD2C02030008B5024B14
:104210001B685B68019308BD2C02030008B5024BC4
:104220001B681B6B019308BD2C02030008B5024BF1
:104230001B681B6A019308BD2802030008B5024BE6
:104240001B685B6A019308BD2802030008B5024B96
:104250001B689B6A019308BD2802030008B5024B46
:104260001B68DB6A019308BD2802030008B5024BF6
:104270001B681B6B019308BD2802030008B5024BA5
:104280001B685B6B019308BD2802030008B5024B55
:104290001B681B6C019308BD2802030008B5024B84
:1042A0001B685B69019308BD6402030008B5024BFB
:1042B0001B689B68019308BD6802030008B5024BA8
:1042C0001B68DB68019308BD6802030008B5024B58
:1042D0001B68DB69019308BD3002030008B5024B7F
:1042E0001B681B6A019308BD3002030008B5024B2E
:1042F0001B681B68019308BD3C02030008B5024B14
:104300001B68DB68019308BD3C02030008B5024B43
:104310001B681B69019308BD3C02030008B5024BF2
:104320001B685B69019308BD3C02030008B5024BA2
:104330001B689B69019308BD3C02030008B5024B52
:104340001B68DB69019308BD3C02030008B5024B02
:104350001B681B6A019308BD3C02030008B5024BB1
:104360001B689B6A019308BD3C02030008B5024B21
:104370001B681B68019308BD4C02030008B5024B83
:104380001B685B68019308BD4C02030008B5024B33
:104390001B681B69019308BD4C02030008B5024B62
:1043A0001B685B69019308BD4C02030008B5024B12
:1043B0001B689B69019308BD4C02030008B5024BC2
:1043C0001B68DB69019308BD4C02030008B5024B72
:1043D0001B681B6A019308BD4C02030008B5024B21
:1043E0001B685B68019308BD2002030008B5024BFF
:1043F0001B685B69019308BD2002030008B5034BED
:104400001B68D3F88830019308BD00002002030028
:1044100008B5034B1B68D3F89430019308BD000026
:104420002002030008B5024B1B68DB6B019308BD3B
:104430004402030008B5024B1B685B68019308BD8A
:104440004002030008B5024B1B689B68019308BD3E
:104450004002030008B5024B1B68DB68019308BDEE
:104460004002030008B5024B1B681B69019308BD9D
:104470004002030008B5024B1B685B69019308BD4D
:104480004002030008B5024B1B689B69019308BDFD
:104490004002030008B5024B1B68DB69019308BDAD
:1044A0004002030008B5024B1B681B6A019308BD5C
:1044B0004002030008B5024B1B681B6B019308BD4B
:1044C0004002030008B5024B1B685B6B019308BDFB
:1044D0004002030008B5024B1B681B68019308BD2E
:1044E0001C02030008B5024B1B685B68019308BD02
:1044F0001C0203000021FFF779BF000002480023DF
:104500000360FFF763BE00BFA0E403200022114652
:104510004068FFF7A7BF002211464068FFF7C2BFFF
:10452000002211464068FFF7CDBF00224068FFF728
:10453000C1BF002281F001014068FFF7ABBF00233B
:104540001A4619464068FFF79DBF00231A461946D0
:104550004068FFF78FBF002211464068FFF772BF27
:10456000002202214068FFF775BF00231A46406809
:10457000FFF760BF38B5084C28252A4600212046A1
:1045800001F023FC4FF0FF336360044B25800422CD
:104590005A60034A1A6038BDACE40320A4E4032047
:1045A000785E0D0010B58368044613B103220146FE
:1045B0009847204610BD002211464068FFF772BFA1
:1045C000002211464068FFF77DBF00224068FFF7D8
:1045D00071BF002281F001014068FFF75BBF00233B
:1045E0001A4619464068FFF74DBF00231A46194680
:1045F0004068FFF73FBF002211464068FFF732BF17
:10460000002211464068FFF71DBF002202214068CA
:10461000FFF720BF00231A464068FFF70BBF0000DA
:10462000024B03225A60024A1A607047D4E4032006
:10463000AC5E0D007047F8B5064615460C468F185F
:10464000BC4206D0336814F8011B9B68304698477B
:10465000F6E72846F8BD0022007CFFF7E7BD002101
:10466000007CFFF7EBBD0021007CFFF7EFBD0021D0
:10467000007CFFF7F3BD0021007CFFF7F7BD10B50C
:104680001421044600F08DFD204610BD10B50446EF
:104690004FF47A730846A3600021044B20746160D4
:1046A0002360FFF7F3FD204610BD00BFE05E0D0064
:1046B0000021007CFFF7E2BD704710B518210446C9
:1046C00000F06FFD204610BDF0B5037D062B8DB0C8
:1046D0000E4600F104074FF0000402D000F1080577
:1046E00018E00CAD394605F8304D2F232A460A2034
:1046F000FFF7D4FD284601F099FB33680246DB68DA
:104700002946304698470FE024B12E21304600F06C
:10471000CDF9044415F8011D0A22304600F00CFAC8
:10472000BD420444F0D120460DB0F0BD10B5054B9C
:104730000446112240F8043B002101F046FB2046CC
:1047400010BD00BF085F0D000346074A10B543F8CF
:10475000042B01F1100251F8044B43F8044B914231
:10476000F9D10A781A7010BD085F0D0010B59DF8D8
:10477000084044EA032343EA024242EA0161042377
:104780004160037510BD37B50D788B784A78C978CC
:1047900000912946FFF7EAFF03B030BD014B024A02
:1047A0001A607047DCE40320875F0D000022114689
:1047B0004068FFF777BE002211464068FFF782BECF
:1047C00000224068FFF776BE002281F001014068B8
:1047D000FFF760BE00231A4601214068FFF752BE72
:1047E00000231A4619464068FFF744BE00221146CE
:1047F0004068FFF737BE002211464068FFF722BE2F
:10480000002202214068FFF725BE00231A464068B7
:10481000FFF710BE38B5054688B104684CB1A368EF
:104820001BB103222146204698471021204600F064
:10483000B8FC28461421BDE8384000F0B2BC38BDB1
:1048400010B103685B681847704710B503680446E9
:10485000BBB15868FFF79AFC78B923685A7C12B943
:104860005868FFF79BFC23685868FFF79FFC206897
:104870000023236028B1FFF7CDFF206808B1FFF7C0
:10488000C9FF204610BD000038B50C4B036004463C
:10489000D0F8CC0108B1FFF704FCD4F8C45135B10D
:1048A0002846FFF7D2FF0421284600F07AFCA068D2
:1048B00008B1FFF7C5FF204638BD00BFFC5F0D0003
:1048C00038B50E4C0E4B23600025022304F5E4702E
:1048D0006360A560C4F8C451C4F8C851FFF776FC02
:1048E000084BC4F8CC5184F8D05123602046064AC6
:1048F0000649BDE8384000F04FBC00BFE0E40320AB
:1049000030600D00FC5F0D0094E4032089480D0029
:1049100000231A464068FFF78DBD0022022140683F
:10492000FFF798BD002211464068FFF78BBD0022BB
:1049300011464068FFF796BD00231A4619464068A5
:10494000FFF798BD00231A4619464068FFF79ABD45
:10495000002281F001014068FFF79CBD0022406801
:10496000FFF7A8BD002211464068FFF7ABBD00224B
:1049700011464068FFF796BD2DE9F043002495B03D
:1049800016460D460746FFF7D1FE214620220CA809
:10499000009401F01AFA40230C9321466B460CAAAE
:1049A0003046FFF78BFC0446002844D10246012123
:1049B0006868FFF757FD0221804622466868FFF7C6
:1049C00051FD009E81462146002E34D0002932D16F
:1049D0007368022B02D00A2B09D02AE0B8F1000F2D
:1049E00027D0716938460431FFF7CDFE20E0B9F1D8
:1049F000000F1ED07469112201A801F0E6F9062308
:104A00008DF8143001AD04F10803183418685968A2
:104A10002A4603C20833A3421546F7D101A906A8C6
:104A200007ADFFF791FE0FCD3C1D0FC42B6823701F
:104A30000121F669C8E70098FFF738FC384615B041
:104A4000BDE8F083024B034A1A6000225A607047A7
:104A5000B4E6032030600D00F8B506460D468F1809
:104A60000024BD420CD0336815F8011B9B6830460A
:104A70009847002801DB0444F3E7002C08BF0446F4
:104A80002046F8BD70B505460C46084649B101F010
:104A9000CDF92B68024621462846DB68BDE8704008
:104AA000184770BD08B5FFF7EDFF08BD03689B68A8
:104AB000184738B50D210546FFF7F8FF0A210446CF
:104AC0002846FFF7F3FF204438BD38B50546FFF709
:104AD000D9FF04462846FFF7ECFF204438BD30B527
:104AE0008BB00B4600218DF82410012A98BF0A22B2
:104AF0000DF12304B3FBF2F505FB123303F0FF03C2
:104B0000092B94BF30333733DBB2214604F8013927
:104B10002B46002DEED1FFF7B5FF0BB030BD10B422
:104B20002AB903685DF8044B9B68C9B21847D2B232
:104B30005DF8044BFFF7D3BFFFF7F1BF2DE9F0415C
:104B400007460E4615462AB90368C9B29B68BDE8F8
:104B5000F04118470A2A02D1002901DA04E0D2B252
:104B6000BDE8F041FFF7BBBF2D21FFF79FFF2A46AD
:104B7000044671423846FFF7B2FF2044BDE8F08199
:104B80002DE9F04757EC106B82460D4610EE102AC7
:104B90003B4610EE100A394601F0A0F808B148492A
:104BA00012E027F000494FF0FF32464B30464946AD
:104BB00001F094F868B94FF0FF32424B3046494655
:104BC00001F06EF828B940495046FFF75BFFBDE899
:104BD000F0874FF060423D4B3046394601F074F8A3
:104BE00008B13B49F0E74FF060423A4B3046394656
:104BF00001F04CF80028F4D1002200233046394659
:104C000001F044F840B12D215046FFF74FFF07F166
:104C1000004304461F4600E004462F494FF00008B9
:104C200000205FFA88F39D4206D900222B4B00F04A
:104C3000E5FE08F10108F4E732463B4600F002FCCD
:104C40000F46064601F088F80A2201468046504683
:104C5000FFF745FF04447DB3404600F02FFD0246B8
:104C60000B463046394600F0EBFB06460F465046F1
:104C70001B49FFF707FF0444184B00223046394612
:104C800000F092FD0F46064601F03EF80A2201466A
:104C900080465046FFF752FF0444404600F01EFD98
:104CA00002460B463046394600F0CAFB013D15F07E
:104CB000FF0506460F46DFD12046BDE8F08700BF5E
:104CC0005C600D00FFFFEF7F66600D00FFFFEF41AE
:104CD00060600D00FFFFEFC10000E03F00002440D6
:104CE00064600D00C9B2FFF74BBF10B50446FFF773
:104CF00059FC204610BD00000348044A0449002323
:104D0000836000F049BA00BFBCE6032094E40320AE
:104D1000EB4C0D00704710B51021044600F041FA2D
:104D2000204610BD70B5084B0360044600250E46B2
:104D300040F80C5FFFF742FA30462671FFF7C6FADB
:104D4000A560204670BD00BF74600D000079FFF7BC
:104D5000C5BA0000044B00204FF6FF72187058804F
:104D60009A80FFF73BBB00BFCCE60320024B1A68DA
:104D7000024B1A60704700BF2CE40320D4E60320E6
:104D800070474174704708B5007CFFF7E7FA20EAE6
:104D9000E07008BD08B5007CFFF7B8FA20EAE070C3
:104DA00008BD08B5007CFFF7C1FA30EA200028BF33
:104DB0004FF0FF3008BD08B5007CFFF7AFFA30EACE
:104DC000200028BF4FF0FF3008BD007CFFF7B6BAC7
:104DD00010B51421044600F0E4F9204610BD70B56A
:104DE000457C04460E4625B9007CFFF7B7FA00283B
:104DF00005DD3146207CBDE87040FFF77FBA2846CC
:104E000070BD000010B504460846114600226260DD
:104E10004FF47A72A260054A226001222074627403
:104E20001A46FFF763FA204610BD00BFB0600D00C0
:104E3000007CFFF78BBA0000F8B5194C25684DB916
:104E40008420FFF72AF9064618B18422294600F08B
:104E5000BCFF2660134D2E684EB98420FFF71DF964
:104E6000074618B18422314600F0AFFF2F600E4F85
:104E7000396811F0010611D13846FFF714F968B10D
:104E800022682B6809483146FFF7BCFF3846FFF718
:104E90000FF9074A0749054800F07EF90348F8BDB5
:104EA000F4E60320ECE60320F0E60320D8E6032036
:104EB00094E40320814D0D0041747047704708B59C
:104EC0000021007CFFF772FA30EA200028BF4FF083
:104ED000FF3008BD08B50121007CFFF767FA30EA12
:104EE000200028BF4FF0FF3008BD08B5007CFFF759
:104EF00055FA20EAE07008BD08B5007CFFF746FAD5
:104F000020EAE07008BD007CFFF760BA10B51421FC
:104F1000044600F046F9204610BD38B50446007C32
:104F20000D46FFF73BFA002801DC607C28B12946DA
:104F3000207CFFF743FA20EAE07038BD10B5044644
:104F4000002363604FF47A73A360054B2360012351
:104F50000846217463741146FFF708FA204610BD15
:104F6000E0600D000022007CFFF708BA10B51422A3
:104F70000446002100F029FF204610BD30B50E4D3B
:104F800087B001A8FFF7F2FF296811F0010410D1E2
:104F90002846FFF788F860B101AA21460748FFF7C5
:104FA000CDFF2846FFF784F8054A0649034800F07C
:104FB000F3F8024807B030BDF8E60320FCE6032012
:104FC00094E40320BD4E0D0008B50C4B33B1FFF740
:104FD000D5FF03681B699847002809DC084B63B1BB
:104FE000FFF72AFF03681B699847002803DC08BD08
:104FF000AFF30080F2E7AFF3008008BD00000000CF
:105000000000000008B5FFF7DFFFFFF7EFF8014BE6
:10501000186008BD14E7032007B5002300931A4663
:105020006FF07701FFF7F4F903B05DF804FB0000BF
:1050300007B543880A2B08D0502B09D1094B1B68B0
:105040003BB103B05DF804EB1847FFF7E5FF06E05E
:10505000002300931A466FF07701FFF7D9F903B0E8
:105060005DF804FB10E7032010B5FFF7B7F804461E
:1050700000F0B4FE074B13B12046AFF300800021CF
:105080000448FFF7CFF900210348BDE81040FFF7BF
:10509000B5B900BF0000000031500D0010B5044646
:1050A0000F48FFF753FE28B1A4F10B03022B01D8E0
:1050B000002010BD00F02EF8FFF7FAFA08B1012C1D
:1050C000F6D9FFF7B9FEFFF7B3FE18B1A4F1090353
:1050D000012BEDD9232C8CBF0020012010BD00BF77
:1050E00030E703200D2810B504469CBF0E34A4B24F
:1050F0002046FFF7D3FF50B103212046FFF786F883
:10510000032804D12046BDE81040FFF787B80020EF
:1051100010BD000038B50B4D296811F001040FD106
:105120002846FEF7C0FF58B121460748FFF7AEFA00
:105130002846FEF7BDFF054A0549034800F02CF854
:10514000014838BD18E703201CE7032094E403203E
:1051500035460D0070B50C4C0C4E0D4D002120460F
:10516000FFF7E0FD20460B4C3246294600F014F8CC
:1051700001212046FFF7D6FD324629462046BDE8EC
:10518000704000F009B800BF30E7032094E403202A
:10519000154D0D0040E703200B460146184600F070
:1051A000FBBDFEF77CBF0000244B1A68D0075CBF34
:1051B00001221A60224B1A68D1075CBF01221A60D3
:1051C000204B1A68D2075CBF01221A601E4B1A6876
:1051D000D0075CBF01221A601C4B1A68D1075CBF64
:1051E00001221A601A4B1A68D2075CBF01221A60AA
:1051F000184B1A68D0075CBF01221A60164B1A6858
:10520000D1075CBF01221A60144B1A68D2075CBF39
:1052100001221A60124B1A68D0075CBF01221A6083
:10522000104B1A68D1075CBF01221A600E4B1A6836
:10523000D2075CBF01221A60704700BF7CE70320E1
:1052400078E7032074E7032070E703206CE703206E
:1052500068E7032064E7032060E703205CE703209E
:1052600058E7032054E7032050E70320184B1A683F
:10527000D1075CBF01221A60164B1A68D2075CBFC7
:1052800001221A60144B1A68D0075CBF01221A6011
:10529000124B1A68D1075CBF01221A60104B1A68C2
:1052A000D2075CBF01221A600E4B1A68D0075CBFA0
:1052B00001221A600C4B1A68D1075CBF01221A60E8
:1052C0000A4B1A68D2075CBF01221A60704700BF00
:1052D0009CE7032098E7032094E7032090E703204E
:1052E0008CE7032088E7032084E7032080E703207E
:1052F000184B1A68D1075CBF01221A60164B1A6856
:10530000D2075CBF01221A60144B1A68D0075CBF39
:1053100001221A60124B1A68D1075CBF01221A6081
:10532000104B1A68D2075CBF01221A600E4B1A6834
:10533000D0075CBF01221A600C4B1A68D1075CBF12
:1053400001221A600A4B1A68D2075CBF01221A6058
:10535000704700BFBCE70320B8E70320B4E7032091
:10536000B0E70320ACE70320A8E70320A4E703206D
:10537000A0E70320244B1A68D0075CBF01221A6003
:10538000224B1A68D1075CBF01221A60204B1A68B1
:10539000D2075CBF01221A601E4B1A68D0075CBF9F
:1053A00001221A601C4B1A68D1075CBF01221A60E7
:1053B0001A4B1A68D2075CBF01221A60184B1A6890
:1053C000D0075CBF01221A60164B1A68D1075CBF78
:1053D00001221A60144B1A68D2075CBF01221A60BE
:1053E000124B1A68D0075CBF01221A60104B1A6872
:1053F000D1075CBF01221A600E4B1A68D2075CBF4E
:1054000001221A60704700BFECE70320E8E70320A1
:10541000E4E70320E0E70320DCE70320D8E70320EC
:10542000D4E70320D0E70320CCE70320C8E703201C
:10543000C4E70320C0E7032081F0004102E000BF81
:1054400083F0004330B54FEA41044FEA430594EA44
:10545000050F08BF90EA020F1FBF54EA000C55EA7F
:10546000020C7FEA645C7FEA655C00F0E2804FEA50
:105470005454D4EB5555B8BF6D420CDD2C4480EA32
:10548000020281EA030382EA000083EA010180EA62
:10549000020281EA0303362D88BF30BD11F0004FB0
:1054A0004FEA01314FF4801C4CEA113102D04042E6
:1054B00061EB410113F0004F4FEA03334CEA133321
:1054C00002D0524263EB430394EA050F00F0A78039
:1054D000A4F10104D5F1200E0DDB02FA0EFC22FA34
:1054E00005F2801841F1000103FA0EF2801843FA28
:1054F00005F359410EE0A5F120050EF1200E012A19
:1055000003FA0EFC28BF4CF0020C43FA05F3C01856
:1055100051EBE37101F0004507D54FF0000EDCF1CF
:10552000000C7EEB00006EEB0101B1F5801F1BD378
:10553000B1F5001F0CD349085FEA30004FEA3C0C7C
:1055400004F101044FEA445212F5800F80F09A8072
:10555000BCF1004F08BF5FEA500C50F1000041EB76
:10556000045141EA050130BD5FEA4C0C404141EB7A
:10557000010111F4801FA4F10104E9D191F0000FA1
:1055800004BF01460020B1FA81F308BF2033A3F124
:105590000B03B3F120020CDA0C3208DD02F1140C1B
:1055A000C2F10C0201FA0CF021FA02F10CE002F156
:1055B0001402D8BFC2F1200C01FA02F120FA0CFC4F
:1055C000DCBF41EA0C019040E41AA2BF01EB045198
:1055D000294330BD6FEA04041F3C1CDA0C340EDC96
:1055E00004F11404C4F1200220FA04F001FA02F3D9
:1055F00040EA030021FA04F345EA030130BDC4F197
:105600000C04C4F1200220FA02F001FA04F340EA8B
:105610000300294630BD21FA04F0294630BD94F03C
:10562000000F83F4801306BF81F480110134013D23
:105630004EE77FEA645C18BF7FEA655C29D094EA94
:10564000050F08BF90EA020F05D054EA000C04BF12
:105650001946104630BD91EA030F1EBF00210020FD
:1056600030BD5FEA545C05D14000494128BF41F09C
:10567000004130BD14F580043CBF01F5801130BD00
:1056800001F0004545F0FE4141F470014FF000008B
:1056900030BD7FEA645C1ABF194610467FEA655C3C
:1056A0001CBF0B46024650EA013406BF52EA0335DE
:1056B00091EA030F41F4002130BD00BF90F0000FCC
:1056C00004BF0021704730B54FF4806404F1320408
:1056D0004FF000054FF0000150E700BF90F0000FC1
:1056E00004BF0021704730B54FF4806404F13204E8
:1056F00010F0004548BF40424FF000013EE700BFB8
:1057000042004FEAE2014FEA31014FEA02701FBF47
:1057100012F07F4393F07F4F81F06051704792F019
:10572000000F14BF93F07F4F704730B54FF4607493
:1057300001F0004521F0004120E700BF50EA0102DE
:1057400008BF704730B54FF000050AE050EA01028B
:1057500008BF704730B511F0004502D5404261EBFB
:1057600041014FF4806404F132045FEA915C3FF43C
:10577000DCAE4FF003025FEADC0C18BF03325FEAD5
:10578000DC0C18BF033202EBDC02C2F1200300FA8A
:1057900003FC20FA02F001FA03FE40EA0E0021FAAF
:1057A00002F11444C1E600BF70B54FF0FF0C4CF499
:1057B000E06C1CEA11541DBF1CEA135594EA0C0F4F
:1057C00095EA0C0F00F0DEF82C4481EA030621EA8A
:1057D0004C5123EA4C5350EA013518BF52EA0335C5
:1057E00041F4801143F4801338D0A0FB02CE4FF077
:1057F0000005E1FB02E506F00042E0FB03E54FF0A7
:105800000006E1FB03569CF0000F18BF4EF0010E9E
:10581000A4F1FF04B6F5007F64F5407404D25FEA9A
:105820004E0E6D4146EB060642EAC62141EA55514D
:105830004FEAC52040EA5E504FEACE2EB4F1FD0C8F
:1058400088BFBCF5E06F1ED8BEF1004F08BF5FEA0D
:10585000500E50F1000041EB045170BD06F00046BF
:1058600046EA010140EA020081EA0301B4EB5C046C
:10587000C2BFD4EB0C0541EA045170BD41F4801164
:105880004FF0000E013C00F3AB8014F1360FDEBF89
:10589000002001F0004170BDC4F10004203C35DA65
:1058A0000C341BDC04F11404C4F1200500FA05F3E8
:1058B00020FA04F001FA05F240EA020001F0004289
:1058C00021F0004110EBD37021FA04F642EB0601FF
:1058D0005EEA430E08BF20EAD37070BDC4F10C0429
:1058E000C4F1200500FA04F320FA05F001FA04F2ED
:1058F00040EA020001F0004110EBD37041F10001D9
:105900005EEA430E08BF20EAD37070BDC4F12005E3
:1059100000FA05F24EEA020E20FA04F301FA05F24B
:1059200043EA020321FA04F001F0004121FA04F2F3
:1059300020EA020000EBD3705EEA430E08BF20EAC3
:10594000D37070BD94F0000F0FD101F000464000FD
:1059500041EB010111F4801F08BF013CF7D041EA7F
:10596000060195F0000F18BF704703F00046520083
:1059700043EB030313F4801F08BF013DF7D043EA54
:105980000603704794EA0C0F0CEA135518BF95EA0A
:105990000C0F0CD050EA410618BF52EA4306D1D191
:1059A00081EA030101F000414FF0000070BD50EAB0
:1059B000410606BF1046194652EA430619D094EA3A
:1059C0000C0F02D150EA013613D195EA0C0F05D124
:1059D00052EA03361CBF104619460AD181EA030178
:1059E00001F0004141F0FE4141F470014FF0000030
:1059F00070BD41F0FE4141F4780170BD70B54FF0CB
:105A0000FF0C4CF4E06C1CEA11541DBF1CEA13554A
:105A100094EA0C0F95EA0C0F00F0A7F8A4EB05042C
:105A200081EA030E52EA03354FEA013100F0888023
:105A30004FEA03334FF0805545EA131343EA1263EC
:105A40004FEA022245EA111545EA10654FEA0026A1
:105A50000EF000419D4208BF964244F1FD0404F55A
:105A6000407402D25B084FEA3202B61A65EB0305B6
:105A70005B084FEA32024FF480104FF4002CB6EB73
:105A8000020E75EB030E22BFB61A754640EA0C00F3
:105A90005B084FEA3202B6EB020E75EB030E22BF33
:105AA000B61A754640EA5C005B084FEA3202B6EB74
:105AB000020E75EB030E22BFB61A754640EA9C0033
:105AC0005B084FEA3202B6EB020E75EB030E22BF03
:105AD000B61A754640EADC0055EA060E18D04FEAC1
:105AE000051545EA16754FEA06164FEAC30343EA61
:105AF00052734FEAC2025FEA1C1CC0D111F4801F2E
:105B00000BD141EA00014FF000004FF0004CB6E726
:105B100011F4801F04BF01430020B4F1FD0C88BFC5
:105B2000BCF5E06F3FF6AFAEB5EB030C04BFB6EBD0
:105B3000020C5FEA500C50F1000041EB045170BDC3
:105B40000EF0004E4EEA113114EB5C04C2BFD4EBF0
:105B50000C0541EA045170BD41F480114FF0000E74
:105B6000013C90E645EA060E8DE60CEA135594EAF0
:105B70000C0F08BF95EA0C0F3FF43BAF94EA0C0FF3
:105B80000AD150EA01347FF434AF95EA0C0F7FF468
:105B900025AF104619462CE795EA0C0F06D152EABC
:105BA00003353FF4FDAE1046194622E750EA4106A0
:105BB00018BF52EA43067FF4C5AE50EA41047FF4B1
:105BC0000DAF52EA43057FF4EBAE12E74FF0FF3C16
:105BD00006E000BF4FF0010C02E000BF4FF0010CE7
:105BE0004DF804CD4FEA410C7FEA6C5C4FEA430C60
:105BF00018BF7FEA6C5C1BD001B050EA410C0CBFAF
:105C000052EA430C91EA030F02BF90EA020F002010
:105C1000704710F1000F91EA030F58BF994208BF77
:105C200090422CBFD8176FEAE37040F00100704734
:105C30004FEA410C7FEA6C5C02D150EA013C07D18B
:105C40004FEA430C7FEA6C5CD6D152EA033CD3D0D6
:105C50005DF8040B704700BF8446104662468C46D0
:105C60001946634600E000BF01B5FFF7B7FF002803
:105C700048BF10F1000F01BD4DF808EDFFF7F4FF2C
:105C80000CBF012000205DF808FB00BF4DF808EDB7
:105C9000FFF7EAFF34BF012000205DF808FB00BFDA
:105CA0004DF808EDFFF7E0FF94BF012000205DF8FC
:105CB00008FB00BF4DF808EDFFF7CEFF94BF0120B1
:105CC00000205DF808FB00BF4DF808EDFFF7C4FFAA
:105CD00034BF012000205DF808FB00BF4FEA410CF3
:105CE0007FEA6C5C02D150EA013C0AD14FEA430CD6
:105CF0007FEA6C5C02D152EA033C02D14FF0000013
:105D000070474FF0010070474FEA410212F5001250
:105D100015D211D56FF47873B3EB625212D94FEAF2
:105D2000C12343F0004343EA505311F0004F23FADC
:105D300002F018BF404270474FF00000704750EA31
:105D4000013005D111F0004008BF6FF000407047EE
:105D50004FF00000704700BF4A0011D212F5001248
:105D600011D20DD56FF47873B3EB62520ED44FEAB3
:105D7000C12343F0004343EA505323FA02F0704733
:105D80004FF00000704750EA013002D14FF0FF3071
:105D900070474FF00000704710B5054C13462CB10A
:105DA0000A4601460220AFF3008010BD204610BD18
:105DB0000000000010B5431E0A44914204D011F8BF
:105DC000014B03F8014FF8E710BD0244034693422C
:105DD00002D003F8011BFAE77047000038B5124BF8
:105DE0001C68A36B0546D3B91820FEF773FB43F27A
:105DF0000E33A06303804AF6CD33438041F234234F
:105E000083804EF26D63C3804DF6EC6303810523FE
:105E100043810B23838101220023C0E90423A36B68
:105E200000221D615A6138BD90E40320034613F837
:105E3000012B002AFBD1181A0138704721400D00B0
:105E40005D400D0089400D008D400D0000000000F8
:105E50004D6178626F746978205465737400446989
:105E60007374616E636528696E293A200000000032
:105E700000000000000000006B450D0061450D00B2
:105E800057450D000D450D004B450D003F450D00DC
:105E900033450D002B450D0021450D0017450D0024
:105EA00079490D00000000000000000015460D00BB
:105EB0000B460D0001460D00F7450D00EB450D00AA
:105EC000DF450D00D3450D00CB450D00C1450D004C
:105ED000B7450D0079490D000000000000000000EA
:105EE00035460D007F460D0057460D0037460D0024
:105EF0005F460D0067460D006F460D0077460D00AA
:105F00000000000000000000C9460D00B9460D0069
:105F1000BB460D00626175640053657269616C0077
:105F200053657269616C31007479706500706172DB
:105F3000616D00636D6400696400686E6400737471
:105F4000726D0066696C74006C766C006164644804
:105F5000616E646C65720072656D6F766548616E26
:105F6000646C657200656E756D48616E646C657217
:105F700073004A534F4E53747265616D4C6F67489E
:105F8000616E646C6572006170700025303130752F
:105F900020005D20002564002C200028293A2000E4
:105FA000205B00636F6465203D2000256900646507
:105FB0007461696C73203D20000D0A006C6E0066F0
:105FC0006E00636F64650064657461696C006E6F78
:105FD0006E6500747261636500696E666F0077615B
:105FE000726E006572726F720070616E696300613B
:105FF0006C6C000000000000000000000B480D0069
:1060000001480D00F7470D00ED470D00E1470D0079
:10601000D5470D00C9470D00C1470D00B7470D001A
:10602000AD470D0079490D000000000000000000A0
:1060300011490D001B490D0025490D002F490D0088
:1060400039490D0045490D0051490D005D490D00CC
:1060500065490D006F490D0079490D006E616E00B4
:106060006F7666002E00696E66000000000000007A
:1060700000000000154D0D00174D0D005A00252B96
:106080003033643A253032750025592D256D2D2584
:10609000645425483A254D3A2553257A00617363A7
:1060A00074696D6500000000000000000000000041
:1060B000814D0D00D14D0D00DF4D0D00594A0D00F1
:1060C000954D0D00B74D0D00A34D0D00CB4D0D00AE
:1060D000834D0D00874D0D00000000000000000002
:1060E000BD4E0D000D4F0D001B4F0D00594A0D0008
:1060F000F94E0D00BF4E0D00D54E0D00074F0D009F
:10610000EB4E0D00B94E0D00000000000000000035
:10611000000000000000000000000000000000007F
:10612000000000000000000000000000000000006F
:10613000000000000000000000000000000000005F
:10614000000000000000000000000000000000004F
:10615000000000000000000000000000000000003F
:1061600000000000000000004300000069410D0035
:10617000FD440D0075450D0021460D009D470D00A5
:10618000C1480D00454A0D00F94C0D00554D0D005C
:106190006D4D0D0055510D00A9510D006D520D00B2
:1061A000F1520D0075530D000000000000000000CA
:1061B000130000009D600D000000000008610D004C
:1061C00028610D0048610D00000000000000000083
:1061D000000000000000000068610D0000000000E9
:1061E00000000000000000000000000000000000AF
:1061F000000000000000000000000000000000009F
:10620000000000000000000000000000000000008E
:0C621000000000000000000030E403204B
:10621C00FFFFFFFF00000102030405060708090A3F
:10622C000B0C0D0E0F101112131415161718191A3A
:08623C001B1C1D1E1F20280081
:046244007856341242
:04000003D0004020C9
:00000001FF
