:02000002D0002C
:1040000000400D00A8980D00000006000D000501FD
:0840100004017E050000000020
:04401800D8900D002F
:1040200009480A49884208B505D0094A824202D0A7
:10403000121A04F032FC0748074A0021121A04F051
:1040400037FC014808BD00BFACDE0320C0970D005F
:104050006CDF03206CDF0320F0E7032070B503F072
:10406000D3FB074C074BE41AA40800251E46A542C3
:1040700004D056F8253098470135F8E770BD00BFE9
:10408000BC970D0040970D0000F07CB808B500F01B
:104090008FF8BDE8084003F085BB02F075B802F068
:1040A0007BB802F079B80078B0FA80F04009704728
:1040B000012303707047037C03F00803024603F0FA
:1040C000FF002BB1D36A506A181A48BF6FF0004046
:1040D00070477047103000F0BBBC103000F0D0BB10
:1040E00007B501220DF10701103000F016FB012881
:1040F0000CBF9DF807004FF0FF3003B05DF804FBE4
:10410000103000F031BD07B502AB012203F8011DEC
:104110001030194600F028FD03B05DF804FB10B51F
:104120003421044603F057FC204610BD7FB50246FB
:1041300008461379956833B13DB90C4904B0BDE820
:10414000704002F009BF0A4B00E00A4B167B0A4C94
:104150000A49527B0292012E08BF21460191009527
:10416000074A002103F028F804B070BD31910D001A
:10417000EB930D0020910D0029910D002D910D0064
:1041800047910D0008B501F087FF41F2883002F039
:1041900033F803F0C3FA4FF4165103F0B3FA03F007
:1041A000BDFA0249BDE8084002F0E9BE65910D0084
:1041B0002DE9F04FC04C2678ABB0274626B3012E30
:1041C00040F0C68103F0AAFABC4902F0D8FE4FF4D1
:1041D000FA7002F011F803F08FF903F085F903F09B
:1041E0009DFA1E23B64A002102F0E6FFB54B1E22BF
:1041F0001B6831460CA803F0F3F801F079FDB24BCF
:10420000186000232370A3E1B04CB14DDFF80483A4
:104210002E60002323602B68632B00F3AC80AD4B32
:10422000DFF8F492188803F057FB03F073FE9EA3A7
:10423000D3E9002303F0D4FE9DA3D3E9002303F0C8
:10424000CFFE04F0C5F9D4ED007AC9F8000007EEFE
:10425000100A77EE877A4FF0010AC4ED007A03F076
:104260005DFA0646D9F8000003F066FE41EC100B3B
:104270000221304602F095FF974ECDF828804FF48A
:104280007A720E92954A0C920023954A8DF840302E
:1042900006F58C6B8DF841300D9308928DF8243023
:1042A0008DF82D300E2208AB06F26C4158468DF881
:1042B0002CA001F0ADFA70B3C6F800B006F23C4095
:1042C00000F0FCFB5146304601F047F9014648B189
:1042D000DFF804A20AF23C465146304600F005FAE7
:1042E000C8B105E0304601F038F90028F0D112E0FD
:1042F0009AF83C3413F0700F0DD07A4B7A4A1E6056
:10430000314644F2022310A800F0DFFB48B903F065
:1043100005FA764902E003F001FA754902F02FFE32
:1043200016E103F0E1F80A2201460CA802F060FE53
:1043300070490CA802F010FE01F0DAFC0A220146D6
:104340000CA802F046FE6B490CA802F005FED9F855
:10435000000003F0F1FD41EC100B02210CA802F06B
:1043600020FF10A800F0AAFB642001F045FF2B6895
:1043700001332B604FE707EE903AD4ED006A5E4DB3
:10438000F8EEE77A86EEA77A85ED007A03F0C6F9B3
:104390004F4B0A22196802F04DFE03F0BFF9554950
:1043A00002F0DAFD03F0BAF90646206803F0C4FD16
:1043B00041EC100B0221304602F0F0FE03F0AEF9A2
:1043C0004C4902F0C9FD03F0A9F90446286803F03E
:1043D000B3FD41EC100B0221204602F0E2FE4748FB
:1043E00002F00CFB454810EE106A02F01DFB8DED4B
:1043F000070A03F079F89DED070A044610EE100A4B
:1044000003F09AFDCDE90401304603F095FDCDE9B6
:104410000201286803F090FD2346CDE90001384AE7
:1044200078210CA801F0C8FE01F062FC264B186050
:104430001D4601F039FE30B901F02EFE03F06EF991
:10444000304902F089FD01F02FFE0446002865D0B6
:1044500003F064F92C4902F092FD2C4B19682C4BA7
:104460001B788DF800300CAA3C2308A802F0ACF8A9
:10447000099C7CB16368013B63605BB9236820469B
:104480009B689847A368013BA3601BB9236820463B
:10449000DB6898474FF47A6001F0AEFE01233B7071
:1044A00056E000BFAFF300806666666666665A3FF8
:1044B0003EF8E0830F3E53407ADF03204F920D0019
:1044C0005E920D0084DF032098DF032094DF032039
:1044D00080DF0320ACDE03209CDF032000910D0071
:1044E000F4900D0020E4032073910D0094910D00D1
:1044F00080910D00B6910D0070DF032088DF03204E
:10450000B8910D00CD910D00DF910D00B0DE0320BC
:104510007BDF032080F0FA027CDF032001F0E8FB60
:104520002B68C01A4EF65F23984206D901243C70CE
:1045300003F0F4F8084902F022FD03F0EFF8074910
:1045400002F01DFD642001F057FE002C3FF471AF16
:104550002BB0BDE8F08F00BFEF910D002C920D0045
:10456000224B70B500241C60214B224E01251D708A
:1045700001F0D6FB204B642283F860241F4AC3F865
:1045800070241F4ADC7183F83C4483F83D4483F86F
:104590006A4483F87454C3F8784483F87C4483F8FD
:1045A0007D44C3F86C24174B4FF6FF721C705C807F
:1045B0009A80022001F01CFD2846134D214601F08F
:1045C0002FFD2146284602F0D9F928460F4D104903
:1045D000324603F0FBF92146284602F090FC3246B1
:1045E00028460C49BDE8704003F0F0B984DF032091
:1045F0007BDF03206CDF03209CDF0320F4900D00A1
:1046000008E7032074DF032088DF032090DF032006
:104610009B690D001D6F0D0001F082BB10B50446B3
:10462000243000F08BFE28B104F50C70BDE810407A
:1046300000F084BE10BD8378016943F004038370E9
:1046400000F11002806800F02FBF00002DE9F0415A
:10465000037803F02003044603F0FF050BB10026A6
:104660002EE04269184B9A42F9D8FFF7E4FF06465C
:104670000028F4D02169A06800F0ABFE0746A068CE
:1046800005223946243000F080FE80460028E6D01E
:1046900029464FF4007204F00BF90125A3681A793A
:1046A000AA4209D94246E919186801F0EFF9002831
:1046B000D5D00135EDB2F1E7636903EB42236361C5
:1046C0003046BDE8F08100BFFFFD1F0010B5044675
:1046D00080680A462430A16900F057FE20B1A38803
:1046E00003F00F0300EB431010BD70B504780546CE
:1046F0000E4684B92422214604F0DAF8AE60F3793C
:10470000102B03D0202B06D1402300E020230120D2
:104710002B70A87070BD002070BD2DE9F74F037895
:104720000446894615464BB18278D10706D50CE080
:104730005A46216900F053FE00283DDA637843F0C1
:10474000020363704FF0FF3097E01A0703D5E36967
:1047500062699B1A07E09A0608D5A3681A896369FB
:10476000C3EB42139BB29D4228BF1D462E464FF01D
:10477000000804F1100B002E35D022786369A06880
:1047800012F0200FC3F3080A4FEA532102D0036A44
:1047900019441DE090F8058001EA0808BAF1000FFD
:1047A00010D1B8F1000F0DD1002BC1D153064CBF71
:1047B000036A236A236105E004D1237813F0700FA4
:1047C00011D1BBE72169A06800F003FE08EB0001EE
:1047D000A068BAF1000F35D1B6F5007F32D3C36AB5
:1047E000994202D12EE0A81B47E0B6F5806F1BD39B
:1047F000227897064FEA562A06D40279C8EB0202BD
:10480000D2B2924528BF924699424FEA4A2707D230
:10481000A06853464A46006801F0F6F860B98DE793
:104820005344994221D3F3E74A46006801F0A4F8C3
:10483000002883D04FF4007763693B44B944636137
:10484000F61B98E70022243000F09FFD00283FF47B
:1048500075AFCAF50077B74228BF374600EB0A01AB
:104860003A46484604F019F8E6E72430019100F092
:1048700065FD01990028CBD160E703B0BDE8F08F5A
:1048800073B501220DF10701044646690569FFF77A
:1048900044FF012805BF9DF8070066614FF0FF3017
:1048A000256102B070BD37B54369C3F343150446B3
:1048B00005B169B901220DF107012046FFF72DFF6F
:1048C00040B2012801D0002008E063691F3300E0F6
:1048D0002033A0686361303000EB451003B030BD79
:1048E0002DE9F0410E46017807690446002939D0C8
:1048F0004569B5423AD00EB9066131E00B0703D5E0
:10490000C3699E422ED807E0880605D5A3681B8997
:10491000B6EB431F26D823E0D4F808E09EF8063013
:104920006A1E03F10900731EC240C3409A4200D8B8
:104930004DB94A064CBFDEF82020226A22611D468E
:1049400004F110080AE09B1AF9E742462169A068C1
:1049500000F045FD002805F1FF3503DD002DF4D101
:10496000666103E027610020BDE8F0810120BDE819
:10497000F081F8B50F4615460021242204461E4654
:1049800003F096FFB868A06005F00F02A58000F163
:10499000300152013B6AE3601144CB7A1D074CD4CD
:1049A000831893F83B3003F017032370C97A11F092
:1049B000180F04BF43F0080323709DF81830E3700C
:1049C00006F00303012B09D0022B05D0002B34D1B4
:1049D000710532D4012302E0032300E00223A37017
:1049E000A1788B0703D5237813F0110F25D14BB293
:1049F00016F4005F06F0080114BF6FF07F07002770
:104A000019433943A170C36AA36102447505B2F822
:104A10004410B2F84A3043EA014104D581B100F0B4
:104A20007EFD68B909E02162D36CE36173040CD5A3
:104A3000E1692046FFF754FF38B900202070F8BD27
:104A4000A37843F00403A370F0E70120F8BD000051
:104A500038B5037804460BB9012038BD83785A076E
:104A600023D50121FFF732FE054628B9637843F0CC
:104A700001036370002038BD0378E52BF6D023785E
:104A80001B0744BFE369C361238C4383638C838228
:104A9000094B1B682BB100F11601183098472B8B7E
:104AA0006B82A37823F00403A370A068FFF7B6FD20
:104AB0000028DBD0D0E700BF24E4032010B5044673
:104AC000FFF7C6FF0023237010BDF0B593B01F465B
:104AD00000238DF824308DF82530037801920646A6
:104AE0000C460BB100203DE00B7813F0700FF9D0AD
:104AF00013782F2B12D1019B1A782F2A02D1013360
:104B00000193F8E7A1681AB93046FFF7EEFD29E0F6
:104B100009A8FFF7EAFD0028E4D009AC01AA03A91F
:104B2000019800F0FFF80028DCD0019B1B789BB1B6
:104B3000002303AA2146304600F036FA0028D1D0DF
:104B400035460FCD09AC0FC40FCD0FC42B682360C1
:104B50003046FFF7B3FFE0E73B4603AA2146304665
:104B600000F022FA13B0F0BD2DE9F0470378894632
:104B700019070446904608D583789A0705D51B0780
:104B80000BD5E169FFF7ACFE38B9637843F0010358
:104B900063704FF0FF30BDE8F0876369DB439845F1
:104BA000F3D846464FF0000A6369002E00F081807A
:104BB000A068427912EA5325C3F308071CD1DFB974
:104BC000216971B104F1100200F009FC0028DCDB5E
:104BD00040F08E802046FFF72EFD002840F08880B0
:104BE000D3E7236A3BB92046FFF725FD0028CCD048
:104BF0002369236200E023612169A06800F0E9FBDA
:104C0000291817B9B6F5007F21D2C7F50075B5424E
:104C100028BF354637B96369E269934234BF012240
:104C2000052200E00122A068243000F0AEFB00283D
:104C3000ABD038442A4649462F4403F02EFEB7F540
:104C4000007F30D1A068243000F078FB17E0B6F583
:104C5000806FA06815D30279521B730AD2B29342B7
:104C600028BF1346C26A91424FEA432502D31A4431
:104C7000914237D3A7684A46386800F079FF90B967
:104C800083E7C36A994202BF4FF0FF3380F824A044
:104C9000C362A3684A46186800F0F8FE00283FF493
:104CA00074AF4FF4007563692B446361A944761BAC
:104CB0007AE7E269934201D9E36102E00F4B1B6896
:104CC0001BB1A37843F00403A37094F90230002BC6
:104CD00002DB4046BDE8F0872046FFF7B9FE00281A
:104CE000F7D152E74FF0FF3280F824A0C262C1E74B
:104CF0002169A06800F06DFB014683E724E40320EE
:104D000001F00EB8411E00F10A020020430843EAF8
:104D1000C01011F8013F53FA80F08A42C0B2F5D1B9
:104D2000704700002DE9F0470378202B00F10104C3
:104D300001D12046F8E7704F886005462C1A2E46B0
:104D400015F8013B0BB32F2B01D1031917E05C2B96
:104D500002D10020BDE8F087A3F12204E4B21D2CAB
:104D600003D827FA04F4E407F3D403F0BF043C2C7F
:104D7000EFD0203B5E2BE1D9EBE72F2D05D11E466E
:104D800013F8015B202DF8D1F9E71660031998425A
:104D9000C0EB030809D013F8012D2E2AF7D0202AE2
:104DA000F5D0B8F1FF0FD4DC01E04FF00008C1F8F6
:104DB000048001F10C0301F11702202403F8014FD4
:104DC0009342FBD103461A1A13F8014B2E2CFAD04A
:104DD000202CF8D0B2FA82F4640908F1FF36731C73
:104DE00007D100274FF0070E3D46BA464FF008099D
:104DF00009E0835D2E2BF4D0013EF0E7835C202B8D
:104E000004D1002401324245F8DB4BE02E2B02D1C5
:104E1000B242F6D103E0222B17D07C2B15D0A3F1A0
:104E20002A0CBCF1050F01D82D2B0ED1A3F13A0CA1
:104E3000BCF1050F09D9A3F15B0CBCF1020F04D939
:104E4000A3F1210CBCF15D0F02D9B2420ED149E0B1
:104E5000B24247D0754521D8A3F1610CBCF1190FBE
:104E600008D8203BDBB249EA07070AE0754515D8A8
:104E700000245F23A3F1410CBCF1190F98BF49EA4C
:104E80000A0A05F1010C5FFA8CFC0D44BCF1060F17
:104E90006B7301D881F80CC06546B3E7BEF10A0F09
:104EA00017D100244B7B202B3FF453AF3CB11AEABF
:104EB000070F18BF02270F700120BDE8F0870B7B9A
:104EC0000120087019447E234B7331238B73BDE896
:104ED000F087B242E5DC32464FF00A0E08254FF06B
:104EE00010098EE7BEF10A0FDBD032464FF00A0EF2
:104EF00008254FF0100985E7010100312DE9F8433D
:104F000091F80C9006460D4602247E2701F10D080B
:104F10006968AA6863189BB21144914206D012F8DE
:104F2000010B03EB431343409BB2F6E7B9F1030FC8
:104F300028BF4FF0030909F10402D2B203F00F01B8
:104F4000A818013A0929D2B294BF303137319145BE
:104F500041734FEA1313F1D305EB090300215F738B
:104F60003046FFF7BDFC01213046FFF79CFC0146AF
:104F700028B97078B0FA80F04009BDE8F88303786A
:104F80004BB1C37A1B07EED40B22404603F076FCEC
:104F90000028E8D102E00120BDE8F8830134A4B282
:104FA000642CB5D1BDE8F8832DE9F04F9B460B7812
:104FB00089B013F0700F05900E46914601D1002084
:104FC000A0E1059B1B78002BF9D15368029313785D
:104FD0009B0700F08D81029B0D270C33B3FBF7F785
:104FE0000137FFB200213046FFF77AFC4FF000088E
:104FF00009F10D02CDF80C80434644464546CDF8F4
:10500000108006927269079301213046C2F34F1A4D
:10501000FFF749FC079B20B97378002B00F09080C4
:10502000CDE70278E52A00D042B9002C08BFD0466F
:10503000BC423CBF0134E4B222B981E0BC4238BF7B
:10504000002403E0E52A01D10025DBE72E2AFBD06E
:10505000C17A0F2952D13DB95106D3D5437B039371
:1050600002F01F052B4607E0013BDBB29A42EBD171
:10507000427B03999142E7D15A1E4FF00D0C0CFB75
:1050800002FC029A6245DFD94FF0000EBEF1040F18
:105090005FFA8EF204D800EB4E02B2F801200CE069
:1050A0000A2A95BF0EF1FF320EF1010200EB420217
:1050B00000EB420294BFD28892880299614503D1E5
:1050C000002A18BF00259DE7FF2ABDD8D2B2A2F161
:1050D00041011929D9F8081011F80C1098BF203295
:1050E0000CF1010AA1F1410C98BFD2B2BCF1190F29
:1050F0009CBF2031C9B29142A6D1FBE00907A3D4DD
:105100004DB1012B7FF45BAFFFF7FCFD039B8342A6
:105110007FF455AF0FE00B220699079303F0AEFB27
:10512000079B00287FF46EAF99F80020D20702D5C4
:105130000122049266E71BF4006F00F0D1803EE785
:105140001BF4007F3FF43BAF0BF00303013B012B4B
:105150003FF635AF002C08BFD046BC4202D3049BBB
:10516000CBB91FE000213046FFF79DFB10B97378E3
:105170005BB124E70134E4B2EFE7B3681B79012B9C
:10518000EDD81034E4B2A742E9D93046FFF75EFA11
:105190000028F2D113E749463046FFF7AFFE00285A
:1051A0003FF40DAF4FEA48113046FFF799FB002856
:1051B0003FF405AF7D1EEDB22C464FF0000A4FF0D4
:1051C0000F0841E000213046FFF76DFB074600283D
:1051D0003FF4F5AEB26892F82430AC4243F00103DC
:1051E00082F824300CBF44F040022246027080F85E
:1051F0000B8080F80CA009F10D000392FFF782FDEF
:10520000039A787387F81AA087F81BA002F01F0290
:105210000D23013AD9F808E05A430023029991423C
:1052200015D91EF80210042B5FFA83FC03F101006C
:1052300013D807EB4303A3F801100D2802F1010274
:105240000346EBD1013CE4B2002CBBD10EE014BF0D
:105250004FF0FF31002189B2E5E7BCF10A0F94BF9E
:1052600007EB430307EB40039980E6E773692146A8
:105270003046C3F34F1AFFF716FB074600283FF4EA
:105280009EAE2022214603F013FB4B4653F80D2F10
:105290003A605A687A601A893A819B7ABB7299F8A7
:1052A000003003F018033B73184B1B682BB107F158
:1052B0000E0107F11000984706E021233B742823D4
:1052C0007B740823BC73FB733B8A7B823B83FB8923
:1052D000FB82B26892F8243043F0010382F8243054
:1052E00000955B46524631460598FFF742FB09E0C0
:1052F000012777E60EF1010EBEF10D0F3FF482AEED
:10530000D446C3E609B0BDE8F08F00BF24E4032013
:1053100000F006BD70B505460C46084649B103F0DD
:1053200024FB2B68024621462846DB68BDE8704016
:10533000184770BD00F0F4BC00F0F2BC70B5037803
:10534000DA0704461ED54368816800F10C06324630
:10535000186800F09BFB054608B9002513E0237888
:105360009B0704D4237823F0010323700BE06368C8
:10537000A068196932460144186800F087FB0028CC
:10538000F0D1EAE70125284670BD70B583688B42ED
:1053900004460E46154614D0FFF7D0FF08B900208A
:1053A00070BD6B0703D500232370A66009E0636816
:1053B00004F10C023146186800F0DEFA0028F2D140
:1053C000EDE72378204605F003051D4300F80C5B4C
:1053D00070BD8379406902399940084470470129BA
:1053E00070B505460C46164602D84FF0FF3070BD2A
:1053F000C3699942F9D8C379202B10D1816902225F
:1054000001EBD41100F50C70FFF7BFFF0028ECD0C2
:1054100004F07F0450F8243023F070430FE0102B89
:10542000E3D18369C1F307210222194400F50C700E
:10543000FFF7ABFF0028D8D0E4B230F81430EA69A7
:1054400093429ABF33600120002070BD012938B516
:105450000C46154601D8002038BDC3699942FAD8D8
:10546000C379202B0ED18169032201EBD41100F501
:105470000C70FFF78AFF0028EDD004F07F0440F89D
:1054800024500FE0102BE6D18369C1F307210322DA
:10549000194400F50C70FFF778FF0028DBD0E4B268
:1054A00020F81450012038BD2DE9F341C4688C4226
:1054B00005460E46904607D20C460027EB6901349C
:1054C0009C4203D9CFB9EC680127F7E7A64214D074
:1054D00001AA21462846FFF782FF00280DDBEDD008
:1054E000019B002BEAD107B1EC606FF070422146BE
:1054F0002846FFF7ABFF074608B900270BE016B9AF
:10550000C8F8004007E0224631462846FFF79EFFD4
:105510000028F5D1F1E7384602B0BDE8F08173B557
:1055200005460C4601AA21462846FFF758FF061EED
:1055300001DA00200FE0002221462846FFF786FF0F
:105540000028F6D0EB689C429CBF04F1FF34EC606D
:10555000019C002EE6D102B070BD70B50123044657
:105560000022C3604FF0FF33C2710D46A06280F885
:105570002420C362C4F8340280F83022C0F83832E4
:10558000A1B104295DD811462430FFF7FEFE0028A2
:1055900057D000EB051393F8AE315B0651D11B35A4
:1055A00000EB0515D5F80650002D4AD000222946FB
:1055B00004F12400FFF7E9FE002842D0B0F80B30D8
:1055C000B3F5007F3DD1037C022B3AD1C389002B78
:1055D00037D0417B21714B1E63710023A3710926D3
:1055E00001238B4207D0013E2BD0A2795B00013210
:1055F000DBB2A271F5E7C28A02B9426A2261C689AA
:105600002E44A661B0F81130238106EB42012162DD
:10561000B0F81120520102F2FF1201EB6222626126
:10562000B0F8133003B9036AAD1A2B44A57923FAF5
:1056300005F56B1CE36140F6F4739D4203D80C231F
:10564000E371002070BD4FF6F4739D4285BFC36ABD
:10565000236210232023E371012070BD00F060BBA2
:1056600000F05EBB00F05CBB00F05ABB00F058BB22
:1056700070B50E4C0E46154600F032FB2368C01A7A
:105680000B4B984208D900F033FB0A4B186000F02E
:10569000FBFC00F025FB206000F02AFB80B2801BA1
:1056A000A842D4BF0020012070BD00BF28E4032021
:1056B000A0860100D4E6032038B5057A04464DB92A
:1056C000406800F07DFA63682946187D02F0EBF827
:1056D0000123237238BD10B5037A04466BB14368C9
:1056E0000121187D02F0DFF8FF21606800F09AFACE
:1056F000606800F079FA0023237210BDF8B5044603
:105700000D46164600F0F4FA87B2606800F06FFAB2
:10571000FF28607209D14FF47A7239462046FFF7AC
:10572000A7FF0028F1D055230BE0FE2801D050231D
:1057300007E032462946606800F05EFA607230B1D8
:10574000602320462370FFF7C6FF0020F8BD606885
:1057500000F04DFA606800F04AFA0120F8BD70B51B
:1057600004460E4600F0C4FA85B232462946204669
:10577000FFF77EFF30B9606800F039FAFF28F4D1F6
:10578000012070BD002070BDF7B5037A0192044678
:105790000D460BB9FFF790FF25B14FF496712046E7
:1057A000FFF7DDFF45F04001606800F03BFA0DF1C6
:1057B00007060DF1030716F80119606800F032FAC8
:1057C000BE42F8D1002D0CBF95218721606800F002
:1057D00029FA606800F00BFA0B25606800F007FA00
:1057E0000306607203D5013D15F0FF05F5D103B046
:1057F000F0BD70B504460D46164637210022FFF76E
:10580000C3FF324629462046BDE87040FFF7BCBFC3
:105810002DE9F0410025057205708572416004464E
:1058200090461E4600F064FA41460746606800F064
:10583000CBF963684F4A1D724FF00108DA605D745E
:1058400083F810802046FFF737FF63684146187DD4
:1058500002F029F80A25FF216068013D00F0E2F915
:1058600015F0FF05F7D163682946187D02F01BF893
:105870000A25002211462046FFF786FF01288046B0
:1058800012D0013D15F0FF0501D1202357E0FD2185
:10589000606800F0C7F94FF40278606800F0A7F97B
:1058A000B8F10108F9D1E4E74FF4D5720821204698
:1058B000FFF76AFF052802D184F80A800FE004256B
:1058C000606800F094F9013D15F0FF056072F7D1B2
:1058D000AA2802D10223A37201E025232FE0A37A94
:1058E000022B0CBF4FF080450025BFB22A4629216C
:1058F0002046FFF77EFF024648B14FF4FA62394670
:105900002046FFF7B5FE0028F0D0432317E0A37A26
:10591000022B0ED02046FFF7DEFE6368B0683479B4
:10592000317B727B5A74D8601C7219740120BDE8F7
:10593000F0813A212046FFF727FF38B13723204670
:105940002370FFF7C8FE0020BDE8F081606800F01A
:105950004EF900F0C000C02804BF0323A3726068A2
:1059600000F045F9606800F042F9606800F03FF926
:10597000D0E700BF90D0030038B5837A032B18BF5F
:10598000490215460A4611210446FFF7FDFE10B1F3
:10599000302323700BE029464FF400722046FFF7B6
:1059A000ADFE054618B12046FFF795FE03E0204600
:1059B000FFF791FE0025284638BD10B5837A032BEA
:1059C0000A4618BF4A0212210446FFF7DDFE30B135
:1059D000312320462370FFF77EFE002010BD0120FA
:1059E00010BD10B500220C210446FFF7CDFE30B1EA
:1059F000282320462370FFF76EFE002010BD2046AE
:105A0000FFF769FE012010BDF8B5054616461F4692
:105A1000FFF7D3FF98B10024A3B29F4206EB4421C5
:105A200008D94FF400722846FFF768FE01340028B9
:105A3000F2D104E02846BDE8F840FFF7D2BF0020CD
:105A4000F8BD38B504461546406800F0EBF84FF451
:105A500000722946606800F0E9F8FF21606800F0F4
:105A6000E1F8FF21606800F0DDF8606800F0BFF841
:105A7000607200F01F00052806D0572320462370CF
:105A8000FFF729FE002038BD012038BD70B5837AAC
:105A9000032B18BF490215460A4618210446FFF792
:105AA00073FE064608B132231DE02A46FE21204639
:105AB000FFF7C7FFC0B14FF4FA612046FFF74FFE72
:105AC000054608B95A230EE032460D212046FFF75D
:105AD0005BFE38B9606800F08AF818B92046FFF715
:105AE000FAFD05E0292323702046FFF7F4FD002589
:105AF000284670BD38B50D464FF4FA610446FFF7ED
:105B00002EFE10B95B23237005E02A46FC212046B7
:105B1000FFF797FF18B92046FFF7DDFD002038BDDD
:105B200010B5837A032B0A4618BF4A02192104468E
:105B3000FFF72AFE30B1332320462370FFF7CBFD59
:105B4000002010BD012010BD38B54FF4FA610446A5
:105B5000FFF705FE054620B1FD21606800F062F800
:105B600001E0562323702046FFF7B5FD284638BDD7
:105B7000F8B5054616461F46FFF7D2FF70B1002460
:105B8000BC4206EB4421284604D0FFF7B3FF28B1FE
:105B90000134F5E7BDE8F840FFF7D6BF2846FFF728
:105BA0009AFD0020F8BD00F0BBB800F0B9B800F0D5
:105BB000B7B80000014B01221A7070472CE4032093
:105BC000011D006801F080BB10B504460175006836
:105BD00001F05CFB207D012101F054FE207D0121BC
:105BE000BDE8104001F05FBE006801F054BBFF212A
:105BF000006801F0D9BB000037B5084B00930025C1
:105C0000074C0068257013460A46294601F0D2FB6E
:105C10002378002BFCD0002003B030BDB55B0D0015
:105C20002CE40320006801F0BFBB000037B5074B30
:105C300000930025064C0068257013462A4601F0A3
:105C4000B9FB2378002BFCD003B030BDB55B0D0051
:105C50002CE4032000F064B800F062B800F060B8F3
:105C600008B5024B1B689B68019308BD48020300FE
:105C700008B5024B1B681B69019308BD480203006D
:105C800008B5024B1B685B69019308BD480203001D
:105C900008B5024B1B681B6B019308BD480203004B
:105CA00008B5024B1B689B6B019308BD48020300BB
:105CB00008B5024B1B681B6C019308BD480203002A
:105CC00008B5024B1B685B6C019308BD48020300DA
:105CD00008B5024B1B685B68019308BD18020300FE
:105CE00008B5024B1B681B69019308BD180203002D
:105CF00008B5024B1B685B69019308BD18020300DD
:105D000008B5024B1B68DB69019308BD180203004C
:105D100008B5024B1B689B6D019308BD1802030078
:105D200008B5024B1B681B68019308BD2C020300D9
:105D300008B5024B1B685B68019308BD2C02030089
:105D400008B5024B1B689B68019308BD2C02030039
:105D500008B5024B1B68DB68019308BD2C020300E9
:105D600008B5024B1B681B69019308BD2C02030098
:105D700008B5024B1B681B6B019308BD2C02030086
:105D800008B5024B1B685B69019308BD280203003C
:105D900008B5024B1B689B69019308BD28020300EC
:105DA00008B5024B1B68DB69019308BD280203009C
:105DB00008B5024B1B681B6A019308BD280203004B
:105DC00008B5024B1B685B6A019308BD28020300FB
:105DD00008B5024B1B689B6A019308BD28020300AB
:105DE00008B5024B1B68DB6A019308BD280203005B
:105DF00008B5024B1B681B6B019308BD280203000A
:105E000008B5024B1B685B6B019308BD28020300B9
:105E100008B5024B1B681B6C019308BD28020300E8
:105E200008B5024B1B689B6C019308BD2802030058
:105E300008B5024B1B68DB6C019308BD2802030008
:105E400008B5024B1B685B69019308BD640203003F
:105E500008B5024B1B689B68019308BD68020300EC
:105E600008B5024B1B68DB68019308BD680203009C
:105E700008B5024B1B681B68019308BD3002030084
:105E800008B5024B1B685B69019308BD3002030033
:105E900008B5024B1B68DB69019308BD30020300A3
:105EA00008B5024B1B681B6A019308BD3002030052
:105EB00008B5024B1B685B6A019308BD3002030002
:105EC00008B5024B1B689B6A019308BD30020300B2
:105ED00008B5024B1B689B6B019308BD30020300A1
:105EE00008B5024B1B68DB6B019308BD3002030051
:105EF00008B5024B1B681B68019308BD3C020300F8
:105F000008B5024B1B68DB68019308BD3C02030027
:105F100008B5024B1B681B69019308BD3C020300D6
:105F200008B5024B1B685B69019308BD3C02030086
:105F300008B5024B1B689B69019308BD3C02030036
:105F400008B5024B1B68DB69019308BD3C020300E6
:105F500008B5024B1B681B6A019308BD3C02030095
:105F600008B5024B1B689B6A019308BD3C02030005
:105F700008B5024B1B681B68019308BD4C02030067
:105F800008B5024B1B685B68019308BD4C02030017
:105F900008B5024B1B681B69019308BD4C02030046
:105FA00008B5024B1B685B69019308BD4C020300F6
:105FB00008B5024B1B689B69019308BD4C020300A6
:105FC00008B5024B1B68DB69019308BD4C02030056
:105FD00008B5024B1B681B6A019308BD4C02030005
:105FE00008B5024B1B681B68019308BD2002030023
:105FF00008B5024B1B685B68019308BD20020300D3
:1060000008B5024B1B685B69019308BD20020300C1
:1060100008B5024B1B689B69019308BD2002030071
:1060200008B5024B1B68DB6A019308BD2002030020
:1060300008B5024B1B68DB6C019308BD200203000E
:1060400008B5024B1B685B6D019308BD200203007D
:1060500008B5024B1B689B6D019308BD200203002D
:1060600008B5034B1B68D3F88830019308BD0000C6
:106070002002030008B5034B1B68D3F8943001934A
:1060800008BD00002002030008B5024B1B689B6896
:10609000019308BD4402030008B5024B1B68DB688E
:1060A000019308BD4402030008B5024B1B685B69FD
:1060B000019308BD4402030008B5024B1B681B6A2C
:1060C000019308BD4402030008B5024B1B681B6B1B
:1060D000019308BD4402030008B5024B1B68DB6B4B
:1060E000019308BD4402030008B5024B1B685B68BE
:1060F000019308BD4002030008B5024B1B689B6872
:10610000019308BD4002030008B5024B1B68DB6821
:10611000019308BD4002030008B5024B1B681B69D0
:10612000019308BD4002030008B5024B1B685B6980
:10613000019308BD4002030008B5024B1B689B6930
:10614000019308BD4002030008B5024B1B68DB69E0
:10615000019308BD4002030008B5024B1B681B6A8F
:10616000019308BD4002030008B5024B1B681B6B7E
:10617000019308BD4002030008B5024B1B685B6B2E
:10618000019308BD4002030008B5024B1B681B6861
:10619000019308BD1C02030008B5024B1B685B6835
:1061A000019308BD1C02030008B5024B1B689B69E4
:1061B000019308BD1C02030008B5024B1B68DB6994
:1061C000019308BD1C02030008B5024B1B685B6A03
:1061D000019308BD1C02030008B5024B1B68DB6A73
:1061E000019308BD1C02030008B5024B1B681B6B22
:1061F000019308BD1C0203000021FFF701BF10B589
:10620000836804460BB901F0E8FBC3689847A368AC
:106210001BB1032221462046984720461021BDE8A5
:10622000104001F0D8BB10B5036804469B6898473E
:10623000A368013BA3602BB923682046DB68BDE857
:106240001040184710BD0B68036013B15A68013243
:106250005A60704710B50446006828B14368013B96
:1062600043600BB9FFF7DFFF204610BD0248002353
:106270000360FFF725BD00BF30E403200022114674
:106280004068FFF749BF002211464068FFF764BF2E
:10629000002211464068FFF76FBF00224068FFF7F9
:1062A00063BF002281F001014068FFF74DBF00236A
:1062B0001A4619464068FFF73FBF00231A461946A1
:1062C0004068FFF731BF002211464068FFF714BF56
:1062D000002202214068FFF717BF00231A464068DA
:1062E000FFF702BF38B5084C28252A460021204672
:1062F00002F0DEFA4FF0FF336360044B2580042286
:106300005A60034A1A6038BD3CE4032034E4032099
:106310008C920D0070470020704710B51021044684
:1063200001F059FB204610BD08B508B1FFF7F5FF95
:1063300008BD10B58368044613B10322014698478F
:10634000204610BD0022026010B54FF69C7282807C
:10635000B1F9044084808A8002680C6804600A6095
:1063600010BD10B504460068FFF716FF204610BDAB
:1063700038B5C468F4B12378022B03D104F10C00C2
:10638000FFF7EFFF656835B12846FFF7D2FF102110
:10639000284601F020FBA56835B12846FFF7C9FF64
:1063A0001021284601F017FB20461421BDE8384093
:1063B00001F011BB38BD13B5044691E80500002378
:1063C0004B600B602060626001A801930093FFF7AF
:1063D00041FF204602B010BDF7B50C4602AD54F89F
:1063E000043B45F8083D06460F4601A82146FFF745
:1063F0002AFF29463046FFF7DEFF01A8FFF72AFFF4
:106400002046FFF727FF3846082101F0E4FA30461E
:1064100003B0F0BD13B50B46044603C88DE8030076
:1064200093E8030084E803009DE8030083E8030089
:1064300002B010BD38B500230446036010200D469D
:10644000FDF72BFE28B1012343608360024B0360FC
:10645000C5602060204638BDC0920D00826810B52E
:106460000AB901F0BAFAC368BDE81040184708B588
:10647000006800F11001FFF7F1FF08BD826810B558
:106480000AB901F0AAFAC368BDE81040184708B578
:10649000006800F11001FFF7F1FF08BD38B50023D7
:1064A00083608B6804460D462BB102229847EB6847
:1064B000E360AB68A360204638BD0000F0B589B04A
:1064C00004686846FFF73EFF00238DF808304FF060
:1064D0000202D4E84F3F002B03D1C4E8412F00292A
:1064E000F7D102D08DF8083063E014F10C0503D029
:1064F00069462846FFF726FFBFF35F8F01236370CD
:10650000002004F10803BFF35F8F53E8006F43E8F6
:106510000002002AF9D1BFF35F8F002E49D0FFF7A8
:1065200087FD20B129463046FFF798FF3AE0314613
:1065300002A8FFF7B3FFE068B4F9105008B102F009
:10654000F9F906901020ADF81C50FDF7A6FD0546A0
:10655000E8B1002787601820FDF79FFD044688B149
:106560000146876002A8FFF755FF049BA268A3605D
:10657000059B049206A9E268E36004F1100005920D
:10658000FFF7E0FE0D4BEB600D4B2C60AB6006A8F7
:10659000FFF7E7FE02A8FFF7CCFE002229460948D4
:1065A000FFF74EFD3046FFF7C4FE1021304601F0E4
:1065B00012FA6846FFF7D5FE09B0F0BD6F640D0012
:1065C000E5660D00FF610D002DE9F04F8BB006462A
:1065D0000F46904699469DF850A0FFF765FD07AD20
:1065E000834630BB4FF62E73059005A92846ADF8BB
:1065F0001830FFF7A7FE1420FDF74FFD044658B1F1
:106600000223037001234370C0F804B0C0F808B03F
:1066100029460C30FFF796FE3046214640F8044BE1
:10662000FFF708FF2846FFF79CFE05A8FFF799FE35
:1066300052E000240C2314206C60AC600793FDF73B
:106640002CFD014618B1047044704460846004A8B5
:106650000391FFF7EFFE224B08930820FDF71DFD85
:10666000044628B1039B40F8043B04A9FFF7EBFD67
:1066700000955FFA8AF34A46414638460994FFF787
:106680001BFD20B9039B5B7803F0FF0283B1039BE2
:10669000059304A906A8FFF7D6FD05A93046FFF724
:1066A0008AFE06A8FFF7D6FD04A8FFF7D3FD13E086
:1066B0004FF69C7305A903A80592ADF81830FFF7B3
:1066C000FDFE05A8FFF74DFE05A80999FFF784FE1A
:1066D00006A8FFF7BFFDDAE730460BB0BDE8F08F44
:1066E00055680D00022AF8B5044606D0032A17D0D3
:1066F000012A22D10B6803601FE018200E68FDF705
:10670000CCFC054650B13146FFF7C8FE3069B6F9FA
:10671000147008B102F00EF92861AF8225600CE018
:10672000046854B104F11000FFF71BFE2046FFF788
:1067300000FE1821204601F04EF90020F8BD38B5C2
:10674000002383608B6804460D462BB102229847D4
:10675000EB68E360AB68A360204638BD022A70B5E1
:10676000044606D0032A11D0012A18D10B68036011
:1067700015E014200E68FDF790FC054620B1314667
:10678000FFF7DDFF337C2B74256008E0046834B12B
:106790002046FFF7CEFD1421204601F01CF9002011
:1067A00070BD0000F0B5002387B00C46BFF35F8FCB
:1067B00050E8006F40E80032002AF9D1BFF35F8F44
:1067C000002E3FD01846FFF733FC074620B1214684
:1067D0003046FFF753FE2EE0314601A8FFF7AFFF2A
:1067E00023788DF814301020FDF757FC0546D0B102
:1067F00087601420FDF751FC044678B1876001469C
:1068000001A8FFF707FE039BA268A360049B039205
:10681000E268E3609DF81430049223740A4BEB6045
:106820000A4B2C60AB6001A8FFF783FD00222946CC
:106830000748FFF705FC3046FFF77BFD1021304687
:1068400001F0C9F807B0F0BD8F640D005D670D0061
:10685000FF610D0030B585B004460D46684611460F
:10686000FFF7BAFD7CB124B228460DB102F062F800
:10687000029002A96846ADF80C40FFF71FFE02A87F
:10688000FFF76FFD1DE000988DF808404FF0010202
:10689000D0E84F3FA34203D1C0E8412F0029F7D1F0
:1068A00002D08DF808300CE010F10C014FF001031C
:1068B00018BF0373BFF35F8F043000F8033CFFF78A
:1068C00071FF01A8FFF7C6FC05B030BD00221146DC
:1068D0004068FFF741BC002211464068FFF74CBCFE
:1068E00000224068FFF740BC002281F001014068AF
:1068F000FFF72ABC00231A4619464068FFF71CBC64
:1069000000231A4619464068FFF70EBC00221146C4
:106910004068FFF701BC002211464068FFF7ECBB5E
:10692000002202214068FFF7EFBB00231A464068AF
:10693000FFF7DABB024B03225A60024A1A60704723
:1069400064E40320DC920D00090941EA001007EE1F
:10695000900AB8EEE70ADFED027A80EE270A704768
:1069600000004844006800F0E0B810B5044601603B
:1069700002710AB1FFF7F6FF204610BD38B5044694
:106980000D4600F0E1FF2A4601462046FFF7EDFFE5
:10699000204638BD006800F0D1B810B50379044630
:1069A0000BB1FFF7F7FF204610BDF8B504461646B9
:1069B0001D460F46FFF7D6FF2068362100F0AAF8E3
:1069C0002068036839469B6898470121206800F0D9
:1069D000A4F8022236210123206800F092F82068F2
:1069E00003685B6998473070206803685B69984763
:1069F00028702046BDE8F840FFF7CCBF07B502ABD2
:106A000000228DF8062003F8012D02210DF1060267
:106A1000FFF7CBFF9DF807109DF8060003B05DF867
:106A200004EBFFF791BF000007B502AB002203F8AB
:106A3000012D8DF8062004210DF10602FFF7B5FFA8
:106A40009DF8070001F066FA0022094B01F0C8FA30
:106A500001F0BEFD9DF8063000EE103A07EE900AF8
:106A6000B8EEC00A37EE800A03B05DF804FB00BF41
:106A70000000703F7047F8B5064615460C468F1863
:106A8000BC4206D0336814F8011B9B683046984717
:106A9000F6E72846F8BD0022007CFFF789B90021FF
:106AA000007CFFF78DB90021007CFFF791B9002130
:106AB000007CFFF795B90021007CFFF799B910B56C
:106AC0001421044600F087FF204610BD10B504468F
:106AD0004FF47A730846A3600021044B2074616070
:106AE0002360FFF795F9204610BD00BF10930D00FD
:106AF00013B50024007C0094FFF742F9C0B202B045
:106B000010BDDBB2D2B2C9B2FFF7F2BF0022007CE7
:106B1000FFF73EB9C9B2FFF7F9BF0022007CFFF7CB
:106B20003FB90021007CFFF76BB908B50021007C5C
:106B3000FFF776F9B0FA80F0400908BD08B50021EA
:106B4000007CFFF775F9B0FA80F0400908BD704786
:106B500010B51821044600F03EFF204610BDF0B5E8
:106B6000037D062B8DB00E4600F104074FF00004A4
:106B700002D000F1080518E00CAD394605F8304D9B
:106B80002F232A460A20FFF75BF9284601F0EDFE85
:106B900033680246DB682946304698470FE024B147
:106BA0002E21304600F0DCF9044415F8011D0A22BC
:106BB000304600F01BFABD420444F0D120460DB02F
:106BC000F0BD000010B5054B0446112240F8043B0F
:106BD000002101F06DFE204610BD00BF38930D006E
:106BE0000346074A10B543F8042B01F1100251F88F
:106BF000044B43F8044B9142F9D10A781A7010BD46
:106C000038930D0010B59DF8084044EA032343EA89
:106C1000024242EA016104234160037510BD37B5A9
:106C20000D788B784A78C97800912946FFF7EAFFFA
:106C300003B030BD014B024A1A6070476CE4032078
:106C4000B7930D00002211464068FFF785BA002275
:106C500011464068FFF790BA00224068FFF784BAF7
:106C6000002281F001014068FFF76EBA00231A4646
:106C700001214068FFF760BA00231A4619464068B0
:106C8000FFF752BA002211464068FFF745BA0022CA
:106C900011464068FFF730BA002202214068FFF732
:106CA00033BA00231A464068FFF71EBA38B50546C6
:106CB00088B104684CB1A3681BB103222146204669
:106CC00098471021204600F086FE28461421BDE892
:106CD000384000F080BE38BD10B103685B681847CB
:106CE000704710B503680446BBB15868FEF7B8FF9B
:106CF00078B923685A7C12B95868FEF7B9FF23683F
:106D00005868FEF7BDFF20680023236028B1FFF715
:106D1000CDFF206808B1FFF7C9FF204610BD000075
:106D200038B50C4B03600446D0F8CC0108B1FDF730
:106D3000B8F9D4F8C45135B12846FFF7D2FF042181
:106D4000284600F048FEA06808B1FFF7C5FF2046BE
:106D500038BD00BF2C940D0038B50E4C0E4B23608F
:106D60000025022304F5E4706360A560C4F8C451F3
:106D7000C4F8C851FEF7A4FF084BC4F8CC5184F8FE
:106D8000D05123602046064A0649BDE8384000F04D
:106D90001DBE00BF70E4032060940D002C940D0014
:106DA0006CDF0320216D0D0000231A464068FFF7B9
:106DB0009BB9002202214068FFF7A6B900221146C4
:106DC0004068FFF799B9002211464068FFF7A4B95F
:106DD00000231A4619464068FFF7A6B900231A4651
:106DE00019464068FFF7A8B9002281F00101406808
:106DF000FFF7AAB900224068FFF7B6B90022114692
:106E00004068FFF7B9B9002211464068FFF7A4B9FE
:106E10002DE9F043002495B016460D460746FFF7CE
:106E2000D1FE214620220CA8009401F041FD402310
:106E30000C9321466B460CAA3046FFF711F8044626
:106E4000002844D1024601216868FFF765F9022154
:106E5000804622466868FFF75FF9009E814621461A
:106E6000002E34D0002932D17368022B02D00A2BB5
:106E700009D02AE0B8F1000F27D0716938460431F3
:106E8000FFF7CDFE20E0B9F1000F1ED0746911228A
:106E900001A801F00DFD06238DF8143001AD04F1B9
:106EA00008031834186859682A4603C20833A342F5
:106EB0001546F7D101A906A807ADFFF791FE0FCD42
:106EC0003C1D0FC42B6823700121F669C8E70098A8
:106ED000FEF7BEFF384615B0BDE8F083024B034A0B
:106EE0001A6000225A60704744E6032060940D0047
:106EF00008B500F029FDBDE80840FFF716BE10B543
:106F00000446017009B1FFF7F3FF204610BD08B534
:106F100000F01AFDBDE80840FFF710BE10B5037879
:106F200004460BB1FFF7F3FF204610BDF8B5064647
:106F30000D468F180024BD420CD0336815F8011B94
:106F40009B6830469847002801DB0444F3E7002C97
:106F500008BF04462046F8BD08B5FEF7DBF908BDBA
:106F600003689B68184738B50D210546FFF7F8FF01
:106F70000A2104462846FFF7F3FF204438BD38B500
:106F80000546FEF7C7F904462846FFF7ECFF204404
:106F900038BD30B58BB00B4600218DF82410012A86
:106FA00098BF0A220DF12304B3FBF2F505FB12335F
:106FB00003F0FF03092B94BF30333733DBB2214694
:106FC00004F801392B46002DEED1FEF7A3F90BB0E2
:106FD00030BD10B42AB903685DF8044B9B68C9B290
:106FE0001847D2B25DF8044BFFF7D3BFFFF7F1BFEC
:106FF0002DE9F04107460E4615462AB90368C9B285
:107000009B68BDE8F04118470A2A02D1002901DA3D
:1070100004E0D2B2BDE8F041FFF7BBBF2D21FFF77E
:107020009FFF2A46044671423846FFF7B2FF2044CC
:10703000BDE8F081FFF7DCBF2DE9F04757EC106B9E
:1070400082460D4610EE102A3B4610EE100A3946D5
:1070500001F060FA08B1484912E027F000494FF00A
:10706000FF32464B3046494601F054FA68B94FF0BA
:10707000FF32424B3046494601F02EFA28B94049CA
:107080005046FEF747F9BDE8F0874FF060423D4BB0
:107090003046394601F034FA08B13B49F0E74FF089
:1070A00060423A4B3046394601F00CFA0028F4D1E0
:1070B000002200233046394601F004FA40B12D2168
:1070C0005046FFF74DFF07F1004304461F4600E01E
:1070D00004462F494FF0000800205FFA88F39D42D4
:1070E00006D900222B4B01F0A5F808F10108F4E7BE
:1070F00032463B4600F0C2FD0F46064601F048FA14
:107100000A22014680465046FFF743FF04447DB300
:10711000404600F0EFFE02460B463046394600F08E
:10712000ABFD06460F4650461B49FEF7F3F80444F4
:10713000184B00223046394600F052FF0F460646F3
:1071400001F0FEF90A22014680465046FFF750FF43
:107150000444404600F0DEFE02460B463046394607
:1071600000F08AFD013D15F0FF0506460F46DFD110
:107170002046BDE8F08700BF8C940D00FFFFEF7F35
:1071800096940D00FFFFEF4190940D00FFFFEFC1BB
:107190000000E03F0000244094940D00C9B2FFF7C6
:1071A0004BBF38B5C9B20546FFF746FF044628462F
:1071B000FFF7D9FE204438BD0CB42DE9F04387B069
:1071C00000AF07F13804054654F8049B3C600E46B6
:1071D00023464A461421381DFEF7F6FF132805D82A
:1071E000391D2846FEF796F8044613E000F108031F
:1071F00023F00703E846ADEB030D411C23464A4646
:1072000068463C60FEF7E0FF69462846FEF782F8D4
:107210000446C5461EB12846FFF7A5FE0444204695
:107220001C37BD46BDE8F04302B0704710B50446B8
:10723000FFF77FF8204610BD0348044A04490023A5
:10724000836000F0C3BB00BF4CE603206CDF03206B
:107250002D720D00704710B51021044600F0BBFBE5
:10726000204610BD70B5084B0360044600250E464D
:1072700040F80C5FFEF70CFD30462671FEF708FE65
:10728000A560204670BD00BFA4940D004FF6FF71AD
:107290000079FEF7EDBDC068FEF70ABD400830B5C5
:1072A0001860002418688842E5B206D90134082C19
:1072B00002D040081860F5E70725024B5B5D1370AC
:1072C00030BD00BFAC940D002DE9F04380468FB077
:1072D000C0680F46FEF7E4FC98F804401422002131
:1072E00009A801F0E5FA0B232046002209A9ADF810
:1072F0002430FEF7DDFD9DF82D404CB19DF82C505B
:107300002DB90C9E9DF834909DF8354003E0002483
:10731000A146264601253B790DB1002B40D19D4267
:107320000BD1BA68B24208D18DF820908DF8214077
:10733000BDF82010BA89914232D023BB8DF80F30AE
:107340000DF10F0204ABB9680A98FFF7A7FF3B796C
:1073500005B113BBAB4209D000213B7B01917C7B83
:107360009DF80F2098F80400009413E0BB68B34226
:10737000F2D38DF820908DF82140BDF82020BB89F4
:107380009A42E9D109E0002398F8040001930093A0
:107390001A460121FEF7A4FD02E0049BB342DBD1B3
:1073A00000200FB0BDE8F08308B50079FEF768FD56
:1073B000C0B208BD30B587B004460A9D007900957B
:1073C000FEF77EFD3DB902A92079FEF781FD9DF80B
:1073D0001430DB07F7D407B030BD0079FEF760BD8D
:1073E00010B50446084611461A460023FEF710FE63
:1073F000064B00221A704FF6FF7258809A801A6866
:107400009B882260A380204610BD00BF5CE603205D
:10741000044B00204FF6FF72187058809A80FEF7D8
:10742000E7BD00BF5CE60320F0B5144B144F1E68A7
:10743000144B064418683B6806449E428BB01BD030
:107440000AA801AD40F8286D01F020F9436903F264
:107450006C73436104460FCC0FC50FCC0FC5D4F835
:1074600000E0C5F800E001AD0FCD074C0FC40FCD13
:107470000FC43E60C4F800E00BB0F0BD94E60320FA
:1074800090E603208CE6032064E6032008B5002084
:10749000FEF71AFE28B1FEF707FE80F00100C0B229
:1074A00008BD012008BD10B50020FEF731FC0446E0
:1074B00068B9FEF795FD01280BD12046FEF7C8FDFF
:1074C00038B9FFF7E3FF30B9FEF7DEFDF9E7012039
:1074D00010BD002010BDFFF7D9FF0020FEF718FCFB
:1074E000003018BF012010BD08B5FFF7DCFFBDE874
:1074F0000840FEF705BC000008B5FFF7F5FFFFF7F1
:1075000093FF014B986808BD64E60320024B1A689C
:10751000024B1A60704700BFB4DE032088E60320E8
:1075200070474174704708B5007CFEF719FD20EAEA
:10753000E07008BD08B5007CFEF7EAFC20EAE070C8
:1075400008BD08B5007CFEF7F3FC30EA200028BF38
:107550004FF0FF3008BD08B5007CFEF7E1FC30EAD3
:10756000200028BF4FF0FF3008BD007CFEF7E8BCCC
:1075700010B51421044600F02EFA204610BD70B557
:10758000457C04460E4625B9007CFEF7E9FC002840
:1075900005DD3146207CBDE87040FEF7B1BC2846D1
:1075A00070BD000010B50446084611460022626016
:1075B0004FF47A72A260054A22600122207462743C
:1075C0001A46FEF795FC204610BD00BFE4940D005E
:1075D000007CFEF7BDBC0000F8B5194C25684DB91C
:1075E0008420FCF75AFD064618B18422294601F092
:1075F0005FF92660134D2E684EB98420FCF74DFDCF
:10760000074618B18422314601F052F92F600E4F1F
:10761000396811F0010611D13846FCF744FD68B114
:1076200022682B6809483146FFF7BCFF3846FCF753
:107630003FFD074A0749054800F0C8F90348F8BD6F
:10764000B4E60320ACE60320B0E6032098E603206E
:107650006CDF032021750D0041747047704708B539
:107660000021007CFEF7A4FC30EA200028BF4FF088
:10767000FF3008BD08B50121007CFEF799FC30EA17
:10768000200028BF4FF0FF3008BD08B5007CFEF792
:1076900087FC20EAE07008BD08B5007CFEF778FCA6
:1076A00020EAE07008BD007CFEF792BC10B5142102
:1076B000044600F090F9204610BD38B50446007C21
:1076C0000D46FEF76DFC002801DC607C28B12946E0
:1076D000207CFEF775FC20EAE07038BD10B504464A
:1076E000002363604FF47A73A360054B236001238A
:1076F0000846217463741146FEF73AFC204610BD1B
:1077000014950D000022007CFEF73ABC10B514223F
:107710000446002101F0CCF8204610BD30B50E4DD6
:1077200087B001A8FFF7F2FF296811F0010410D11A
:107730002846FCF7B8FC60B101AA21460748FFF7CC
:10774000CDFF2846FCF7B4FC054A0649034800F083
:107750003DF9024807B030BDB8E60320BCE603207F
:107760006CDF03205D760D0008B50C4B33B1FFF7DD
:10777000D5FF03681B699847002809DC084B63B1F3
:10778000FFF72AFF03681B699847002803DC08BD40
:10779000AFF30080F2E7AFF3008008BD0000000007
:1077A0000000000008B5FFF7DFFFFEF7A1FA014B6C
:1077B000186008BDD4E6032007B5002300931A46DD
:1077C0006FF07701FEF756FC03B05DF804FB000094
:1077D00007B543880A2B08D0502B09D1094B1B68E9
:1077E0003BB103B05DF804EB1847FFF7E5FF06E097
:1077F000002300931A466FF07701FEF73BFC03B0BD
:107800005DF804FBD0E6032010B5FEF761FA0446EC
:1078100001F056F8074B13B12046AFF3008000216A
:107820000448FEF759FC00210348BDE81040FEF76C
:1078300017BC00BF00000000D1770D0010B5044652
:107840000F48FFF7CAFD28B1A4F10B03022B01D8A2
:10785000002010BD00F058F8FFF763F908B1012CC3
:10786000F6D9FFF7B9FEFFF7B3FE18B1A4F109038B
:10787000012BEDD9232C8CBF0020012010BD00BFAF
:1078800008E70320232838B504460D460AD8FF2907
:1078900008D0FFF7D3FF28B129462046BDE838407D
:1078A000FEF74EBA38BD38B504460D46FEF750FA1D
:1078B000FF2810D0062804D84D2323FA00F0C30770
:1078C00009D42046FFF7BAFF28B129462046BDE873
:1078D0003840FEF745BA38BD0D2810B504469CBFA8
:1078E0000E34A4B22046FFF7A9FF50B10321204671
:1078F000FEF71EFA032804D12046BDE81040FEF72B
:1079000037BA002010BD000038B50B4D296811F0C2
:1079100001040FD12846FCF7C6FB58B121460748A1
:10792000FFF7D4F82846FCF7C3FB054A054903488E
:1079300000F04CF8014838BDD8E60320F0E60320FB
:107940006CDF0320756A0D0010B50B4C2368DB0754
:107950000FD42046FCF7A7FB58B101210748FFF7D9
:10796000B5F82046FCF7A4FB054A0649034800F099
:107970002DF8024810BD00BF04E70320DCE6032019
:107980006CDF0320756A0D0070B50C4C0C4E0D4D6C
:1079900000212046FFF766FC20460B4C3246294664
:1079A00000F014F801212046FFF75CFC324629461E
:1079B0002046BDE8704000F009B800BF08E703208A
:1079C0006CDF032055720D0018E703200B460146BB
:1079D000184600F04DBEFCF762BB08B5FEF7FCFB95
:1079E000244B1A68D0075CBF01221A60224B1A6828
:1079F000D1075CBF01221A60204B1A68D2075CBF16
:107A000001221A601E4B1A68D0075CBF01221A605F
:107A10001C4B1A68D1075CBF01221A601A4B1A6806
:107A2000D2075CBF01221A60184B1A68D0075CBFEE
:107A300001221A60164B1A68D1075CBF01221A6036
:107A4000144B1A68D2075CBF01221A60124B1A68E5
:107A5000D0075CBF01221A60104B1A68D1075CBFC7
:107A600001221A600E4B1A68D2075CBF01221A600D
:107A7000704700BF54E7032050E703204CE7032082
:107A800048E7032044E7032040E703203CE70320C6
:107A900038E7032034E7032030E703202CE70320F6
:107AA00028E70320184B1A68D1075CBF01221A602F
:107AB000164B1A68D2075CBF01221A60144B1A6871
:107AC000D0075CBF01221A60124B1A68D1075CBF55
:107AD00001221A60104B1A68D2075CBF01221A609B
:107AE0000E4B1A68D0075CBF01221A600C4B1A6853
:107AF000D1075CBF01221A600A4B1A68D2075CBF2B
:107B000001221A60704700BF74E7032070E703206A
:107B10006CE7032068E7032064E7032060E70320A5
:107B20005CE7032058E70320184B1A68D1075CBFB5
:107B300001221A60164B1A68D2075CBF01221A6034
:107B4000144B1A68D0075CBF01221A60124B1A68E6
:107B5000D1075CBF01221A60104B1A68D2075CBFC4
:107B600001221A600E4B1A68D0075CBF01221A600E
:107B70000C4B1A68D1075CBF01221A600A4B1A68C5
:107B8000D2075CBF01221A60704700BF94E7032050
:107B900090E703208CE7032088E7032084E7032095
:107BA00080E703207CE7032078E70320244B1A6852
:107BB000D0075CBF01221A60224B1A68D1075CBF54
:107BC00001221A60204B1A68D2075CBF01221A609A
:107BD0001E4B1A68D0075CBF01221A601C4B1A6842
:107BE000D1075CBF01221A601A4B1A68D2075CBF2A
:107BF00001221A60184B1A68D0075CBF01221A6074
:107C0000164B1A68D1075CBF01221A60144B1A6820
:107C1000D2075CBF01221A60124B1A68D0075CBF02
:107C200001221A60104B1A68D1075CBF01221A604A
:107C30000E4B1A68D2075CBF01221A60704700BF62
:107C4000C4E70320C0E70320BCE70320B8E7032014
:107C5000B4E70320B0E70320ACE70320A8E7032044
:107C6000A4E70320A0E703209CE7032098E7032074
:107C700081F0004102E000BF83F0004330B54FEADD
:107C800041044FEA430594EA050F08BF90EA020F4A
:107C90001FBF54EA000C55EA020C7FEA645C7FEADD
:107CA000655C00F0E2804FEA5454D4EB5555B8BF00
:107CB0006D420CDD2C4480EA020281EA030382EA71
:107CC000000083EA010180EA020281EA0303362D03
:107CD00088BF30BD11F0004F4FEA01314FF4801CD6
:107CE0004CEA113102D0404261EB410113F0004FE8
:107CF0004FEA03334CEA133302D0524263EB43039F
:107D000094EA050F00F0A780A4F10104D5F1200E3C
:107D10000DDB02FA0EFC22FA05F2801841F1000197
:107D200003FA0EF2801843FA05F359410EE0A5F16B
:107D300020050EF1200E012A03FA0EFC28BF4CF09C
:107D4000020C43FA05F3C01851EBE37101F0004552
:107D500007D54FF0000EDCF1000C7EEB00006EEB5F
:107D60000101B1F5801F1BD3B1F5001F0CD34908E9
:107D70005FEA30004FEA3C0C04F101044FEA445240
:107D800012F5800F80F09A80BCF1004F08BF5FEAC7
:107D9000500C50F1000041EB045141EA050130BDA7
:107DA0005FEA4C0C404141EB010111F4801FA4F14A
:107DB0000104E9D191F0000F04BF01460020B1FA9F
:107DC00081F308BF2033A3F10B03B3F120020CDAD7
:107DD0000C3208DD02F1140CC2F10C0201FA0CF0B5
:107DE00021FA02F10CE002F11402D8BFC2F1200C1A
:107DF00001FA02F120FA0CFCDCBF41EA0C019040D0
:107E0000E41AA2BF01EB0451294330BD6FEA040418
:107E10001F3C1CDA0C340EDC04F11404C4F1200203
:107E200020FA04F001FA02F340EA030021FA04F315
:107E300045EA030130BDC4F10C04C4F1200220FA6C
:107E400002F001FA04F340EA0300294630BD21FAAA
:107E500004F0294630BD94F0000F83F4801306BF70
:107E600081F480110134013D4EE77FEA645C18BF64
:107E70007FEA655C29D094EA050F08BF90EA020FFB
:107E800005D054EA000C04BF1946104630BD91EAF3
:107E9000030F1EBF0021002030BD5FEA545C05D1F6
:107EA0004000494128BF41F0004130BD14F5800435
:107EB0003CBF01F5801130BD01F0004545F0FE41A9
:107EC00041F470014FF0000030BD7FEA645C1ABFDE
:107ED000194610467FEA655C1CBF0B46024650EA15
:107EE000013406BF52EA033591EA030F41F4002141
:107EF00030BD00BF90F0000F04BF0021704730B5C7
:107F00004FF4806404F132044FF000054FF000019B
:107F100050E700BF90F0000F04BF0021704730B55C
:107F20004FF4806404F1320410F0004548BF404231
:107F30004FF000013EE700BF42004FEAE2014FEA86
:107F400031014FEA02701FBF12F07F4393F07F4F61
:107F500081F06051704792F0000F14BF93F07F4F93
:107F6000704730B54FF4607401F0004521F00041D6
:107F700020E700BF50EA010208BF704730B54FF05C
:107F800000050AE050EA010208BF704730B511F061
:107F9000004502D5404261EB41014FF4806404F199
:107FA00032045FEA915C3FF4DCAE4FF003025FEA1B
:107FB000DC0C18BF03325FEADC0C18BF033202EBA3
:107FC000DC02C2F1200300FA03FC20FA02F001FAFD
:107FD00003FE40EA0E0021FA02F11444C1E600BF9C
:107FE00070B54FF0FF0C4CF4E06C1CEA11541DBF4F
:107FF0001CEA135594EA0C0F95EA0C0F00F0DEF81A
:108000002C4481EA030621EA4C5123EA4C5350EAFE
:10801000013518BF52EA033541F4801143F480134F
:1080200038D0A0FB02CE4FF00005E1FB02E506F0E0
:108030000042E0FB03E54FF00006E1FB03569CF035
:10804000000F18BF4EF0010EA4F1FF04B6F5007F3B
:1080500064F5407404D25FEA4E0E6D4146EB0606AD
:1080600042EAC62141EA55514FEAC52040EA5E5036
:108070004FEACE2EB4F1FD0C88BFBCF5E06F1ED8E0
:10808000BEF1004F08BF5FEA500E50F1000041EB17
:10809000045170BD06F0004646EA010140EA0200C4
:1080A00081EA0301B4EB5C04C2BFD4EB0C0541EAE6
:1080B000045170BD41F480114FF0000E013C00F3FB
:1080C000AB8014F1360FDEBF002001F0004170BD1F
:1080D000C4F10004203C35DA0C341BDC04F1140438
:1080E000C4F1200500FA05F320FA04F001FA05F2C4
:1080F00040EA020001F0004221F0004110EBD37091
:1081000021FA04F642EB06015EEA430E08BF20EABC
:10811000D37070BDC4F10C04C4F1200500FA04F35F
:1081200020FA05F001FA04F240EA020001F00041F1
:1081300010EBD37041F100015EEA430E08BF20EA64
:10814000D37070BDC4F1200500FA05F24EEA020EAC
:1081500020FA04F301FA05F243EA020321FA04F0DB
:1081600001F0004121FA04F220EA020000EBD37092
:108170005EEA430E08BF20EAD37070BD94F0000F92
:108180000FD101F00046400041EB010111F4801FC6
:1081900008BF013CF7D041EA060195F0000F18BF77
:1081A000704703F00046520043EB030313F4801FB3
:1081B00008BF013DF7D043EA0603704794EA0C0F6D
:1081C0000CEA135518BF95EA0C0F0CD050EA410683
:1081D00018BF52EA4306D1D181EA030101F0004100
:1081E0004FF0000070BD50EA410606BF1046194628
:1081F00052EA430619D094EA0C0F02D150EA013634
:1082000013D195EA0C0F05D152EA03361CBF104674
:1082100019460AD181EA030101F0004141F0FE4113
:1082200041F470014FF0000070BD41F0FE4141F497
:10823000780170BD70B54FF0FF0C4CF4E06C1CEA97
:1082400011541DBF1CEA135594EA0C0F95EA0C0F4C
:1082500000F0A7F8A4EB050481EA030E52EA033507
:108260004FEA013100F088804FEA03334FF0805528
:1082700045EA131343EA12634FEA022245EA111555
:1082800045EA10654FEA00260EF000419D4208BF06
:10829000964244F1FD0404F5407402D25B084FEAB3
:1082A0003202B61A65EB03055B084FEA32024FF45F
:1082B00080104FF4002CB6EB020E75EB030E22BFBC
:1082C000B61A754640EA0C005B084FEA3202B6EB7C
:1082D000020E75EB030E22BFB61A754640EA5C002B
:1082E0005B084FEA3202B6EB020E75EB030E22BFBB
:1082F000B61A754640EA9C005B084FEA3202B6EBBC
:10830000020E75EB030E22BFB61A754640EADC007A
:1083100055EA060E18D04FEA051545EA16754FEADC
:1083200006164FEAC30343EA52734FEAC2025FEAFA
:108330001C1CC0D111F4801F0BD141EA00014FF089
:1083400000004FF0004CB6E711F4801F04BF01435A
:108350000020B4F1FD0C88BFBCF5E06F3FF6AFAE76
:10836000B5EB030C04BFB6EB020C5FEA500C50F106
:10837000000041EB045170BD0EF0004E4EEA113189
:1083800014EB5C04C2BFD4EB0C0541EA045170BD90
:1083900041F480114FF0000E013C90E645EA060ED4
:1083A0008DE60CEA135594EA0C0F08BF95EA0C0F02
:1083B0003FF43BAF94EA0C0F0AD150EA01347FF44A
:1083C00034AF95EA0C0F7FF425AF104619462CE721
:1083D00095EA0C0F06D152EA03353FF4FDAE104684
:1083E000194622E750EA410618BF52EA43067FF4D5
:1083F000C5AE50EA41047FF40DAF52EA43057FF465
:10840000EBAE12E74FF0FF3C06E000BF4FF0010C6F
:1084100002E000BF4FF0010C4DF804CD4FEA410CD3
:108420007FEA6C5C4FEA430C18BF7FEA6C5C1BD0A0
:1084300001B050EA410C0CBF52EA430C91EA030F21
:1084400002BF90EA020F0020704710F1000F91EA7E
:10845000030F58BF994208BF90422CBFD8176FEA4C
:10846000E37040F0010070474FEA410C7FEA6C5C1A
:1084700002D150EA013C07D14FEA430C7FEA6C5C21
:10848000D6D152EA033CD3D05DF8040B704700BF4D
:108490008446104662468C461946634600E000BF9B
:1084A00001B5FFF7B7FF002848BF10F1000F01BD6D
:1084B0004DF808EDFFF7F4FF0CBF012000205DF838
:1084C00008FB00BF4DF808EDFFF7EAFF34BF0120BD
:1084D00000205DF808FB00BF4DF808EDFFF7E0FF56
:1084E00094BF012000205DF808FB00BF4DF808EDA7
:1084F000FFF7CEFF94BF012000205DF808FB00BF0E
:108500004DF808EDFFF7C4FF34BF012000205DF8EF
:1085100008FB00BF4FEA410C7FEA6C5C02D150EAD5
:10852000013C0AD14FEA430C7FEA6C5C02D152EA6B
:10853000033C02D14FF0000070474FF0010070473C
:108540004FEA410212F5001215D211D56FF478737B
:10855000B3EB625212D94FEAC12343F0004343EA1E
:10856000505311F0004F23FA02F018BF40427047F9
:108570004FF00000704750EA013005D111F0004083
:1085800008BF6FF0004070474FF00000704700BF19
:108590004A0011D212F5001211D20DD56FF4787382
:1085A000B3EB62520ED44FEAC12343F0004343EAD7
:1085B000505323FA02F070474FF00000704750EA22
:1085C000013002D14FF0FF3070474FF0000070478C
:1085D0004FEA4102B2F1E04324BFB3F5001CDCF1E5
:1085E000FE5C0DD901F0004C4FEAC0024CEA50701D
:1085F000B2F1004F40EB830008BF20F0010070474C
:1086000011F0804F21D113F13872BCBF01F000404E
:10861000704741F480114FEA5252C2F11802C2F180
:10862000200C10FA0CF320FA02F018BF40F0010001
:108630004FEAC1234FEAD32303FA0CFC40EA0C00B3
:1086400023FA02F34FEA4303CCE77FEA625307D1F0
:1086500050EA01331EBF4FF0FE4040F44000704727
:1086600001F0004040F0FE4040F40000704700BFC1
:1086700010B5054C13462CB10A4601460220AFF353
:10868000008010BD204610BD0000000038B5074B2B
:108690001C68E36B05461BB92420FDF775FDE063FC
:1086A000E16B2846BDE8384000F002B81CDF03202B
:1086B0002DE9F0410C46804600F070FC214607464B
:1086C000404600F06FFC466906F26C76B30704463C
:1086D00005D1642296FBF2F302FB13634BB94FF40E
:1086E000C87596FBF5F305FB1365B5FA85F35B09D1
:1086F00000E001235F4A302505FB032500F082FAE4
:1087000000F082FA5C4B1B68F3B17B689E4205D196
:108710003968D8F80030FA6941B90AE0304600F00B
:10872000C9F90028F4D14FF0FF330DE0934208DB84
:1087300001E0934207DABA6B9342ACBF00230123F6
:1087400002E0002300E001232362236A012B0CBF17
:10875000F96B396A4FF461633C2091FBF3F603FB3C
:108760001613616893FBF0F200FB12302368891A3C
:10877000A26861601B1A921B3B2B2360A26003DD81
:10878000013161603C3B04E0002B03DA0139616098
:108790003C33236063683B2B03DD0132A2603C3B2A
:1087A00004E0002B03DA013AA2603C336360A36863
:1087B000172B22DDE2690132E261A2690132062A49
:1087C000C8BF0022A261E268183B0132A36023699E
:1087D000E26055F823108A4246DD01330C2B0CBFB2
:1087E00063692361A2EB0102E26001BF0133002251
:1087F0002261636108BFE26136E0002B34DAE2698E
:10880000013AE261A269013A48BF0622A261E26828
:108810001833013AE260A36032BB2369013B01D403
:1088200023611DE00B23236163695A1E12F0030FBD
:10883000626103F26B7305D1642193FBF1F201FBDA
:1088400012324AB94FF4C87193FBF1F201FB1233B3
:10885000B3FA83F35B0900E0012303F5B673E36128
:10886000236955F82330E36000F0CDF92046BDE8D8
:10887000F08100BFA4960D00E4E7032010B5013994
:108880000244904207D010F8013B11F8014FA34277
:10889000F7D0181B10BD002010BD10B5431E0A44B0
:1088A000914204D011F8014B03F8014FF8E710BDD5
:1088B00002440346934202D003F8011BFAE77047D3
:1088C00038B5124B1C68A36B0546D3B91820FDF7C9
:1088D0005BFC43F20E33A06303804AF6CD33438042
:1088E00041F2342383804EF26D63C3804DF6EC6316
:1088F0000381052343810B23838101220023C0E9E7
:108900000423A36B00221D615A6138BD1CDF0320C4
:1089100010F8012B11F8013B012A28BF9A42F7D029
:10892000D01A7047034611F8012B03F8012B002AD7
:10893000F9D17047024B0146186800F003B800BF38
:108940001CDF032070B5064608460C4600F00DF803
:10895000451C29463046FDF747FC064618B12A4615
:108960002146FFF79AFF304670BD034613F8012BEE
:10897000002AFBD1181A0138704730B582B1451E64
:10898000013915F8013F11F8014FA34206D1EC431C
:108990001444E04201D0002BF3D11C46181B30BD1B
:1089A000104630BD2DE9F04780463C48D0F8009095
:1089B0000E46354615F8014B09EB0400407800F0EF
:1089C000080000F0FF0708B12E46F2E72D2C03D176
:1089D000B51C7478012703E02B2C04BF7478B51CF8
:1089E00013B1102B0AD153E0302C4FD1287800F06E
:1089F000DF00582845D16C78102302354FF0FF3C3A
:108A00000026BCFBF3FC03FB0CFA6FEA0A0A3046B3
:108A100009EB040E9EF801E01EF0040F01D0303C7B
:108A20000BE01EF0030E1AD0BEF1010F0CBF4FF089
:108A3000370E4FF0570ECEEB0404A3420FDD002E8D
:108A400008DB604506D801D1544503DC03FB004038
:108A5000012601E04FF0FF3615F8014BD8E7002E54
:108A600007DA2223C8F800304FF0FF302AB9BDE8FA
:108A7000F08707B1404272B106B1691E1160BDE8CE
:108A8000F0873024002BB9D10823B7E70A23B5E7D4
:108A9000302CABD0B2E7BDE8F08700BFB8DE0320D2
:108AA00013460A46014602480068FFF77BBF00BF35
:108AB0001CDF03202DE9F74F044600F06FFA40F267
:108AC000B1739C4240F396806FF4F663E318A4F20E
:108AD000B2729B1040F26D1505FB0235A4F26D7267
:108AE0006FF0630392FBF3F36FF4C8622B44A51895
:108AF0004FF4C87295FBF2F51D44642394FBF2F722
:108B000094FBF3F602FB174703FB164600F138030C
:108B1000B7FA87FE019304F0030344604FEA5E1E38
:108B2000014600934FF0070C0B7A4A2B0ED14B698C
:108B3000009AEC1802B906B927B93B2BD4BF002321
:108B4000012300E000232344013B3FE0442B02D1FA
:108B50004B692B443AE0009B2BB9002E0CBFF0462A
:108B60004FF0010800E0F046244BCC68302202FBB5
:108B70000838A8F1040AA9460123A34204DA5AF8E6
:108B800004BF0133D944F8E709F1040393FBFCFB6C
:108B9000CBEBCB0A012CCAEB030A4B69B8BF01240B
:108BA00004F18044B3EB0A0A0B6904F1FF3403F1CA
:108BB000FF3348BF0AF1070AC3EBC30358F8244048
:108BC0005344A34201DB073BFBE74B448C690C4A4F
:108BD00002FB03430C6A234441F81C3F019B99426A
:108BE000A2D1C369826B9342ACBF0023012303600F
:108BF000012000E0002003B0BDE8F08FA4960D0036
:108C00008051010070477047014B186800F002B8AE
:108C10001CDF03202DE9F04F8DB0074600F0BEF9B0
:108C2000B049B14E0446384600F0B0F9054660B987
:108C3000AE4BAF4A1860AF4B1860AF4B30681A604C
:108C40005A60FDF7A9FA356048E1316879B93068B2
:108C5000FDF7A2FA2846FFF788FE411C3846FDF7CB
:108C6000C3FA306048B12946FFF75CFE05E0FFF724
:108C70004FFE002800F03281E9E72B789F4AA04997
:108C80003A2B08BF01350AAE33462846FDF78CFA69
:108C9000002840F323810A9BEF18EB5C2D2B03D1B6
:108CA00001374FF0FF3503E02B2B08BF01370125BB
:108CB0000DF1200A0DF11E0B4FF000080396CDF8C0
:108CC00008A00196CDF800B0334607AA8D49ADF84B
:108CD0001E803846ADF82080FDF766FA404540F327
:108CE000FD80BDF81E20BDF82030DFF824923C2125
:108CF00001FB0233BDF81C204FF4616101FB02331C
:108D00005D4325627C4D7D4B2B600A9B7C491F4453
:108D10004A4633463846FDF747FA404508DC2B689B
:108D20006B60724B226A1A60724BC3F80080D5E008
:108D30000A9BC5F80490FD18FB5C2D2B03D101356F
:108D40004FF0FF3703E02B2B08BF0135012700232D
:108D5000ADF81C30ADF81E30ADF820300A93039604
:108D6000CDF808A00196CDF800B0334607AA6549B2
:108D70002846FDF719FA002804DC236AA3F561638D
:108D8000E3630EE0BDF81E20BDF820303C2101FB5E
:108D90000233BDF81C204FF4616101FB02335F43D5
:108DA000E7630A9B27461D444FF000092B782C2BC4
:108DB00008BF013595F80080B8F14D0F26D10DF1AF
:108DC0002603029309AB00930396019633460DF1F7
:108DD00022024D492846FDF7E7F903287ED1BDF868
:108DE00022104B1E0B2B79D8BDF82420531E042BC8
:108DF00074D8BDF82630062B70D887F80880F96043
:108E00003A617B610A9B05EB03082AE0B8F14A0F3F
:108E100006BF0135434644230A220BA92846059381
:108E2000FFF73EFEDDF82C80ADF826004545059B9A
:108E300014D14D23B9F1000F07D123720323E3604E
:108E400002232361C4F814900BE084F824300B2330
:108E5000A3620123E3620023236302E080B23B723A
:108E600078610223ADF81C300023ADF81E30ADF858
:108E700020300A9398F800302F2B0BD10396CDF8B1
:108E800008A00196CDF800B0334607AA1F49404616
:108E9000FDF78AF9BDF81E20BDF820303C2101FB0A
:108EA0000233BDF81C204FF4616101FB0233BB614A
:108EB0000A9D09F10109B9F1020F454407F11C07A8
:108EC0007FF474AF6068FFF7F5FD084B226A1A6003
:108ED000E36B9B1A074A18BF012313600DB0BDE86E
:108EE000F08F00BF04970D00E0E70320E8E70320C0
:108EF00007970D00E4E7032020DF0320D3E70320DA
:108F00000B970D002E970D001A970D002D970D0051
:108F1000C8E703202DE9F84F07468B46904600F03E
:108F2000D9F8194B1D689A463DB15C46234613F8A3
:108F3000012B42B13D2A1C46F8D1384600F0CBF84F
:108F40000020BDE8F88FCBEB0404A94659F8040BC8
:108F50000028F2D022465946FFF70FFD88B959F88C
:108F6000043C1E191B5D3D2B0BD1DAF80030ED1AC5
:108F7000AD103846C8F8005000F0ADF8701CBDE8E0
:108F8000F88F4D46E1E700BF68DF032007B501AA6F
:108F9000FFF7C0FF03B05DF804FB00000048704716
:108FA00028DF03200268474BF0B592FBF3F403FB84
:108FB0001422002ABCBF02F5A83202F5C0724FF499
:108FC000616004F52F2492FBF0F300FB13224FF0B5
:108FD0003C00ACBF04F66C2404F66B248B6092FB5F
:108FE000F0F300FB13224B600A600723E21C92FBA4
:108FF000F3F3C3EBC303D31A8B61334B334D94FBB1
:10900000F5F503FB054448F6AC62B4FBF2F22244EA
:1090100040F2B457B4FBF7F3D21A2D48B4FBF0F08A
:1090200048F69466131AB3FBF6F6344440F26D1218
:10903000B3FBF2F0B3FBF7F3E31A02FB103399240E
:1090400003EB83020232B2FBF4F20A2A04FB02F4BD
:1090500004F102064FF00504B6FBF4F434BF022617
:109060006FF0090616444FF4C87202FB05055F1C39
:10907000012E98BF0135B3F5997FA7EB040702D302
:10908000A3F5997214E0820705D16424B0FBF4F2D1
:1090900004FB12024AB94FF4C872B0FBF2F402FBAF
:1090A0001400B0FA80F2520900E001223B331A4466
:1090B000A5F26C750023CA614D610E61CF600B6231
:1090C0000846F0BD805101004FC5FDFFB13A0200D6
:1090D000B03A02007047704721400D005D400D001E
:1090E00089400D008D400D000000000000000000D0
:1090F000000000002D410D000000000000000000F5
:10910000D3400D001F410D0007410D0001410D002E
:10911000B7400D00E1400D00DB400D00D5400D00D3
:1091200064656661756C7420004D5342004C534277
:10913000003C53504953657474696E6773206465CD
:109140006661756C743E003C535049536574746994
:109150006E6773202573256C75202573204D4F4451
:109160004525643E004D6178626F746978205465CE
:1091700073740064697374616E63652E747874002F
:109180006661696C656420746F206F70656E206322
:10919000617264006F70656E696E672074657374C8
:1091A0002E74787420666F722077726974652066F9
:1091B00061696C6564002C00256C692C252E356670
:1091C0002C252E3032662C252E30326600547279D2
:1091D000696E6720746F20636F6E6E6563740070D4
:1091E00075626C697368696E672064617461006D93
:1091F00061782074696D6520666F72207075626C8D
:10920000697368696E672072656163686564207759
:109210006974686F757420737563636573733B203D
:10922000676F20746F20736C656570004E6F7420DB
:109230006D61782074696D652C2074727920616786
:1092400061696E20746F207075626C697368006765
:109250006F696E6720746F20736C65657000536C66
:1092600065657020666F72202564207365636F6E7C
:1092700064730A005365614C6576656C5F42546F98
:10928000776E00000000000000000000DB620D00AF
:10929000D1620D00C7620D007D620D00BB620D0042
:1092A000AF620D00A3620D009B620D0091620D0084
:1092B00087620D00116E0D0000000000000000002C
:1092C00015630D001B630D0071630D0029630D0014
:1092D00017630D0000000000000000002B690D0066
:1092E00021690D0017690D000D690D0001690D0060
:1092F000F5680D00E9680D00E1680D00D7680D0004
:10930000CD680D00116E0D0000000000000000008F
:10931000756A0D00BF6A0D00976A0D00776A0D002F
:109320009F6A0D00A76A0D00AF6A0D00B76A0D00B5
:1093300000000000000000005F6B0D004F6B0D008F
:10934000516B0D00626175640053657269616C0058
:1093500053657269616C3100747970650070617277
:10936000616D00636D6400696400686E640073740D
:10937000726D0066696C74006C766C0061646448A0
:10938000616E646C65720072656D6F766548616EC2
:10939000646C657200656E756D48616E646C6572B3
:1093A00073004A534F4E53747265616D4C6F67483A
:1093B000616E646C657200617070002530313075CB
:1093C00020005D20002564002C200028293A200080
:1093D000205B00636F6465203D20002569006465A3
:1093E0007461696C73203D20000D0A006C6E00668C
:1093F0006E00636F64650064657461696C006E6F14
:109400006E6500747261636500696E666F007761F6
:10941000726E006572726F720070616E69630061D6
:109420006C6C00000000000000000000A36C0D0048
:10943000996C0D008F6C0D00856C0D00796C0D0022
:109440006D6C0D00616C0D00596C0D004F6C0D00C2
:10945000456C0D00116E0D000000000000000000C2
:10946000A96D0D00B36D0D00BD6D0D00C76D0D0034
:10947000D16D0D00DD6D0D00E96D0D00F56D0D0078
:10948000FD6D0D00076E0D00116E0D006E616E001A
:109490006F7666002E00696E660000000000000016
:1094A0000000000055720D0057720D0000081018E2
:1094B00020283038252B3033643A2530327500258A
:1094C000592D256D2D25645425483A254D3A2553AF
:1094D000257A0061736374696D6500000000000007
:1094E0000000000021750D0071750D007F750D00E5
:1094F0002D6F0D0035750D0057750D0043750D006E
:109500006B750D0023750D0027750D000000000020
:10951000000000005D760D00AD760D00BB760D00FD
:109520002D6F0D0099760D005F760D0075760D009C
:10953000A7760D008B760D0059760D0000202020B7
:1095400020202020202028282828282020202020F3
:1095500020202020202020202020202020881010C3
:10956000101010101010101010101010100404041F
:1095700004040404040404101010101010104141DD
:1095800041414141010101010101010101010101CB
:1095900001010101010101011010101010104242DF
:1095A000424242420202020202020202020202029B
:1095B000020202020202020210101010200000003B
:1095C000000000000000000000000000000000009B
:1095D000000000000000000000000000000000008B
:1095E000000000000000000000000000000000007B
:1095F000000000000000000000000000000000006B
:10960000000000000000000000000000000000005A
:10961000000000000000000000000000000000004A
:10962000000000000000000000000000000000003A
:10963000000000000000000000000000000000002A
:10964000000000000000000000000000000000001A
:10965000000000000000000000000000000000000A
:1096600000000000000000000000000000000000FA
:1096700000000000000000000000000000000000EA
:1096800000000000000000000000000000000000DA
:1096900000000000000000000000000000000000CA
:1096A000430000001F0000001C0000001F0000001D
:1096B0001E0000001F0000001E0000001F00000030
:1096C0001F0000001E0000001F0000001E00000020
:1096D0001F0000001F0000001D0000001F00000010
:1096E0001E0000001F0000001E0000001F00000000
:1096F0001F0000001E0000001F0000001E000000F0
:109700001F000000545A00474D54002531305B5E65
:10971000302D392C2B2D5D256E004D256875256E5D
:109720002E256875256E2E256875256E002F2568F7
:1097300075256E3A256875256E3A256875256E0083
:1097400061450D0019460D00014D0D0011530D002E
:1097500035530D0039530D005D560D0061560D0057
:1097600065560D0069560D006D560D00A75B0D0086
:10977000AB5B0D00AF5B0D00555C0D00595C0D003F
:109780005D5C0D006D620D00E5620D0035690D0038
:10979000356C0D00596D0D00DD6E0D0039720D0038
:1097A00011740D000D750D0089790D00E1790D0022
:1097B000A57A0D00297B0D00AD7B0D000000000097
:1097C0001300000074920D00D3940D003C950D0021
:1097D0000000000040960D0060960D0080960D0080
:1097E0000000000000000000000000000000000079
:1097F000A0960D0000000000000000000000000026
:109800000000000000000000000000000000000058
:109810000000000000000000000000000000000048
:109820000000000000000000000000000000000038
:10983000BCDE032007970D0007970D000100000014
:10984000000000004A0000000000000000000000CE
:109850000000000000000000000000000000000008
:109860004A000000000000000000000000000000AE
:10987000000000000000000000000000ECE70320F2
:10988000FFFFFFFF00000102030405060708090AA5
:109890000B0C0D0E0F101112131415161718191AA0
:0898A0001B1C1D1E1F202800E7
:0498A80078563412A8
:04000003D0004020C9
:00000001FF
