:02000002D0002C
:1040000000400D00685D0D00000006000D00050178
:084010000401BD0B00000000DB
:04401800F45A0D0049
:1040200009480A49884208B505D0094A824202D0A7
:10403000121A01F01DFD0748074A0021121A01F06B
:1040400025FD014808BD00BFA0E60320D45C0D009B
:104050000CE703200CE70320F0E7032070B5074EC0
:10406000074C00F071FFA41BA4080025A54200D155
:1040700070BD56F8043B98470135F7E7AC5C0D007E
:10408000D05C0D0000F01EB808B500F039F8BDE8AE
:10409000084000F01BBF00F025BA00F023BA00F082
:1040A00029BA0078B0FA80F0400970470123037004
:1040B000704710B50446006808B100F01BFA2046AE
:1040C00010BD000008B50C48002319461A46406888
:1040D00000F0D0F941F2883000F01CFA00F0AAFE9E
:1040E0004FF4165100F09AFE00F0A4FEBDE808401F
:1040F000024900F06EBC00BF20E70320085B0D0002
:1041000010B500F097FE184900F050FC00F092FE48
:10411000164B0446188800F087FF01F039F90EA30A
:10412000D3E9002301F09EF90DA3D3E9002301F0A8
:1041300099F941EC100B0221204600F03BFD00F004
:1041400079FE00F03AFCBDE810404FF47A7000F0C0
:10415000E1B900BFAFF300806666666666665A3FE7
:104160003EF8E0830F3E5340165B0D00A0E60320AF
:1041700010B500210A4C012000F030F90023236023
:10418000A380A3710320A3F58033A36000F016F988
:104190002046044A0449BDE8104000F09DBF00BF1E
:1041A00010E703200CE70320B3400D0008B5024BD5
:1041B0001B685B6C019308BD4802030008B5024B05
:1041C0001B689B6C019308BD4802030008B5024BB5
:1041D0001B685B68019308BD1802030008B5024B19
:1041E0001B685B69019308BD1802030008B5024B08
:1041F0001B685B68019308BD2C02030008B5024BE5
:104200001B681B6B019308BD2C02030008B5024B11
:104210001B681B6A019308BD2802030008B5024B06
:104220001B685B6A019308BD2802030008B5024BB6
:104230001B689B6A019308BD2802030008B5024B66
:104240001B68DB6A019308BD2802030008B5024B16
:104250001B681B6B019308BD2802030008B5024BC5
:104260001B685B6B019308BD2802030008B5024B75
:104270001B681B6C019308BD2802030008B5024BA4
:104280001B685B69019308BD6402030008B5024B1B
:104290001B689B68019308BD6802030008B5024BC8
:1042A0001B68DB68019308BD6802030008B5024B78
:1042B0001B68DB69019308BD3002030008B5024B9F
:1042C0001B681B6A019308BD3002030008B5024B4E
:1042D0001B681B68019308BD3C02030008B5024B34
:1042E0001B68DB68019308BD3C02030008B5024B64
:1042F0001B681B69019308BD3C02030008B5024B13
:104300001B685B69019308BD3C02030008B5024BC2
:104310001B689B69019308BD3C02030008B5024B72
:104320001B68DB69019308BD3C02030008B5024B22
:104330001B681B6A019308BD3C02030008B5024BD1
:104340001B689B6A019308BD3C02030008B5024B41
:104350001B681B68019308BD4C02030008B5024BA3
:104360001B685B68019308BD4C02030008B5024B53
:104370001B681B69019308BD4C02030008B5024B82
:104380001B685B69019308BD4C02030008B5024B32
:104390001B689B69019308BD4C02030008B5024BE2
:1043A0001B68DB69019308BD4C02030008B5024B92
:1043B0001B681B6A019308BD4C02030008B5024B41
:1043C0001B685B68019308BD2002030008B5024B1F
:1043D0001B685B69019308BD2002030008B5024B0E
:1043E0001B68DB6A019308BD2002030008B5034B7C
:1043F0001B68D3F88830019308BD00002002030039
:1044000008B5034B1B68D3F89430019308BD000036
:104410002002030008B5024B1B68DB6B019308BD4B
:104420004402030008B5024B1B685B68019308BD9A
:104430004002030008B5024B1B689B68019308BD4E
:104440004002030008B5024B1B68DB68019308BDFE
:104450004002030008B5024B1B681B69019308BDAD
:104460004002030008B5024B1B685B69019308BD5D
:104470004002030008B5024B1B689B69019308BD0D
:104480004002030008B5024B1B68DB69019308BDBD
:104490004002030008B5024B1B681B6A019308BD6C
:1044A0004002030008B5024B1B681B6B019308BD5B
:1044B0004002030008B5024B1B685B6B019308BD0B
:1044C0004002030008B5024B1B681B6C019308BD3A
:1044D0004002030008B5024B1B685B6C019308BDEA
:1044E0004002030008B5024B1B681B68019308BD1E
:1044F0001C02030008B5024B1B685B68019308BDF2
:104500001C02030008B5024B1B685B6C019308BDDD
:104510001C0203000021FFF759BF10B504460068D4
:1045200008B1FFF74BFE204610BD10B58368044666
:1045300013B1032201469847204610BD10B5064C22
:10454000002320462360FFF731FE2046034A04493A
:10455000BDE8104000F0C0BD1CE703200CE70320BD
:104560001B450D00002240681146FFF773BF002273
:1045700040681146FFF78EBF002240681146FFF7E2
:1045800099BF40680022FFF78DBF4068002281F08C
:104590000101FFF777BF002340681A461946FFF76D
:1045A00069BF002340681A461946FFF75BBF002227
:1045B00040681146FFF73EBF406800220221FFF726
:1045C00041BF002340681A46FFF72CBF084B10B5C7
:1045D000282422461846002101F058FA054B048091
:1045E0004FF0FF32426004225A60034A1A6010BD45
:1045F00028E7032020E70320305B0D0000224068FD
:104600001146FFF747BF002240681146FFF752BF2F
:1046100040680022FFF746BF4068002281F0010198
:10462000FFF730BF002340681A461946FFF722BF44
:10463000002340681A461946FFF714BF002240685D
:104640001146FFF707BF002240681146FFF7F2BE90
:10465000406800220221FFF7F5BE002340681A4699
:10466000FFF7E0BE024B03225A60024A1A6070470D
:1046700050E703206C5B0D007047F8B50646154601
:104680000C468F18BC4206D0336814F8011B9B6897
:1046900030469847F6E72846F8BD007C0022FFF731
:1046A000B5BD007C0021FFF7B9BD007C0021FFF7FC
:1046B000BDBD007C0021FFF7C1BD007C0021FFF7DC
:1046C000C5BD10B51421044600F00BFD204610BDF9
:1046D00010B54FF47A73044608460021C4E901136B
:1046E000034B236020741146FFF7C0FD204610BD28
:1046F000A85B0D00704710B51821044600F0F1FCCE
:10470000204610BDF0B5037D062B8DB00E4600F19E
:1047100004074FF0000412D000F1080515F8011D40
:104720000A22304600F05FF9AF42044419D0002C51
:10473000F4D02E21304600F03DF90444EEE72F235B
:104740006A4639460A208DF80040FFF797FD684613
:1047500001F0C8F933680246DB686946304698477D
:10476000044620460DB0F0BD10B5054B044611229D
:1047700040F8043B002101F089F9204610BD00BF3C
:10478000D05B0D000346074A10B543F8042B01F136
:10479000100251F8044B43F8044B9142F9D10A78C6
:1047A0001A7010BDD05B0D0010B59DF8084044EAAA
:1047B000032343EA024242EA016104234160037594
:1047C00010BD000013B5054B0360CB7800938B78C8
:1047D0004A780978FFF7E8FF02B010BDD05B0D0002
:1047E000014B024A1A60704758E70320DC5B0D005A
:1047F000002340681A46FFF715BE406800220221D8
:10480000FFF720BE002240681146FFF713BE0022CA
:1048100040681146FFF71EBE002340681A4619463D
:10482000FFF720BE002340681A461946FFF722BE54
:1048300040680021FFF746BE40680021FFF74ABEEE
:104840004068002281F00101FFF71CBE4068002291
:10485000FFF728BE002240681146FFF72BBE00225A
:1048600040681146FFF716BE2DE9F043002495B0CD
:1048700016460D460746FFF777FF214618220EA879
:10488000009401F003F94023CDE90C3421466B4636
:104890000CAA3046FFF702FD044600284CD1024620
:1048A00001216868FFF7D6FD02218046224668682C
:1048B000FFF7D0FD009E81462146002E3CD0002906
:1048C0003AD17368022B03D00A2B11D0F669F4E7B2
:1048D000B8F1000F0AD0716906A8043107ADFFF7DF
:1048E00071FF0FCD3C1D0FC42B6823704146EDE7CF
:1048F000B9F1000F01D14946E8E77469102201A817
:1049000001F0C4F806238DF8143001AD04F108035A
:104910001834186859682A4603C20833A34215465A
:10492000F7D101A906A807ADFFF72CFF0FCD3C1D5D
:104930000FC42B682370DEE70098FFF7A7FC38460A
:1049400015B0BDE8F0830000024B034A1A60002254
:104950005A6070475CE70320E85B0D00F8B5064637
:104960000D468F180024BD420CD0336815F8011B8A
:104970009B6830469847031E01DB1C44F3E7002C7C
:1049800008BF1C462046F8BD13B50446084659B179
:10499000019101F0A7F823680199DB6802462046DF
:1049A00002B0BDE81040184702B010BD08B5FFF7CF
:1049B000EBFF08BD03689B68184738B50D21054615
:1049C000FFF7F8FF0A2104462846FFF7F3FF2044CB
:1049D00038BD38B50546FFF7D7FF04462846FFF730
:1049E000ECFF204438BD30B58BB000238DF8243067
:1049F000012A98BF0A2209AC0D46B1FBF2F101FB76
:104A0000125303F0FF03092B94BF30333733DBB26B
:104A1000AA4204F8013DEFD92146FFF7B5FF0BB0DC
:104A200030BD00002DE9F74F55EC104B06460F4600
:104A300010EE102A10EE100A2B46294600F0ACFFAB
:104A400040B153493046FFF79FFF8246504603B0BE
:104A5000BDE8F08F25F000494E4B4FF0FF32204665
:104A6000494600F099FF48B94A4B4FF0FF322046C3
:104A7000494600F073FF08B94749E3E7474B4FF059
:104A800060422046294600F07DFF08B14449D9E73D
:104A9000444B4FF060422046294600F055FF002865
:104AA000F4D1002200232046294600F04DFFD0B16A
:104AB0002D213046FFF77EFF05F1004382461D465B
:104AC0003949DFF8EC904FF0000B00204FF0000860
:104AD0005FFA8BF39F4208D942464B4600F0ECFD4B
:104AE0000BF1010BF4E78246EAE722462B4600F081
:104AF00003FB0D46044600F08DFF804600F038FCB5
:104B000002460B462046294600F0F4FA0A220446E3
:104B10000D4630464146FFF766FF824427B12349E0
:104B20003046FFF731FF8244DFF884904FF00008F1
:104B3000013FFFB2FF2F89D042464B46204629460F
:104B400000F090FC04460D4600F03CFFB0F1000B75
:104B50001ADA2D213046FFF72DFFCBF10001034675
:104B60000A2230460193FFF73EFF019B184482441E
:104B7000584600F00DFC02460B462046294600F040
:104B8000B9FA04460D46D3E759460023E8E700BFCB
:104B90001C5C0D00FFFFEF7F205C0D00FFFFEF416D
:104BA000245C0D00FFFFEFC10000E03F285C0D001A
:104BB00000002440C9B2FFF735BF10B50446FFF727
:104BC000B4FC204610BD00000348044A04490023F9
:104BD000836000F081BA00BF64E703200CE7032084
:104BE000BB4B0D0010B5044608462170FFF75EFB75
:104BF00000236360204610BD10B5094B094C02220A
:104C000000201A60084B2060A080A071A360FFF70D
:104C1000D5FB2046054A0649BDE8104000F05CBAC5
:104C200080E7032074E703200000FFFF0CE7032068
:104C3000B3400D00024B1A68024B1A60704700BF68
:104C4000A4E6032084E7032070474174704708B549
:104C5000007CFFF773FB20EAE07008BD08B5007C1C
:104C6000FFF744FB20EAE07008BD08B5007CFFF7C1
:104C70004DFB40EAE07008BD08B5007CFFF73EFB45
:104C800040EAE07008BD007CFFF748BB37B5457CC3
:104C900004462DB1207C03B0BDE83040FFF71EBBB9
:104CA000007C0191FFF74AFB00280199F2DC2846BD
:104CB00003B030BD10B51421044600F012FA2046AE
:104CC00010BD000010B54FF0000C04460846114618
:104CD0004FF47A72C4E901C2044A226001222074AE
:104CE00062741A46FFF7F2FA204610BD505C0D00C0
:104CF000F7B51B4C26684EB98420FFF7CCF9054662
:104D000018B18422314600F0C1FE2560154D2F6890
:104D10004FB98420FFF7BFF9064618B184223946FF
:104D200000F0B4FE2E60104E3178BFF35B8F11F0AF
:104D3000010112D130460191FFF7B3F9019960B139
:104D400022682B680948FFF7BDFF3046FFF7AEF930
:104D5000074A0849054800F0BFF9044803B0F0BD10
:104D60008CE7032090E7032088E7032094E70320E3
:104D70000CE70320494C0D0041747047704708B59B
:104D80000021007CFFF702FB40EAE07008BD08B597
:104D90000121007CFFF7FAFA40EAE07008BD08B58F
:104DA000007CFFF7EBFA20EAE07008BD08B5007C54
:104DB000FFF7DCFA20EAE07008BD13B50446007C7A
:104DC0000191FFF7DBFA0028019901DC607C20B13A
:104DD000207CFFF7E3FA20EAE07002B010BD007C0F
:104DE000FFF7E4BA10B51421044600F07AF9204622
:104DF00010BD000010B54FF47A7304460846002138
:104E0000C4E90113044B2360012320746374114629
:104E1000FFF79CFA204610BD805C0D00007C00224C
:104E2000FFF79CBA10B514220446002100F02EFEB4
:104E3000204610BD10B5104C88B003A8FFF7F2FF54
:104E40002178BFF35B8F11F0010111D12046019150
:104E5000FFF727F9019958B103AA0848FFF7CAFFDD
:104E60002046FFF723F9064A0649044800F034F9C2
:104E7000024808B010BD00BFA8E70320ACE703203C
:104E80000CE703207D4D0D00014B1860704700BFFB
:104E9000A8E6032008B50B4B43B1FFF7CBFF03682F
:104EA0001B699847002801DDAFF30080064B43B132
:104EB000FFF71EFF03681B699847002801DDAFF369
:104EC000008008BD000000000000000008B5FFF7EA
:104ED000E1FFFFF783F9014B186008BDD4E7032019
:104EE0000248034A0349121A00F0C2BD00F403202D
:104EF00004F40320D05C0D0007B5002300931A468C
:104F00006FF07701FFF77CFA03B05DF804FB000057
:104F100007B543880A2B08D0502B0BD1094B1B68CF
:104F20004BB103B05DF804EB1847FFF7E5FF03B0A2
:104F30005DF804FB002300931A466FF07701FFF73A
:104F40005FFAF4E7C4E7032038B5124C1248134D5A
:104F50000021FFF7D7FA2368AB42114B0CBF0122A7
:104F600000221A7002D0FFF7BBFF2560FFF72EF971
:104F7000044600F093FD0B4B13B12046AFF30080C5
:104F800000210848FFF746FABDE8384006480021EE
:104F9000FFF72CBA00F40320894E0D001E1C279A3F
:104FA000C0E7032000000000114F0D00232813B5B7
:104FB00002D9002002B010BDA0F10B03022B1AD8B9
:104FC000174C2178BFF35B8F11F001010BD1204604
:104FD0000191FFF766F8019928B11248FFF702FE28
:104FE0002046FFF763F80F4B1878FFF767F90028A2
:104FF000DFD10120DEE7012809D800F045F80021C3
:10500000007CFFF72BF980F00100C0B2D2E709382D
:105010000128EED8FFF76CFE007CFFF787F9F2E776
:10502000C8E70320CCE703200D2810B504469CBF39
:105030000E34A4B22046FFF7B9FF50B10321204639
:10504000FFF7D4F8032804D12046BDE81040FFF74D
:10505000D5B8002010BD000038B5002320254380BE
:10506000142304460380856005610649284600F044
:105070003AF804496060284600F035F8E0602046C0
:1050800038BD00BFA85C0D0030B50F4D2978BFF3C7
:105090005B8F11F0010487B013D12846FFF701F8A8
:1050A00078B101A8FFF7D8FF01AA21460748FFF70A
:1050B0000FFB2846FEF7FAFF054A0649034800F0B1
:1050C0000BF8024807B030BDD8E70320DCE7032027
:1050D0000CE7032079460D000B460146184600F008
:1050E000B9BCFEF7DCBFFEF7D8BF000081F000417D
:1050F00002E000BF83F0004330B54FEA41044FEABD
:10510000430594EA050F08BF90EA020F1FBF54EA57
:10511000000C55EA020C7FEA645C7FEA655C00F0F3
:10512000E2804FEA5454D4EB5555B8BF6D420CDDC4
:105130002C4480EA020281EA030382EA000083EA47
:10514000010180EA020281EA0303362D88BF30BDE7
:1051500011F0004F4FEA01314FF4801C4CEA11313D
:1051600002D0404261EB410113F0004F4FEA03339C
:105170004CEA133302D0524263EB430394EA050F27
:1051800000F0A780A4F10104D5F1200E0DDB02FA96
:105190000EFC22FA05F2801841F1000103FA0EF22A
:1051A000801843FA05F359410EE0A5F120050EF1F0
:1051B000200E012A03FA0EFC28BF4CF0020C43FA21
:1051C00005F3C01851EBE37101F0004507D54FF02E
:1051D000000EDCF1000C7EEB00006EEB0101B1F57E
:1051E000801F1BD3B1F5001F0CD349085FEA3000C4
:1051F0004FEA3C0C04F101044FEA445212F5800FCF
:1052000080F09A80BCF1004F08BF5FEA500C50F16B
:10521000000041EB045141EA050130BD5FEA4C0C4E
:10522000404141EB0101013C28BFB1F5801FE9D2AB
:1052300091F0000F04BF01460020B1FA81F308BFCE
:105240002033A3F10B03B3F120020CDA0C3208DD9A
:1052500002F1140CC2F10C0201FA0CF021FA02F175
:105260000CE002F11402D8BFC2F1200C01FA02F1E5
:1052700020FA0CFCDCBF41EA0C019040E41AA2BF0A
:1052800001EB0451294330BD6FEA04041F3C1CDAD2
:105290000C340EDC04F11404C4F1200220FA04F0F2
:1052A00001FA02F340EA030021FA04F345EA03019C
:1052B00030BDC4F10C04C4F1200220FA02F001FA5E
:1052C00004F340EA0300294630BD21FA04F02946E0
:1052D00030BD94F0000F83F4801306BF81F4801179
:1052E0000134013D4EE77FEA645C18BF7FEA655CEC
:1052F00029D094EA050F08BF90EA020F05D054EABE
:10530000000C04BF1946104630BD91EA030F1EBFC2
:105310000021002030BD5FEA545C05D140004941C6
:1053200028BF41F0004130BD14F580043CBF01F5B9
:10533000801130BD01F0004545F0FE4141F470019F
:105340004FF0000030BD7FEA645C1ABF194610467A
:105350007FEA655C1CBF0B46024650EA013406BF7B
:1053600052EA033591EA030F41F4002130BD00BF3A
:1053700090F0000F04BF0021704730B54FF48064F7
:1053800004F132044FF000054FF0000150E700BF78
:1053900090F0000F04BF0021704730B54FF48064D7
:1053A00004F1320410F0004548BF40424FF00001C4
:1053B0003EE700BF42004FEAE2014FEA31014FEA07
:1053C00002701FBF12F07F4393F07F4F81F0605156
:1053D000704732F07F4208BF704793F07F4F04BFA1
:1053E00041F40021704730B54FF4607401F000457E
:1053F00021F000411CE700BF50EA010208BF7047DE
:1054000030B54FF000050AE050EA010208BF7047CE
:1054100030B511F0004502D5404261EB41014FF437
:10542000806404F132045FEA915C3FF4D8AE4FF03F
:1054300003025FEADC0C18BF03325FEADC0C18BF22
:10544000033202EBDC02C2F1200300FA03FC20FA73
:1054500002F001FA03FE40EA0E0021FA02F11444C0
:10546000BDE600BF70B54FF0FF0C4CF4E06C1CEAD9
:1054700011541DBF1CEA135594EA0C0F95EA0C0F4A
:1054800000F0DEF82C4481EA030621EA4C5123EABD
:105490004C5350EA013518BF52EA033541F48011EC
:1054A00043F4801338D0A0FB02CE4FF00005E1FB9F
:1054B00002E506F00042E0FB03E54FF00006E1FBE9
:1054C00003569CF0000F18BF4EF0010EA4F1FF042C
:1054D000B6F5007F64F5407404D25FEA4E0E6D416C
:1054E00046EB060642EAC62141EA55514FEAC5207D
:1054F00040EA5E504FEACE2EB4F1FD0C88BFBCF5F9
:10550000E06F1ED8BEF1004F08BF5FEA500E50F1A9
:10551000000041EB045170BD06F0004646EA01016F
:1055200040EA020081EA0301B4EB5C04C2BFD4EBA1
:105530000C0541EA045170BD41F480114FF0000E9A
:10554000013C00F3AB8014F1360FDEBF002001F008
:10555000004170BDC4F10004203C35DA0C341BDC82
:1055600004F11404C4F1200500FA05F320FA04F054
:1055700001FA05F240EA020001F0004221F0004188
:1055800010EBD37021FA04F642EB06015EEA430EFB
:1055900008BF20EAD37070BDC4F10C04C4F120052B
:1055A00000FA04F320FA05F001FA04F240EA0200DE
:1055B00001F0004110EBD37041F100015EEA430EAF
:1055C00008BF20EAD37070BDC4F1200500FA05F2CF
:1055D0004EEA020E20FA04F301FA05F243EA02034E
:1055E00021FA04F001F0004121FA04F220EA02005D
:1055F00000EBD3705EEA430E08BF20EAD37070BDA3
:1056000094F0000F0FD101F00046400041EB010182
:1056100011F4801F08BF013CF7D041EA060195F064
:10562000000F18BF704703F00046520043EB03031E
:1056300013F4801F08BF013DF7D043EA060370470B
:1056400094EA0C0F0CEA135518BF95EA0C0F0CD016
:1056500050EA410618BF52EA4306D1D181EA03015C
:1056600001F000414FF0000070BD50EA410606BF56
:105670001046194652EA430619D094EA0C0F02D19B
:1056800050EA013613D195EA0C0F05D152EA0336E0
:105690001CBF104619460AD181EA030101F00041FE
:1056A00041F0FE4141F470014FF0000070BD41F047
:1056B000FE4141F4780170BD70B54FF0FF0C4CF421
:1056C000E06C1CEA11541DBF1CEA135594EA0C0F40
:1056D00095EA0C0F00F0A7F8A4EB050481EA030E8D
:1056E00052EA03354FEA013100F088804FEA033374
:1056F0004FF0805545EA131343EA12634FEA022242
:1057000045EA111545EA10654FEA00260EF0004102
:105710009D4208BF964244F1FD0404F5407402D254
:105720005B084FEA3202B61A65EB03055B084FEAE5
:1057300032024FF480104FF4002CB6EB020E75EBE2
:10574000030E22BFB61A754640EA0C005B084FEA0A
:105750003202B6EB020E75EB030E22BFB61A754687
:1057600040EA5C005B084FEA3202B6EB020E75EBD2
:10577000030E22BFB61A754640EA9C005B084FEA4A
:105780003202B6EB020E75EB030E22BFB61A754657
:1057900040EADC0055EA060E18D04FEA051545EA46
:1057A00016754FEA06164FEAC30343EA52734FEAEF
:1057B000C2025FEA1C1CC0D111F4801F0BD141EA68
:1057C00000014FF000004FF0004CB6E711F4801FCD
:1057D00004BF01430020B4F1FD0C88BFBCF5E06FAD
:1057E0003FF6AFAEB5EB030C04BFB6EB020C5FEABD
:1057F000500C50F1000041EB045170BD0EF0004E12
:105800004EEA113114EB5C04C2BFD4EB0C0541EA43
:10581000045170BD41F480114FF0000E013C90E640
:1058200045EA060E8DE60CEA135594EA0C0F08BF04
:1058300095EA0C0F3FF43BAF94EA0C0F0AD150EA03
:1058400001347FF434AF95EA0C0F7FF425AF104696
:1058500019462CE795EA0C0F06D152EA03353FF4BE
:10586000FDAE1046194622E750EA410618BF52EA3B
:1058700043067FF4C5AE50EA41047FF40DAF52EA0F
:1058800043057FF4EBAE12E74FF0FF3C06E000BFAC
:105890004FF0010C02E000BF4FF0010C4DF804CDB9
:1058A0004FEA410C7FEA6C5C4FEA430C18BF7FEA79
:1058B0006C5C1BD001B050EA410C0CBF52EA430CA7
:1058C00091EA030F02BF90EA020F0020704710F127
:1058D000000F91EA030F58BF994208BF90422CBFB6
:1058E000D8176FEAE37040F0010070474FEA410CAF
:1058F0007FEA6C5C02D150EA013C07D14FEA430CCD
:105900007FEA6C5CD6D152EA033CD3D05DF8040B3D
:10591000704700BF8446104662468C46194663466F
:1059200000E000BF01B5FFF7B7FF002848BF10F146
:10593000000F01BD4DF808EDFFF7F4FF0CBF01208B
:1059400000205DF808FB00BF4DF808EDFFF7EAFF07
:1059500034BF012000205DF808FB00BF4DF808EDC2
:10596000FFF7E0FF94BF012000205DF808FB00BFB7
:105970004DF808EDFFF7CEFF94BF012000205DF841
:1059800008FB00BF4DF808EDFFF7C4FF34BF01204E
:1059900000205DF808FB00BF4FEA410C7FEA6C5C19
:1059A00002D150EA013C0AD14FEA430C7FEA6C5C19
:1059B00002D152EA033C02D14FF0000070474FF091
:1059C000010070474FEA410212F5001215D211D5BD
:1059D0006FF47873B3EB625212D94FEAC12343F0EC
:1059E000004343EA505311F0004F23FA02F018BF6E
:1059F000404270474FF00000704750EA013005D137
:105A000011F0004008BF6FF0004070474FF00000F9
:105A1000704700BF4A0011D212F5001211D20DD505
:105A20006FF47873B3EB62520ED44FEAC12343F0A4
:105A3000004343EA505323FA02F070474FF000004E
:105A4000704750EA013002D14FF0FF3070474FF0FD
:105A50000000704710B5054C13462CB10A460146AC
:105A60000220AFF3008010BD2046FCE700000000DC
:105A70000A44914200F1FF3300D1704710B511F88C
:105A8000014B03F8014F9142F9D110BD0244034686
:105A9000934200D1704703F8011BF9E738B50D4B6D
:105AA0001D68AB6B04467BB91820FEF71BFD0A4A44
:105AB0000A4BA863C0E90023094B83600B23838151
:105AC00001220023C0E90423AB6B00221C615A6150
:105AD00038BD00BFA8E603200E33CDAB34126DE60F
:105AE000ECDE0500034613F8012B002AFBD1181A3F
:105AF0000138704721400D005D400D0085400D00CC
:105B000089400D00000000004D6178626F74697873
:105B100020546573740044697374616E6365286909
:105B20006E293A2000000000000000000000000084
:105B3000C3450D00B9450D00AF450D0065450D008D
:105B4000A3450D0097450D0031480D0039480D0063
:105B50008B450D0083450D0079450D006F450D0007
:105B600069480D0000000000000000005B460D00C9
:105B700051460D0047460D003D460D0031460D00D3
:105B800025460D0031480D0039480D0019460D001D
:105B900011460D0007460D00FD450D0069480D003A
:105BA000000000000000000079460D00C3460D0013
:105BB0009B460D007B460D00A3460D00AB460D0035
:105BC000B3460D00BB460D000000000000000000C1
:105BD00005470D00F5460D00F7460D006170700099
:105BE0000000000000000000F1470D00FB470D0021
:105BF00005480D000F480D0019480D0025480D00FF
:105C000031480D0039480D0041480D004D480D0048
:105C100055480D005F480D0069480D006E616E002B
:105C2000696E66006F7666002E0025592D256D2D54
:105C300025645425483A254D3A2553257A00617349
:105C40006374696D65000000000000000000000042
:105C5000494C0D00B54C0D008D4C0D005D490D00FB
:105C60005D4C0D00794C0D006B4C0D00874C0D0008
:105C70004B4C0D004F4C0D000000000000000000D8
:105C80007D4D0D00E54D0D00BB4D0D005D490D0036
:105C9000AD4D0D007F4D0D008F4D0D00DF4D0D0002
:105CA0009F4D0D00794D0D000000000071410D0069
:105CB0003D450D00CD450D0065460D00E1470D0049
:105CC00049490D00C94B0D00F94B0D00354C0D0035
:045CD00000000000D0
:105CD400130000003E5C0D00ACE603200000000051
:105CE40000000000000000000000000000000000B0
:105CF40000000000000000000000000000000000A0
:105D0400000000000000000000000000000000008F
:105D1400000000000000000000000000000000007F
:105D2400000000000000000000000000000000006F
:0C5D340000000000000000000000000063
:105D4000FFFFFFFF00000102030405060708090A20
:105D50000B0C0D0E0F101112131415161718191A1B
:085D60001B1C1D1E1F20280062
:045D68007856341223
:04000003D0004020C9
:00000001FF
