:02000002B0004C
:1040000000400B00B0700B00000006000D00050220
:084010000401A60F00000000EE
:04401800406C0B00ED
:1040200009480A49884208B505D0094A824202D0A7
:10403000121A02F035FD0748074A0021121A02F051
:104040003DFD014808BD00BF3CE1032018700B0096
:10405000ACE10320ACE10320EDE7032070B5074E8F
:10406000074C01F0C5FEA41BA4080025AC4200D1FA
:1040700070BD56F8043B98470135F7E7C06F0B0059
:10408000E46F0B0000F056B808B500F069F8BDE821
:10409000084001F065BE00F0B5BC00F0B3BC00F014
:1040A000B9BC0078B0FA80F0400970470123037072
:1040B0007047704710B510210446FFF7F0FF204607
:1040C00010BD0EB403B503AB002153F8042B0193CC
:1040D00001F027FC02B05DF804EB03B0704700006C
:1040E00073B5044608462279A36832B1A3B90B49D7
:1040F00002B0BDE8704001F0E8BA094A267B094DDC
:104100000949647B012E18BF2946CDE900140749EF
:10411000FFF7D7FF02B070BD054AEFE7656C0B00F3
:104120005C6C0B00616C0B005D6C0B007B6C0B001E
:10413000546C0B0008B500F0DDFB41F2883000F054
:10414000A1FC01F0C5FD4FF4165101F0B5FD01F0E1
:10415000BFFDBDE80840014901F0CABA986C0B00E8
:104160002DE9F047A64E2DED028B3378A8B03BB178
:10417000012B00F0FB8028B0BDEC028BBDE8F0877E
:10418000A04FDFF8B4A20FF26829D9E900899AA5F7
:10419000D5E9004500223A60CAF80030DAF800306C
:1041A000632B30DC122001F093FE07EE900AF8EE4C
:1041B000E77A17EE900A02F0CDF842464B4602F03D
:1041C00021F902F017FC02F0C5F82B46224602F056
:1041D00019F902F00FFCD7ED007A08EE100A77EE1D
:1041E000887AC7ED007A01F073FD0221B0EE480A2B
:1041F00001F088FB642000F045FCDAF80030013360
:10420000CAF80030CAE707EE903AD7ED006A7E4D53
:10421000F8EEE77A86EEA77A85ED007A01F058FD90
:10422000DAF80040002C804680F284802D2101F0D5
:1042300050FA61420A22404601F064FA01F048FD5A
:104240007249DFF8F891DFF8F8A1DFF8F88101F0A2
:104250003CFA01F03DFD97ED000A6D4F022101F09F
:1042600037FB01F035FD694901F02FFA01F030FD0F
:1042700095ED000A022101F045FB00F0A3F938603A
:1042800000F040FB30B900F035FB01F021FD49465C
:1042900001F01BFA00F036FB044600284CD05D48C4
:1042A00000F0E2FF5B4810EE104A00F0F9FF10EE5C
:1042B000107A01F043FC0790384602F04BF8CDE944
:1042C0000401204602F046F8CDE90201286802F018
:1042D00041F8079B504ACDE9000178210AA800F077
:1042E000A1FB01F0F5FC4D4901F002FA4C4B4D49A0
:1042F0001B788DF8003009683C230AAA08A800F052
:104300008FFD099C7CB16368013B63605BB92368E6
:1043100020469B689847A368013BA3601BB92368AC
:104320002046DB6898474FF47A6000F0ABFB01232E
:10433000337020E721467DE700F044F93B68C01A5E
:104340004EF65F23984206D90124347001F0C0FC78
:10435000514601F0CDF901F0BBFC414601F0C8F92E
:10436000642000F08FFB002C8AD004E701F0B0FC41
:104370002D4C2E4901F0BCF94FF4FA7000F082FB8D
:10438000237D002B73D0022323722368DB68CBB11B
:104390009A88012A06D09B68F9E79B6893B19A88AE
:1043A000012AFAD19A89022AF7D19A73237D002B28
:1043B0005DD02368DB68002B46D09A88042A69D038
:1043C0009B68F8E71A49102001F058FE05460028BE
:1043D00063D01022002102F071FB164B2B600123E9
:1043E000AB802369AB600223AB81AB732561DDE752
:1043F0006666666666666A3F65934D36D964634055
:104400007CE60320ECE10320E8E10320A66C0B002E
:1044100080E60320C8E10320BA6C0B00CF6C0B00D0
:10442000C4E103203CE10320D0E103203F6D0B00F9
:104430004C6F0B0010000300F0E10320A86C0B0090
:10444000DF6C0B001C6D0B001549102001F016FEEF
:10445000054610B31022002102F030FB114B2B60F7
:104460000423AB802369AB600F4BEB6025610AA886
:104470000E4901F0C7FA0A9808B100F0CBFA01F032
:1044800027FC0B4901F021F900F09CF8094B18605A
:1044900000234DE7044ADA60E9E72575E7E700BF46
:1044A0004C6F0B0010000300C0D40100D0E10320CA
:1044B0004E6D0B0080E6032037B5264B264C274D6A
:1044C000012264211A70C4F8601400232449636037
:1044D000C4F83C34C4F86834C4F8701484F8742404
:1044E000C4F87834A4F87C342978BFF35B8F11408A
:1044F0000BD128460191FFF7D4FD019928B1194845
:1045000001F046FA2846FFF7D1FD164BC4F86C348B
:10451000154B164A9A600024C3E90044022000F0BB
:1045200089F92146012000F095F92146104800F054
:104530004FFE21460F4801F0AAF80F4B1A1D1A60D2
:104540000E4A5A600122C3E902441C611A7503B085
:1045500030BD00BFC4E10320F8E10320ACE103203B
:10456000686D0B00B0E10320B8E103200000FFFFFD
:10457000C8E10320F4E10320D0E103201000030090
:1045800013B50446084659B1019102F0EAFA2368CE
:104590000199DB680246204602B0BDE8104018478A
:1045A00002B010BD08B5024B1B685B6C019308BDDF
:1045B0004802030008B5024B1B685B68019308BD05
:1045C0001802030008B5024B1B685B69019308BD24
:1045D0001802030008B5024B1B689B6D019308BDD0
:1045E0001802030008B5024B1B685B6E019308BDFF
:1045F0001802030008B5024B1B685B68019308BDF5
:104600002C02030008B5024B1B681B6B019308BD0D
:104610002C02030008B5024B1B689B69019308BD7F
:104620002802030008B5024B1B68DB69019308BD33
:104630002802030008B5024B1B681B6A019308BDE2
:104640002802030008B5024B1B685B6A019308BD92
:104650002802030008B5024B1B689B6A019308BD42
:104660002802030008B5024B1B68DB6A019308BDF2
:104670002802030008B5024B1B681B6B019308BDA1
:104680002802030008B5024B1B685B6B019308BD51
:104690002802030008B5024B1B681B6C019308BD80
:1046A0002802030008B5024B1B689B6C019308BDF0
:1046B0002802030008B5024B1B68DB6C019308BDA0
:1046C0002802030008B5024B1B681B6D019308BD4F
:1046D0002802030008B5024B1B685B69019308BD03
:1046E0006402030008B5024B1B689B68019308BD78
:1046F0006802030008B5024B1B68DB68019308BD24
:104700006802030008B5024B1B68DB69019308BD12
:104710003002030008B5024B1B681B6A019308BDF9
:104720003002030008B5024B1B68DB68019308BD2B
:104730003C02030008B5024B1B681B69019308BDCE
:104740003C02030008B5024B1B685B69019308BD7E
:104750003C02030008B5024B1B689B69019308BD2E
:104760003C02030008B5024B1B68DB69019308BDDE
:104770003C02030008B5024B1B681B6A019308BD8D
:104780003C02030008B5024B1B689B6A019308BDFD
:104790003C02030008B5024B1B681B6C019308BD6B
:1047A0003C02030008B5024B1B681B68019308BD5F
:1047B0004C02030008B5024B1B685B68019308BDFF
:1047C0004C02030008B5024B1B681B69019308BD2E
:1047D0004C02030008B5024B1B685B69019308BDDE
:1047E0004C02030008B5024B1B689B69019308BD8E
:1047F0004C02030008B5024B1B68DB69019308BD3E
:104800004C02030008B5024B1B681B6A019308BDEC
:104810004C02030008B5024B1B681B6D019308BDD9
:104820006002030008B5024B1B681B68019308BDBA
:104830002002030008B5024B1B685B68019308BDAA
:104840002002030008B5024B1B685B69019308BD99
:104850002002030008B5024B1B68DB6A019308BD08
:104860002002030008B5024B1B68DB6C019308BDF6
:104870002002030008B5024B1B685B6D019308BD65
:104880002002030008B5024B1B689B6D019308BD15
:104890002002030008B5034B1B68D3F8883001934E
:1048A00008BD00002002030008B5034B1B68D3F8C5
:1048B0009430019308BD00002002030008B5034BAB
:1048C0001B68D3F8AC30019308BD00002002030040
:1048D00008B5034B1B68D3F8B430019308BD000042
:1048E0002002030008B5024B1B689B68019308BDBA
:1048F0004402030008B5024B1B68DB68019308BD46
:104900004402030008B5024B1B685B69019308BDB4
:104910004402030008B5024B1B681B6A019308BDE3
:104920004402030008B5024B1B681B6B019308BDD2
:104930004402030008B5024B1B68DB6B019308BD02
:104940004402030008B5024B1B685B68019308BD75
:104950004002030008B5024B1B689B68019308BD29
:104960004002030008B5024B1B68DB68019308BDD9
:104970004002030008B5024B1B681B69019308BD88
:104980004002030008B5024B1B685B69019308BD38
:104990004002030008B5024B1B689B69019308BDE8
:1049A0004002030008B5024B1B68DB69019308BD98
:1049B0004002030008B5024B1B681B6A019308BD47
:1049C0004002030008B5024B1B681B6B019308BD36
:1049D0004002030008B5024B1B685B6B019308BDE6
:1049E0004002030008B5024B1B681B6C019308BD15
:1049F0004002030008B5024B1B685B6C019308BDC5
:104A00004002030008B5024B1B681B68019308BDF8
:104A10001C02030008B5024B1B685B68019308BDCC
:104A20001C02030008B5024B1B68DB69019308BD3B
:104A30001C02030008B5024B1B685B6A019308BDAA
:104A40001C02030008B5024B1B68DB6A019308BD1A
:104A50001C02030008B5024B1B681B6B019308BDC9
:104A60001C02030008B5024B1B681B6C019308BDB8
:104A70001C02030008B5024B1B685B6C019308BD68
:104A80001C0203000021FFF7DDBE10B58368044659
:104A90000BB901F0F7FAC3689847A3681BB103226A
:104AA00021462046984720461021BDE81040FFF7D8
:104AB000F6BA10B58368044613B10322014698473D
:104AC000204610BD10B54368013B0446436063B9FE
:104AD00003689B689847A368013BA3602BB92368D0
:104AE0002046DB68BDE81040184710BD10B50446ED
:104AF000006808B1FFF7E6FF204610BD13B50B466E
:104B00000246D0E900016C4684E8030093E8030004
:104B100082E8030094E8030083E8030002B010BDBC
:104B2000024800230360FFF73DBD00BF84E6032079
:104B3000002240681146FFF71DBF00224068114661
:104B4000FFF738BF002240681146FFF743BF4068B7
:104B50000022FFF737BF4068002281F00101FFF714
:104B600021BF002340681A461946FFF713BF0023F0
:104B700040681A461946FFF705BF002240681146F3
:104B8000FFF7E8BE406800220221FFF7EBBE0023DA
:104B900040681A46FFF7D6BE084B10B528242246B7
:104BA0001846002101F08AFF054B04804FF0FF32C8
:104BB000426004225A60034A1A6010BD90E6032046
:104BC00088E603208C6D0B0070470020704710B5FD
:104BD00010210446FFF763FA204610BD08B5FFF721
:104BE000F6FF08BD30B500224FF69C740260848049
:104BF0008D888C800C68858004600A6030BD10B59B
:104C000004460068FFF706FF204610BD38B5C468AB
:104C1000F4B12378022B03D104F10C00FFF7EFFF6E
:104C2000656835B12846FFF744FF10212846FFF795
:104C300036FAA56835B12846FFF73BFF1021284614
:104C4000FFF72DFA20461421BDE83840FFF727BAB8
:104C500038BD0B6803604B68436013B15A6801327A
:104C60005A60704737B5044668460D46FFF7F1FFB6
:104C7000009B019A23606260002301A801930093C6
:104C8000FFF734FF35B1281DFFF730FF0821284614
:104C9000FFF705FA204603B030BD826810B50AB9A7
:104CA00001F0F0F9BDE81040C368184708B5006886
:104CB00000F11001FFF7F1FF08BD826810B50AB9D5
:104CC00001F0E0F9BDE81040C368184708B5006876
:104CD00000F11001FFF7F1FF08BD000038B5002317
:104CE0000446036010200D46FFF7D5F928B10123D3
:104CF000C0E90133024B0360C5602060204638BD27
:104D0000C86D0B0038B5002383608B6804460D46E0
:104D10002BB102229847EB68E360AB68A3602046A2
:104D200038BD0000F0B589B004686846FFF75AFF47
:104D30004FF00203D4E84F2F002A03D1C4E8413FCB
:104D40000029F7D125D104F10C0569462846FFF763
:104D500049FFBFF35B8F01236370002004F1080358
:104D6000BFF35B8F53E8006F43E80002002AF9D1DC
:104D7000BFF35B8F6EB1FFF775FD78B12946304602
:104D8000FFF78BFF3046FFF794FE10213046FFF708
:104D900086F96846FFF733FF09B0F0BD314602A837
:104DA000FFF7B0FFE068B4F9105008B101F0BCFEA5
:104DB00006901020ADF81C50FFF76DF90546E8B1DC
:104DC000002787601820FFF766F9044688B101467E
:104DD000876002A8FFF792FE049BA268A360059B70
:104DE000049206A9E268E36004F110000592FFF75F
:104DF000F9FE084BEB60084B2C60AB6006A8FFF790
:104E0000FEFE02A8FFF755FE002229460348FFF7E1
:104E100031FDB7E7AD4C0B00314F0B008B4A0B0057
:104E20002DE9F04F8BB005469DF850A00F469046F7
:104E30009946FFF767FD07AE834638BB4FF62E73E2
:104E4000059005A93046ADF81830FFF7CBFE1420C9
:104E5000FFF721F9044648B1022303700123C0E99A
:104E600001BB437031460C30FFF7BCFE284621469B
:104E700040F8044BFFF732FF3046FFF7C0FE05A8AD
:104E8000FFF7BDFE28460BB0BDE8F08F0C230024D1
:104E90001420CDE908440793FFF7FDF8014618B147
:104EA000C0E901440470447004A80391FFF716FFA1
:104EB0001E4B08930820FFF7EEF8044610B103A933
:104EC000FFF7C7FE00965FFA8AF34A464146384626
:104ED0000994FFF71FFDB8B9039B5B7803F0FF024D
:104EE00093B94FF69C7305A903A80592ADF8183045
:104EF000FFF718FF05A8FFF782FE05A80999FFF73D
:104F0000B1FE06A8FFF7F2FD03A905A8FFF7A1FE71
:104F1000059B069A2B606A60002306A806930593FA
:104F2000FFF7E4FD04A8FFF7E1FDABE7AD4F0B0091
:104F3000012AF8B5054603D10B6803600020F8BDCF
:104F4000022A10D0032AF9D10468002CF6D004F10B
:104F50001000FFF754FE2046FFF7ABFD1821204656
:104F6000FFF79DF8EAE718200E68FFF794F804466B
:104F700050B13146FFF7C6FE3069B6F9147008B17A
:104F800001F0D2FD2061A7822C60D7E738B500235D
:104F900083608B6804460D462BB102229847EB686C
:104FA000E360AB68A360204638BD0000F0B589B06F
:104FB00004460D4601A81146FFF754FEA4B124B2E1
:104FC0001DB1284601F0B0FD054601A803A90395CF
:104FD000ADF81040FFF7A6FE03A8FFF710FE02A8E9
:104FE000FFF784FD09B0F0BD019D0123D5E84F2FE7
:104FF000002A03D1C5E8413F0029F7D1EFD12B7337
:10500000BFF35B8F6B702B1DBFF35B8F53E8006F9B
:1050100043E80042002AF9D1BFF35B8F002EDED0B7
:105020002046FFF71FFC074660B105F10C01304632
:10503000FFF743FE3046FFF73CFD10213046FFF7F7
:105040002EF8CCE7314603A8FFF7A0FF2B7B8DF8A5
:105050001C301020FFF71FF80546D0B187601420E0
:10506000FFF719F8044678B18760014603A8FFF7F7
:1050700045FD059BA268A360069B0592E268E3607C
:105080009DF81C3006922374064BEB60064B2C6097
:10509000AB6003A8FFF70DFD002229460348FFF788
:1050A000E9FBC7E7CD4C0B00B1500B008B4A0B005E
:1050B000012A70B5044603D10B680360002070BD5F
:1050C000022A0CD0032AF9D10468002CF6D020461D
:1050D000FFF7EFFC14212046FEF7E1FFEEE7142076
:1050E0000E68FEF7D8FF054620B13146FFF74EFFA8
:1050F000337C2B742560E1E7002240681146FFF7FE
:1051000059BC002240681146FFF764BC4068002289
:10511000FFF758BC4068002281F00101FFF742BC54
:10512000002340681A461946FFF734BC0023406844
:105130001A461946FFF726BC002240681146FFF7C1
:1051400019BC002240681146FFF704BC40680022E9
:105150000221FFF707BC002340681A46FFF7F2BBA5
:10516000024B03225A60024A1A607047B8E60320D5
:10517000E46D0B00090941EA001107EE901A9FED5A
:10518000030AF8EEE77A87EE800A70470000484489
:1051900001EB002300EE103A132A0CBFDFED047A76
:1051A000DFED047AB8EEC00A20EE270A704700BF90
:1051B0000000003B0000803B006800F01CB910B507
:1051C0000446016002710AB1FFF7F6FF204610BDE8
:1051D00013B50446019100F0EDFE019A0146204608
:1051E000FFF7EDFF204602B010BD006800F00CB9DB
:1051F0002DE9FF4104460D4617461E46FFF7DCFF2A
:1052000036220023CDE9002320680A234FF001084D
:105210006946CDE9028300F0D2F820680368294688
:105220009B6898472068414600F0E1F8054640B188
:105230006FF09F052046FFF7D8FF284604B0BDE871
:10524000F081022320680193694600F0A1F802284A
:10525000EED1206803685B6998473870206803685E
:105260005B6998473070E5E707B500238DF8063095
:105270008DF807300DF106020DF107030221FFF74B
:10528000B7FF40B99DF807109DF8060003B05DF820
:1052900004EBFFF76FBFBFEE000A03B05DF804FB3D
:1052A00010B58CB000238DF80E308DF80F3004212E
:1052B0000DF10F030DF10E02FFF79AFF0146C8B979
:1052C00020240190224604A801F0F8FB01998DF8F2
:1052D000154004A8FFF7FCFA50B99DF81E209DF870
:1052E0000F109DF80E000CB0BDE81040FFF750BF46
:1052F0001222F4E7BFEE000A0CB010BD7047F8B5FB
:10530000064615460C468F18BC4206D0336814F882
:10531000011B9B6830469847F6E72846F8BD007C9D
:105320000022FFF787B9007C0021FFF78BB9007CD2
:105330000021FFF78FB9007C0021FFF793B9007CB3
:105340000021FFF797B910B514210446FEF7A7FE18
:10535000204610BD38B5044615464FF47A73002236
:10536000C4E90123094B2174084623602946FFF74D
:1053700091F9BF3008D16B69DB0705D56868FFF785
:1053800049FBE868FFF746FB204638BD206E0B005E
:105390007FB500221423CDE90122ADF804300B784B
:1053A0008DF808304B680393CB680493007C0B7A2C
:1053B000059301A9FFF786F907B05DF804FB7FB5F7
:1053C0000023CDE901334A6803921423CA68ADF87B
:1053D00004300B7804920A7A0592007C8DF808302C
:1053E00001AA1946FFF716F907B05DF804FB007C27
:1053F0000022FFF717B908B50021007CFFF752F92A
:10540000B0FA80F0400908BD08B50021007CFFF724
:1054100051F9B0FA80F0400908BD704710B5182165
:105420000446FEF73CFE204610BDF0B5037D062B7A
:105430008DB00E4600F104074FF0000412D000F1C9
:10544000080515F8011D0A22304600F05BF9AF424D
:10545000044419D0002CF4D02E21304600F039F944
:105460000444EEE72F236A4639460A208DF80040AF
:10547000FFF730F9684601F074FB33680246DB68D9
:10548000694630469847044620460DB0F0BD0000FE
:1054900010B5054B0446112240F8043B002101F0F1
:1054A0000DFB204610BD00BF486E0B000346074AA7
:1054B00010B543F8042B01F1100251F8044B43F8E6
:1054C000044B9142F9D10A781A7010BD486E0B0056
:1054D00010B59DF8084044EA032343EA024242EA39
:1054E000016104234160037510BD000007B5064B40
:1054F0000360CB7800938B784A780978FFF7E8FF50
:1055000003B05DF804FB00BF486E0B00014B024A7C
:105510001A607047C0E60320546E0B0000234068F9
:105520001A46FFF70FBA406800220221FFF71ABAA5
:10553000002240681146FFF70DBA0022406811466C
:10554000FFF718BA002340681A461946FFF71ABA3F
:10555000002340681A461946FFF71CBA406800212C
:10556000FFF740BA40680021FFF744BA40680022C4
:1055700081F00101FFF716BA40680022FFF722BA56
:10558000002240681146FFF725BA00224068114604
:10559000FFF710BA2DE9F04395B014460D460746C3
:1055A000FFF776FF00211C220DA8009101F086FA7A
:1055B00040230C9320466B460CAA0021FFF79AF873
:1055C000044600284BD1024601216868FFF7D2F952
:1055D0000221804622466868FFF7CCF9009E81468A
:1055E0002146002E3BD0002939D17368022B03D00D
:1055F0000A2B11D0F669F4E7B8F1000FFAD07169FF
:1056000006A8043107ADFFF771FF0FCD3C1D0FC495
:105610002B6823704146EDE7B9F1000FEAD07469B9
:10562000102201A801F04AFA06238DF8143001ADCA
:1056300004F108031834186859682A4603C208336D
:10564000A3421546F7D101A906A807ADFFF72EFF23
:105650000FCD3C1D0FC42B6823704946CAE7009844
:10566000FFF740F8384615B0BDE8F083024B034A17
:105670001A6000225A607047C4E60320606E0B0077
:1056800008B500F097FCBDE80840FFF7B4BE10B5C0
:105690000446017009B1FFF7F3FF204610BDF8B5CD
:1056A00006460D468F180024BD420CD0336815F80D
:1056B000011B9B6830469847031E01DB1C44F3E73F
:1056C000002C08BF1C462046F8BD08B5FEF758FF61
:1056D00008BD03689B68184738B50D210546FFF7DC
:1056E000F8FF0A2104462846FFF7F3FF204438BD9F
:1056F00038B50546FEF744FF04462846FFF7ECFFA1
:10570000204438BD30B58BB00023012A8DF82430F9
:1057100098BF0A2209AC0D46B1FBF2F101FB12530E
:1057200003F0FF03092B94BF30333733DBB2AA42B7
:1057300004F8013DEFD92146FEF722FF0BB030BD42
:105740002DE9F74F55EC104B06460F4610EE102A88
:1057500010EE100A2B46294601F0EEF840B15349ED
:105760003046FEF70DFF8246504603B0BDE8F08F8D
:1057700025F000494E4B4FF0FF322046494601F0DC
:10578000DBF848B94A4B4FF0FF322046494601F05A
:10579000B5F808B94749E3E7474B4FF06042204668
:1057A000294601F0BFF808B14449D9E7444B4FF00E
:1057B00060422046294601F097F80028F4D10022E3
:1057C00000232046294601F08FF8D0B12D21304624
:1057D000FFF77FFF05F1004382461D463949DFF898
:1057E000EC904FF0000B00204FF000085FFA8BF3B5
:1057F0009F4208D942464B4600F02EFF0BF1010BA9
:10580000F4E78246EAE722462B4600F045FC0D46C7
:10581000044601F0CFF8804600F07AFD02460B46C0
:105820002046294600F036FC0A2204460D46304642
:105830004146FFF767FF8244002F95D02249DFF8E9
:105840008C903046FEF79CFE4FF000088244002FFB
:105850008AD042464B462046294600F0D3FD0446F6
:105860000D4601F07FF8B0F1000B1CDA2D21304617
:10587000FFF72FFFCBF1000103460A2230460193C8
:10588000FFF740FF019B18448244584600F050FD4A
:1058900002460B462046294600F0FCFB013F044629
:1058A0000D46FFB2D3E759460023E6E7946E0B009E
:1058B000FFFFEF7F986E0B00FFFFEF419C6E0B0028
:1058C000FFFFEFC10000E03FCC6E0B000000244062
:1058D00038B5044610EE100ACDB200F03BFD41ECA5
:1058E000100B29462046BDE83840FFF729BF38B5E0
:1058F000C9B20546FFF724FF04462846FFF7ECFE31
:10590000204438BD38B5044610EE100A0D4600F0AC
:1059100021FD41EC100B29462046BDE83840FFF739
:10592000E6BF2DE9F04186B000AF05460E46381DB2
:10593000142114463B60FFF77DF813280ED8391D5B
:105940002846FEF71DFE04461EB12846FFF7C4FE9A
:10595000044420461837BD46BDE8F08100F1080335
:1059600023F00703E846ADEB030D2246411C3B68DC
:105970006846FFF75FF869462846FEF701FE0446D1
:10598000C546E1E7014B00229A607047CCE6032050
:1059900010B5044608462170FEF7B4FE002363608C
:1059A000204610BD10B50446006818B1FFF732F864
:1059B0000023236010BD38B50C460546FFF7F2FF03
:1059C00054B12088FFF71EF8286028B122882146AC
:1059D000BDE8384001F064B838BD38B5B1F90430DD
:1059E0008380D1F80630C0F806304B8943810C46DD
:1059F0000546FFF7D7FF236813B12B600023236010
:105A000038BD0000F0B52B4D0B7D04468BB0084629
:105A1000AF1D002B36D00B681B79002B32D0264BE4
:105A20000493002202A90430CDE90222FEF746FFCA
:105A3000DDF80E30C5F8063000B2BDF81230ADF812
:105A40000C00A8800299BB802846FFF7B4FF02A88B
:105A5000FFF7A8FF00232360A380A37123814FF6E3
:105A6000FF736381B5F90430A380D5F80630C4F81C
:105A70000630BB88296863812046FFF79CFF2046DB
:105A80000BB0F0BD00262023CDE902360B4B00936E
:105A900002AA33460A493220FEF7BCFE064B0548EF
:105AA00002964FF6F26202A9CDE90323FFF795FFB4
:105AB000CDE700BFDCE603200000FFFFA76E0B0070
:105AC000A06E0B00054B02221A60054B054A9A6036
:105AD0000020C3E90000FEF7ADBE00BFE8E60320EA
:105AE000DCE603200000FFFF08B50020FEF71AFFE8
:105AF00028B1FEF707FF80F00100C0B208BD012009
:105B0000FCE710B50020FEF765FD0446A0B9FEF7DE
:105B100089FE012810D12046FEF7B4FE60B9FFF7D8
:105B2000E3FF10B9FEF7DEFEF9E7FFF7DDFFBDE8A2
:105B300010400020FEF74EBD204610BD1FB5FFF7F8
:105B4000E0FF10220021684600F0B8FF00216846FF
:105B5000FEF748FD009805B05DF804FB024B1A689B
:105B6000024B1A60704700BF40E10320ECE60320BF
:105B700070474174704708B5007CFEF703FE20EAC9
:105B8000E07008BD08B5007CFEF7D4FD20EAE070A7
:105B900008BD08B5007CFEF7DDFD40EAE07008BDF9
:105BA00008B5007CFEF7CEFD40EAE07008BD007C41
:105BB000FEF7D8BD37B5457C04462DB1207C03B037
:105BC000BDE83040FEF7AEBD007C0191FEF7DAFD86
:105BD00000280199F2DC284603B030BD10B514212D
:105BE0000446FEF75CFA204610BD000010B54FF4E5
:105BF0007A730446084611460022C4E90123044B87
:105C00002360012320746374FEF7C4FD204610BD99
:105C1000F46E0B00417470477047704708B500215F
:105C2000007CFEF7DFFD40EAE07008BD08B5012109
:105C3000007CFEF7D7FD40EAE07008BD08B5007CA7
:105C4000FEF7C8FD20EAE07008BD08B5007CFEF74D
:105C5000B9FD20EAE07008BD13B50446007C01914F
:105C6000FEF7B8FD0028019901DC607C20B1207CA2
:105C7000FEF7C0FD20EAE07002B010BD007CFEF728
:105C8000C1BD10B514210446FEF709FA204610BD27
:105C900010B54FF47A73044608460021C4E9011395
:105CA000044B23600123207463741146FEF77AFDD0
:105CB000204610BD246F0B00007C0022FEF77ABD49
:105CC00010B514220446002100F0F8FE204610BD55
:105CD00010B50F4C88B003A8FFF7F2FF2178BFF38F
:105CE0005B8F11F001010FD120460191FEF7D9F928
:105CF000019948B103AA0748FFF7CAFF2046FEF7FB
:105D0000D5F9054800F0C6FE024808B010BD00BF36
:105D1000F0E60320F4E60320195C0B00014B186049
:105D2000704700BF44E1032008B50B4B43B1FFF7B8
:105D3000CFFF03681B699847002801DDAFF300809F
:105D4000064B43B100F076F903681B6998470028B9
:105D500001DDAFF3008008BD00000000000000007E
:105D600008B5FFF7E1FFFEF72DFC014B186008BDF9
:105D700010E703200548064A064908B5121A00F044
:105D80008FFE054B054A1A6008BD00BF00F40320D2
:105D900004F4032014700B0000F403201E1C279A47
:105DA00007B5002300931A466FF07701FEF77CFDDC
:105DB00003B05DF804FB000007B543880A2B08D048
:105DC000502B0BD1094B1B684BB103B05DF804EBB2
:105DD0001847FFF7E5FF03B05DF804FB00230093CD
:105DE0001A466FF07701FEF75FFDF4E70CE703203A
:105DF00010B512480021FEF73DFE114B1A68114BF9
:105E00009A42114B0CBF012200221A7001D0FFF7F9
:105E1000B1FFFEF7CFFB044600F058FE0B4B13B169
:105E20002046AFF3008000210848FEF783FDBDE85F
:105E3000104007480021FEF72DBD00BF1D5D0B007F
:105E400000F403201E1C279A08E70320000000002E
:105E5000B95D0B00232813B502D9002002B010BD94
:105E6000A0F10B03022B1AD8174C2178BFF35B8FDC
:105E700011F001010BD120460191FEF712F90199B1
:105E800028B11248FFF784FD2046FEF70FF90F4BAB
:105E90001878FEF73FFC0028DFD10120DEE701285B
:105EA00009D800F063F80021007CFEF7EBFB80F0DE
:105EB0000100C0B2D2E709380128EED800F0BAF8E4
:105EC000007CFEF757FCF2E7ACE10320B0E10320D1
:105ED0000D2810B504469CBF0E34A4B22046FFF72F
:105EE000B9FF50B103212046FEF784FB032804D1FB
:105EF0002046BDE81040FEF785BB002010BD70476E
:105F00007047000038B50A4B036001230446436123
:105F10000849202000F0B4F8202560600549A560FC
:105F2000284600F0ADF8C4E90305204638BD00BF9F
:105F3000180001004C6F0B0038B50A4B03600123B9
:105F4000044643610849202000F09AF8202560604B
:105F50000549A560284600F093F8C4E903052046EA
:105F600038BD00BF180001004C6F0B0030B50E4D5E
:105F70002978BFF35B8F11F0010487B011D1284657
:105F8000FEF78FF868B16846FFF7BCFF6A46214606
:105F90000648FFF7DFF92846FEF788F8044800F0C6
:105FA00079FD024807B030BD14E703201CE7032049
:105FB000FF5E0B0010B50E4C2378BFF35B8FDB0741
:105FC00086B011D42046FEF76CF868B16846FFF73A
:105FD000B3FF6A4601210748FFF7BCF92046FEF7E8
:105FE00065F8054800F056FD024806B010BD00BF38
:105FF00018E7032030E70320015F0B007047000023
:1060000038B5044614252A46002100F057FD2580A6
:106010004025074925812846258200F031F80449AA
:106020006060284600F02CF8E060204638BD00BFD4
:106030004C6F0B0030B50E4D2978BFF35B8F11F01C
:10604000010487B011D12846FEF72BF868B101A8EA
:10605000FFF7D6FF01AA21460648FFF7C7FD2846ED
:10606000FEF724F8044800F015FD024807B030BDE3
:1060700044E7032048E70320FD5F0B00FEF70BB861
:10608000FEF70BB808B5FEF7DDFC000081F000411B
:1060900002E000BF83F0004330B54FEA41044FEA0D
:1060A000430594EA050F08BF90EA020F1FBF54EAA8
:1060B000000C55EA020C7FEA645C7FEA655C00F044
:1060C000E2804FEA5454D4EB5555B8BF6D420CDD15
:1060D0002C4480EA020281EA030382EA000083EA98
:1060E000010180EA020281EA0303362D88BF30BD38
:1060F00011F0004F4FEA01314FF4801C4CEA11318E
:1061000002D0404261EB410113F0004F4FEA0333EC
:106110004CEA133302D0524263EB430394EA050F77
:1061200000F0A780A4F10104D5F1200E0DDB02FAE6
:106130000EFC22FA05F2801841F1000103FA0EF27A
:10614000801843FA05F359410EE0A5F120050EF140
:10615000200E012A03FA0EFC28BF4CF0020C43FA71
:1061600005F3C01851EBE37101F0004507D54FF07E
:10617000000EDCF1000C7EEB00006EEB0101B1F5CE
:10618000801F1BD3B1F5001F0CD349085FEA300014
:106190004FEA3C0C04F101044FEA445212F5800F1F
:1061A00080F09A80BCF1004F08BF5FEA500C50F1BC
:1061B000000041EB045141EA050130BD5FEA4C0C9F
:1061C000404141EB0101013C28BFB1F5801FE9D2FC
:1061D00091F0000F04BF01460020B1FA81F308BF1F
:1061E0002033A3F10B03B3F120020CDA0C3208DDEB
:1061F00002F1140CC2F10C0201FA0CF021FA02F1C6
:106200000CE002F11402D8BFC2F1200C01FA02F135
:1062100020FA0CFCDCBF41EA0C019040E41AA2BF5A
:1062200001EB0451294330BD6FEA04041F3C1CDA22
:106230000C340EDC04F11404C4F1200220FA04F042
:1062400001FA02F340EA030021FA04F345EA0301EC
:1062500030BDC4F10C04C4F1200220FA02F001FAAE
:1062600004F340EA0300294630BD21FA04F0294630
:1062700030BD94F0000F83F4801306BF81F48011C9
:106280000134013D4EE77FEA645C18BF7FEA655C3C
:1062900029D094EA050F08BF90EA020F05D054EA0E
:1062A000000C04BF1946104630BD91EA030F1EBF13
:1062B0000021002030BD5FEA545C05D14000494117
:1062C00028BF41F0004130BD14F580043CBF01F50A
:1062D000801130BD01F0004545F0FE4141F47001F0
:1062E0004FF0000030BD7FEA645C1ABF19461046CB
:1062F0007FEA655C1CBF0B46024650EA013406BFCC
:1063000052EA033591EA030F41F4002130BD00BF8A
:1063100090F0000F04BF0021704730B54FF4806447
:1063200004F132044FF000054FF0000150E700BFC8
:1063300090F0000F04BF0021704730B54FF4806427
:1063400004F1320410F0004548BF40424FF0000114
:106350003EE700BF42004FEAE2014FEA31014FEA57
:1063600002701FBF12F07F4393F07F4F81F06051A6
:10637000704732F07F4208BF704793F07F4F04BFF1
:1063800041F40021704730B54FF4607401F00045CE
:1063900021F000411CE700BF50EA010208BF70472E
:1063A00030B54FF000050AE050EA010208BF70471F
:1063B00030B511F0004502D5404261EB41014FF488
:1063C000806404F132045FEA915C3FF4D8AE4FF090
:1063D00003025FEADC0C18BF03325FEADC0C18BF73
:1063E000033202EBDC02C2F1200300FA03FC20FAC4
:1063F00002F001FA03FE40EA0E0021FA02F1144411
:10640000BDE600BF70B54FF0FF0C4CF4E06C1CEA29
:1064100011541DBF1CEA135594EA0C0F95EA0C0F9A
:1064200000F0DEF82C4481EA030621EA4C5123EA0D
:106430004C5350EA013518BF52EA033541F480113C
:1064400043F4801338D0A0FB02CE4FF00005E1FBEF
:1064500002E506F00042E0FB03E54FF00006E1FB39
:1064600003569CF0000F18BF4EF0010EA4F1FF047C
:10647000B6F5007F64F5407404D25FEA4E0E6D41BC
:1064800046EB060642EAC62141EA55514FEAC520CD
:1064900040EA5E504FEACE2EB4F1FD0C88BFBCF549
:1064A000E06F1ED8BEF1004F08BF5FEA500E50F1FA
:1064B000000041EB045170BD06F0004646EA0101C0
:1064C00040EA020081EA0301B4EB5C04C2BFD4EBF2
:1064D0000C0541EA045170BD41F480114FF0000EEB
:1064E000013C00F3AB8014F1360FDEBF002001F059
:1064F000004170BDC4F10004203C35DA0C341BDCD3
:1065000004F11404C4F1200500FA05F320FA04F0A4
:1065100001FA05F240EA020001F0004221F00041D8
:1065200010EBD37021FA04F642EB06015EEA430E4B
:1065300008BF20EAD37070BDC4F10C04C4F120057B
:1065400000FA04F320FA05F001FA04F240EA02002E
:1065500001F0004110EBD37041F100015EEA430EFF
:1065600008BF20EAD37070BDC4F1200500FA05F21F
:106570004EEA020E20FA04F301FA05F243EA02039E
:1065800021FA04F001F0004121FA04F220EA0200AD
:1065900000EBD3705EEA430E08BF20EAD37070BDF3
:1065A00094F0000F0FD101F00046400041EB0101D3
:1065B00011F4801F08BF013CF7D041EA060195F0B5
:1065C000000F18BF704703F00046520043EB03036F
:1065D00013F4801F08BF013DF7D043EA060370475C
:1065E00094EA0C0F0CEA135518BF95EA0C0F0CD067
:1065F00050EA410618BF52EA4306D1D181EA0301AD
:1066000001F000414FF0000070BD50EA410606BFA6
:106610001046194652EA430619D094EA0C0F02D1EB
:1066200050EA013613D195EA0C0F05D152EA033630
:106630001CBF104619460AD181EA030101F000414E
:1066400041F0FE4141F470014FF0000070BD41F097
:10665000FE4141F4780170BD70B54FF0FF0C4CF471
:10666000E06C1CEA11541DBF1CEA135594EA0C0F90
:1066700095EA0C0F00F0A7F8A4EB050481EA030EDD
:1066800052EA03354FEA013100F088804FEA0333C4
:106690004FF0805545EA131343EA12634FEA022292
:1066A00045EA111545EA10654FEA00260EF0004153
:1066B0009D4208BF964244F1FD0404F5407402D2A5
:1066C0005B084FEA3202B61A65EB03055B084FEA36
:1066D00032024FF480104FF4002CB6EB020E75EB33
:1066E000030E22BFB61A754640EA0C005B084FEA5B
:1066F0003202B6EB020E75EB030E22BFB61A7546D8
:1067000040EA5C005B084FEA3202B6EB020E75EB22
:10671000030E22BFB61A754640EA9C005B084FEA9A
:106720003202B6EB020E75EB030E22BFB61A7546A7
:1067300040EADC0055EA060E18D04FEA051545EA96
:1067400016754FEA06164FEAC30343EA52734FEA3F
:10675000C2025FEA1C1CC0D111F4801F0BD141EAB8
:1067600000014FF000004FF0004CB6E711F4801F1D
:1067700004BF01430020B4F1FD0C88BFBCF5E06FFD
:106780003FF6AFAEB5EB030C04BFB6EB020C5FEA0D
:10679000500C50F1000041EB045170BD0EF0004E62
:1067A0004EEA113114EB5C04C2BFD4EB0C0541EA94
:1067B000045170BD41F480114FF0000E013C90E691
:1067C00045EA060E8DE60CEA135594EA0C0F08BF55
:1067D00095EA0C0F3FF43BAF94EA0C0F0AD150EA54
:1067E00001347FF434AF95EA0C0F7FF425AF1046E7
:1067F00019462CE795EA0C0F06D152EA03353FF40F
:10680000FDAE1046194622E750EA410618BF52EA8B
:1068100043067FF4C5AE50EA41047FF40DAF52EA5F
:1068200043057FF4EBAE12E74FF0FF3C06E000BFFC
:106830004FF0010C02E000BF4FF0010C4DF804CD09
:106840004FEA410C7FEA6C5C4FEA430C18BF7FEAC9
:106850006C5C1BD001B050EA410C0CBF52EA430CF7
:1068600091EA030F02BF90EA020F0020704710F177
:10687000000F91EA030F58BF994208BF90422CBF06
:10688000D8176FEAE37040F0010070474FEA410CFF
:106890007FEA6C5C02D150EA013C07D14FEA430C1D
:1068A0007FEA6C5CD6D152EA033CD3D05DF8040B8E
:1068B000704700BF8446104662468C4619466346C0
:1068C00000E000BF01B5FFF7B7FF002848BF10F197
:1068D000000F01BD4DF808EDFFF7F4FF0CBF0120DC
:1068E00000205DF808FB00BF4DF808EDFFF7EAFF58
:1068F00034BF012000205DF808FB00BF4DF808ED13
:10690000FFF7E0FF94BF012000205DF808FB00BF07
:106910004DF808EDFFF7CEFF94BF012000205DF891
:1069200008FB00BF4DF808EDFFF7C4FF34BF01209E
:1069300000205DF808FB00BF4FEA410C7FEA6C5C69
:1069400002D150EA013C0AD14FEA430C7FEA6C5C69
:1069500002D152EA033C02D14FF0000070474FF0E1
:10696000010070474FEA410212F5001215D211D50D
:106970006FF47873B3EB625212D94FEAC12343F03C
:10698000004343EA505311F0004F23FA02F018BFBE
:10699000404270474FF00000704750EA013005D187
:1069A00011F0004008BF6FF0004070474FF000004A
:1069B000704700BF4A0011D212F5001211D20DD556
:1069C0006FF47873B3EB62520ED44FEAC12343F0F5
:1069D000004343EA505323FA02F070474FF000009F
:1069E000704750EA013002D14FF0FF3070474FF04E
:1069F000000070474FEA4102B2F1E04324BFB3F513
:106A0000001CDCF1FE5C0DD901F0004C4FEAC00225
:106A10004CEA5070B2F1004F40EB830008BF20F009
:106A20000100704711F0804F21D113F13872BCBFC3
:106A300001F00040704741F480114FEA5252C2F118
:106A40001802C2F1200C10FA0CF320FA02F018BF61
:106A500040F001004FEAC1234FEAD32303FA0CFCB4
:106A600040EA0C0023FA02F34FEA4303CCE77FEA43
:106A7000625307D150EA01331EBF4FF0FE4040F48D
:106A80004000704701F0004040F0FE4040F400003C
:106A9000704700BF002301461A46184600F06AB846
:106AA0000A44914200F1FF3300D1704710B511F84C
:106AB000014B03F8014F9142F9D110BD0244034646
:106AC000934200D1704703F8011BF9E738B5104B2A
:106AD0001D68AB6B0446B3B91820FDF793FF02465F
:106AE000A86320B90B4B0C484221FDF7BBFF0B49B3
:106AF0000B4BC0E900130B4B83600B2383810021F8
:106B00000120C2E90401AB6B00221C615A6138BD4F
:106B100044E103204D6F0B00646F0B000E33CDABCF
:106B200034126DE6ECDE0500024B0146186800F0F9
:106B300003B800BF44E1032037B5044608460D46BC
:106B400000F00FF8421C114620460192FDF782FF2B
:106B5000044618B1019A2946FFF7A2FF204603B068
:106B600030BD034613F8012B002AFBD1181A013857
:106B7000704700002DE9F843DFF8B8800646D8F8E2
:106B800000001F460D46914600F056F8254B1C6844
:106B900034B9254C1C60254B13B11B68C4F88830F0
:106BA00063681F2B07DDD8F8000000F047F84FF0AE
:106BB000FF30BDE8F8834EB3D4F8880088B91C4B89
:106BC00023B9D8F8000000F038F8F0E74FF48470EB
:106BD000FDF718FF0028F4D00023C0E94033C4F8C3
:106BE0008800636840F8239001229A4000EB8301FB
:106BF000D0F800311343C0F80031022EC1F8807084
:106C000002BFD0F804311343C0F804316368D8F8E8
:106C100000005A1C0233626044F8235000F00EF862
:106C20000020C6E7E8E703205CE70320000000003F
:106C3000054A0B00A8E10320704770477047000029
:106C400021400B005D400B0085400B0089400B008C
:106C50000000000064656661756C7420004D53424D
:106C6000004C5342003C53504953657474696E673D
:106C7000732064656661756C743E003C53504953E3
:106C8000657474696E6773202573257520257320DC
:106C90004D4F444525753E004D6178626F746978AB
:106CA0002054657374002C00547279696E672074E7
:106CB0006F20636F6E6E65637400256C692C252EE2
:106CC00035662C252E3032662C252E30326600702B
:106CD00075626C697368696E672064617461006DC8
:106CE00061782074696D6520666F72207075626CC2
:106CF000697368696E67207265616368656420778F
:106D00006974686F757420737563636573733B2072
:106D1000676F20746F20736C656570004E6F742010
:106D20006D61782074696D652C20747279206167BB
:106D300061696E20746F207075626C69736800679A
:106D40006F696E6720746F20736C656570004665AF
:106D5000656C696E6720726573746C65737300008F
:106D60000000000000000000E1400B00B3400B00F9
:106D7000B5400B005365614C6576656C5F42546F9E
:106D8000776E000000000000000000008F4B0B0039
:106D9000854B0B007B4B0B00314B0B006F4B0B00FB
:106DA000634B0B005D550B0065550B00574B0B00FB
:106DB0004F4B0B00454B0B003B4B0B0095550B000D
:106DC0000000000000000000C94B0B00CF4B0B007F
:106DD0000D4C0B00DD4B0B00CB4B0B0000000000FB
:106DE0000000000057510B004D510B0043510B00A8
:106DF00039510B002D510B0021510B005D550B003B
:106E000065550B0015510B000D510B0003510B0084
:106E1000F9500B0095550B00000000000000000029
:106E2000FD520B0047530B001F530B00FF520B008A
:106E300027530B002F530B0037530B003F530B000E
:106E400000000000000000002B540B001B540B003E
:106E50001D540B0061707000000000000000000075
:106E60001D550B0027550B0031550B003B550B00F2
:106E700045550B0051550B005D550B0065550B003A
:106E80006D550B0079550B0081550B008B550B0090
:106E900095550B006E616E00696E66006F76660038
:106EA000776972696E670053797374656D20736CCE
:106EB00065657020636F6E66696775726174696F6E
:106EC0006E20697320696E76616C69642E002559A5
:106ED0002D256D2D25645425483A254D3A255325F9
:106EE0007A0061736374696D650000000000000042
:106EF00000000000715B0B00DD5B0B00B55B0B005D
:106F00009F560B00855B0B00A15B0B00935B0B0096
:106F1000AF5B0B00735B0B00775B0B0000000000A6
:106F2000000000001B5C0B00835C0B00595C0B0035
:106F30009F560B004B5C0B001D5C0B002D5C0B0087
:106F40007D5C0B003D5C0B00155C0B000052454561
:106F50004E54206D616C6C6F63207375636365655F
:106F6000646564002F746D702F6A656E6B696E7353
:106F70002D4743432D31302D706970656C696E6506
:106F80002D34385F32303230313132345F31363087
:106F9000363138303633392F7372632F6E65776C24
:106FA00069622F6E65776C69622F6C6962632F73FB
:106FB00074646C69622F72616E642E63000000005D
:106FC000B9440B00214B0B00994B0B0061510B0096
:106FD0000D550B006D560B0085590B00C55A0B0063
:106FE0005D5B0B00000000000000000000000000DE
:106FF000040000001400000003000000474E55008C
:10700000A7742C778131CBE1075415C1417CB95964
:04701000EA9457D8CF
:047014000000000078
:10701800746D0B00E26E0B0048E1032000000000D5
:107028000000000000000000000000000000000058
:107038000000000000000000000000000000000048
:107048000000000000000000000000000000000038
:107058000000000000000000000000000000000028
:107068000000000000000000000000000000000018
:10707800000000000000000000000000ECE7032012
:10708800FFFFFFFF00000102030405060708090AC5
:107098000B0C0D0E0F101112131415161718191AC0
:0870A8001B1C1D1E1F20280007
:0470B00078563412C8
:04000003B0004020E9
:00000001FF
