:02000002D0002C
:1040000000400D006C8A0D00000006000D00050147
:08401000040135080000000066
:0440180028860D00E9
:1040200009480A49884208B505D0094A824202D0A7
:10403000121A04F099FA0748074A0021121A04F0EC
:10404000A1FA014808BD00BFB0E10320D4890D00EA
:1040500020E2032020E20320F0E7032070B5074EA2
:10406000074C03F021FCA41BA4080025A54200D1A5
:1040700070BD56F8043B98470135F7E7AC890D0051
:10408000D0890D0000F0D8B808B500F0EDF8BDE813
:10409000084003F0CBBB02F0F1B802F0EFB802F039
:1040A000F5B80078B0FA80F040097047012303703A
:1040B00070477047037C13F008031EBFC36A406A51
:1040C0001B1A002BACBF18466FF0004070477047BA
:1040D0007047103000F064BD103000F07FBC07B5B1
:1040E00001220DF10701103000F0CAFB01280CBFBE
:1040F0009DF807004FF0FF3003B05DF804FB10306F
:1041000000F0D8BD07B501228DF8071010300DF171
:10411000070100F0CFFD03B05DF804FB10B51021DE
:10412000044603F0F8FC204610BD38B5044600698B
:1041300028B185680C2103F0EEFC2846F8E72046FC
:1041400038BD10B53421044603F0E5FC204610BD0F
:1041500010B50446006808B102F098F8204610BD7A
:104160000EB403B503AB002153F8042B019303F005
:104170001AF802B05DF804EB03B0704773B504465B
:1041800008462279A36832B1A3B90B4902B0BDE851
:10419000704002F0DBBE094A267B094D0949647B69
:1041A000012E18BF2946CDE900140749FFF7D8FFB3
:1041B00002B070BD054AEFE74D860D0044860D0044
:1041C00049860D0045860D0063860D003C860D0076
:1041D000F8B5037D05460F4616468BB10368DB68CC
:1041E00083B19A88012A06D09B68F9E79B684BB196
:1041F0009A88012AFAD12BB19A89BA42F6D19E73D4
:104200002846F8BD0A49102003F087FC044668B12F
:104210001022002104F0B6F9064B23600123A3808D
:104220002B69A360A781A6732C61E9E72875E7E7EE
:10423000A8890D001000030008B501F097FF41F2B6
:10424000883002F053F803F0A5FA4FF4165103F04A
:1042500095FA03F09FFABDE80840014902F089BED3
:1042600080860D00000000002DE9F04FB84E337835
:10427000ABB02BB1012B00F09D812BB0BDE8F08FCE
:10428000B44CB54D002222602B602B68632B00F3E9
:10429000A380B24BDFF80C831888B14F03F09EFB6C
:1042A00003F094FDA6A3D3E9002303F0F9FDA6A330
:1042B000D3E9002303F0F4FD04F0EAF894ED007A6A
:1042C000C8F8000007EE900A77EE277A07F58C6AA7
:1042D000C4ED007A03F05EFA022198ED000A02F0C4
:1042E00053FF4FF47A7200230E929E4AADF840308D
:1042F0000D930C928DF824309B4A9C4B08920A93A4
:104300004FF0010908AB0E2207F26C415046ADF8A0
:104310002C9001F013FB60B3C7F800A007F23C40FB
:1043200000F074FC4946384601F0B6F907F23C4902
:104330000146C8B18A4901F23C4000F088FAC0B198
:1043400097F83C3413F0700F13D0894B894AC3F8A7
:104350000090894944F2022310A800F05EFC70B975
:1043600003F018FA854907E0384601F095F900286E
:10437000E0D103F00FFA824902F0FBFD7DE703F084
:10438000F9F8071E26DA2D210CA802F0E3FD794288
:104390000A220CA802F0F7FD7A490CA802F0D6FD1B
:1043A00001F0FEFC0A2201460CA802F0ECFD754962
:1043B0000CA802F0CBFD98ED000A02210CA802F037
:1043C000E3FE10A800F022FC642001F08FFF2B68B0
:1043D000013359E73946DBE707EE903AD4ED006A3E
:1043E000694FF8EEE77A86EEA77A87ED007A03F058
:1043F000D1F92D68002D804680F284802D2102F0B5
:10440000A9FD69420A22404602F0BDFD03F0C2F94F
:104410005C495E4DDFF89091DFF890A1DFF8908164
:1044200002F094FD03F0B6F994ED000A022102F0C7
:1044300091FE03F0AFF9534902F088FD03F0AAF9A9
:1044400097ED000A022102F09FFE01F0A9FC28600E
:1044500001F094FE30B901F089FE03F09BF9494662
:1044600002F074FD01F08AFE044600284CD0484852
:1044700002F044FB464810EE104A02F05BFB10EEDF
:10448000105A03F077F80790284603F0B1FCCDE905
:104490000401204603F0ACFCCDE90201386803F0CA
:1044A000A7FC079B3B4ACDE9000178210CA801F04D
:1044B000F5FE03F06FF9384902F05BFD374B3849E0
:1044C0001B788DF8003009683C230CAA08A802F07C
:1044D000F1F8099C7CB16368013B63605BB92368B8
:1044E00020469B689847A368013BA3601BB92368DB
:1044F0002046DB6898474FF47A6001F0F7FE01230D
:104500003370BAE629467DE701F04AFC2B68C01AF1
:104510004EF65F23984206D90124347003F03AF92D
:10452000514602F026FD03F035F9414602F021FD27
:10453000642001F0DBFE002C8AD09EE6AFF3008001
:104540006666666666665A3F3EF8E0830F3E5340F5
:10455000F8E6032068E203206CE20320B0E10320C8
:1045600074E20320A8870D0094870D0080F0FA0202
:1045700004E703208E860D00B0E60320AF860D0011
:104580009B860D00D1860D0064E20320FCE603202B
:1045900040E20320E5860D00FA860D003CE2032090
:1045A000B4E1032060E20320D3860D000A870D00EA
:1045B00047870D0003F0EEF8234902F0DAFC4FF4D0
:1045C000FA7001F093FE214B1A7D0AB102221A7291
:1045D00002221E481146FFF7FBFD037D0546D3B1BD
:1045E0000368DB6823B19A88042A29D09B68F9E71D
:1045F0001749102003F091FA0446F8B11022002167
:1046000003F0C0FF134B23600423A3802B69A36036
:10461000114BE3602C610CA80C4902F0FFFE0C98D2
:1046200008B101F033FE03F0B5F80C4902F08EFC3E
:1046300001F0B6FB0A4B1860002361E72875EAE732
:10464000054ADA60E7E700BF6A870D0048E2032009
:10465000A8890D00100003002004360079870D00A2
:10466000FCE6032037B5364C364B374D642000222C
:10467000012184F8600435481970E271A4F83C24E3
:1046800084F86A24C4F8700484F87414C4F8782494
:10469000A4F87C242978BFF35B8F11F001010BD1C2
:1046A00028460191FFF7FDFC019928B1284802F046
:1046B000C5FD2846FFF7FAFC254B264D264A27491B
:1046C000C4F86C341E48002403F020FA244BAB607D
:1046D0002C60AC80AC71022001F0F2FC1E4A214932
:1046E000284603F013FA2146012001F0F9FC214687
:1046F0001D4802F0ADF9184A1C491B4803F006FAA0
:1047000021461B4802F0F5FB134A1A49184803F0EA
:10471000FDF919481949A0F809400346021D43F85C
:10472000092B9C70012303750B4A154B4360C0E9AC
:104730000344047203B0BDE8304003F0E7B900BFA2
:1047400074E203203CE2032024E2032094870D005E
:1047500028E2032030E2032020E20320D1400D00B4
:104760000000FFFF51410D0040E20320716A0D007F
:1047700070E20320116F0D0048E203202B410D0071
:104780001000030010B50446243000F077FE28B175
:1047900004F50C70BDE8104000F070BE10BD8378C9
:1047A000016943F00403837000F11002806800F097
:1047B0001BBF00002DE9F041017811F020050446EF
:1047C00003D000263046BDE8F0814269174B9A427B
:1047D000F7D2FFF7E4FF06460028F2D02169A0686F
:1047E00000F097FE0746A06805223946243000F005
:1047F0006DFE80460028E4D029464FF4007203F095
:10480000C1FE0125A3681A79AA4209D9186842464F
:10481000E91901F0C4F90028D3D00135EDB2F1E770
:10482000636903EB42236361CCE700BF00FE1F0016
:1048300010B5044680680A462430A16900F046FE9F
:1048400020B1A38803F00F0300EB431010BD70B537
:10485000047805460E464CB92422214603F092FE08
:10486000AE60F379102B03D0202B07D0002004E09A
:10487000202301242B70AC70204670BD4023F8E744
:104880002DE9F74F0378044688461546002B5DD086
:104890008278D1075AD51A072DD5C36942699B1A68
:1048A0009D4228BF1D462E464FF0000904F1100B13
:1048B000002E00F08F8022786369A0689706C3F30A
:1048C000080A4FEA53211FD5006A0144A068BAF1D3
:1048D000000F42D1B6F5007F3FD3C36A99423CD066
:1048E000B6F5806F52D20068424601F0CFF868B347
:1048F0004FF4007744E09B06D5D583681A89436955
:10490000C3EB42139BB2CBE790F8059009EA01098B
:10491000BAF1000F08D1B9F1000F05D15BB951060A
:104920004CBF036A236A23612169A06800F0F1FD8E
:1049300009EB0001CAE721695A4600F0F0FD0028A2
:1049400004DBF1D1237813F0700F43D1637843F087
:10495000020363704FF0FF303DE0CAF50077B742C5
:104960004FF0000200F1240028BF374600F0AEFDF2
:104970000028EBD000EB0A013A46404603F0F4FD74
:1049800063693B44B8446361F61B91E72278920661
:104990004FEA562A06D40279A2EB0902D2B2924516
:1049A00028BF924699424FEA4A2708D2A068534648
:1049B0000068424601F0B2F80028E1D1C6E753444E
:1049C0008B42F3D92430019100F058FD0199002861
:1049D000ECD1BBE7A81B03B0BDE8F08F73B5012293
:1049E0000DF10701D0E904560446FFF749FF0128FD
:1049F0000ABF9DF807004FF0FF30C4E9045602B02B
:104A000070BD37B5436913F4F07F0446C3F3431513
:104A100000D099B901220DF107012046FFF730FFC0
:104A200040B2012802D0002003B030BD63691F33BB
:104A3000A0686361303000EB4510F5E72033F7E7FD
:104A40002DE9F0410278076904460D4662B14069DC
:104A5000884202D019B921616561012006E016077C
:104A600006D5E3698B420BD227610020BDE8F081B7
:104A7000910605D5A3681B89B5EB431FECD9F3E775
:104A8000D4F808C09CF80660431E06F109016E1EAA
:104A9000CB40CE40B34200D898B953064CBFDCF8A7
:104AA0002030236A236104F11008002ED4D021693C
:104AB000A068424600F033FD002806F1FF36F4DC22
:104AC000D2E7F61AEFE7F8B50F4616460021242282
:104AD00004461D4603F056FDB868A060A68000F1AC
:104AE000300206F00F063B6AE360710102EB4616E6
:104AF000F37A1F0746D4431893F83B3003F01703AB
:104B00002370F27A12F0180F04BF43F008032370E9
:104B10009DF81830E37005F00303012B2CD0022B15
:104B200028D07BBB6A052DD40123A370A2789307FC
:104B300004D52378DF0625D4DE0723D4AB1123F078
:104B40007F0305F0080633431343A370C36AA361D0
:104B50004318B3F84420B3F84A1041EA02416A0509
:104B600013D559B9A37843F00403A3706B0410D490
:104B70000120F8BD0323D8E70223D6E700F06FFD3C
:104B80000028EFD100202070F3E72162DB6CE361A5
:104B9000ECE7E1692046FFF753FF0028E8D1F1E791
:104BA00038B5037804460BB9012038BD83785A071D
:104BB00023D50121FFF73CFE054628B9637843F071
:104BC000010363700020F0E70378E52BF6D023782B
:104BD0001B0744BFE369C361238C4383638C8382D7
:104BE000094B1B682BB100F11601183098472B8B2D
:104BF0006B82A37823F00403A370A068FFF7C2FDC3
:104C00000028DBD0D0E700BF00E7032010B5044642
:104C1000FFF7C6FF0023237010BDF0B593B01F4609
:104C20000023ADF824300378019206460C4613B1F8
:104C3000002013B0F0BD0B7813F0700FF8D013788C
:104C40002F2B12D1019A13782F2B02D1013201920E
:104C5000F8E7A1681BB93046FFF7F9FDE9E709A8B5
:104C6000FFF7F5FD0028E3D009AC019801AA03A9DC
:104C700000F0F6F80028DBD0019B1B789BB10023E5
:104C800003AA2146304600F01FFA0028D0D035464E
:104C90000FCD09AC0FC40FCD0FC42B682360304675
:104CA000FFF7B4FFE0E73B4603AA2146304600F099
:104CB0000BFABEE72DE9F047037889461907044649
:104CC00017465BD583789A0758D51B0751D463697B
:104CD000DB43BB4252D3B84604F1100A6669B8F10F
:104CE000000F00F09180A0684379C6F3080513EA2D
:104CF00056260ED16DB92169002946D0524600F0E2
:104D00000EFC00283ADB04D12046FFF748FD0028BE
:104D100034D02169A06800F0FCFB3118A06815B9F7
:104D2000B8F5007F3FD2C5F50076464528BF464618
:104D3000002D36D16269E3699A4234BF012205220F
:104D4000243000F0C3FBC8B12844324649463544FC
:104D500003F00AFCB5F5007F04D1A068243000F010
:104D60008DFB58B1636933446361B144A8EB060815
:104D7000B4E7C169FFF764FE0028A8D1637843F067
:104D8000010363704FF0FF3050E0236A3BB92046C7
:104D9000FFF705FD0028F1D023692362B9E72361FD
:104DA000B7E70122CCE7B8F5806FC26A1BD390F851
:104DB00004C0ACEB0606F3B24FEA582E734528BF89
:104DC000734691424FEA432607D31A448A4282BF70
:104DD0004FF0FF3280F82450C262A5684A46286826
:104DE00000F053FFBDE7914202BF4FF0FF3380F860
:104DF0002450C362A3684A46186800F0D0FE002819
:104E0000BCD04FF40076ADE7E269A378B24204D299
:104E1000E66143F00403A37003E0084A1268002A25
:104E2000F7D194F90230002B02DB3846BDE8F08759
:104E30002046FFF7B5FE0028F7D19FE700E70320E3
:104E4000411E00F10A030020420842EAC01011F896
:104E5000012F52FA80F08B42C0B2F5D170470000AA
:104E60002DE9F047064610F8013B202BFAD06B4D98
:104E70008E600024335DC3B12F2B16D05C2B02D182
:104E80000020BDE8F087A3F12200C0B21D2803D89E
:104E900025FA00F0C007F3D403F0BF003C28EFD0A0
:104EA000203B5E2BECD80134E4E733191846074663
:104EB00010F8015B202DFAD02F2DF8D017604CB1DF
:104EC00013F8012D2E2A01D0202A01D1013CF6E74A
:104ED000FF2CD5DC4C6001F10D0301F118022020FC
:104EE00003F8010B9342FBD14FF0000816F808308D
:104EF0002E2B01D0202B02D108F10108F6E7B8FAD9
:104F000088F04009651E6B1C02D0735D2E2B14D1F6
:104F10004FF0000907274A46CA464FF0080EA04541
:104F200069DA16F80830202B03D02E2B07D1A845BC
:104F300012D0002008F10108F1E7013DE3E7222B40
:104F400008D07C2B06D0A3F12A0CBCF1050F0BD89E
:104F50002D2B13D0A8455CD10A2F4BD0A8460A2789
:104F600008224FF0100EE5E7A3F13A0CBCF1050F53
:104F7000F0D9A3F15B0CBCF1020FEBD9A3F1210C2A
:104F8000BCF15D0FE6D8A845E6D0BA4230D8A3F10F
:104F9000610CBCF1190F1AD8203B4EEA0909DBB2AB
:104FA0005FFA89F902F1010C5FFA8CFC0A44BCF14A
:104FB000060F537301D881F80CC06246BAE7A845C2
:104FC00018DCA8460A2708224FF0100EB1E7A3F11B
:104FD000410CBCF1190F98BF4EEA0A0AE2E70B7BBD
:104FE0000120087019447E234B7331238B7348E7EB
:104FF0000A2FE4D100204B7B202B3FF441AF002847
:10500000EDD01AEA090F18BF4FF0020981F800909D
:1050100037E7BA42ECD85F230020C3E70101003133
:105020002DE9F84391F80C9006460C4602257E27A0
:1050300001F10D086168A2686B189BB2114491429E
:1050400006D012F8010B03EB431343409BB2F6E783
:10505000B9F1030F28BF4FF0030909F10402D2B2DE
:1050600003F00F01A018013A0929D2B294BF3031E0
:105070003731914541734FEA1313F1D104EB090322
:1050800000215F733046FFF7DBFC01213046FFF75C
:10509000B8FC014628B97078B0FA80F04009BDE844
:1050A000F88303786BB1C37A1B07EED40B2240461A
:1050B00003F04CFA0028E8D10135ADB2642DB9D126
:1050C000EDE70120EBE700002DE9F04F2DED028B1D
:1050D00089B00D4605930B78069013F0700F90463B
:1050E00005D1002009B0BDEC028BBDE8F08F069B16
:1050F0001B78002BF5D153680493137899071CBFD4
:10510000049B03F10C074FF0000118BF0D23284644
:105110001DBFB7FBF3F70137FFB20127FFF790FC84
:1051200008F10D02002308EE102A9B461C461E467D
:1051300003939A466A69079301212846C2F34F19DF
:10514000FFF75FFC079B00286ED16B78002BC8D15E
:10515000059B9A05C5D503F00303013B012BC0D87D
:10516000039B002C08BF4B460393BC42C0F0038155
:10517000BAF1000F40F01B81039B28465901FFF74D
:105180005FFC0028ADD0013F5FFA87FA56464FF02A
:1051900000090F27002E00F0218100212846FFF78B
:1051A00030FC044600289CD0AA6892F8243056456A
:1051B00043F001030CBF46F0400BB34682F82430A5
:1051C00080F800B0C77280F80C9008F10D00FFF76E
:1051D00037FE0BF01F0B607384F81A9084F81B9055
:1051E0000BF1FF3B0D22D8F808C002FB0BF20023A5
:1051F0000499914240F2E3801CF80210042B5FFAFC
:1052000083FE03F1010000F2E08004EB4303A3F806
:1052100001100D2802F101020346E9D1013EF6B268
:10522000B8E74FF0010A85E70278E52A00D07AB99D
:105230000399002C08BF4946BC4238BF0134039192
:1052400038BFE4B2002A83D0E52A04D1002671E7F2
:10525000BC4238BF00242E2AF8D0C17A0F295DD174
:105260003EBB12F040063FF465AF02F01F06437BE1
:10527000B3460BF1FF324FF00D0E0EFB02FE049A07
:105280007245E3D9A2EB0E0207924FF0000CBCF17D
:10529000040F0CEB0E095FFA8CF214D800EB4C02F1
:1052A000B2F8012007998C451BD1002A18BF0026AF
:1052B00040E70BF1FF3B5FFA8BFB5A45C6D1427BBF
:1052C0009A42D6D0C2E70A2A95BF0CF1FF320CF100
:1052D000010200EB420200EB420294BFD2889288A6
:1052E000E0E7FF2AB2D8D2B2A2F141011929D8F8D9
:1052F000081011F8091098BF2032A1F1410998BF98
:10530000D2B2B9F1190F9CBF2031C9B291429DD1DF
:105310000CF1010CBCF10D0FB9D10BE70A0795D4C4
:1053200066B1BBF1010F03937FF4DBAEFFF788FD9D
:10533000039B98427FF4D5AEB2460FE018EE101AE8
:105340000B22079303F002F9079B00287FF4F2AECB
:1053500098F800A01AF0010A7FF463AF059B1905C5
:105360003FF5BFAE059B0698CDF800A04A462946FA
:10537000FFF7A9FBB6E600212846FFF742FB98B9E4
:105380006B78002B7FF4ADAE2846FFF713FA0028A8
:105390003FF4A7AEAB681B79012B3FF6E9AE1034A2
:1053A000E4B2A742F0D8E3E60134E4B2DDE64146D8
:1053B0002846FFF735FE00287FF4DEAE91E614BFE5
:1053C0004FF0FF31002189B218E7BEF10A0F94BFF8
:1053D00004EB430304EB400399801AE73146284667
:1053E0006F69FFF70EFB044600283FF47AAE2022D7
:1053F000314603F0C7F8434653F80D2F22605A6830
:1054000062601A8922819B7AA37298F8003003F0B7
:10541000180323730F4B1B689BB104F10E0104F1B9
:1054200010009847238A63822383E389E382AA6872
:1054300092F8243043F00103C7F34F1982F8243067
:1054400090E721232374282363740823A673E3734E
:10545000E8E700BF00E7032013B50446084659B14A
:10546000019103F0D8F823680199DB6802462046D1
:1054700002B0BDE81040184702B010BD37B5037840
:10548000DA07044620D54368816800F10C021868E9
:10549000019200F084FB019A054618B900252846C0
:1054A00003B030BD23789B0704D4237823F0010395
:1054B0002370F4E7D4E9013019690144186800F059
:1054C0006EFB0028F1D1E9E70125E8E770B58368B4
:1054D0008B4204460E46154609D0FFF7CFFF08B9A8
:1054E000002070BD6B070AD500232370A6602278C8
:1054F00005F003052046154300F80C5BF1E76368EF
:1055000004F10C021868314600F0C0FA0028EBD113
:10551000E6E78379406902399940084470470129D8
:1055200070B505460C46164602D84FF0FF3070BDE8
:10553000C3698B42F9D3C379202B16D1816902222A
:1055400001EBD41100F50C70FFF7C0FF0028ECD080
:1055500004F07F0450F8243023F07043EA699A4243
:1055600026BF336001200020E1E7102BDDD18369E5
:10557000C1F307210222194400F50C70FFF7A6FFC2
:105580000028D2D0E4B230F81430E7E7012938B56A
:105590000C46154601D8002038BDC3698B42FAD3AA
:1055A000C379202B0FD18169032201EBD41100F5BF
:1055B0000C70FFF78BFF0028EDD004F07F0440F85B
:1055C00024500120E8E7102BE5D18369C1F30721BE
:1055D0000322194400F50C70FFF778FF0028DAD099
:1055E000E4B220F81450ECE72DE9F341C4688C4292
:1055F00005460E46904601D3012701E00C460027E0
:10560000EB690134A34202D2C7B9EC68F4E7A642C1
:1056100014D001AA21462846FFF781FF00280DDBA0
:10562000EED0019B002BEBD107B1EC606FF0704224
:1056300021462846FFF7AAFF074620B9002738462B
:1056400002B0BDE8F08116B9C8F80040F7E722467D
:1056500031462846FFF79AFF0028F5D1EEE773B5EB
:1056600005460C4601AA21462846FFF758FF061EAC
:1056700010DB002221462846FFF788FF50B1EB6877
:10568000A34224BF04F1FF34EC60019C002EE9D159
:1056900002B070BD0020FBE7012370B50022C3609B
:1056A0004FF0FF330446C27100F12406806280F897
:1056B0002420C362C0F8340280F83022C0F83832A7
:1056C0000D46B9B1042901D9002070BD11463046FC
:1056D000FFF7FCFE0028F7D000EB051393F8AE317E
:1056E0005B06F1D105F11B0100EB0111D1F8065069
:1056F000002DE9D0002229463046FFF7E7FE0028BA
:10570000E2D0B0F80B30B3F5007FDDD1037C022B83
:10571000DAD1C389002BD7D0417B21714B1E637135
:105720000023A37109260123994207D0013ECBD063
:10573000A2795B000132DBB2A271F5E7C18A01B93F
:10574000416A2161C3892B44A361B0F811202281F1
:1057500003EB41032362B0F81110490101F2FF117C
:1057600003EB51236361B0F8132002B9026AE91A0E
:10577000A3791144D9404B1CE36140F6F47399427C
:1057800002D80C23E3719FE74FF6F473994285BF6B
:10579000C36A236210232023E371012095E70000F0
:1057A00070B50E4E0D46144600F0F2FA3368C01A7A
:1057B0000B4B984208D900F0F3FA0A4B186000F03E
:1057C000CDFC00F0E5FA306000F0EAFA80B2401B50
:1057D000A042D4BF0020012070BD00BF08E7032015
:1057E000A0860100BCE7032038B5057A04464DB910
:1057F000406800F06BFA63682946187D02F0D5F81E
:105800000123237238BD10B5037A04466BB1436897
:105810000121187D02F0C9F86068FF2100F088FAC4
:10582000606800F067FA0023237210BDF8B50446E3
:105830000D46164600F0B4FA87B2606800F05DFAD3
:10584000FF2860720ED14FF47A7239462046FFF776
:10585000A7FF0028F1D0552320462370FFF7D3FF80
:105860000020F8BDFE2801D05023F5E760683246DD
:10587000294600F047FA607208B16023ECE76068DF
:1058800000F03BFA606800F038FA0120E9E770B5F3
:1058900004460E4600F084FA85B232462946204678
:1058A000FFF77EFF30B9606800F027FAFF28F4D1D7
:1058B000012070BD0020FCE7F7B5037A0192044691
:1058C0000D460BB9FFF790FF25B14FF496712046B6
:1058D000FFF7DDFF606845F0400100F029FA03267C
:1058E00001AFB95D606800F023FA013EF9D2002DE6
:1058F00060680CBF9521872100F01AFA606800F0FB
:10590000FCF90B25606800F0F8F90306607203D516
:10591000013D15F0FF05F5D103B0F0BD70B50446AB
:105920000D46164637210022FFF7C6FF32462946AC
:105930002046BDE87040FFF7BFBF00002DE9F041F1
:1059400000250572057085724160044690461E462A
:1059500000F026FA41460746606800F0BBF963682C
:10596000494A1D720125DA601D822046FFF73CFF7F
:1059700063682946187D02F018F80A256068FF213F
:10598000013D00F0D5F915F0FF05F7D16368294610
:10599000187D02F00AF80A25002211462046FFF77A
:1059A0008BFF0128804618D0013D15F0FF0507D177
:1059B000202320462370FFF726FF0020BDE8F0815A
:1059C0006068FD2100F0B4F94FF40278606800F0DF
:1059D00094F9B8F10108F9D1DEE74FF4D572082146
:1059E0002046FFF769FF052814D184F80A800025B6
:1059F000BFB22A4629212046FFF790FF0246D8B1C0
:105A00004FF4FA6239462046FFF7CAFE0028F0D06C
:105A10004323CEE70425606800F06FF9013D15F0DF
:105A2000FF056072F7D1AA2804D10223A3724FF0B8
:105A30008045DDE72523BCE7A37A022B18D13A2164
:105A40002046FFF739FF08B13723B2E7606800F05E
:105A500054F900F0C000C02804BF0323A37260689B
:105A600000F04BF9606800F048F9606800F045F913
:105A70002046FFF7C8FE63683079B168B2891A82A0
:105A80001872D960012099E790D0030038B5837A65
:105A9000032B18BF490215460A4611210446FFF799
:105AA0000BFF30B1302323702046FFF7ACFE0025FA
:105AB0000BE029464FF400722046FFF7B7FE05467B
:105AC0000028F1D02046FFF79EFE284638BD10B5CD
:105AD000837A032B0A4618BF4A0212210446FFF7B5
:105AE000EBFE30B1312320462370FFF78CFE0020FF
:105AF00010BD0120FCE710B500220C210446FFF781
:105B0000DBFE30B1282320462370FFF77CFE002007
:105B100010BD2046FFF777FE0120F9E7F8B50446EF
:105B200016461F46FFF7D3FF68B10025ABB29F4270
:105B300006EB452109D94FF400722046FFF776FEA7
:105B400001350028F2D10020F8BD2046BDE8F8401C
:105B5000FFF7D1BF38B504461546406800F0E8F8B5
:105B60004FF400726068294600F0E6F86068FF2193
:105B700000F0DEF86068FF2100F0DAF8606800F0FD
:105B8000BCF8607200F01F00052806D0572320469D
:105B90002370FFF738FE002038BD0120FCE770B508
:105BA000837A032B18BF490215460A46182104467A
:105BB000FFF782FE064630B1322323702046FFF7FE
:105BC00022FE00251FE02A46FE212046FFF7C2FFE5
:105BD0000028F3D04FF4FA612046FFF758FE05463F
:105BE00008B95A23E9E732460D212046FFF764FE43
:105BF00008B12923E1E7606800F07FF80028F8D1B8
:105C00002046FFF700FE284670BD13B501914FF402
:105C1000FA610446FFF73BFE019A30B95B2323701B
:105C20002046FFF7F0FD002005E0FC212046FFF7AD
:105C300091FF0028F4D002B010BD10B5837A032B79
:105C40000A4618BF4A0219210446FFF735FE30B153
:105C5000332320462370FFF7D6FD002010BD01201E
:105C6000FCE738B54FF4FA610446FFF710FE05462D
:105C700030B9562323702046FFF7C5FD284638BDAE
:105C80006068FD2100F054F8F5E7F8B504461646C3
:105C90001F46FFF7D2FF70B10025BD4206EB45213C
:105CA000204604D0FFF7B1FF28B10135F5E7BDE884
:105CB000F840FFF7D6BF2046FFF7A5FD0020F8BD4E
:105CC000014B01221A7070470CE70320011D006888
:105CD00001F0E8BA10B504460175006801F0B8FAA1
:105CE000207D012101F050FE207D0121BDE8104002
:105CF00001F05BBE006801F0BCBA0068FF2101F052
:105D00003FBB000037B51346074A00920025074CF9
:105D1000006825700A46294601F038FB2378002BDD
:105D2000FCD0002003B030BDC15C0D000CE70320A7
:105D3000006801F025BB000037B51346064A009203
:105D40000025064C006825702A4601F01FFB2378C9
:105D5000002BFCD003B030BDC15C0D000CE703206C
:105D600008B5024B1B685B6C019308BD4802030039
:105D700008B5024B1B689B6C019308BD48020300E9
:105D800008B5024B1B685B68019308BD180203004D
:105D900008B5024B1B681B69019308BD180203007C
:105DA00008B5024B1B685B69019308BD180203002C
:105DB00008B5024B1B689B6D019308BD18020300D8
:105DC00008B5024B1B685B6E019308BD1802030007
:105DD00008B5024B1B685B68019308BD2C020300E9
:105DE00008B5024B1B689B68019308BD2C02030099
:105DF00008B5024B1B68DB68019308BD2C02030049
:105E000008B5024B1B681B69019308BD2C020300F7
:105E100008B5024B1B681B6B019308BD2C020300E5
:105E200008B5024B1B689B69019308BD280203005B
:105E300008B5024B1B68DB69019308BD280203000B
:105E400008B5024B1B681B6A019308BD28020300BA
:105E500008B5024B1B685B6A019308BD280203006A
:105E600008B5024B1B689B6A019308BD280203001A
:105E700008B5024B1B68DB6A019308BD28020300CA
:105E800008B5024B1B681B6B019308BD2802030079
:105E900008B5024B1B685B6B019308BD2802030029
:105EA00008B5024B1B681B6C019308BD2802030058
:105EB00008B5024B1B689B6C019308BD28020300C8
:105EC00008B5024B1B68DB6C019308BD2802030078
:105ED00008B5024B1B681B6D019308BD2802030027
:105EE00008B5024B1B685B69019308BD640203009F
:105EF00008B5024B1B689B68019308BD680203004C
:105F000008B5024B1B68DB68019308BD68020300FB
:105F100008B5024B1B681B68019308BD30020300E3
:105F200008B5024B1B685B69019308BD3002030092
:105F300008B5024B1B68DB69019308BD3002030002
:105F400008B5024B1B681B6A019308BD30020300B1
:105F500008B5024B1B685B6A019308BD3002030061
:105F600008B5024B1B689B6A019308BD3002030011
:105F700008B5024B1B689B6B019308BD3002030000
:105F800008B5024B1B68DB6B019308BD30020300B0
:105F900008B5024B1B681B6C019308BD300203005F
:105FA00008B5024B1B685B6C019308BD300203000F
:105FB00008B5024B1B681B68019308BD3C02030037
:105FC00008B5024B1B68DB68019308BD3C02030067
:105FD00008B5024B1B681B69019308BD3C02030016
:105FE00008B5024B1B685B69019308BD3C020300C6
:105FF00008B5024B1B689B69019308BD3C02030076
:1060000008B5024B1B68DB69019308BD3C02030025
:1060100008B5024B1B681B6A019308BD3C020300D4
:1060200008B5024B1B689B6A019308BD3C02030044
:1060300008B5024B1B681B68019308BD4C020300A6
:1060400008B5024B1B685B68019308BD4C02030056
:1060500008B5024B1B681B69019308BD4C02030085
:1060600008B5024B1B685B69019308BD4C02030035
:1060700008B5024B1B689B69019308BD4C020300E5
:1060800008B5024B1B68DB69019308BD4C02030095
:1060900008B5024B1B681B6A019308BD4C02030044
:1060A00008B5024B1B681B6D019308BD600203001D
:1060B00008B5024B1B681B68019308BD2002030052
:1060C00008B5024B1B685B68019308BD2002030002
:1060D00008B5024B1B685B69019308BD20020300F1
:1060E00008B5024B1B68DB6A019308BD2002030060
:1060F00008B5024B1B68DB6C019308BD200203004E
:1061000008B5024B1B685B6D019308BD20020300BC
:1061100008B5024B1B689B6D019308BD200203006C
:1061200008B5034B1B68D3F88830019308BD000005
:106130002002030008B5034B1B68D3F89430019389
:1061400008BD00002002030008B5034B1B68D3F80C
:10615000AC30019308BD00002002030008B5024BDB
:106160001B689B68019308BD4402030008B5024BFD
:106170001B68DB68019308BD4402030008B5024BAD
:106180001B685B69019308BD4402030008B5024B1C
:106190001B681B6A019308BD4402030008B5024B4B
:1061A0001B681B6B019308BD4402030008B5024B3A
:1061B0001B68DB6B019308BD4402030008B5024B6A
:1061C0001B685B68019308BD4002030008B5024BE1
:1061D0001B689B68019308BD4002030008B5024B91
:1061E0001B68DB68019308BD4002030008B5024B41
:1061F0001B681B69019308BD4002030008B5024BF0
:106200001B685B69019308BD4002030008B5024B9F
:106210001B689B69019308BD4002030008B5024B4F
:106220001B68DB69019308BD4002030008B5024BFF
:106230001B681B6A019308BD4002030008B5024BAE
:106240001B681B6B019308BD4002030008B5024B9D
:106250001B685B6B019308BD4002030008B5024B4D
:106260001B681B6C019308BD4002030008B5024B7C
:106270001B685B6C019308BD4002030008B5024B2C
:106280001B681B68019308BD1C02030008B5024B84
:106290001B685B68019308BD1C02030008B5024B34
:1062A0001B68DB69019308BD1C02030008B5024BA3
:1062B0001B685B6A019308BD1C02030008B5024B12
:1062C0001B68DB6A019308BD1C02030008B5024B82
:1062D0001B681B6B019308BD1C02030008B5024B31
:1062E0001B685B6C019308BD1C0203000021FFF7D3
:1062F000EFBE10B5836804460BB901F012FCC36809
:106300009847A3681BB103222146204698472046A0
:106310001021BDE8104001F0FEBB10B50368044633
:106320009B689847A368013BA3602BB9236820466C
:10633000DB68BDE81040184710BD10B50446006882
:1063400008B1FFF715FD204610BD0B68036013B1BF
:106350005A6801325A60704710B50446006828B187
:106360004368013B43600BB9FFF7D7FF204610BDE0
:1063700010B5064C002320462360FFF7F1FC2046B1
:10638000034A0449BDE8104001F0C0BB10E70320F8
:1063900020E203203B630D00002240681146FFF716
:1063A00025BF002240681146FFF740BF0022406829
:1063B0001146FFF74BBF40680022FFF73FBF406820
:1063C000002281F00101FFF729BF002340681A462F
:1063D0001946FFF71BBF002340681A461946FFF70E
:1063E0000DBF002240681146FFF7F0BE4068002252
:1063F0000221FFF7F3BE002340681A46FFF7DEBE16
:10640000084B10B5282422461846002102F0BAF89D
:10641000054B04804FF0FF32426004225A60034A69
:106420001A6010BD1CE7032014E70320E0870D006D
:1064300070470020704710B51021044601F06BFB37
:10644000204610BD08B5FFF7F6FF08BD10B58368FC
:10645000044613B1032201469847204610BD30B5CB
:1064600000224FF69C74026084808D888C800C68BA
:10647000858004600A6030BD10B504460068FFF7EF
:1064800005FF204610BD38B5C468F4B12378022B4F
:1064900003D104F10C00FFF7EFFF656835B1284622
:1064A000FFF7D4FF1021284601F035FBA56835B170
:1064B0002846FFF7CBFF1021284601F02CFB204691
:1064C0001421BDE8384001F026BB38BD73B50E4637
:1064D000044656F8043B00930D4601A83146FFF7E9
:1064E00034FF019A009B6260236001A8002301939E
:1064F0000093FFF731FF3046FFF72EFF28460821B3
:1065000001F009FB204602B070BD13B50B460246F0
:10651000D0E900016C4684E8030093E8030082E8B8
:10652000030094E8030083E8030002B010BD826812
:1065300010B50AB901F0F5FABDE81040C368184774
:1065400008B5006800F11001FFF7F1FF08BD82688F
:1065500010B50AB901F0E5FABDE81040C368184764
:1065600008B5006800F11001FFF7F1FF08BD000059
:1065700038B500230446036010200D46FDF78BFD5F
:1065800028B10123C0E90133024B0360C5602060DC
:10659000204638BD1C880D0038B5002383608B6809
:1065A00004460D462BB102229847EB68E360AB68C6
:1065B000A360204638BD0000F0B589B00468684685
:1065C000FFF74DFF4FF00203D4E84F2F002A03D10D
:1065D000C4E8413F0029F7D125D104F10C056946F3
:1065E0002846FFF73CFFBFF35B8F01236370002059
:1065F00004F10803BFF35B8F53E8006F43E8000228
:10660000002AF9D1BFF35B8F6EB1FFF771FD78B14E
:1066100029463046FFF78BFF3046FFF717FF102162
:10662000304601F078FA6846FFF726FF09B0F0BD62
:10663000314602A8FFF7B0FFE068B4F9105008B186
:1066400001F0CCFF06901020ADF81C50FDF723FDA3
:106650000546E8B1002787601820FDF71CFD0446B9
:1066600088B10146876002A8FFF74FFF049BA2682C
:10667000A360059B049206A9E268E36004F11000A0
:106680000592FFF7ECFE084BEB60084B2C60AB600B
:1066900006A8FFF7F1FE02A8FFF7D8FE0022294660
:1066A0000348FFF72DFDB7E741650D00D9670D00E1
:1066B000F3620D002DE9F0478AB005469DF8489039
:1066C0000C4617469846FFF759FD07AE824638BB81
:1066D0004FF62E73059005A93046ADF81830FFF738
:1066E000BEFE1420FDF7D7FC044648B10223037018
:1066F0000123C0E901AA437031460C30FFF7AFFE19
:106700002846214640F8044BFFF732FF3046FFF79A
:10671000B3FE05A8FFF7B0FE28460AB0BDE8F08733
:106720000C234FF0000A1420CDE908AA0793FDF7C7
:10673000B2FC014628B1C0E901AA80F800A080F8A7
:1067400001A004A80391FFF713FF224B0893082030
:10675000FDF7A1FC824628B1039B40F8043B04A945
:10676000FFF7F3FD00965FFA89F34246394620466B
:10677000CDF824A0FFF70AFDB8B9039B5B7803F0BE
:10678000FF0293B94FF69C7305A903A80592ADF8D3
:106790001830FFF711FF05A8FFF76EFE05A809994D
:1067A000FFF794FE06A8FFF7D7FD039B059304A906
:1067B00006A8FFF7CAFD059B069A2B606A600023B6
:1067C00006A806930593FFF7C7FD04A8FFF7C4FDCD
:1067D000A2E700BF9D680D00022AF8B5054607D064
:1067E000032A18D0012A01D10B6803600020F8BDEC
:1067F00018200E68FDF74FFC044650B13146FFF7F4
:10680000CBFE3069B6F9147008B101F0E7FE2061E3
:10681000A7822C60EAE70468002CE7D004F110009E
:10682000FFF72AFE2046FFF711FE1821204601F04F
:1068300072F9DBE738B5002383608B6804460D46A8
:106840002BB102229847EB68E360AB68A360204657
:1068500038BD022A70B5044607D0032A12D0012A97
:1068600001D10B680360002070BD14200E68FDF795
:1068700012FC054620B13146FFF7DCFF337C2B7458
:106880002560F0E70468002CEDD02046FFF7DEFD20
:106890001421204601F03FF9E5E70000F0B589B08A
:1068A00004460D4601A81146FFF710FEA4B124B21C
:1068B0001DB1284601F092FE054601A803A90395E3
:1068C000ADF81040FFF778FE03A8FFF7D5FD02A84A
:1068D000FFF742FD09B0F0BD019D0123D5E84F2F20
:1068E000002A03D1C5E8413F0029F7D1EFD12B732E
:1068F000BFF35B8F6B702B1DBFF35B8F53E8006F93
:1069000043E80042002AF9D1BFF35B8F002EDED0AE
:106910002046FFF7EDFB074660B105F10C0130465C
:10692000FFF715FE3046FFF791FD1021304601F0CC
:10693000F2F8CCE7314603A8FFF77CFF2B7B8DF8FC
:106940001C301020FDF7A7FB0546D0B1876014204E
:10695000FDF7A1FB044678B18760014603A8FFF765
:10696000D4FD059BA268A360069B0592E268E360E4
:106970009DF81C3006922374064BEB60064B2C608E
:10698000AB6003A8FFF762FD002229460348FFF72A
:10699000B7FBC7E761650D0053680D00F3620D009A
:1069A000002240681146FFF741BC002240681146B2
:1069B000FFF74CBC40680022FFF740BC4068002253
:1069C00081F00101FFF72ABC002340681A461946EE
:1069D000FFF71CBC002340681A461946FFF70EBC9F
:1069E000002240681146FFF701BC002240681146B2
:1069F000FFF7ECBB406800220221FFF7EFBB00234A
:106A000040681A46FFF7DABB024B03225A60024A7B
:106A10001A60704744E7032038880D00090941EAED
:106A2000001107EE901AB8EEE70ADFED027A80EE69
:106A3000270A704700004844006800F016B910B5F6
:106A40000446016002710AB1FFF7F6FF204610BD4F
:106A500013B50446019101F031F8019A0146204630
:106A6000FFF7EDFF204602B010BD006800F006B948
:106A700010B5037904460BB1FFF7F7FF204610BDB0
:106A80002DE9FF4104460D4617461E46FFF7D4FF89
:106A900036238DF800300023206801934FF0010861
:106AA0000A23694603938DF8088000F0C2F8206835
:106AB000036829469B6898472068414600F0D1F852
:106AC000054640B16FF09F052046FFF7CEFF2846F0
:106AD00004B0BDE8F081022320680193694600F00C
:106AE00091F80228EED1206803685B6998473870F6
:106AF000206803685B6998473070E5E707B50023B5
:106B00008DF806308DF807300DF106020DF1070300
:106B10000221FFF7B5FF40B99DF807109DF8060068
:106B200003B05DF804EBFFF779BFBFEE000A03B0D6
:106B30005DF804FB07B500238DF806308DF80730AB
:106B40000DF106020DF107030421FFF799FFB0B91B
:106B50009DF8070001F03AF90A4B002201F0A0F974
:106B600001F096FC9DF8063000EE103A07EE900A10
:106B7000B8EEC00A37EE800A03B05DF804FBBFEE42
:106B8000000AF9E70000703F7047F8B50646154661
:106B90000C468F18BC4206D0336814F8011B9B6862
:106BA00030469847F6E72846F8BD007C0022FFF7FC
:106BB00047B9007C0021FFF74BB9007C0021FFF7AB
:106BC0004FB9007C0021FFF753B9007C0021FFF78B
:106BD00057B910B51421044600F09DFF204610BDA2
:106BE00010B54FF47A73044608460021C4E9011336
:106BF000034B236020741146FFF752F9204610BD65
:106C000074880D007FB500221423CDE90122ADF870
:106C100004300B788DF808304B680393CB680493ED
:106C2000007C0B7A059301A9FFF752F907B05DF8D4
:106C300004FB7FB50023CDE901334A680392142396
:106C4000CA68ADF804300B7804920A7A0592007C89
:106C50008DF8083001AA1946FFF7E2F807B05DF891
:106C600004FB007C0022FFF7E3B808B50021007C9C
:106C7000FFF71EF9B0FA80F0400908BD08B5002101
:106C8000007CFFF71DF9B0FA80F0400908BD70479D
:106C900010B51821044600F03EFF204610BDF0B5A7
:106CA000037D062B8DB00E4600F104074FF0000463
:106CB00012D000F1080515F8011D0A22304600F037
:106CC00062F9AF42044419D0002CF4D02E21304692
:106CD00000F040F90444EEE72F236A4639460A20C3
:106CE0008DF80040FFF7FCF8684601F094FC33682B
:106CF0000246DB68694630469847044620460DB098
:106D0000F0BD000010B5054B0446112240F8043BCD
:106D1000002101F037FC204610BD00BF9C880D000B
:106D20000346074A10B543F8042B01F1100251F84D
:106D3000044B43F8044B9142F9D10A781A7010BD04
:106D40009C880D0010B59DF8084044EA032343EAEF
:106D5000024242EA016104234160037510BD13B58C
:106D6000CB7800938B784A780978FFF7EBFF02B075
:106D700010BD0000014B024A1A6070474CE7032027
:106D8000A8880D00002340681A46FFF717BA40682C
:106D900000220221FFF722BA002240681146FFF7C5
:106DA00015BA002240681146FFF720BA0023406858
:106DB0001A461946FFF722BA002340681A461946B8
:106DC000FFF724BA40680021FFF748BA4068002165
:106DD000FFF74CBA4068002281F00101FFF71EBAAC
:106DE00040680022FFF72ABA002240681146FFF7E8
:106DF0002DBA002240681146FFF718BA2DE9F0437A
:106E0000002495B016460D460746FFF77BFF214646
:106E100018220EA8009401F0B5FB4023CDE90C34F4
:106E200021466B460CAA3046FFF76AF80446002854
:106E300046D1024601216868FFF7D8F90221804651
:106E400022466868FFF7D2F9009E81462146002E4F
:106E500036D0002934D17368022B03D00A2B0BD013
:106E6000F669F4E7B8F1000F04D0716938460431CF
:106E7000FFF775FF4146F3E7B9F1000F01D149462D
:106E8000EEE77469102201A801F07CFB06238DF85F
:106E9000143001AD04F108031834186859682A4603
:106EA00003C20833A3421546F7D101A906A807ADCE
:106EB000FFF736FF0FCD3C1D0FC42B682370DEE7B4
:106EC0000098FFF715F8384615B0BDE8F0830000CC
:106ED000024B034A1A6000225A60704750E70320B1
:106EE000B4880D0008B500F0E9FDBDE80840FFF7E3
:106EF000BCBE10B50446017009B1FFF7F3FF204690
:106F000010BD08B500F0DAFDBDE80840FFF7B6BED9
:106F100010B5037804460BB1FFF7F3FF204610BD10
:106F2000F8B506460D468F180024BD420CD03368D4
:106F300015F8011B9B6830469847031E01DB1C4473
:106F4000F3E7002C08BF1C462046F8BD08B5FEF745
:106F500083FA08BD03689B68184738B50D210546BC
:106F6000FFF7F8FF0A2104462846FFF7F3FF204405
:106F700038BD38B50546FEF76FFA04462846FFF7D8
:106F8000ECFF204438BD30B58BB000238DF82430A1
:106F9000012A98BF0A2209AC0D46B1FBF2F101FBB0
:106FA000125303F0FF03092B94BF30333733DBB2A6
:106FB000AA4204F8013DEFD92146FEF74DFA0BB085
:106FC00030BD00002DE9F74F55EC104B06460F463B
:106FD00010EE102A10EE100A2B46294601F0FAF99D
:106FE00040B153493046FEF737FA8246504603B067
:106FF000BDE8F08F25F000494E4B4FF0FF322046A0
:10700000494601F0E7F948B94A4B4FF0FF322046B4
:10701000494601F0C1F908B94749E3E7474B4FF04A
:1070200060422046294601F0CBF908B14449D9E72E
:10703000444B4FF060422046294601F0A3F9002856
:10704000F4D1002200232046294601F09BF9D0B15B
:107050002D213046FFF77EFF05F1004382461D4695
:107060003949DFF8EC904FF0000B00204FF000089A
:107070005FFA8BF39F4208D942464B4601F03AF83B
:107080000BF1010BF4E78246EAE722462B4600F0BB
:1070900051FD0D46044601F0DBF9804600F086FE06
:1070A00002460B462046294600F042FD0A220446CD
:1070B0000D4630464146FFF766FF824427B123491B
:1070C0003046FEF7C9F98244DFF884904FF000089B
:1070D000013FFFB2FF2F89D042464B46204629464A
:1070E00000F0DEFE04460D4601F08AF9B0F1000B17
:1070F0001ADA2D213046FFF72DFFCBF100010346B0
:107100000A2230460193FFF73EFF019B1844824458
:10711000584600F05BFE02460B462046294600F02A
:1071200007FD04460D46D3E759460023E8E700BFB4
:10713000E8880D00FFFFEF7FEC880D00FFFFEF41B7
:10714000F0880D00FFFFEFC10000E03F28890D002F
:107150000000244038B5044610EE100ACDB200F00D
:1071600047FE41EC100B29462046BDE83840FFF7AA
:1071700029BF38B5C9B20546FFF724FF04462846A3
:10718000FFF7EBFE204438BD38B5044610EE100A78
:107190000D4600F02DFE41EC100B29462046BDE8BF
:1071A0003840FFF7E6BF2DE9F04186B000AF054655
:1071B0000E46381D142114463B60FFF777F813285C
:1071C0000ED8391D2846FEF747F904461EB1284659
:1071D000FFF7C3FE044420461837BD46BDE8F081E2
:1071E00000F1080323F00703E846ADEB030D224648
:1071F000411C3B686846FFF759F869462846FEF788
:107200002BF90446C546E1E710B50446FFF71EF921
:10721000204610BD0348044A04490023836000F05F
:1072200075BC00BF58E7032020E2032009720D005F
:107230000021FEF7ADBE0021FEF7B2BE10B5044638
:1072400008462170FEF774FE00236360204610BDDF
:1072500010B504460078FFF7EBFF48B920784FF6E9
:10726000FF71FEF755FE2078BDE81040FFF7E3BF41
:1072700010BD0078FFF7DFBF400830B5186000246C
:1072800018688842E5B206D90134082C02D04008BB
:107290001860F5E70725024B5B5D137030BD00BF3A
:1072A000F4880D002DE9F04306468FB000780C46B7
:1072B000FFF7BEFF00281BDB35781422002109A848
:1072C00001F060F90B23002209A92846ADF824300B
:1072D000FEF73EFE9DF82D3013B19DF82C5055B1B0
:1072E0000027B946B846012523795DB1C3B1002016
:1072F0000FB0BDE8F083DDF830809DF834909DF844
:107300003570F1E7002B35D1A368434508D18DF8DE
:1073100020908DF82170BDF82020A3899A42E6D0F4
:107320000023A1688DF80F300A9804AB0DF10F020D
:10733000FFF7A2FF217985B989B9A36843450ED328
:107340008DF820908DF82170BDF82020A3899A42F5
:1073500005D1049B434502D1C9E70029F9D1002397
:107360000193637B00939DF80F20237B3078FEF719
:1073700007FEBCE7CDE900552B462A460121F5E77B
:1073800008B50078FEF7CCFDC0B208BD30B587B0B7
:1073900004460A9D00950078FEF7E2FD3DB920788D
:1073A00002A9FEF7E5FD9DF81430DB07F7D407B01E
:1073B00030BD10B50446006818B1FEF767FF002322
:1073C000236010BD38B5B1F9043083800B460D46FB
:1073D00053F8062FC0F806209B8843810446FFF728
:1073E000E8FF2B6813B1236000232B60204638BDD3
:1073F00038B50C460546FFF7DCFF44B12088FEF7A0
:107400003DFF286028B12288214601F0ADF8002018
:1074100038BD0148FCE700BFFCFEFFFFF0B52D4D75
:107420000B7D04468BB00846AF1D002B38D00B688F
:107430001B79002B34D00022274B049302A904307F
:107440000292ADF80C208DF80E20FEF77DFEDDF8DF
:107450000E30C5F8063000B2BDF81230ADF80C00A1
:10746000A8800299BB802846FFF7C2FF02A8FFF759
:10747000A0FF00232360A380A37123814FF6FF7335
:107480006381B5F90430A3803B68C4F80630BB883B
:10749000296863812046FFF7ABFF20460BB0F0BDA3
:1074A00000262023CDE902360C4B00930C493346CD
:1074B00002AA3220FEF7F4FD074B049302A94FF60F
:1074C000F263044802968DF80E60ADF80C30FFF7B9
:1074D00079FFCBE768E703200000FFFF03890D0079
:1074E000FC880D0010B5094B094C022200201A60DF
:1074F000084B2060A080A071A360FEF7E1FD20464C
:10750000054A0649BDE8104000F000BB74E70320BF
:1075100068E703200000FFFF20E2032051410D0037
:1075200008B50020FEF73AFE28B1FEF727FE80F0EE
:107530000100C0B208BD0120FCE710B50020FEF735
:1075400037FC0446A0B9FEF7B3FD012810D1204650
:10755000FEF7DEFD60B9FFF7E3FF10B9FEF7FEFDB1
:10756000F9E7FFF7DDFFBDE810400020FEF720BC83
:10757000204610BD1FB5FFF7E0FF1022002168462E
:1075800001F000F800216846FEF71AFC009805B0EB
:107590005DF804FB024B1A68024B1A60704700BF8B
:1075A000B8E1032078E7032070474174704708B5BD
:1075B000007CFEF735FD20EAE07008BD08B5007CD0
:1075C000FEF706FD20EAE07008BD08B5007CFEF776
:1075D0000FFD40EAE07008BD08B5007CFEF700FD35
:1075E00040EAE07008BD007CFEF70ABD37B5457C77
:1075F00004462DB1207C03B0BDE83040FEF7E0BC6E
:10760000007C0191FEF70CFD00280199F2DC284670
:1076100003B030BD10B51421044600F07CFA2046BA
:1076200010BD000010B54FF0000C0446084611468E
:107630004FF47A72C4E901C2044A22600122207424
:1076400062741A46FEF7B4FC204610BD50890D0046
:10765000F7B51B4C26684EB98420FCF71CFD054687
:1076600018B18422314600F08DFF2560154D2F683A
:107670004FB98420FCF70FFD064618B18422394625
:1076800000F080FF2E60104E3178BFF35B8F11F059
:10769000010112D130460191FCF703FD019960B15F
:1076A00022682B680948FFF7BDFF3046FCF7FEFC57
:1076B000074A0849054800F029FA044803B0F0BD1C
:1076C00080E7032084E703207CE7032088E703208A
:1076D00020E20320A9750D0041747047704708B57A
:1076E0000021007CFEF7C4FC40EAE07008BD08B54C
:1076F0000121007CFEF7BCFC40EAE07008BD08B543
:10770000007CFEF7ADFC20EAE07008BD08B5007C07
:10771000FEF79EFC20EAE07008BD13B50446007C2D
:107720000191FEF79DFC0028019901DC607C20B1ED
:10773000207CFEF7A5FC20EAE07002B010BD007CC2
:10774000FEF7A6BC10B51421044600F0E4F920466B
:1077500010BD000010B54FF47A73044608460021AE
:10776000C4E90113044B23600123207463741146A0
:10777000FEF75EFC204610BD80890D00007C0022D3
:10778000FEF75EBC10B514220446002100F0FAFE9C
:10779000204610BD10B5104C88B003A8FFF7F2FFCB
:1077A0002178BFF35B8F11F0010111D120460191C7
:1077B000FCF777FC019958B103AA0848FFF7CAFF04
:1077C0002046FCF773FC064A0649044800F09EF97F
:1077D000024808B010BD00BF9CE70320A0E70320CB
:1077E00020E20320DD760D00014B1860704700BFDA
:1077F000BCE1032008B50B4B43B1FFF7CBFF036897
:107800001B699847002801DDAFF30080064B43B1A8
:10781000FFF71EFF03681B699847002801DDAFF3DF
:10782000008008BD000000000000000008B5FFF760
:10783000E1FFFEF7B5FA014B186008BDBCE7032075
:107840000248034A0349121A00F08EBE00F40320D6
:1078500004F40320D0890D0007B5002300931A46D5
:107860006FF07701FEF766FC03B05DF804FB0000E3
:1078700007B543880A2B08D0502B0BD1094B1B6846
:107880004BB103B05DF804EB1847FFF7E5FF03B019
:107890005DF804FB002300931A466FF07701FEF7B2
:1078A00049FCF4E7B8E7032038B5124C1248134DF1
:1078B0000021FEF713FD2368AB42114B0CBF0122E0
:1078C00000221A7002D0FFF7BBFF2560FEF758FABE
:1078D000044600F05FFE0B4B13B12046AFF300806F
:1078E00000210848FEF762FCBDE838400648002148
:1078F000FEF716BC00F40320E9770D001E1C279A42
:10790000B4E703200000000071780D00232813B5B0
:1079100002D9002002B010BDA0F10B03022B1AD82F
:10792000174C2178BFF35B8F11F001010BD120467A
:107930000191FCF7B6FB019928B11248FFF77EFCD4
:107940002046FCF7B3FB0F4B1878FEF7F9FA002836
:10795000DFD10120DEE7012809D800F087F80021F7
:10796000007CFEF795FA80F00100C0B2D2E709383A
:107970000128EED8FFF76CFE007CFEF749FBF2E72A
:1079800024E2032028E20320232838B504460D46CC
:107990000AD8FF2908D0FFF7B9FF28B129462046A9
:1079A000BDE83840FEF71CBA38BD38B504460D4670
:1079B000FEF71EFAFF2810D0062804D84D2323FA1C
:1079C00000F0C30709D42046FFF7A0FF28B12946DD
:1079D0002046BDE83840FEF713BA38BD0D2810B573
:1079E00004469CBF0E34A4B22046FFF78FFF50B16F
:1079F00003212046FEF7ECF9032804D12046BDE818
:107A00001040FEF705BA002010BD000038B5002375
:107A100020254380142304460380856005610649C0
:107A2000284600F07CF804496060284600F077F8AA
:107A3000E060204638BD00BFA8890D0038B500239E
:107A40002025438014230446038085600561064990
:107A5000284600F064F804496060284600F05FF8AA
:107A6000E060204638BD00BFA8890D0030B50F4D3D
:107A70002978BFF35B8F11F0010487B013D128463A
:107A8000FCF70FFB78B101A8FFF7C0FF01AA214660
:107A90000748FFF7A5F82846FCF708FB054A064902
:107AA000034800F033F8024807B030BDC0E70320B8
:107AB000C8E7032020E20320896B0D0010B50F4CAE
:107AC0002378BFF35B8FDB0786B013D42046FCF727
:107AD000E8FA78B101A8FFF7B1FF01AA012108482F
:107AE000FFF77EF82046FCF7E1FA064A064904480B
:107AF00000F00CF8024806B010BD00BFC4E7032038
:107B0000DCE7032020E20320896B0D000B460146D1
:107B1000184600F00DBDFCF7C2BAFCF7BCBAFCF782
:107B2000BCBA08B5FEF7CAFB81F0004102E000BF15
:107B300083F0004330B54FEA41044FEA430594EA2D
:107B4000050F08BF90EA020F1FBF54EA000C55EA68
:107B5000020C7FEA645C7FEA655C00F0E2804FEA39
:107B60005454D4EB5555B8BF6D420CDD2C4480EA1B
:107B7000020281EA030382EA000083EA010180EA4B
:107B8000020281EA0303362D88BF30BD11F0004F99
:107B90004FEA01314FF4801C4CEA113102D04042CF
:107BA00061EB410113F0004F4FEA03334CEA13330A
:107BB00002D0524263EB430394EA050F00F0A78022
:107BC000A4F10104D5F1200E0DDB02FA0EFC22FA1D
:107BD00005F2801841F1000103FA0EF2801843FA11
:107BE00005F359410EE0A5F120050EF1200E012A02
:107BF00003FA0EFC28BF4CF0020C43FA05F3C01840
:107C000051EBE37101F0004507D54FF0000EDCF1B8
:107C1000000C7EEB00006EEB0101B1F5801F1BD361
:107C2000B1F5001F0CD349085FEA30004FEA3C0C65
:107C300004F101044FEA445212F5800F80F09A805B
:107C4000BCF1004F08BF5FEA500C50F1000041EB5F
:107C5000045141EA050130BD5FEA4C0C404141EB63
:107C60000101013C28BFB1F5801FE9D291F0000F5E
:107C700004BF01460020B1FA81F308BF2033A3F10D
:107C80000B03B3F120020CDA0C3208DD02F1140C04
:107C9000C2F10C0201FA0CF021FA02F10CE002F13F
:107CA0001402D8BFC2F1200C01FA02F120FA0CFC38
:107CB000DCBF41EA0C019040E41AA2BF01EB045181
:107CC000294330BD6FEA04041F3C1CDA0C340EDC7F
:107CD00004F11404C4F1200220FA04F001FA02F3C2
:107CE00040EA030021FA04F345EA030130BDC4F180
:107CF0000C04C4F1200220FA02F001FA04F340EA75
:107D00000300294630BD21FA04F0294630BD94F025
:107D1000000F83F4801306BF81F480110134013D0C
:107D20004EE77FEA645C18BF7FEA655C29D094EA7D
:107D3000050F08BF90EA020F05D054EA000C04BFFB
:107D40001946104630BD91EA030F1EBF00210020E6
:107D500030BD5FEA545C05D14000494128BF41F085
:107D6000004130BD14F580043CBF01F5801130BDE9
:107D700001F0004545F0FE4141F470014FF0000074
:107D800030BD7FEA645C1ABF194610467FEA655C25
:107D90001CBF0B46024650EA013406BF52EA0335C7
:107DA00091EA030F41F4002130BD00BF90F0000FB5
:107DB00004BF0021704730B54FF4806404F13204F1
:107DC0004FF000054FF0000150E700BF90F0000FAA
:107DD00004BF0021704730B54FF4806404F13204D1
:107DE00010F0004548BF40424FF000013EE700BFA1
:107DF00042004FEAE2014FEA31014FEA02701FBF31
:107E000012F07F4393F07F4F81F06051704732F062
:107E10007F4208BF704793F07F4F04BF41F40021B9
:107E2000704730B54FF4607401F0004521F0004117
:107E30001CE700BF50EA010208BF704730B54FF0A1
:107E400000050AE050EA010208BF704730B511F0A2
:107E5000004502D5404261EB41014FF4806404F1DA
:107E600032045FEA915C3FF4D8AE4FF003025FEA60
:107E7000DC0C18BF03325FEADC0C18BF033202EBE4
:107E8000DC02C2F1200300FA03FC20FA02F001FA3E
:107E900003FE40EA0E0021FA02F11444BDE600BFE1
:107EA00070B54FF0FF0C4CF4E06C1CEA11541DBF90
:107EB0001CEA135594EA0C0F95EA0C0F00F0DEF85B
:107EC0002C4481EA030621EA4C5123EA4C5350EA40
:107ED000013518BF52EA033541F4801143F4801391
:107EE00038D0A0FB02CE4FF00005E1FB02E506F022
:107EF0000042E0FB03E54FF00006E1FB03569CF077
:107F0000000F18BF4EF0010EA4F1FF04B6F5007F7C
:107F100064F5407404D25FEA4E0E6D4146EB0606EE
:107F200042EAC62141EA55514FEAC52040EA5E5077
:107F30004FEACE2EB4F1FD0C88BFBCF5E06F1ED821
:107F4000BEF1004F08BF5FEA500E50F1000041EB58
:107F5000045170BD06F0004646EA010140EA020005
:107F600081EA0301B4EB5C04C2BFD4EB0C0541EA27
:107F7000045170BD41F480114FF0000E013C00F33C
:107F8000AB8014F1360FDEBF002001F0004170BD60
:107F9000C4F10004203C35DA0C341BDC04F1140479
:107FA000C4F1200500FA05F320FA04F001FA05F205
:107FB00040EA020001F0004221F0004110EBD370D2
:107FC00021FA04F642EB06015EEA430E08BF20EAFE
:107FD000D37070BDC4F10C04C4F1200500FA04F3A1
:107FE00020FA05F001FA04F240EA020001F0004133
:107FF00010EBD37041F100015EEA430E08BF20EAA6
:10800000D37070BDC4F1200500FA05F24EEA020EED
:1080100020FA04F301FA05F243EA020321FA04F01C
:1080200001F0004121FA04F220EA020000EBD370D3
:108030005EEA430E08BF20EAD37070BD94F0000FD3
:108040000FD101F00046400041EB010111F4801F07
:1080500008BF013CF7D041EA060195F0000F18BFB8
:10806000704703F00046520043EB030313F4801FF4
:1080700008BF013DF7D043EA0603704794EA0C0FAE
:108080000CEA135518BF95EA0C0F0CD050EA4106C4
:1080900018BF52EA4306D1D181EA030101F0004141
:1080A0004FF0000070BD50EA410606BF1046194669
:1080B00052EA430619D094EA0C0F02D150EA013675
:1080C00013D195EA0C0F05D152EA03361CBF1046B6
:1080D00019460AD181EA030101F0004141F0FE4155
:1080E00041F470014FF0000070BD41F0FE4141F4D9
:1080F000780170BD70B54FF0FF0C4CF4E06C1CEAD9
:1081000011541DBF1CEA135594EA0C0F95EA0C0F8D
:1081100000F0A7F8A4EB050481EA030E52EA033548
:108120004FEA013100F088804FEA03334FF0805569
:1081300045EA131343EA12634FEA022245EA111596
:1081400045EA10654FEA00260EF000419D4208BF47
:10815000964244F1FD0404F5407402D25B084FEAF4
:108160003202B61A65EB03055B084FEA32024FF4A0
:1081700080104FF4002CB6EB020E75EB030E22BFFD
:10818000B61A754640EA0C005B084FEA3202B6EBBD
:10819000020E75EB030E22BFB61A754640EA5C006C
:1081A0005B084FEA3202B6EB020E75EB030E22BFFC
:1081B000B61A754640EA9C005B084FEA3202B6EBFD
:1081C000020E75EB030E22BFB61A754640EADC00BC
:1081D00055EA060E18D04FEA051545EA16754FEA1E
:1081E00006164FEAC30343EA52734FEAC2025FEA3C
:1081F0001C1CC0D111F4801F0BD141EA00014FF0CB
:1082000000004FF0004CB6E711F4801F04BF01439B
:108210000020B4F1FD0C88BFBCF5E06F3FF6AFAEB7
:10822000B5EB030C04BFB6EB020C5FEA500C50F147
:10823000000041EB045170BD0EF0004E4EEA1131CA
:1082400014EB5C04C2BFD4EB0C0541EA045170BDD1
:1082500041F480114FF0000E013C90E645EA060E15
:108260008DE60CEA135594EA0C0F08BF95EA0C0F43
:108270003FF43BAF94EA0C0F0AD150EA01347FF48B
:1082800034AF95EA0C0F7FF425AF104619462CE762
:1082900095EA0C0F06D152EA03353FF4FDAE1046C5
:1082A000194622E750EA410618BF52EA43067FF416
:1082B000C5AE50EA41047FF40DAF52EA43057FF4A6
:1082C000EBAE12E74FF0FF3C06E000BF4FF0010CB1
:1082D00002E000BF4FF0010C4DF804CD4FEA410C15
:1082E0007FEA6C5C4FEA430C18BF7FEA6C5C1BD0E2
:1082F00001B050EA410C0CBF52EA430C91EA030F63
:1083000002BF90EA020F0020704710F1000F91EABF
:10831000030F58BF994208BF90422CBFD8176FEA8D
:10832000E37040F0010070474FEA410C7FEA6C5C5B
:1083300002D150EA013C07D14FEA430C7FEA6C5C62
:10834000D6D152EA033CD3D05DF8040B704700BF8E
:108350008446104662468C461946634600E000BFDC
:1083600001B5FFF7B7FF002848BF10F1000F01BDAE
:108370004DF808EDFFF7F4FF0CBF012000205DF879
:1083800008FB00BF4DF808EDFFF7EAFF34BF0120FE
:1083900000205DF808FB00BF4DF808EDFFF7E0FF97
:1083A00094BF012000205DF808FB00BF4DF808EDE8
:1083B000FFF7CEFF94BF012000205DF808FB00BF4F
:1083C0004DF808EDFFF7C4FF34BF012000205DF831
:1083D00008FB00BF4FEA410C7FEA6C5C02D150EA17
:1083E000013C0AD14FEA430C7FEA6C5C02D152EAAD
:1083F000033C02D14FF0000070474FF0010070477E
:108400004FEA410212F5001215D211D56FF47873BC
:10841000B3EB625212D94FEAC12343F0004343EA5F
:10842000505311F0004F23FA02F018BF404270473A
:108430004FF00000704750EA013005D111F00040C4
:1084400008BF6FF0004070474FF00000704700BF5A
:108450004A0011D212F5001211D20DD56FF47873C3
:10846000B3EB62520ED44FEAC12343F0004343EA18
:10847000505323FA02F070474FF00000704750EA63
:10848000013002D14FF0FF3070474FF000007047CD
:108490004FEA4102B2F1E04324BFB3F5001CDCF126
:1084A000FE5C0DD901F0004C4FEAC0024CEA50705E
:1084B000B2F1004F40EB830008BF20F0010070478D
:1084C00011F0804F21D113F13872BCBF01F0004090
:1084D000704741F480114FEA5252C2F11802C2F1C2
:1084E000200C10FA0CF320FA02F018BF40F0010043
:1084F0004FEAC1234FEAD32303FA0CFC40EA0C00F5
:1085000023FA02F34FEA4303CCE77FEA625307D131
:1085100050EA01331EBF4FF0FE4040F44000704768
:1085200001F0004040F0FE4040F40000704700BF02
:1085300010B5054C13462CB10A4601460220AFF394
:10854000008010BD2046FCE70000000030B5013976
:108550000024A24201D1002005E0035D01340D5D3D
:10856000AB42F6D0581B30BD0A44914200F1FF33B4
:1085700000D1704710B511F8014B03F8014F91423B
:10858000F9D110BD02440346934200D1704703F86D
:10859000011BF9E738B50D4B1D68AB6B04467BB981
:1085A0001820FDF76BFE0A4A0A4BA863C0E90023B6
:1085B000094B83600B23838101220023C0E904233C
:1085C000AB6B00221C615A6138BD00BFBCE10320C7
:1085D0000E33CDAB34126DE6ECDE0500024B0146E6
:1085E000186800F003B800BFBCE1032037B50446AB
:1085F00008460D4600F00FF8421C11462046019235
:10860000FDF764FE044618B1019A2946FFF7ACFF56
:10861000204603B030BD034613F8012B002AFBD1DE
:10862000181A01387047000021400D005D400D0010
:1086300085400D0089400D00000000006465666102
:10864000756C7420004D5342004C5342003C535013
:108650004953657474696E67732064656661756CEF
:10866000743E003C53504953657474696E677320BF
:1086700025732575202573204D4F444525753E00F3
:108680004D6178626F746978205465737400646911
:108690007374616E63652E747874006661696C65CD
:1086A0006420746F206F70656E2063617264006F68
:1086B00070656E696E6720746573742E74787420AB
:1086C000666F72207772697465206661696C656493
:1086D000002C00547279696E6720746F20636F6E8E
:1086E0006E65637400256C692C252E35662C252E4D
:1086F0003032662C252E303266007075626C6973DC
:1087000068696E672064617461006D6178207469C6
:108710006D6520666F72207075626C697368696E32
:1087200067207265616368656420776974686F7536
:108730007420737563636573733B20676F20746F78
:1087400020736C656570004E6F74206D61782074C5
:10875000696D652C2074727920616761696E20747F
:108760006F207075626C69736800676F696E67204F
:10877000746F20736C656570004665656C696E6723
:1087800020726573746C6573730000000000000054
:10879000000000007D410D00B3400D001D410D00A3
:1087A0000000000000000000CF400D0043410D001C
:1087B00005410D00FF400D00B5400D00DF400D00EC
:1087C000D9400D00D3400D005365614C6576656C52
:1087D0005F42546F776E0000000000000000000050
:1087E000F7630D00ED630D00E3630D0099630D0069
:1087F000D7630D00CB630D00C56D0D00CD6D0D0071
:10880000BF630D00B7630D00AD630D00A3630D00E2
:10881000FD6D0D00000000000000000031640D003F
:1088200037640D0087640D0045640D0033640D004E
:108830000000000000000000FF690D00F5690D0058
:10884000EB690D00E1690D00D5690D00C9690D00E6
:10885000C56D0D00CD6D0D00BD690D00B5690D0034
:10886000AB690D00A1690D00FD6D0D000000000059
:1088700000000000896B0D00D36B0D00AB6B0D0089
:108880008B6B0D00B36B0D00BB6B0D00C36B0D004C
:10889000CB6B0D0000000000000000009F6C0D007D
:1088A0008F6C0D00916C0D00617070000000000075
:1088B00000000000856D0D008F6D0D00996D0D009D
:1088C000A36D0D00AD6D0D00B96D0D00C56D0D00F2
:1088D000CD6D0D00D56D0D00E16D0D00E96D0D0044
:1088E000F36D0D00FD6D0D006E616E00696E66002A
:1088F0006F76660000081018202830387769726992
:108900006E670053797374656D20736C65657020B4
:10891000636F6E66696775726174696F6E206973E3
:1089200020696E76616C69642E0025592D256D2DA8
:1089300025645425483A254D3A2553257A0061731C
:108940006374696D65000000000000000000000015
:10895000A9750D0015760D00ED750D00216F0D0048
:10896000BD750D00D9750D00CB750D00E7750D00B7
:10897000AB750D00AF750D00000000000000000099
:10898000DD760D0045770D001B770D00216F0D0082
:108990000D770D00DF760D00EF760D003F770D00AF
:1089A000FF760D00D9760D000000000065460D0031
:1089B00071630D0001640D00096A0D00756D0D00F5
:1089C000D16E0D0015720D00E5740D0095750D004A
:0489D00000000000A3
:1089D40013000000C8870D003E890D00C0E103208C
:1089E4000000000000000000000000000000000083
:1089F4000000000000000000000000000000000073
:108A04000000000000000000000000000000000062
:108A14000000000000000000000000000000000052
:108A24000000000000000000000000000000000042
:108A34000000000000000000000000000000000032
:108A4400FFFFFFFF00000102030405060708090AEF
:108A54000B0C0D0E0F101112131415161718191AEA
:088A64001B1C1D1E1F20280031
:048A6C0078563412F2
:04000003D0004020C9
:00000001FF
